{
  "contractName": "UserDb",
  "abi": [
    {
      "inputs": [],
      "stateMutability": "nonpayable",
      "type": "constructor"
    },
    {
      "anonymous": false,
      "inputs": [
        {
          "indexed": true,
          "internalType": "address",
          "name": "previousOwner",
          "type": "address"
        },
        {
          "indexed": true,
          "internalType": "address",
          "name": "newOwner",
          "type": "address"
        }
      ],
      "name": "OwnershipTransferred",
      "type": "event"
    },
    {
      "anonymous": false,
      "inputs": [
        {
          "indexed": true,
          "internalType": "bytes32",
          "name": "role",
          "type": "bytes32"
        },
        {
          "indexed": true,
          "internalType": "bytes32",
          "name": "previousAdminRole",
          "type": "bytes32"
        },
        {
          "indexed": true,
          "internalType": "bytes32",
          "name": "newAdminRole",
          "type": "bytes32"
        }
      ],
      "name": "RoleAdminChanged",
      "type": "event"
    },
    {
      "anonymous": false,
      "inputs": [
        {
          "indexed": true,
          "internalType": "bytes32",
          "name": "role",
          "type": "bytes32"
        },
        {
          "indexed": true,
          "internalType": "address",
          "name": "account",
          "type": "address"
        },
        {
          "indexed": true,
          "internalType": "address",
          "name": "sender",
          "type": "address"
        }
      ],
      "name": "RoleGranted",
      "type": "event"
    },
    {
      "anonymous": false,
      "inputs": [
        {
          "indexed": true,
          "internalType": "bytes32",
          "name": "role",
          "type": "bytes32"
        },
        {
          "indexed": true,
          "internalType": "address",
          "name": "account",
          "type": "address"
        },
        {
          "indexed": true,
          "internalType": "address",
          "name": "sender",
          "type": "address"
        }
      ],
      "name": "RoleRevoked",
      "type": "event"
    },
    {
      "inputs": [],
      "name": "DEFAULT_ADMIN_ROLE",
      "outputs": [
        {
          "internalType": "bytes32",
          "name": "",
          "type": "bytes32"
        }
      ],
      "stateMutability": "view",
      "type": "function",
      "constant": true
    },
    {
      "inputs": [],
      "name": "UPDATER_ROLE",
      "outputs": [
        {
          "internalType": "bytes32",
          "name": "",
          "type": "bytes32"
        }
      ],
      "stateMutability": "view",
      "type": "function",
      "constant": true
    },
    {
      "inputs": [
        {
          "internalType": "address",
          "name": "",
          "type": "address"
        }
      ],
      "name": "_account",
      "outputs": [
        {
          "internalType": "string",
          "name": "accountCid",
          "type": "string"
        },
        {
          "internalType": "string",
          "name": "pictureCid",
          "type": "string"
        },
        {
          "internalType": "address",
          "name": "userId",
          "type": "address"
        }
      ],
      "stateMutability": "view",
      "type": "function",
      "constant": true
    },
    {
      "inputs": [],
      "name": "currentEntry",
      "outputs": [
        {
          "internalType": "uint256",
          "name": "",
          "type": "uint256"
        }
      ],
      "stateMutability": "view",
      "type": "function",
      "constant": true
    },
    {
      "inputs": [
        {
          "internalType": "bytes32",
          "name": "role",
          "type": "bytes32"
        }
      ],
      "name": "getRoleAdmin",
      "outputs": [
        {
          "internalType": "bytes32",
          "name": "",
          "type": "bytes32"
        }
      ],
      "stateMutability": "view",
      "type": "function",
      "constant": true
    },
    {
      "inputs": [
        {
          "internalType": "bytes32",
          "name": "role",
          "type": "bytes32"
        },
        {
          "internalType": "address",
          "name": "account",
          "type": "address"
        }
      ],
      "name": "grantRole",
      "outputs": [],
      "stateMutability": "nonpayable",
      "type": "function"
    },
    {
      "inputs": [
        {
          "internalType": "bytes32",
          "name": "role",
          "type": "bytes32"
        },
        {
          "internalType": "address",
          "name": "account",
          "type": "address"
        }
      ],
      "name": "hasRole",
      "outputs": [
        {
          "internalType": "bool",
          "name": "",
          "type": "bool"
        }
      ],
      "stateMutability": "view",
      "type": "function",
      "constant": true
    },
    {
      "inputs": [],
      "name": "owner",
      "outputs": [
        {
          "internalType": "address",
          "name": "",
          "type": "address"
        }
      ],
      "stateMutability": "view",
      "type": "function",
      "constant": true
    },
    {
      "inputs": [],
      "name": "renounceOwnership",
      "outputs": [],
      "stateMutability": "nonpayable",
      "type": "function"
    },
    {
      "inputs": [
        {
          "internalType": "bytes32",
          "name": "role",
          "type": "bytes32"
        },
        {
          "internalType": "address",
          "name": "account",
          "type": "address"
        }
      ],
      "name": "renounceRole",
      "outputs": [],
      "stateMutability": "nonpayable",
      "type": "function"
    },
    {
      "inputs": [
        {
          "internalType": "bytes32",
          "name": "role",
          "type": "bytes32"
        },
        {
          "internalType": "address",
          "name": "account",
          "type": "address"
        }
      ],
      "name": "revokeRole",
      "outputs": [],
      "stateMutability": "nonpayable",
      "type": "function"
    },
    {
      "inputs": [
        {
          "internalType": "bytes4",
          "name": "interfaceId",
          "type": "bytes4"
        }
      ],
      "name": "supportsInterface",
      "outputs": [
        {
          "internalType": "bool",
          "name": "",
          "type": "bool"
        }
      ],
      "stateMutability": "view",
      "type": "function",
      "constant": true
    },
    {
      "inputs": [
        {
          "internalType": "address",
          "name": "newOwner",
          "type": "address"
        }
      ],
      "name": "transferOwnership",
      "outputs": [],
      "stateMutability": "nonpayable",
      "type": "function"
    },
    {
      "inputs": [
        {
          "internalType": "string",
          "name": "newCid",
          "type": "string"
        },
        {
          "internalType": "string",
          "name": "newPictureSid",
          "type": "string"
        },
        {
          "internalType": "address",
          "name": "wallet",
          "type": "address"
        }
      ],
      "name": "createProfile",
      "outputs": [],
      "stateMutability": "nonpayable",
      "type": "function"
    },
    {
      "inputs": [
        {
          "internalType": "address",
          "name": "wallet",
          "type": "address"
        }
      ],
      "name": "getUserProfileData",
      "outputs": [
        {
          "components": [
            {
              "internalType": "string",
              "name": "accountCid",
              "type": "string"
            },
            {
              "internalType": "string",
              "name": "pictureCid",
              "type": "string"
            },
            {
              "internalType": "address",
              "name": "userId",
              "type": "address"
            }
          ],
          "internalType": "struct UserDb.userAccount",
          "name": "",
          "type": "tuple"
        }
      ],
      "stateMutability": "view",
      "type": "function",
      "constant": true
    },
    {
      "inputs": [
        {
          "internalType": "string",
          "name": "newCid",
          "type": "string"
        },
        {
          "internalType": "address",
          "name": "wallet",
          "type": "address"
        }
      ],
      "name": "updateProfile",
      "outputs": [],
      "stateMutability": "nonpayable",
      "type": "function"
    },
    {
      "inputs": [
        {
          "internalType": "string",
          "name": "newCid",
          "type": "string"
        },
        {
          "internalType": "address",
          "name": "wallet",
          "type": "address"
        }
      ],
      "name": "updatePicture",
      "outputs": [],
      "stateMutability": "nonpayable",
      "type": "function"
    },
    {
      "inputs": [],
      "name": "deleteProfile",
      "outputs": [],
      "stateMutability": "nonpayable",
      "type": "function"
    },
    {
      "inputs": [],
      "name": "confirmUser",
      "outputs": [
        {
          "internalType": "address",
          "name": "",
          "type": "address"
        }
      ],
      "stateMutability": "view",
      "type": "function",
      "constant": true
    }
  ],
  "bytecode": "0x60806040523480156200001157600080fd5b5060016000819055506200003a6200002e620000a560201b60201c565b620000ad60201b60201c565b6200005e6000801b62000052620000a560201b60201c565b6200017360201b60201c565b6200009f7f73e573f9566d61418a34d5de3ff49360f9c51fec37f7486551670290f6285dab62000093620000a560201b60201c565b6200017360201b60201c565b620002e6565b600033905090565b6000600160009054906101000a900473ffffffffffffffffffffffffffffffffffffffff16905081600160006101000a81548173ffffffffffffffffffffffffffffffffffffffff021916908373ffffffffffffffffffffffffffffffffffffffff1602179055508173ffffffffffffffffffffffffffffffffffffffff168173ffffffffffffffffffffffffffffffffffffffff167f8be0079c531659141344cd1fd0a4f28419497f9722a3daafe3b4186f6b6457e060405160405180910390a35050565b6200018582826200018960201b60201c565b5050565b6200019b82826200027b60201b60201c565b620002775760016002600084815260200190815260200160002060000160008373ffffffffffffffffffffffffffffffffffffffff1673ffffffffffffffffffffffffffffffffffffffff16815260200190815260200160002060006101000a81548160ff0219169083151502179055506200021c620000a560201b60201c565b73ffffffffffffffffffffffffffffffffffffffff168173ffffffffffffffffffffffffffffffffffffffff16837f2f8788117e7eff1d82e926ec794901d17c78024a50270940304540a733656f0d60405160405180910390a45b5050565b60006002600084815260200190815260200160002060000160008373ffffffffffffffffffffffffffffffffffffffff1673ffffffffffffffffffffffffffffffffffffffff16815260200190815260200160002060009054906101000a900460ff16905092915050565b61254280620002f66000396000f3fe608060405234801561001057600080fd5b50600436106101215760003560e01c8063715018a6116100ad578063b3ed9b4c11610071578063b3ed9b4c146102e2578063cb0e55a8146102fe578063d547741f14610330578063e81a6d6e1461034c578063f2fde38b1461036a57610121565b8063715018a61461023c5780638da5cb5b1461024657806391d1485414610264578063943005a314610294578063a217fddf146102c457610121565b80632f2ff15d116100f45780632f2ff15d146101be57806336568abe146101da57806336a3a479146101f657806347e63380146102145780636d4540eb1461023257610121565b806301ffc9a714610126578063248a9ca3146101565780632ae025e0146101865780632cfa23a1146101a2575b600080fd5b610140600480360381019061013b91906118b2565b610386565b60405161014d91906118fa565b60405180910390f35b610170600480360381019061016b919061194b565b610400565b60405161017d9190611987565b60405180910390f35b6101a0600480360381019061019b9190611b46565b610420565b005b6101bc60048036038101906101b79190611b46565b610540565b005b6101d860048036038101906101d39190611ba2565b6106e1565b005b6101f460048036038101906101ef9190611ba2565b61070a565b005b6101fe61078d565b60405161020b9190611bfb565b60405180910390f35b61021c610793565b6040516102299190611987565b60405180910390f35b61023a6107b7565b005b610244610967565b005b61024e6109ef565b60405161025b9190611c25565b60405180910390f35b61027e60048036038101906102799190611ba2565b610a19565b60405161028b91906118fa565b60405180910390f35b6102ae60048036038101906102a99190611c40565b610a84565b6040516102bb9190611d5b565b60405180910390f35b6102cc610c57565b6040516102d99190611987565b60405180910390f35b6102fc60048036038101906102f79190611d7d565b610c5e565b005b61031860048036038101906103139190611c40565b610e6f565b60405161032793929190611e52565b60405180910390f35b61034a60048036038101906103459190611ba2565b610fc9565b005b610354610ff2565b6040516103619190611c25565b60405180910390f35b610384600480360381019061037f9190611c40565b611061565b005b60007f7965db0b000000000000000000000000000000000000000000000000000000007bffffffffffffffffffffffffffffffffffffffffffffffffffffffff1916827bffffffffffffffffffffffffffffffffffffffffffffffffffffffff191614806103f957506103f882611158565b5b9050919050565b600060026000838152602001908152602001600020600101549050919050565b600260005403610465576040517f08c379a000000000000000000000000000000000000000000000000000000000815260040161045c90611ee3565b60405180910390fd5b600260008190555061049e7f73e573f9566d61418a34d5de3ff49360f9c51fec37f7486551670290f6285dab6104996111c2565b610a19565b6104dd576040517f08c379a00000000000000000000000000000000000000000000000000000000081526004016104d490611f75565b60405180910390fd5b81600460008373ffffffffffffffffffffffffffffffffffffffff1673ffffffffffffffffffffffffffffffffffffffff168152602001908152602001600020600101908051906020019061053392919061172c565b5060016000819055505050565b600260005403610585576040517f08c379a000000000000000000000000000000000000000000000000000000000815260040161057c90611ee3565b60405180910390fd5b60026000819055506105be7f73e573f9566d61418a34d5de3ff49360f9c51fec37f7486551670290f6285dab6105b96111c2565b610a19565b6105fd576040517f08c379a00000000000000000000000000000000000000000000000000000000081526004016105f490611f75565b60405180910390fd5b81600460008373ffffffffffffffffffffffffffffffffffffffff1673ffffffffffffffffffffffffffffffffffffffff168152602001908152602001600020600001908051906020019061065392919061172c565b5080600460008373ffffffffffffffffffffffffffffffffffffffff1673ffffffffffffffffffffffffffffffffffffffff16815260200190815260200160002060020160006101000a81548173ffffffffffffffffffffffffffffffffffffffff021916908373ffffffffffffffffffffffffffffffffffffffff16021790555060016000819055505050565b6106ea82610400565b6106fb816106f66111c2565b6111ca565b6107058383611267565b505050565b6107126111c2565b73ffffffffffffffffffffffffffffffffffffffff168173ffffffffffffffffffffffffffffffffffffffff161461077f576040517f08c379a000000000000000000000000000000000000000000000000000000000815260040161077690612007565b60405180910390fd5b6107898282611348565b5050565b60035481565b7f73e573f9566d61418a34d5de3ff49360f9c51fec37f7486551670290f6285dab81565b6002600054036107fc576040517f08c379a00000000000000000000000000000000000000000000000000000000081526004016107f390611ee3565b60405180910390fd5b60026000819055503373ffffffffffffffffffffffffffffffffffffffff16600460003373ffffffffffffffffffffffffffffffffffffffff1673ffffffffffffffffffffffffffffffffffffffff16815260200190815260200160002060020160009054906101000a900473ffffffffffffffffffffffffffffffffffffffff1673ffffffffffffffffffffffffffffffffffffffff16146108d4576040517f08c379a00000000000000000000000000000000000000000000000000000000081526004016108cb90612073565b60405180910390fd5b600460003373ffffffffffffffffffffffffffffffffffffffff1673ffffffffffffffffffffffffffffffffffffffff1681526020019081526020016000206000808201600061092491906117b2565b60018201600061093491906117b2565b6002820160006101000a81549073ffffffffffffffffffffffffffffffffffffffff021916905550506001600081905550565b61096f6111c2565b73ffffffffffffffffffffffffffffffffffffffff1661098d6109ef565b73ffffffffffffffffffffffffffffffffffffffff16146109e3576040517f08c379a00000000000000000000000000000000000000000000000000000000081526004016109da906120df565b60405180910390fd5b6109ed600061142a565b565b6000600160009054906101000a900473ffffffffffffffffffffffffffffffffffffffff16905090565b60006002600084815260200190815260200160002060000160008373ffffffffffffffffffffffffffffffffffffffff1673ffffffffffffffffffffffffffffffffffffffff16815260200190815260200160002060009054906101000a900460ff16905092915050565b610a8c6117f2565b600460008373ffffffffffffffffffffffffffffffffffffffff1673ffffffffffffffffffffffffffffffffffffffff168152602001908152602001600020604051806060016040529081600082018054610ae69061212e565b80601f0160208091040260200160405190810160405280929190818152602001828054610b129061212e565b8015610b5f5780601f10610b3457610100808354040283529160200191610b5f565b820191906000526020600020905b815481529060010190602001808311610b4257829003601f168201915b50505050508152602001600182018054610b789061212e565b80601f0160208091040260200160405190810160405280929190818152602001828054610ba49061212e565b8015610bf15780601f10610bc657610100808354040283529160200191610bf1565b820191906000526020600020905b815481529060010190602001808311610bd457829003601f168201915b505050505081526020016002820160009054906101000a900473ffffffffffffffffffffffffffffffffffffffff1673ffffffffffffffffffffffffffffffffffffffff1673ffffffffffffffffffffffffffffffffffffffff16815250509050919050565b6000801b81565b600260005403610ca3576040517f08c379a0000000000000000000000000000000000000000000000000000000008152600401610c9a90611ee3565b60405180910390fd5b6002600081905550610cdc7f73e573f9566d61418a34d5de3ff49360f9c51fec37f7486551670290f6285dab610cd76111c2565b610a19565b610d1b576040517f08c379a0000000000000000000000000000000000000000000000000000000008152600401610d1290611f75565b60405180910390fd5b60036000815480929190610d2e9061218e565b919050555082600460008373ffffffffffffffffffffffffffffffffffffffff1673ffffffffffffffffffffffffffffffffffffffff1681526020019081526020016000206000019080519060200190610d8992919061172c565b5081600460008373ffffffffffffffffffffffffffffffffffffffff1673ffffffffffffffffffffffffffffffffffffffff1681526020019081526020016000206001019080519060200190610de092919061172c565b5080600460008373ffffffffffffffffffffffffffffffffffffffff1673ffffffffffffffffffffffffffffffffffffffff16815260200190815260200160002060020160006101000a81548173ffffffffffffffffffffffffffffffffffffffff021916908373ffffffffffffffffffffffffffffffffffffffff1602179055506001600081905550505050565b6004602052806000526040600020600091509050806000018054610e929061212e565b80601f0160208091040260200160405190810160405280929190818152602001828054610ebe9061212e565b8015610f0b5780601f10610ee057610100808354040283529160200191610f0b565b820191906000526020600020905b815481529060010190602001808311610eee57829003601f168201915b505050505090806001018054610f209061212e565b80601f0160208091040260200160405190810160405280929190818152602001828054610f4c9061212e565b8015610f995780601f10610f6e57610100808354040283529160200191610f99565b820191906000526020600020905b815481529060010190602001808311610f7c57829003601f168201915b5050505050908060020160009054906101000a900473ffffffffffffffffffffffffffffffffffffffff16905083565b610fd282610400565b610fe381610fde6111c2565b6111ca565b610fed8383611348565b505050565b600080600460003373ffffffffffffffffffffffffffffffffffffffff1673ffffffffffffffffffffffffffffffffffffffff16815260200190815260200160002060020160009054906101000a900473ffffffffffffffffffffffffffffffffffffffff1690508091505090565b6110696111c2565b73ffffffffffffffffffffffffffffffffffffffff166110876109ef565b73ffffffffffffffffffffffffffffffffffffffff16146110dd576040517f08c379a00000000000000000000000000000000000000000000000000000000081526004016110d4906120df565b60405180910390fd5b600073ffffffffffffffffffffffffffffffffffffffff168173ffffffffffffffffffffffffffffffffffffffff160361114c576040517f08c379a000000000000000000000000000000000000000000000000000000000815260040161114390612248565b60405180910390fd5b6111558161142a565b50565b60007f01ffc9a7000000000000000000000000000000000000000000000000000000007bffffffffffffffffffffffffffffffffffffffffffffffffffffffff1916827bffffffffffffffffffffffffffffffffffffffffffffffffffffffff1916149050919050565b600033905090565b6111d48282610a19565b611263576111f98173ffffffffffffffffffffffffffffffffffffffff1660146114f0565b6112078360001c60206114f0565b60405160200161121892919061233c565b6040516020818303038152906040526040517f08c379a000000000000000000000000000000000000000000000000000000000815260040161125a9190612376565b60405180910390fd5b5050565b6112718282610a19565b6113445760016002600084815260200190815260200160002060000160008373ffffffffffffffffffffffffffffffffffffffff1673ffffffffffffffffffffffffffffffffffffffff16815260200190815260200160002060006101000a81548160ff0219169083151502179055506112e96111c2565b73ffffffffffffffffffffffffffffffffffffffff168173ffffffffffffffffffffffffffffffffffffffff16837f2f8788117e7eff1d82e926ec794901d17c78024a50270940304540a733656f0d60405160405180910390a45b5050565b6113528282610a19565b156114265760006002600084815260200190815260200160002060000160008373ffffffffffffffffffffffffffffffffffffffff1673ffffffffffffffffffffffffffffffffffffffff16815260200190815260200160002060006101000a81548160ff0219169083151502179055506113cb6111c2565b73ffffffffffffffffffffffffffffffffffffffff168173ffffffffffffffffffffffffffffffffffffffff16837ff6391f5c32d9c69d2a47ea670b442974b53935d1edc7fd64eb21e047a839171b60405160405180910390a45b5050565b6000600160009054906101000a900473ffffffffffffffffffffffffffffffffffffffff16905081600160006101000a81548173ffffffffffffffffffffffffffffffffffffffff021916908373ffffffffffffffffffffffffffffffffffffffff1602179055508173ffffffffffffffffffffffffffffffffffffffff168173ffffffffffffffffffffffffffffffffffffffff167f8be0079c531659141344cd1fd0a4f28419497f9722a3daafe3b4186f6b6457e060405160405180910390a35050565b6060600060028360026115039190612398565b61150d91906123f2565b67ffffffffffffffff811115611526576115256119bd565b5b6040519080825280601f01601f1916602001820160405280156115585781602001600182028036833780820191505090505b5090507f3000000000000000000000000000000000000000000000000000000000000000816000815181106115905761158f612448565b5b60200101907effffffffffffffffffffffffffffffffffffffffffffffffffffffffffffff1916908160001a9053507f7800000000000000000000000000000000000000000000000000000000000000816001815181106115f4576115f3612448565b5b60200101907effffffffffffffffffffffffffffffffffffffffffffffffffffffffffffff1916908160001a905350600060018460026116349190612398565b61163e91906123f2565b90505b60018111156116de577f3031323334353637383961626364656600000000000000000000000000000000600f8616601081106116805761167f612448565b5b1a60f81b82828151811061169757611696612448565b5b60200101907effffffffffffffffffffffffffffffffffffffffffffffffffffffffffffff1916908160001a905350600485901c9450806116d790612477565b9050611641565b5060008414611722576040517f08c379a0000000000000000000000000000000000000000000000000000000008152600401611719906124ec565b60405180910390fd5b8091505092915050565b8280546117389061212e565b90600052602060002090601f01602090048101928261175a57600085556117a1565b82601f1061177357805160ff19168380011785556117a1565b828001600101855582156117a1579182015b828111156117a0578251825591602001919060010190611785565b5b5090506117ae9190611829565b5090565b5080546117be9061212e565b6000825580601f106117d057506117ef565b601f0160209004906000526020600020908101906117ee9190611829565b5b50565b60405180606001604052806060815260200160608152602001600073ffffffffffffffffffffffffffffffffffffffff1681525090565b5b8082111561184257600081600090555060010161182a565b5090565b6000604051905090565b600080fd5b600080fd5b60007fffffffff0000000000000000000000000000000000000000000000000000000082169050919050565b61188f8161185a565b811461189a57600080fd5b50565b6000813590506118ac81611886565b92915050565b6000602082840312156118c8576118c7611850565b5b60006118d68482850161189d565b91505092915050565b60008115159050919050565b6118f4816118df565b82525050565b600060208201905061190f60008301846118eb565b92915050565b6000819050919050565b61192881611915565b811461193357600080fd5b50565b6000813590506119458161191f565b92915050565b60006020828403121561196157611960611850565b5b600061196f84828501611936565b91505092915050565b61198181611915565b82525050565b600060208201905061199c6000830184611978565b92915050565b600080fd5b600080fd5b6000601f19601f8301169050919050565b7f4e487b7100000000000000000000000000000000000000000000000000000000600052604160045260246000fd5b6119f5826119ac565b810181811067ffffffffffffffff82111715611a1457611a136119bd565b5b80604052505050565b6000611a27611846565b9050611a3382826119ec565b919050565b600067ffffffffffffffff821115611a5357611a526119bd565b5b611a5c826119ac565b9050602081019050919050565b82818337600083830152505050565b6000611a8b611a8684611a38565b611a1d565b905082815260208101848484011115611aa757611aa66119a7565b5b611ab2848285611a69565b509392505050565b600082601f830112611acf57611ace6119a2565b5b8135611adf848260208601611a78565b91505092915050565b600073ffffffffffffffffffffffffffffffffffffffff82169050919050565b6000611b1382611ae8565b9050919050565b611b2381611b08565b8114611b2e57600080fd5b50565b600081359050611b4081611b1a565b92915050565b60008060408385031215611b5d57611b5c611850565b5b600083013567ffffffffffffffff811115611b7b57611b7a611855565b5b611b8785828601611aba565b9250506020611b9885828601611b31565b9150509250929050565b60008060408385031215611bb957611bb8611850565b5b6000611bc785828601611936565b9250506020611bd885828601611b31565b9150509250929050565b6000819050919050565b611bf581611be2565b82525050565b6000602082019050611c106000830184611bec565b92915050565b611c1f81611b08565b82525050565b6000602082019050611c3a6000830184611c16565b92915050565b600060208284031215611c5657611c55611850565b5b6000611c6484828501611b31565b91505092915050565b600081519050919050565b600082825260208201905092915050565b60005b83811015611ca7578082015181840152602081019050611c8c565b83811115611cb6576000848401525b50505050565b6000611cc782611c6d565b611cd18185611c78565b9350611ce1818560208601611c89565b611cea816119ac565b840191505092915050565b611cfe81611b08565b82525050565b60006060830160008301518482036000860152611d218282611cbc565b91505060208301518482036020860152611d3b8282611cbc565b9150506040830151611d506040860182611cf5565b508091505092915050565b60006020820190508181036000830152611d758184611d04565b905092915050565b600080600060608486031215611d9657611d95611850565b5b600084013567ffffffffffffffff811115611db457611db3611855565b5b611dc086828701611aba565b935050602084013567ffffffffffffffff811115611de157611de0611855565b5b611ded86828701611aba565b9250506040611dfe86828701611b31565b9150509250925092565b600082825260208201905092915050565b6000611e2482611c6d565b611e2e8185611e08565b9350611e3e818560208601611c89565b611e47816119ac565b840191505092915050565b60006060820190508181036000830152611e6c8186611e19565b90508181036020830152611e808185611e19565b9050611e8f6040830184611c16565b949350505050565b7f5265656e7472616e637947756172643a207265656e7472616e742063616c6c00600082015250565b6000611ecd601f83611e08565b9150611ed882611e97565b602082019050919050565b60006020820190508181036000830152611efc81611ec0565b9050919050565b7f596f75206d7573742068617665207570646174657220726f6c6520746f20727560008201527f6e00000000000000000000000000000000000000000000000000000000000000602082015250565b6000611f5f602183611e08565b9150611f6a82611f03565b604082019050919050565b60006020820190508181036000830152611f8e81611f52565b9050919050565b7f416363657373436f6e74726f6c3a2063616e206f6e6c792072656e6f756e636560008201527f20726f6c657320666f722073656c660000000000000000000000000000000000602082015250565b6000611ff1602f83611e08565b9150611ffc82611f95565b604082019050919050565b6000602082019050818103600083015261202081611fe4565b9050919050565b7f4163636f756e74206e6f7420666f756e64000000000000000000000000000000600082015250565b600061205d601183611e08565b915061206882612027565b602082019050919050565b6000602082019050818103600083015261208c81612050565b9050919050565b7f4f776e61626c653a2063616c6c6572206973206e6f7420746865206f776e6572600082015250565b60006120c9602083611e08565b91506120d482612093565b602082019050919050565b600060208201905081810360008301526120f8816120bc565b9050919050565b7f4e487b7100000000000000000000000000000000000000000000000000000000600052602260045260246000fd5b6000600282049050600182168061214657607f821691505b602082108103612159576121586120ff565b5b50919050565b7f4e487b7100000000000000000000000000000000000000000000000000000000600052601160045260246000fd5b600061219982611be2565b91507fffffffffffffffffffffffffffffffffffffffffffffffffffffffffffffffff82036121cb576121ca61215f565b5b600182019050919050565b7f4f776e61626c653a206e6577206f776e657220697320746865207a65726f206160008201527f6464726573730000000000000000000000000000000000000000000000000000602082015250565b6000612232602683611e08565b915061223d826121d6565b604082019050919050565b6000602082019050818103600083015261226181612225565b9050919050565b600081905092915050565b7f416363657373436f6e74726f6c3a206163636f756e7420000000000000000000600082015250565b60006122a9601783612268565b91506122b482612273565b601782019050919050565b60006122ca82611c6d565b6122d48185612268565b93506122e4818560208601611c89565b80840191505092915050565b7f206973206d697373696e6720726f6c6520000000000000000000000000000000600082015250565b6000612326601183612268565b9150612331826122f0565b601182019050919050565b60006123478261229c565b915061235382856122bf565b915061235e82612319565b915061236a82846122bf565b91508190509392505050565b600060208201905081810360008301526123908184611e19565b905092915050565b60006123a382611be2565b91506123ae83611be2565b9250817fffffffffffffffffffffffffffffffffffffffffffffffffffffffffffffffff04831182151516156123e7576123e661215f565b5b828202905092915050565b60006123fd82611be2565b915061240883611be2565b9250827fffffffffffffffffffffffffffffffffffffffffffffffffffffffffffffffff0382111561243d5761243c61215f565b5b828201905092915050565b7f4e487b7100000000000000000000000000000000000000000000000000000000600052603260045260246000fd5b600061248282611be2565b9150600082036124955761249461215f565b5b600182039050919050565b7f537472696e67733a20686578206c656e67746820696e73756666696369656e74600082015250565b60006124d6602083611e08565b91506124e1826124a0565b602082019050919050565b60006020820190508181036000830152612505816124c9565b905091905056fea264697066735822122025fd0f08f3a2c948e40f7ebd604bf3941b76ee7cf4aa5881a7bb9d71821cceca64736f6c634300080d0033",
  "immutableReferences": {},
  "source": "// SPDX-License-Identifier: MIT\npragma solidity >=0.4.22 <0.9.0;\n\nimport \"@openzeppelin/contracts/access/Ownable.sol\";\nimport \"@openzeppelin/contracts/security/ReentrancyGuard.sol\";\nimport \"@openzeppelin/contracts/access/AccessControl.sol\";\n\n\n\ncontract UserDb is ReentrancyGuard, Ownable, AccessControl {\n\n    uint256 public currentEntry; // This variable counts the amount of users registered.\n\n\n    struct userAccount {\n        string accountCid;\n        string pictureCid;\n        address userId;\n    }\n\n    mapping(address => userAccount) public _account;\n\n\n    bytes32 public constant UPDATER_ROLE = keccak256(\"UPDATER_ROLE\");\n\n    constructor() {\n        _setupRole(DEFAULT_ADMIN_ROLE, _msgSender());\n        _setupRole(UPDATER_ROLE, _msgSender());\n    }\n\n    function createProfile(string memory newCid, string memory newPictureSid, address wallet)\n    external\n    nonReentrant\n    {\n        require(hasRole(UPDATER_ROLE, _msgSender()), \"You must have updater role to run\");\n        currentEntry++;\n        _account[wallet].accountCid=newCid;\n        _account[wallet].pictureCid=newPictureSid;\n        _account[wallet].userId=wallet;\n\n    }\n    function getUserProfileData(address wallet) public view returns(userAccount memory){\n        return _account[wallet];\n    }\n\n\n    function updateProfile(string memory newCid, address wallet)\n    external\n    nonReentrant\n    {\n        require(hasRole(UPDATER_ROLE, _msgSender()), \"You must have updater role to run\");\n        _account[wallet].accountCid=newCid;\n        _account[wallet].userId=wallet;\n    }\n\n    function updatePicture(string memory newCid, address wallet)\n    external\n    nonReentrant\n    {\n        require(hasRole(UPDATER_ROLE, _msgSender()), \"You must have updater role to run\");\n        _account[wallet].pictureCid=newCid;\n    }\n\n\n\n    function deleteProfile()\n    external\n    nonReentrant\n    {\n        require(_account[msg.sender].userId == msg.sender, \"Account not found\");\n        delete _account[msg.sender];\n\n    }\n\n    function confirmUser() external view returns (address){\n        address userWallet = _account[msg.sender].userId;\n        return userWallet;\n    }\n\n}",
  "sourcePath": "/home/igor/11_Ethereum/nft-marketplace-first/userDB/contracts/UserDB.sol",
  "compiler": {
    "name": "solc",
    "version": "0.8.13+commit.abaa5c0e.Emscripten.clang"
  },
  "schemaVersion": "3.4.9",
  "updatedAt": "2023-01-23T22:50:45.414Z",
  "networkType": "ethereum",
  "devdoc": {
    "kind": "dev",
    "methods": {
      "getRoleAdmin(bytes32)": {
        "details": "Returns the admin role that controls `role`. See {grantRole} and {revokeRole}. To change a role's admin, use {_setRoleAdmin}."
      },
      "grantRole(bytes32,address)": {
        "details": "Grants `role` to `account`. If `account` had not been already granted `role`, emits a {RoleGranted} event. Requirements: - the caller must have ``role``'s admin role."
      },
      "hasRole(bytes32,address)": {
        "details": "Returns `true` if `account` has been granted `role`."
      },
      "owner()": {
        "details": "Returns the address of the current owner."
      },
      "renounceOwnership()": {
        "details": "Leaves the contract without owner. It will not be possible to call `onlyOwner` functions anymore. Can only be called by the current owner. NOTE: Renouncing ownership will leave the contract without an owner, thereby removing any functionality that is only available to the owner."
      },
      "renounceRole(bytes32,address)": {
        "details": "Revokes `role` from the calling account. Roles are often managed via {grantRole} and {revokeRole}: this function's purpose is to provide a mechanism for accounts to lose their privileges if they are compromised (such as when a trusted device is misplaced). If the calling account had been revoked `role`, emits a {RoleRevoked} event. Requirements: - the caller must be `account`."
      },
      "revokeRole(bytes32,address)": {
        "details": "Revokes `role` from `account`. If `account` had been granted `role`, emits a {RoleRevoked} event. Requirements: - the caller must have ``role``'s admin role."
      },
      "supportsInterface(bytes4)": {
        "details": "See {IERC165-supportsInterface}."
      },
      "transferOwnership(address)": {
        "details": "Transfers ownership of the contract to a new account (`newOwner`). Can only be called by the current owner."
      }
    },
    "version": 1
  },
  "userdoc": {
    "kind": "user",
    "methods": {},
    "version": 1
  }
}