{
  "contractName": "Factory",
  "abi": [
    {
      "anonymous": false,
      "inputs": [
        {
          "indexed": true,
          "internalType": "address",
          "name": "Collection",
          "type": "address"
        },
        {
          "indexed": false,
          "internalType": "string",
          "name": "Name",
          "type": "string"
        },
        {
          "indexed": false,
          "internalType": "string",
          "name": "Symbol",
          "type": "string"
        },
        {
          "indexed": false,
          "internalType": "string",
          "name": "collectionURI",
          "type": "string"
        },
        {
          "indexed": true,
          "internalType": "uint256",
          "name": "collectionId",
          "type": "uint256"
        }
      ],
      "name": "collectionCreated",
      "type": "event"
    },
    {
      "inputs": [
        {
          "internalType": "uint256",
          "name": "",
          "type": "uint256"
        }
      ],
      "name": "allCollections",
      "outputs": [
        {
          "internalType": "contract NftMarket",
          "name": "token",
          "type": "address"
        },
        {
          "internalType": "uint256",
          "name": "collectionId",
          "type": "uint256"
        },
        {
          "internalType": "address",
          "name": "creator",
          "type": "address"
        },
        {
          "internalType": "string",
          "name": "name",
          "type": "string"
        },
        {
          "internalType": "string",
          "name": "symbol",
          "type": "string"
        },
        {
          "internalType": "string",
          "name": "collectionURI",
          "type": "string"
        },
        {
          "internalType": "bool",
          "name": "isPublished",
          "type": "bool"
        }
      ],
      "stateMutability": "view",
      "type": "function",
      "constant": true
    },
    {
      "inputs": [],
      "name": "collectionsAmount",
      "outputs": [
        {
          "internalType": "uint256",
          "name": "",
          "type": "uint256"
        }
      ],
      "stateMutability": "view",
      "type": "function",
      "constant": true
    },
    {
      "inputs": [],
      "name": "getAllCollections",
      "outputs": [
        {
          "components": [
            {
              "internalType": "contract NftMarket",
              "name": "token",
              "type": "address"
            },
            {
              "internalType": "uint256",
              "name": "collectionId",
              "type": "uint256"
            },
            {
              "internalType": "address",
              "name": "creator",
              "type": "address"
            },
            {
              "internalType": "string",
              "name": "name",
              "type": "string"
            },
            {
              "internalType": "string",
              "name": "symbol",
              "type": "string"
            },
            {
              "internalType": "string",
              "name": "collectionURI",
              "type": "string"
            },
            {
              "internalType": "bool",
              "name": "isPublished",
              "type": "bool"
            }
          ],
          "internalType": "struct Factory.CollectionNft[]",
          "name": "",
          "type": "tuple[]"
        }
      ],
      "stateMutability": "view",
      "type": "function",
      "constant": true
    },
    {
      "inputs": [
        {
          "internalType": "string",
          "name": "Name",
          "type": "string"
        },
        {
          "internalType": "string",
          "name": "Symbol",
          "type": "string"
        },
        {
          "internalType": "string",
          "name": "collectionURI",
          "type": "string"
        }
      ],
      "name": "createCollection",
      "outputs": [],
      "stateMutability": "nonpayable",
      "type": "function"
    },
    {
      "inputs": [
        {
          "internalType": "uint256",
          "name": "collectionIds",
          "type": "uint256"
        },
        {
          "internalType": "string",
          "name": "name",
          "type": "string"
        },
        {
          "internalType": "string",
          "name": "symbol",
          "type": "string"
        }
      ],
      "name": "setNewCollectionIdentity",
      "outputs": [],
      "stateMutability": "nonpayable",
      "type": "function"
    },
    {
      "inputs": [
        {
          "internalType": "uint256",
          "name": "collectionIds",
          "type": "uint256"
        },
        {
          "internalType": "string",
          "name": "collectionURI",
          "type": "string"
        }
      ],
      "name": "setNewCollectionURI",
      "outputs": [],
      "stateMutability": "nonpayable",
      "type": "function"
    },
    {
      "inputs": [
        {
          "internalType": "uint256",
          "name": "collectionIds",
          "type": "uint256"
        }
      ],
      "name": "getCollectionById",
      "outputs": [
        {
          "components": [
            {
              "internalType": "contract NftMarket",
              "name": "token",
              "type": "address"
            },
            {
              "internalType": "uint256",
              "name": "collectionId",
              "type": "uint256"
            },
            {
              "internalType": "address",
              "name": "creator",
              "type": "address"
            },
            {
              "internalType": "string",
              "name": "name",
              "type": "string"
            },
            {
              "internalType": "string",
              "name": "symbol",
              "type": "string"
            },
            {
              "internalType": "string",
              "name": "collectionURI",
              "type": "string"
            },
            {
              "internalType": "bool",
              "name": "isPublished",
              "type": "bool"
            }
          ],
          "internalType": "struct Factory.CollectionNft",
          "name": "",
          "type": "tuple"
        }
      ],
      "stateMutability": "view",
      "type": "function",
      "constant": true
    },
    {
      "inputs": [
        {
          "internalType": "uint256",
          "name": "collectionIds",
          "type": "uint256"
        }
      ],
      "name": "publishCollection",
      "outputs": [],
      "stateMutability": "nonpayable",
      "type": "function"
    },
    {
      "inputs": [
        {
          "internalType": "uint256",
          "name": "collectionIds",
          "type": "uint256"
        }
      ],
      "name": "hideFromPublishedCollection",
      "outputs": [],
      "stateMutability": "nonpayable",
      "type": "function"
    },
    {
      "inputs": [
        {
          "internalType": "address",
          "name": "creator",
          "type": "address"
        }
      ],
      "name": "getOwnedCollections",
      "outputs": [
        {
          "components": [
            {
              "internalType": "contract NftMarket",
              "name": "token",
              "type": "address"
            },
            {
              "internalType": "uint256",
              "name": "collectionId",
              "type": "uint256"
            },
            {
              "internalType": "address",
              "name": "creator",
              "type": "address"
            },
            {
              "internalType": "string",
              "name": "name",
              "type": "string"
            },
            {
              "internalType": "string",
              "name": "symbol",
              "type": "string"
            },
            {
              "internalType": "string",
              "name": "collectionURI",
              "type": "string"
            },
            {
              "internalType": "bool",
              "name": "isPublished",
              "type": "bool"
            }
          ],
          "internalType": "struct Factory.CollectionNft[]",
          "name": "",
          "type": "tuple[]"
        }
      ],
      "stateMutability": "view",
      "type": "function",
      "constant": true
    }
  ],
  "bytecode": "0x608060405234801561001057600080fd5b50614cf4806100206000396000f3fe60806040523480156200001157600080fd5b5060043610620000ac5760003560e01c80638dc36e5a116200006f5780638dc36e5a1462000146578063a9de9709146200015f578063e547cb851462000176578063ece86c21146200019c578063f8276bd214620001b357620000ac565b8063167ef49514620000b15780632e97b46814620000e65780634c07d60e14620000ff578063582849b014620001255780636804a958146200013c575b600080fd5b620000c8620000c2366004620012e0565b620001ca565b604051620000dd9796959493929190620014b9565b60405180910390f35b620000fd620000f736600462001342565b620003db565b005b620001166200011036600462001222565b62000475565b604051620000dd919062001455565b620000fd62000136366004620012f9565b6200082a565b6200011662000892565b6200015062000b03565b604051620000dd91906200160c565b620000fd62000170366004620012e0565b62000b09565b6200018d62000187366004620012e0565b62000b24565b604051620000dd9190620015f7565b620000fd620001ad36600462001252565b62000d5e565b620000fd620001c4366004620012e0565b62001063565b60018181548110620001db57600080fd5b600091825260209091206007909102018054600182015460028301546003840180546001600160a01b03948516965092949390911692916200021d9062001615565b80601f01602080910402602001604051908101604052809291908181526020018280546200024b9062001615565b80156200029c5780601f1062000270576101008083540402835291602001916200029c565b820191906000526020600020905b8154815290600101906020018083116200027e57829003601f168201915b505050505090806004018054620002b39062001615565b80601f0160208091040260200160405190810160405280929190818152602001828054620002e19062001615565b8015620003325780601f10620003065761010080835404028352916020019162000332565b820191906000526020600020905b8154815290600101906020018083116200031457829003601f168201915b505050505090806005018054620003499062001615565b80601f0160208091040260200160405190810160405280929190818152602001828054620003779062001615565b8015620003c85780601f106200039c57610100808354040283529160200191620003c8565b820191906000526020600020905b815481529060010190602001808311620003aa57829003601f168201915b5050506006909301549192505060ff1687565b6000838152600360205260409020600201546001600160a01b03163314620004205760405162461bcd60e51b81526004016200041790620015d3565b60405180910390fd5b6000838152600360208181526040909220845162000447939190920191908501906200108e565b50600083815260036020908152604090912082516200046f926004909201918401906200108e565b50505050565b6001600160a01b038116600090815260026020526040902054606090620004b05760405162461bcd60e51b81526004016200041790620015aa565b6001600160a01b038216600090815260026020526040812054819067ffffffffffffffff811115620004f257634e487b7160e01b600052604160045260246000fd5b6040519080825280602002602001820160405280156200052f57816020015b6200051b6200111d565b815260200190600190039081620005115790505b50905060005b6001600160a01b03851660009081526002602052604090205481101562000822576001600160a01b038516600090815260026020526040812080546003918391859081106200059457634e487b7160e01b600052603260045260246000fd5b600091825260208083209091015483528281019390935260409182019020815160e08101835281546001600160a01b0390811682526001830154948201949094526002820154909316918301919091526003810180549193508391606084019190620006009062001615565b80601f01602080910402602001604051908101604052809291908181526020018280546200062e9062001615565b80156200067f5780601f1062000653576101008083540402835291602001916200067f565b820191906000526020600020905b8154815290600101906020018083116200066157829003601f168201915b505050505081526020016004820180546200069a9062001615565b80601f0160208091040260200160405190810160405280929190818152602001828054620006c89062001615565b8015620007195780601f10620006ed5761010080835404028352916020019162000719565b820191906000526020600020905b815481529060010190602001808311620006fb57829003601f168201915b50505050508152602001600582018054620007349062001615565b80601f0160208091040260200160405190810160405280929190818152602001828054620007629062001615565b8015620007b35780601f106200078757610100808354040283529160200191620007b3565b820191906000526020600020905b8154815290600101906020018083116200079557829003601f168201915b50505091835250506006919091015460ff1615156020909101528351849086908110620007f057634e487b7160e01b600052603260045260246000fd5b60200260200101819052508380620008089062001652565b945050508080620008199062001652565b91505062000535565b509392505050565b6000828152600360205260409020600201546001600160a01b03163314620008665760405162461bcd60e51b81526004016200041790620015d3565b600082815260036020908152604090912082516200088d926005909201918401906200108e565b505050565b60606001805480602002602001604051908101604052809291908181526020016000905b8282101562000afa5760008481526020908190206040805160e0810182526007860290920180546001600160a01b0390811684526001820154948401949094526002810154909316908201526003820180549192916060840191906200091c9062001615565b80601f01602080910402602001604051908101604052809291908181526020018280546200094a9062001615565b80156200099b5780601f106200096f576101008083540402835291602001916200099b565b820191906000526020600020905b8154815290600101906020018083116200097d57829003601f168201915b50505050508152602001600482018054620009b69062001615565b80601f0160208091040260200160405190810160405280929190818152602001828054620009e49062001615565b801562000a355780601f1062000a095761010080835404028352916020019162000a35565b820191906000526020600020905b81548152906001019060200180831162000a1757829003601f168201915b5050505050815260200160058201805462000a509062001615565b80601f016020809104026020016040519081016040528092919081815260200182805462000a7e9062001615565b801562000acf5780601f1062000aa35761010080835404028352916020019162000acf565b820191906000526020600020905b81548152906001019060200180831162000ab157829003601f168201915b50505091835250506006919091015460ff1615156020918201529082526001929092019101620008b6565b50505050905090565b60015490565b6000908152600360205260409020600601805460ff19169055565b62000b2e6200111d565b600082815260036020818152604092839020835160e08101855281546001600160a01b039081168252600183015493820193909352600282015490921693820193909352908201805491929160608401919062000b8b9062001615565b80601f016020809104026020016040519081016040528092919081815260200182805462000bb99062001615565b801562000c0a5780601f1062000bde5761010080835404028352916020019162000c0a565b820191906000526020600020905b81548152906001019060200180831162000bec57829003601f168201915b5050505050815260200160048201805462000c259062001615565b80601f016020809104026020016040519081016040528092919081815260200182805462000c539062001615565b801562000ca45780601f1062000c785761010080835404028352916020019162000ca4565b820191906000526020600020905b81548152906001019060200180831162000c8657829003601f168201915b5050505050815260200160058201805462000cbf9062001615565b80601f016020809104026020016040519081016040528092919081815260200182805462000ced9062001615565b801562000d3e5780601f1062000d125761010080835404028352916020019162000d3e565b820191906000526020600020905b81548152906001019060200180831162000d2057829003601f168201915b50505091835250506006919091015460ff16151560209091015292915050565b62000d6a600062001081565b600062000d7860006200108a565b90506000848460405162000d8c906200116e565b62000d999291906200152f565b604051809103906000f08015801562000db6573d6000803e3d6000fd5b50905062000dc36200111d565b60208082018481526001600160a01b0380851684523360408501908152606085018a8152608086018a905260a08601899052600160c0870181905280548082018255600091909152865160079091027fb10e2d527612073b26eecdfd717e6a320cf44b4afac2b0732d9fcbe2b7fa0cf6810180549286166001600160a01b031993841617815595517fb10e2d527612073b26eecdfd717e6a320cf44b4afac2b0732d9fcbe2b7fa0cf782015592517fb10e2d527612073b26eecdfd717e6a320cf44b4afac2b0732d9fcbe2b7fa0cf8840180549190951691161790925590518051859462000ed6937fb10e2d527612073b26eecdfd717e6a320cf44b4afac2b0732d9fcbe2b7fa0cf9019201906200108e565b506080820151805162000ef49160048401916020909101906200108e565b5060a0820151805162000f129160058401916020909101906200108e565b5060c091909101516006909101805460ff1916911515919091179055600083815260036020818152604092839020845181546001600160a01b03199081166001600160a01b03928316178355868401516001840155948601516002830180549096169116179093556060840151805185949362000f95939085019201906200108e565b506080820151805162000fb39160048401916020909101906200108e565b5060a0820151805162000fd19160058401916020909101906200108e565b5060c091909101516006909101805460ff1916911515919091179055336000908152600260209081526040808320805460018101825590845291909220018490555183906001600160a01b038416907fa2efd812126ee384de06ab0fc42b5df2ce90a26cfcf275779adbede001b49e319062001053908a908a908a9062001561565b60405180910390a3505050505050565b6000908152600360205260409020600601805460ff19166001179055565b80546001019055565b5490565b8280546200109c9062001615565b90600052602060002090601f016020900481019282620010c057600085556200110b565b82601f10620010db57805160ff19168380011785556200110b565b828001600101855582156200110b579182015b828111156200110b578251825591602001919060010190620010ee565b50620011199291506200117c565b5090565b6040518060e0016040528060006001600160a01b031681526020016000815260200160006001600160a01b031681526020016060815260200160608152602001606081526020016000151581525090565b61362e806200169183390190565b5b808211156200111957600081556001016200117d565b600082601f830112620011a4578081fd5b813567ffffffffffffffff80821115620011c257620011c26200167a565b604051601f8301601f19908116603f01168101908282118183101715620011ed57620011ed6200167a565b8160405283815286602085880101111562001206578485fd5b8360208701602083013792830160200193909352509392505050565b60006020828403121562001234578081fd5b81356001600160a01b03811681146200124b578182fd5b9392505050565b60008060006060848603121562001267578182fd5b833567ffffffffffffffff808211156200127f578384fd5b6200128d8783880162001193565b94506020860135915080821115620012a3578384fd5b620012b18783880162001193565b93506040860135915080821115620012c7578283fd5b50620012d68682870162001193565b9150509250925092565b600060208284031215620012f2578081fd5b5035919050565b600080604083850312156200130c578182fd5b82359150602083013567ffffffffffffffff8111156200132a578182fd5b620013388582860162001193565b9150509250929050565b60008060006060848603121562001357578283fd5b83359250602084013567ffffffffffffffff80821115620012a3578384fd5b60008151808452815b818110156200139d576020818501810151868301820152016200137f565b81811115620013af5782602083870101525b50601f01601f19169290920160200192915050565b600060018060a01b038083511684526020830151602085015280604084015116604085015250606082015160e060608501526200140560e085018262001376565b90506080830151848203608086015262001420828262001376565b91505060a083015184820360a08601526200143c828262001376565b91505060c0830151151560c08501528091505092915050565b6000602080830181845280855180835260408601915060408482028701019250838701855b82811015620014ac57603f1988860301845262001499858351620013c4565b945092850192908501906001016200147a565b5092979650505050505050565b6001600160a01b038881168252602082018890528616604082015260e060608201819052600090620014ee9083018762001376565b828103608084015262001502818762001376565b905082810360a084015262001518818662001376565b91505082151560c083015298975050505050505050565b60006040825262001544604083018562001376565b828103602084015262001558818562001376565b95945050505050565b60006060825262001576606083018662001376565b82810360208401526200158a818662001376565b90508281036040840152620015a0818562001376565b9695505050505050565b6020808252600f908201526e27379031b7b63632b1ba34b7b7399760891b604082015260600190565b6020808252600a90820152694e6f74206f776e65722160b01b604082015260600190565b6000602082526200124b6020830184620013c4565b90815260200190565b6002810460018216806200162a57607f821691505b602082108114156200164c57634e487b7160e01b600052602260045260246000fd5b50919050565b60006000198214156200167357634e487b7160e01b81526011600452602481fd5b5060010190565b634e487b7160e01b600052604160045260246000fdfe60806040526658d15e17628000600a553480156200001c57600080fd5b506040516200362e3803806200362e8339810160408190526200003f9162000242565b81518290829062000058906000906020850190620000e9565b5080516200006e906001906020840190620000e9565b5050506200008b620000856200009360201b60201c565b62000097565b5050620002fc565b3390565b600780546001600160a01b038381166001600160a01b0319831681179093556040519116919082907f8be0079c531659141344cd1fd0a4f28419497f9722a3daafe3b4186f6b6457e090600090a35050565b828054620000f790620002a9565b90600052602060002090601f0160209004810192826200011b576000855562000166565b82601f106200013657805160ff191683800117855562000166565b8280016001018555821562000166579182015b828111156200016657825182559160200191906001019062000149565b506200017492915062000178565b5090565b5b8082111562000174576000815560010162000179565b600082601f830112620001a0578081fd5b81516001600160401b0380821115620001bd57620001bd620002e6565b604051601f8301601f19908116603f01168101908282118183101715620001e857620001e8620002e6565b8160405283815260209250868385880101111562000204578485fd5b8491505b8382101562000227578582018301518183018401529082019062000208565b838211156200023857848385830101525b9695505050505050565b6000806040838503121562000255578182fd5b82516001600160401b03808211156200026c578384fd5b6200027a868387016200018f565b9350602085015191508082111562000290578283fd5b506200029f858286016200018f565b9150509250929050565b600281046001821680620002be57607f821691505b60208210811415620002e057634e487b7160e01b600052602260045260246000fd5b50919050565b634e487b7160e01b600052604160045260246000fd5b613322806200030c6000396000f3fe60806040526004361061021a5760003560e01c806370cbcb4311610123578063c4b3a2c5116100ab578063e23a60fe1161006f578063e23a60fe146105f3578063e78980d414610613578063e985e9c514610633578063f0d2fad814610653578063f2fde38b146106735761021a565b8063c4b3a2c514610574578063c78f19f914610594578063c87b56dd146105a9578063ccb4918d146105c9578063d547cfb7146105de5761021a565b80638da5cb5b116100f25780638da5cb5b146104f757806395d89b411461050c578063a22cb46514610521578063aff8d36f14610541578063b88d4fde146105545761021a565b806370cbcb431461049a578063715018a6146104af5780637c726b69146104c45780638c06490b146104e45761021a565b806336b536be116101a65780634f6ccce7116101755780634f6ccce7146103e05780635b6d9d3b146104005780636352211e1461042d5780636f1a0af51461044d57806370a082311461047a5761021a565b806336b536be146103695780633ccfd60b1461038b57806342842e0e146103a057806343d32ae7146103c05761021a565b806318160ddd116101ed57806318160ddd146102c657806323b872dd146102e8578063243adbdd146103085780632a55205a1461031b5780632f745c59146103495761021a565b806301ffc9a71461021f57806306fdde0314610255578063081812fc14610277578063095ea7b3146102a4575b600080fd5b34801561022b57600080fd5b5061023f61023a3660046126fd565b610693565b60405161024c91906129b2565b60405180910390f35b34801561026157600080fd5b5061026a6106db565b60405161024c91906129bd565b34801561028357600080fd5b506102976102923660046127eb565b61076d565b60405161024c91906128fa565b3480156102b057600080fd5b506102c46102bf3660046126a2565b6107b9565b005b3480156102d257600080fd5b506102db610851565b60405161024c919061316c565b3480156102f457600080fd5b506102c46103033660046125b4565b610857565b6102c46103163660046127eb565b61088f565b34801561032757600080fd5b5061033b610336366004612803565b610aa1565b60405161024c92919061294b565b34801561035557600080fd5b506102db6103643660046126a2565b610af7565b34801561037557600080fd5b5061037e610b4c565b60405161024c9190612964565b34801561039757600080fd5b506102c4610cb4565b3480156103ac57600080fd5b506102c46103bb3660046125b4565b610d98565b3480156103cc57600080fd5b5061023f6103db366004612735565b610db3565b3480156103ec57600080fd5b506102db6103fb3660046127eb565b610de4565b34801561040c57600080fd5b5061042061041b3660046127eb565b610e3f565b60405161024c919061314c565b34801561043957600080fd5b506102976104483660046127eb565b610e7a565b34801561045957600080fd5b5061046d6104683660046127eb565b610eaf565b60405161024c919061313e565b34801561048657600080fd5b506102db610495366004612568565b610f1e565b3480156104a657600080fd5b5061037e610f62565b3480156104bb57600080fd5b506102c461109f565b3480156104d057600080fd5b506102c46104df3660046127eb565b6110ea565b6102db6104f2366004612768565b61114e565b34801561050357600080fd5b5061029761129f565b34801561051857600080fd5b5061026a6112ae565b34801561052d57600080fd5b506102c461053c366004612668565b6112bd565b6102c461054f3660046127eb565b6112cf565b34801561056057600080fd5b506102c461056f3660046125ef565b611397565b34801561058057600080fd5b506102c461058f3660046126cb565b6113d6565b3480156105a057600080fd5b506102db61143f565b3480156105b557600080fd5b5061026a6105c43660046127eb565b611445565b3480156105d557600080fd5b506102db611566565b3480156105ea57600080fd5b5061026a611577565b3480156105ff57600080fd5b506102c461060e366004612803565b611605565b34801561061f57600080fd5b506102c461062e366004612824565b6116e9565b34801561063f57600080fd5b5061023f61064e366004612582565b61170b565b34801561065f57600080fd5b506102c461066e3660046127eb565b611739565b34801561067f57600080fd5b506102c461068e366004612568565b6117db565b60006001600160e01b031982166380ac58cd60e01b14806106c457506001600160e01b03198216635b5e139f60e01b145b806106d357506106d382611849565b90505b919050565b6060600080546106ea9061322a565b80601f01602080910402602001604051908101604052809291908181526020018280546107169061322a565b80156107635780601f1061073857610100808354040283529160200191610763565b820191906000526020600020905b81548152906001019060200180831161074657829003601f168201915b5050505050905090565b600061077882611862565b61079d5760405162461bcd60e51b815260040161079490612e88565b60405180910390fd5b506000908152600460205260409020546001600160a01b031690565b60006107c482610e7a565b9050806001600160a01b0316836001600160a01b031614156107f85760405162461bcd60e51b815260040161079490612fdf565b806001600160a01b031661080a61187f565b6001600160a01b0316148061082657506108268161064e61187f565b6108425760405162461bcd60e51b815260040161079490612c9c565b61084c8383611883565b505050565b60115490565b61086861086261187f565b826118f1565b6108845760405162461bcd60e51b815260040161079490613057565b61084c83838361196e565b6000818152600e6020526040812060010154906108ab83610e7a565b9050336001600160a01b03821614156108d65760405162461bcd60e51b815260040161079490612f2a565b8134146108f55760405162461bcd60e51b8152600401610794906130cc565b6000838152600860209081526040808320815180830190925280546001600160a01b03168083526001909101549282018390529092909160649061093990346131c8565b61094391906131b4565b905061095084338861196e565b6000868152600e6020526040902060020154600160a81b900460ff16156109c0576001600160a01b0384166108fc61098883346131e7565b6040518115909202916000818181858888f193505050501580156109b0573d6000803e3d6000fd5b506109bb8282611aa1565b610a2c565b6000868152600e60205260408120600101546109dd90839061319c565b6000888152600e6020526040808220600101839055519192506001600160a01b038716913480156108fc0292909190818181858888f19350505050158015610a29573d6000803e3d6000fd5b50505b610a36600b611ad7565b6000868152600e602052604090819020600201805461ffff60a01b1916600160a81b1790555186907feca8b5e5012b8b4f9015ad5dd10f0e903642ba1ea80b5df6a14c93d99b55e71d90610a91903490859089903390613175565b60405180910390a2505050505050565b6000828152600860209081526040808320815180830190925280546001600160a01b03168083526001909101549282018390529291606490610ae390866131c8565b610aed91906131b4565b9150509250929050565b6000610b0283610f1e565b8210610b205760405162461bcd60e51b815260040161079490612b7d565b506001600160a01b0382166000908152600f602090815260408083208484529091529020545b92915050565b60606000610b58610851565b9050600080610b67600b611afe565b67ffffffffffffffff811115610b8d57634e487b7160e01b600052604160045260246000fd5b604051908082528060200260200182016040528015610bc657816020015b610bb36123c7565b815260200190600190039081610bab5790505b50905060005b83811015610cac576000610bdf82610de4565b6000818152600e60205260409020600281015491925090600160a01b900460ff16151560011415610c97576040805160a081018252825481526001830154602082015260028301546001600160a01b0381169282019290925260ff600160a01b8304811615156060830152600160a81b909204909116151560808201528451859087908110610c7e57634e487b7160e01b600052603260045260246000fd5b6020908102919091010152610c9460018661319c565b94505b50508080610ca490613265565b915050610bcc565b509250505090565b610cbc61187f565b6001600160a01b0316610ccd61129f565b6001600160a01b031614610cf35760405162461bcd60e51b815260040161079490612ed4565b4780610d115760405162461bcd60e51b815260040161079490612cf9565b6000610d1b61129f565b6001600160a01b031682604051610d31906128f7565b60006040518083038185875af1925050503d8060008114610d6e576040519150601f19603f3d011682016040523d82523d6000602084013e610d73565b606091505b5050905080610d945760405162461bcd60e51b815260040161079490612f6c565b5050565b61084c83838360405180602001604052806000815250611397565b6000600d82604051610dc591906128ac565b9081526040519081900360200190205460ff1615156001149050919050565b6000610dee610851565b8210610e0c5760405162461bcd60e51b815260040161079490612b7d565b60118281548110610e2d57634e487b7160e01b600052603260045260246000fd5b90600052602060002001549050919050565b610e476123f5565b50600090815260086020908152604091829020825180840190935280546001600160a01b03168352600101549082015290565b6000818152600260205260408120546001600160a01b0316806106d35760405162461bcd60e51b815260040161079490612d6b565b610eb76123c7565b506000908152600e6020908152604091829020825160a08101845281548152600182015492810192909252600201546001600160a01b0381169282019290925260ff600160a01b8304811615156060830152600160a81b9092049091161515608082015290565b60006001600160a01b038216610f465760405162461bcd60e51b815260040161079490612d21565b506001600160a01b031660009081526003602052604090205490565b60606000610f6f33610f1e565b905060008167ffffffffffffffff811115610f9a57634e487b7160e01b600052604160045260246000fd5b604051908082528060200260200182016040528015610fd357816020015b610fc06123c7565b815260200190600190039081610fb85790505b50905060005b82811015611098576000610fed3383610af7565b6000818152600e6020908152604091829020825160a0810184528154815260018201549281019290925260028101546001600160a01b0381169383019390935260ff600160a01b8404811615156060840152600160a81b909304909216151560808201528551929350909185908590811061107857634e487b7160e01b600052603260045260246000fd5b60200260200101819052505050808061109090613265565b915050610fd9565b5091505090565b6110a761187f565b6001600160a01b03166110b861129f565b6001600160a01b0316146110de5760405162461bcd60e51b815260040161079490612ed4565b6110e86000611b02565b565b6110f261187f565b6001600160a01b031661110361129f565b6001600160a01b0316146111295760405162461bcd60e51b815260040161079490612ed4565b600081116111495760405162461bcd60e51b815260040161079490612f4a565b600a55565b600061115986610db3565b156111765760405162461bcd60e51b8152600401610794906130a8565b600a5434146111975760405162461bcd60e51b815260040161079490613020565b6111a1600c611b54565b6111ab600b611b54565b60006111b7600c611afe565b6000818152600e60205260409020600201805460ff60a81b1916905590506111df3382611b5d565b6111e98188611b77565b6111f38186611bbb565b61120733856001600160601b0316836113d6565b6001600d8860405161121991906128ac565b908152604051908190036020018120805492151560ff19909316929092179091556112459088906128ac565b6040518091039020817f38a1312905b7ebaaf517ceeff9d63a5c1dda4f8617d2639d839cbb04722f71698833338a8a600160008c60405161128d9897969594939291906129d0565b60405180910390a39695505050505050565b6007546001600160a01b031690565b6060600180546106ea9061322a565b610d946112c861187f565b8383611c76565b6112d761187f565b6001600160a01b03166112e861129f565b6001600160a01b03161461130e5760405162461bcd60e51b815260040161079490612ed4565b6000818152600e6020526040902060020154600160a01b900460ff16156113475760405162461bcd60e51b815260040161079490612f09565b600a5434146113685760405162461bcd60e51b815260040161079490613116565b6000818152600e60205260409020600201805460ff60a01b1916600160a01b179055611394600b611b54565b50565b6113a86113a261187f565b836118f1565b6113c45760405162461bcd60e51b815260040161079490613057565b6113d084848484611d19565b50505050565b60648211156113f75760405162461bcd60e51b815260040161079490612a32565b6040805180820182526001600160a01b03948516815260208082019485526000938452600890529120905181546001600160a01b031916931692909217825551600190910155565b600a5481565b606061145082611862565b61146c5760405162461bcd60e51b815260040161079490612e37565b600082815260066020526040812080546114859061322a565b80601f01602080910402602001604051908101604052809291908181526020018280546114b19061322a565b80156114fe5780601f106114d3576101008083540402835291602001916114fe565b820191906000526020600020905b8154815290600101906020018083116114e157829003601f168201915b50505050509050600061150f611d4c565b9050805160001415611523575090506106d6565b81511561155557808260405160200161153d9291906128c8565b604051602081830303815290604052925050506106d6565b61155e84611d5e565b949350505050565b6000611572600b611afe565b905090565b600980546115849061322a565b80601f01602080910402602001604051908101604052809291908181526020018280546115b09061322a565b80156115fd5780601f106115d2576101008083540402835291602001916115fd565b820191906000526020600020905b8154815290600101906020018083116115e057829003601f168201915b505050505081565b61160d61187f565b6001600160a01b031661161e61129f565b6001600160a01b0316146116445760405162461bcd60e51b815260040161079490612ed4565b6000828152600860209081526040808320815180830190925280546001600160a01b0316825260010154918101829052919060649061168390856131c8565b61168d91906131b4565b6000858152600e6020526040902060020154909150600160a81b900460ff16156116d2576116bb818461319c565b6000858152600e60205260409020600101556113d0565b50506000918252600e602052604090912060010155565b6000918252600860205260409091206001600160601b03909116600190910155565b6001600160a01b03918216600090815260056020908152604080832093909416825291909152205460ff1690565b61174161187f565b6001600160a01b031661175261129f565b6001600160a01b0316146117785760405162461bcd60e51b815260040161079490612ed4565b6000818152600e6020526040902060020154600160a01b900460ff1615156001146117b55760405162461bcd60e51b8152600401610794906130f4565b6000818152600e60205260409020600201805460ff60a01b19169055611394600b611ad7565b6117e361187f565b6001600160a01b03166117f461129f565b6001600160a01b03161461181a5760405162461bcd60e51b815260040161079490612ed4565b6001600160a01b0381166118405760405162461bcd60e51b815260040161079490612af2565b61139481611b02565b6001600160e01b031981166301ffc9a760e01b14919050565b6000908152600260205260409020546001600160a01b0316151590565b3390565b600081815260046020526040902080546001600160a01b0319166001600160a01b03841690811790915581906118b882610e7a565b6001600160a01b03167f8c5be1e5ebec7d5bd14f71427d1e84f3dd0314c0f7b2291e5b200ac8c7c3b92560405160405180910390a45050565b60006118fc82611862565b6119185760405162461bcd60e51b815260040161079490612c50565b600061192383610e7a565b9050806001600160a01b0316846001600160a01b0316148061195e5750836001600160a01b03166119538461076d565b6001600160a01b0316145b8061155e575061155e818561170b565b826001600160a01b031661198182610e7a565b6001600160a01b0316146119a75760405162461bcd60e51b815260040161079490612b38565b6001600160a01b0382166119cd5760405162461bcd60e51b815260040161079490612bd5565b6119d8838383611de1565b6119e3600082611883565b6001600160a01b0383166000908152600360205260408120805460019290611a0c9084906131e7565b90915550506001600160a01b0382166000908152600360205260408120805460019290611a3a90849061319c565b909155505060008181526002602052604080822080546001600160a01b0319166001600160a01b0386811691821790925591518493918716917fddf252ad1be2c89b69c2b068fc378daa952ba7f163c4a11628f55a4df523b3ef91a461084c83838361084c565b6040516001600160a01b0383169082156108fc029083906000818181858888f1935050505015801561084c573d6000803e3d6000fd5b805480611af65760405162461bcd60e51b815260040161079490612a69565b600019019055565b5490565b600780546001600160a01b038381166001600160a01b0319831681179093556040519116919082907f8be0079c531659141344cd1fd0a4f28419497f9722a3daafe3b4186f6b6457e090600090a35050565b80546001019055565b610d94828260405180602001604052806000815250611e6a565b611b8082611862565b611b9c5760405162461bcd60e51b815260040161079490612db4565b6000828152600660209081526040909120825161084c9284019061240c565b60008111611bdb5760405162461bcd60e51b815260040161079490612f4a565b6040805160a081018252838152602080820193845233828401908152600160608401818152600060808601818152988152600e9094529490922092518355935190820155915160029092018054915193511515600160a81b0260ff60a81b19941515600160a01b0260ff60a01b196001600160a01b03959095166001600160a01b031990941693909317939093169190911792909216179055565b816001600160a01b0316836001600160a01b03161415611ca85760405162461bcd60e51b815260040161079490612c19565b6001600160a01b0383811660008181526005602090815260408083209487168084529490915290819020805460ff1916851515179055517f17307eab39ab6107e8899845ad3d59bd9653f200f220920489ca2b5937696c3190611d0c9085906129b2565b60405180910390a3505050565b611d2484848461196e565b611d3084848484611e9d565b6113d05760405162461bcd60e51b815260040161079490612aa0565b60408051602081019091526000815290565b6060611d6982611862565b611d855760405162461bcd60e51b815260040161079490612f90565b6000611d8f611d4c565b90506000815111611daf5760405180602001604052806000815250611dda565b80611db984611fb8565b604051602001611dca9291906128c8565b6040516020818303038152906040525b9392505050565b611dec83838361084c565b6001600160a01b038316611e0857611e03816120d3565b611e2b565b816001600160a01b0316836001600160a01b031614611e2b57611e2b8382612117565b6001600160a01b038216611e4757611e42816121b4565b61084c565b826001600160a01b0316826001600160a01b03161461084c5761084c828261228d565b611e7483836122d1565b611e816000848484611e9d565b61084c5760405162461bcd60e51b815260040161079490612aa0565b6000611eb1846001600160a01b03166123b8565b15611fad57836001600160a01b031663150b7a02611ecd61187f565b8786866040518563ffffffff1660e01b8152600401611eef949392919061290e565b602060405180830381600087803b158015611f0957600080fd5b505af1925050508015611f39575060408051601f3d908101601f19168201909252611f3691810190612719565b60015b611f93573d808015611f67576040519150601f19603f3d011682016040523d82523d6000602084013e611f6c565b606091505b508051611f8b5760405162461bcd60e51b815260040161079490612aa0565b805181602001fd5b6001600160e01b031916630a85bd0160e11b14905061155e565b506001949350505050565b606081611fdd57506040805180820190915260018152600360fc1b60208201526106d6565b8160005b81156120075780611ff181613265565b91506120009050600a836131b4565b9150611fe1565b60008167ffffffffffffffff81111561203057634e487b7160e01b600052604160045260246000fd5b6040519080825280601f01601f19166020018201604052801561205a576020820181803683370190505b5090505b841561155e5761206f6001836131e7565b915061207c600a86613280565b61208790603061319c565b60f81b8183815181106120aa57634e487b7160e01b600052603260045260246000fd5b60200101906001600160f81b031916908160001a9053506120cc600a866131b4565b945061205e565b601180546000838152601260205260408120829055600182018355919091527f31ecc21a745e3968a04e9570e4425bc18fa8019c68028196b546d1669c200c680155565b6000600161212484610f1e565b61212e91906131e7565b600083815260106020526040902054909150808214612181576001600160a01b0384166000908152600f602090815260408083208584528252808320548484528184208190558352601090915290208190555b5060009182526010602090815260408084208490556001600160a01b039094168352600f81528383209183525290812055565b6011546000906121c6906001906131e7565b600083815260126020526040812054601180549394509092849081106121fc57634e487b7160e01b600052603260045260246000fd5b90600052602060002001549050806011838154811061222b57634e487b7160e01b600052603260045260246000fd5b600091825260208083209091019290925582815260129091526040808220849055858252812055601180548061227157634e487b7160e01b600052603160045260246000fd5b6001900381819060005260206000200160009055905550505050565b600061229883610f1e565b6001600160a01b039093166000908152600f60209081526040808320868452825280832085905593825260109052919091209190915550565b6001600160a01b0382166122f75760405162461bcd60e51b815260040161079490612e02565b61230081611862565b1561231d5760405162461bcd60e51b815260040161079490612b9e565b61232960008383611de1565b6001600160a01b038216600090815260036020526040812080546001929061235290849061319c565b909155505060008181526002602052604080822080546001600160a01b0319166001600160a01b03861690811790915590518392907fddf252ad1be2c89b69c2b068fc378daa952ba7f163c4a11628f55a4df523b3ef908290a4610d946000838361084c565b6001600160a01b03163b151590565b6040805160a08101825260008082526020820181905291810182905260608101829052608081019190915290565b604080518082019091526000808252602082015290565b8280546124189061322a565b90600052602060002090601f01602090048101928261243a5760008555612480565b82601f1061245357805160ff1916838001178555612480565b82800160010185558215612480579182015b82811115612480578251825591602001919060010190612465565b5061248c929150612490565b5090565b5b8082111561248c5760008155600101612491565b600067ffffffffffffffff808411156124c0576124c06132c0565b604051601f8501601f19908116603f011681019082821181831017156124e8576124e86132c0565b8160405280935085815286868601111561250157600080fd5b858560208301376000602087830101525050509392505050565b80356001600160a01b03811681146106d657600080fd5b600082601f830112612542578081fd5b611dda838335602085016124a5565b80356001600160601b03811681146106d657600080fd5b600060208284031215612579578081fd5b611dda8261251b565b60008060408385031215612594578081fd5b61259d8361251b565b91506125ab6020840161251b565b90509250929050565b6000806000606084860312156125c8578081fd5b6125d18461251b565b92506125df6020850161251b565b9150604084013590509250925092565b60008060008060808587031215612604578081fd5b61260d8561251b565b935061261b6020860161251b565b925060408501359150606085013567ffffffffffffffff81111561263d578182fd5b8501601f8101871361264d578182fd5b61265c878235602084016124a5565b91505092959194509250565b6000806040838503121561267a578182fd5b6126838361251b565b915060208301358015158114612697578182fd5b809150509250929050565b600080604083850312156126b4578182fd5b6126bd8361251b565b946020939093013593505050565b6000806000606084860312156126df578283fd5b6126e88461251b565b95602085013595506040909401359392505050565b60006020828403121561270e578081fd5b8135611dda816132d6565b60006020828403121561272a578081fd5b8151611dda816132d6565b600060208284031215612746578081fd5b813567ffffffffffffffff81111561275c578182fd5b61155e84828501612532565b600080600080600060a0868803121561277f578081fd5b853567ffffffffffffffff80821115612796578283fd5b6127a289838a01612532565b965060208801359150808211156127b7578283fd5b506127c488828901612532565b945050604086013592506127da60608701612551565b949793965091946080013592915050565b6000602082840312156127fc578081fd5b5035919050565b60008060408385031215612815578182fd5b50508035926020909101359150565b60008060408385031215612836578182fd5b823591506125ab60208401612551565b6000815180845261285e8160208601602086016131fe565b601f01601f19169290920160200192915050565b80518252602080820151908301526040808201516001600160a01b0316908301526060808201511515908301526080908101511515910152565b600082516128be8184602087016131fe565b9190910192915050565b600083516128da8184602088016131fe565b8351908301906128ee8183602088016131fe565b01949350505050565b90565b6001600160a01b0391909116815260200190565b6001600160a01b038581168252841660208201526040810183905260806060820181905260009061294190830184612846565b9695505050505050565b6001600160a01b03929092168252602082015260400190565b6020808252825182820181905260009190848201906040850190845b818110156129a657612993838551612872565b9284019260a09290920191600101612980565b50909695505050505050565b901515815260200190565b600060208252611dda6020830184612846565b60006101008083526129e48184018c612846565b6001600160a01b039a8b1660208501529890991660408301525060608101959095526001600160601b0393909316608085015290151560a0840152151560c083015260e09091015292915050565b6020808252601a908201527f45524332393831526f79616c746965733a20546f6f2068696768000000000000604082015260600190565b6020808252601b908201527f436f756e7465723a2064656372656d656e74206f766572666c6f770000000000604082015260600190565b60208082526032908201527f4552433732313a207472616e7366657220746f206e6f6e20455243373231526560408201527131b2b4bb32b91034b6b83632b6b2b73a32b960711b606082015260800190565b60208082526026908201527f4f776e61626c653a206e6577206f776e657220697320746865207a65726f206160408201526564647265737360d01b606082015260800190565b60208082526025908201527f4552433732313a207472616e736665722066726f6d20696e636f72726563742060408201526437bbb732b960d91b606082015260800190565b602080825260079082015266125b9e081bdd5d60ca1b604082015260600190565b6020808252601c908201527f4552433732313a20746f6b656e20616c7265616479206d696e74656400000000604082015260600190565b60208082526024908201527f4552433732313a207472616e7366657220746f20746865207a65726f206164646040820152637265737360e01b606082015260800190565b60208082526019908201527f4552433732313a20617070726f766520746f2063616c6c657200000000000000604082015260600190565b6020808252602c908201527f4552433732313a206f70657261746f7220717565727920666f72206e6f6e657860408201526b34b9ba32b73a103a37b5b2b760a11b606082015260800190565b60208082526038908201527f4552433732313a20617070726f76652063616c6c6572206973206e6f74206f7760408201527f6e6572206e6f7220617070726f76656420666f7220616c6c0000000000000000606082015260800190565b6020808252600e908201526d43616e277420776974686472617760901b604082015260600190565b6020808252602a908201527f4552433732313a2062616c616e636520717565727920666f7220746865207a65604082015269726f206164647265737360b01b606082015260800190565b60208082526029908201527f4552433732313a206f776e657220717565727920666f72206e6f6e657869737460408201526832b73a103a37b5b2b760b91b606082015260800190565b6020808252602e908201527f45524337323155524953746f726167653a2055524920736574206f66206e6f6e60408201526d32bc34b9ba32b73a103a37b5b2b760911b606082015260800190565b6020808252818101527f4552433732313a206d696e7420746f20746865207a65726f2061646472657373604082015260600190565b60208082526031908201527f45524337323155524953746f726167653a2055524920717565727920666f72206040820152703737b732bc34b9ba32b73a103a37b5b2b760791b606082015260800190565b6020808252602c908201527f4552433732313a20617070726f76656420717565727920666f72206e6f6e657860408201526b34b9ba32b73a103a37b5b2b760a11b606082015260800190565b6020808252818101527f4f776e61626c653a2063616c6c6572206973206e6f7420746865206f776e6572604082015260600190565b6020808252600790820152664f6e2073616c6560c81b604082015260600190565b602080825260069082015265596f7572277360d01b604082015260600190565b602080825260089082015267213c20312077656960c01b604082015260600190565b6020808252600a90820152692a3c103330b4b632b21760b11b604082015260600190565b6020808252602f908201527f4552433732314d657461646174613a2055524920717565727920666f72206e6f60408201526e3732bc34b9ba32b73a103a37b5b2b760891b606082015260800190565b60208082526021908201527f4552433732313a20617070726f76616c20746f2063757272656e74206f776e656040820152603960f91b606082015260800190565b6020808252601a908201527f5072696365206e6f74206571206c697374696e67207072696365000000000000604082015260600190565b60208082526031908201527f4552433732313a207472616e736665722063616c6c6572206973206e6f74206f6040820152701ddb995c881b9bdc88185c1c1c9bdd9959607a1b606082015260800190565b6020808252600a90820152695552492065786973747360b01b604082015260600190565b6020808252600e908201526d76616c756520213d20707269636560901b604082015260600190565b6020808252600890820152676e6f742073616c6560c01b604082015260600190565b6020808252600e908201526d56616c756520213d20707269636560901b604082015260600190565b60a08101610b468284612872565b81516001600160a01b031681526020918201519181019190915260400190565b90815260200190565b93845260208401929092526001600160a01b03908116604084015216606082015260800190565b600082198211156131af576131af613294565b500190565b6000826131c3576131c36132aa565b500490565b60008160001904831182151516156131e2576131e2613294565b500290565b6000828210156131f9576131f9613294565b500390565b60005b83811015613219578181015183820152602001613201565b838111156113d05750506000910152565b60028104600182168061323e57607f821691505b6020821081141561325f57634e487b7160e01b600052602260045260246000fd5b50919050565b600060001982141561327957613279613294565b5060010190565b60008261328f5761328f6132aa565b500690565b634e487b7160e01b600052601160045260246000fd5b634e487b7160e01b600052601260045260246000fd5b634e487b7160e01b600052604160045260246000fd5b6001600160e01b03198116811461139457600080fdfea2646970667358221220114cc57b4fac3541d4a6100d21af2b2355c20039d7fa6a3f82b7b063002ebccf64736f6c63430008010033a2646970667358221220ebef6e28b268decb6157eb39eed07a87c1c4fbd47a1c8c79358d09aa50925c2f64736f6c63430008010033",
  "immutableReferences": {},
  "source": "// SPDX-License-Identifier: MIT\npragma solidity >=0.4.22 <0.9.0;\n\nimport \"./NftMarket.sol\";\n\ncontract Factory {\n    using Counters for Counters.Counter;\n\n    struct CollectionNft {\n        NftMarket token;\n        uint collectionId;\n        address creator;\n        string name;\n        string symbol;\n        string collectionURI;\n        bool isPublished;\n    }\n\n    Counters.Counter private _collectionIds;\n\n    CollectionNft[] public allCollections;\n\n\n    mapping(address => uint []) private _ownedCollections;\n\n    mapping(uint => CollectionNft) private _idToCollection;\n\n    event collectionCreated(\n        address indexed Collection,\n        string Name,\n        string Symbol,\n        string collectionURI,\n        uint indexed collectionId\n    );\n\n    function collectionsAmount() public view returns (uint) {\n        return allCollections.length;\n    }\n\n    function getAllCollections() public view returns (CollectionNft[] memory) {\n        return allCollections;\n    }\n\n    function createCollection(\n        string memory Name,\n        string memory Symbol,\n        string memory collectionURI\n\n    ) public {\n\n        _collectionIds.increment();\n        uint newCollectionIds = _collectionIds.current();\n        NftMarket token = new NftMarket(Name, Symbol);\n        CollectionNft memory newCollection;\n        newCollection.collectionId = newCollectionIds;\n        newCollection.token = token;\n        newCollection.creator = msg.sender;\n        newCollection.name = Name;\n        newCollection.symbol = Symbol;\n        newCollection.collectionURI = collectionURI;\n        newCollection.isPublished = true;\n\n        allCollections.push(newCollection);\n        _idToCollection[newCollectionIds] = newCollection;\n        _ownedCollections[msg.sender].push(newCollectionIds);\n\n        emit collectionCreated(address(token), Name, Symbol, collectionURI, newCollectionIds);\n    }\n\n    function setNewCollectionIdentity(uint collectionIds, string memory name, string memory symbol) public {\n        require(msg.sender == _idToCollection[collectionIds].creator, \"Not owner!\");\n        _idToCollection[collectionIds].name = name;\n        _idToCollection[collectionIds].symbol = symbol;\n    }\n\n    function setNewCollectionURI(uint collectionIds, string memory collectionURI) public {\n        require(msg.sender == _idToCollection[collectionIds].creator, \"Not owner!\");\n        _idToCollection[collectionIds].collectionURI = collectionURI;\n    }\n\n    function getCollectionById(uint collectionIds) public view returns (CollectionNft memory){\n        return _idToCollection[collectionIds];\n    }\n\n    function publishCollection(uint collectionIds) public {\n        _idToCollection[collectionIds].isPublished = true;\n    }\n\n    function hideFromPublishedCollection(uint collectionIds) public {\n        _idToCollection[collectionIds].isPublished = false;\n    }\n\n\n    function getOwnedCollections(address creator) public view returns (CollectionNft[] memory){\n        require(_ownedCollections[creator].length > 0, \"No collections.\");\n        uint currentIndex = 0;\n        CollectionNft[] memory ownedCollections = new CollectionNft[](_ownedCollections[creator].length);\n        for (uint i = 0; i < _ownedCollections[creator].length; i++) {\n            CollectionNft storage collection = _idToCollection[_ownedCollections[creator][i]];\n            ownedCollections[currentIndex] = collection;\n            currentIndex++;\n        }\n        return ownedCollections;\n\n    }\n}\n",
  "sourcePath": "/home/igor/11_Ethereum/nft-marketplace-first/contracts/Factory.sol",
  "compiler": {
    "name": "solc",
    "version": "0.8.1+commit.df193b15.Emscripten.clang"
  },
  "schemaVersion": "3.4.9",
  "updatedAt": "2023-02-09T15:08:31.998Z",
  "networkType": "ethereum",
  "devdoc": {
    "kind": "dev",
    "methods": {},
    "version": 1
  },
  "userdoc": {
    "kind": "user",
    "methods": {},
    "version": 1
  }
}