{
  "contractName": "Factory",
  "abi": [
    {
      "anonymous": false,
      "inputs": [
        {
          "indexed": true,
          "internalType": "address",
          "name": "Collection",
          "type": "address"
        },
        {
          "indexed": false,
          "internalType": "string",
          "name": "Name",
          "type": "string"
        },
        {
          "indexed": false,
          "internalType": "string",
          "name": "Symbol",
          "type": "string"
        },
        {
          "indexed": false,
          "internalType": "string",
          "name": "collectionURI",
          "type": "string"
        },
        {
          "indexed": true,
          "internalType": "uint256",
          "name": "collectionId",
          "type": "uint256"
        }
      ],
      "name": "collectionCreated",
      "type": "event"
    },
    {
      "inputs": [
        {
          "internalType": "uint256",
          "name": "",
          "type": "uint256"
        }
      ],
      "name": "allCollections",
      "outputs": [
        {
          "internalType": "contract NftMarket",
          "name": "token",
          "type": "address"
        },
        {
          "internalType": "uint256",
          "name": "collectionId",
          "type": "uint256"
        },
        {
          "internalType": "address",
          "name": "creator",
          "type": "address"
        },
        {
          "internalType": "string",
          "name": "name",
          "type": "string"
        },
        {
          "internalType": "string",
          "name": "symbol",
          "type": "string"
        },
        {
          "internalType": "string",
          "name": "collectionURI",
          "type": "string"
        },
        {
          "internalType": "bool",
          "name": "isPublished",
          "type": "bool"
        }
      ],
      "stateMutability": "view",
      "type": "function",
      "constant": true
    },
    {
      "inputs": [],
      "name": "collectionsAmount",
      "outputs": [
        {
          "internalType": "uint256",
          "name": "",
          "type": "uint256"
        }
      ],
      "stateMutability": "view",
      "type": "function",
      "constant": true
    },
    {
      "inputs": [],
      "name": "getAllCollections",
      "outputs": [
        {
          "components": [
            {
              "internalType": "contract NftMarket",
              "name": "token",
              "type": "address"
            },
            {
              "internalType": "uint256",
              "name": "collectionId",
              "type": "uint256"
            },
            {
              "internalType": "address",
              "name": "creator",
              "type": "address"
            },
            {
              "internalType": "string",
              "name": "name",
              "type": "string"
            },
            {
              "internalType": "string",
              "name": "symbol",
              "type": "string"
            },
            {
              "internalType": "string",
              "name": "collectionURI",
              "type": "string"
            },
            {
              "internalType": "bool",
              "name": "isPublished",
              "type": "bool"
            }
          ],
          "internalType": "struct Factory.CollectionNft[]",
          "name": "",
          "type": "tuple[]"
        }
      ],
      "stateMutability": "view",
      "type": "function",
      "constant": true
    },
    {
      "inputs": [
        {
          "internalType": "string",
          "name": "Name",
          "type": "string"
        },
        {
          "internalType": "string",
          "name": "Symbol",
          "type": "string"
        },
        {
          "internalType": "string",
          "name": "collectionURI",
          "type": "string"
        }
      ],
      "name": "createCollection",
      "outputs": [],
      "stateMutability": "nonpayable",
      "type": "function"
    },
    {
      "inputs": [
        {
          "internalType": "uint256",
          "name": "collectionIds",
          "type": "uint256"
        },
        {
          "internalType": "string",
          "name": "name",
          "type": "string"
        },
        {
          "internalType": "string",
          "name": "symbol",
          "type": "string"
        }
      ],
      "name": "setNewCollectionIdentity",
      "outputs": [],
      "stateMutability": "nonpayable",
      "type": "function"
    },
    {
      "inputs": [
        {
          "internalType": "uint256",
          "name": "collectionIds",
          "type": "uint256"
        },
        {
          "internalType": "string",
          "name": "collectionURI",
          "type": "string"
        }
      ],
      "name": "setNewCollectionURI",
      "outputs": [],
      "stateMutability": "nonpayable",
      "type": "function"
    },
    {
      "inputs": [
        {
          "internalType": "uint256",
          "name": "collectionIds",
          "type": "uint256"
        }
      ],
      "name": "getCollectionById",
      "outputs": [
        {
          "components": [
            {
              "internalType": "contract NftMarket",
              "name": "token",
              "type": "address"
            },
            {
              "internalType": "uint256",
              "name": "collectionId",
              "type": "uint256"
            },
            {
              "internalType": "address",
              "name": "creator",
              "type": "address"
            },
            {
              "internalType": "string",
              "name": "name",
              "type": "string"
            },
            {
              "internalType": "string",
              "name": "symbol",
              "type": "string"
            },
            {
              "internalType": "string",
              "name": "collectionURI",
              "type": "string"
            },
            {
              "internalType": "bool",
              "name": "isPublished",
              "type": "bool"
            }
          ],
          "internalType": "struct Factory.CollectionNft",
          "name": "",
          "type": "tuple"
        }
      ],
      "stateMutability": "view",
      "type": "function",
      "constant": true
    },
    {
      "inputs": [
        {
          "internalType": "uint256",
          "name": "collectionIds",
          "type": "uint256"
        }
      ],
      "name": "publishCollection",
      "outputs": [],
      "stateMutability": "nonpayable",
      "type": "function"
    },
    {
      "inputs": [
        {
          "internalType": "uint256",
          "name": "collectionIds",
          "type": "uint256"
        }
      ],
      "name": "hideFromPublishedCollection",
      "outputs": [],
      "stateMutability": "nonpayable",
      "type": "function"
    },
    {
      "inputs": [],
      "name": "getOwnedCollections",
      "outputs": [
        {
          "components": [
            {
              "internalType": "contract NftMarket",
              "name": "token",
              "type": "address"
            },
            {
              "internalType": "uint256",
              "name": "collectionId",
              "type": "uint256"
            },
            {
              "internalType": "address",
              "name": "creator",
              "type": "address"
            },
            {
              "internalType": "string",
              "name": "name",
              "type": "string"
            },
            {
              "internalType": "string",
              "name": "symbol",
              "type": "string"
            },
            {
              "internalType": "string",
              "name": "collectionURI",
              "type": "string"
            },
            {
              "internalType": "bool",
              "name": "isPublished",
              "type": "bool"
            }
          ],
          "internalType": "struct Factory.CollectionNft[]",
          "name": "",
          "type": "tuple[]"
        }
      ],
      "stateMutability": "view",
      "type": "function",
      "constant": true
    }
  ],
  "bytecode": "0x608060405234801561001057600080fd5b50614d4a806100206000396000f3fe60806040523480156200001157600080fd5b5060043610620000ac5760003560e01c80638dc36e5a116200006f5780638dc36e5a1462000139578063a9de97091462000152578063e547cb851462000169578063ece86c21146200018f578063f8276bd214620001a657620000ac565b8063167ef49514620000b15780632e97b46814620000e6578063582849b014620000ff5780636441fe0214620001165780636804a958146200012f575b600080fd5b620000c8620000c23660046200127e565b620001bd565b604051620000dd979695949392919062001457565b60405180910390f35b620000fd620000f7366004620012e0565b620003ce565b005b620000fd6200011036600462001297565b62000468565b62000120620004d0565b604051620000dd9190620013f3565b6200012062000860565b6200014362000ad1565b604051620000dd9190620015b1565b620000fd620001633660046200127e565b62000ad7565b620001806200017a3660046200127e565b62000af2565b604051620000dd919062001595565b620000fd620001a0366004620011f0565b62000d2c565b620000fd620001b73660046200127e565b62001031565b60018181548110620001ce57600080fd5b600091825260209091206007909102018054600182015460028301546003840180546001600160a01b03948516965092949390911692916200021090620015ba565b80601f01602080910402602001604051908101604052809291908181526020018280546200023e90620015ba565b80156200028f5780601f1062000263576101008083540402835291602001916200028f565b820191906000526020600020905b8154815290600101906020018083116200027157829003601f168201915b505050505090806004018054620002a690620015ba565b80601f0160208091040260200160405190810160405280929190818152602001828054620002d490620015ba565b8015620003255780601f10620002f95761010080835404028352916020019162000325565b820191906000526020600020905b8154815290600101906020018083116200030757829003601f168201915b5050505050908060050180546200033c90620015ba565b80601f01602080910402602001604051908101604052809291908181526020018280546200036a90620015ba565b8015620003bb5780601f106200038f57610100808354040283529160200191620003bb565b820191906000526020600020905b8154815290600101906020018083116200039d57829003601f168201915b5050506006909301549192505060ff1687565b6000838152600360205260409020600201546001600160a01b03163314620004135760405162461bcd60e51b81526004016200040a9062001571565b60405180910390fd5b600083815260036020818152604090922084516200043a939190920191908501906200105c565b506000838152600360209081526040909120825162000462926004909201918401906200105c565b50505050565b6000828152600360205260409020600201546001600160a01b03163314620004a45760405162461bcd60e51b81526004016200040a9062001571565b60008281526003602090815260409091208251620004cb926005909201918401906200105c565b505050565b33600090815260026020526040902054606090620005025760405162461bcd60e51b81526004016200040a9062001548565b33600090815260026020526040812054819067ffffffffffffffff8111156200053b57634e487b7160e01b600052604160045260246000fd5b6040519080825280602002602001820160405280156200057857816020015b62000564620010eb565b8152602001906001900390816200055a5790505b50905060005b3360009081526002602052604090205481101562000859573360009081526002602052604081208054600391839185908110620005cb57634e487b7160e01b600052603260045260246000fd5b600091825260208083209091015483528281019390935260409182019020815160e08101835281546001600160a01b03908116825260018301549482019490945260028201549093169183019190915260038101805491935083916060840191906200063790620015ba565b80601f01602080910402602001604051908101604052809291908181526020018280546200066590620015ba565b8015620006b65780601f106200068a57610100808354040283529160200191620006b6565b820191906000526020600020905b8154815290600101906020018083116200069857829003601f168201915b50505050508152602001600482018054620006d190620015ba565b80601f0160208091040260200160405190810160405280929190818152602001828054620006ff90620015ba565b8015620007505780601f10620007245761010080835404028352916020019162000750565b820191906000526020600020905b8154815290600101906020018083116200073257829003601f168201915b505050505081526020016005820180546200076b90620015ba565b80601f01602080910402602001604051908101604052809291908181526020018280546200079990620015ba565b8015620007ea5780601f10620007be57610100808354040283529160200191620007ea565b820191906000526020600020905b815481529060010190602001808311620007cc57829003601f168201915b50505091835250506006919091015460ff16151560209091015283518490869081106200082757634e487b7160e01b600052603260045260246000fd5b602002602001018190525083806200083f90620015f7565b9450505080806200085090620015f7565b9150506200057e565b5091505090565b60606001805480602002602001604051908101604052809291908181526020016000905b8282101562000ac85760008481526020908190206040805160e0810182526007860290920180546001600160a01b039081168452600182015494840194909452600281015490931690820152600382018054919291606084019190620008ea90620015ba565b80601f01602080910402602001604051908101604052809291908181526020018280546200091890620015ba565b8015620009695780601f106200093d5761010080835404028352916020019162000969565b820191906000526020600020905b8154815290600101906020018083116200094b57829003601f168201915b505050505081526020016004820180546200098490620015ba565b80601f0160208091040260200160405190810160405280929190818152602001828054620009b290620015ba565b801562000a035780601f10620009d75761010080835404028352916020019162000a03565b820191906000526020600020905b815481529060010190602001808311620009e557829003601f168201915b5050505050815260200160058201805462000a1e90620015ba565b80601f016020809104026020016040519081016040528092919081815260200182805462000a4c90620015ba565b801562000a9d5780601f1062000a715761010080835404028352916020019162000a9d565b820191906000526020600020905b81548152906001019060200180831162000a7f57829003601f168201915b50505091835250506006919091015460ff161515602091820152908252600192909201910162000884565b50505050905090565b60015490565b6000908152600360205260409020600601805460ff19169055565b62000afc620010eb565b600082815260036020818152604092839020835160e08101855281546001600160a01b039081168252600183015493820193909352600282015490921693820193909352908201805491929160608401919062000b5990620015ba565b80601f016020809104026020016040519081016040528092919081815260200182805462000b8790620015ba565b801562000bd85780601f1062000bac5761010080835404028352916020019162000bd8565b820191906000526020600020905b81548152906001019060200180831162000bba57829003601f168201915b5050505050815260200160048201805462000bf390620015ba565b80601f016020809104026020016040519081016040528092919081815260200182805462000c2190620015ba565b801562000c725780601f1062000c465761010080835404028352916020019162000c72565b820191906000526020600020905b81548152906001019060200180831162000c5457829003601f168201915b5050505050815260200160058201805462000c8d90620015ba565b80601f016020809104026020016040519081016040528092919081815260200182805462000cbb90620015ba565b801562000d0c5780601f1062000ce05761010080835404028352916020019162000d0c565b820191906000526020600020905b81548152906001019060200180831162000cee57829003601f168201915b50505091835250506006919091015460ff16151560209091015292915050565b62000d3860006200104f565b600062000d46600062001058565b90506000848460405162000d5a906200113c565b62000d67929190620014cd565b604051809103906000f08015801562000d84573d6000803e3d6000fd5b50905062000d91620010eb565b60208082018481526001600160a01b0380851684523360408501908152606085018a8152608086018a905260a08601899052600160c0870181905280548082018255600091909152865160079091027fb10e2d527612073b26eecdfd717e6a320cf44b4afac2b0732d9fcbe2b7fa0cf6810180549286166001600160a01b031993841617815595517fb10e2d527612073b26eecdfd717e6a320cf44b4afac2b0732d9fcbe2b7fa0cf782015592517fb10e2d527612073b26eecdfd717e6a320cf44b4afac2b0732d9fcbe2b7fa0cf8840180549190951691161790925590518051859462000ea4937fb10e2d527612073b26eecdfd717e6a320cf44b4afac2b0732d9fcbe2b7fa0cf9019201906200105c565b506080820151805162000ec29160048401916020909101906200105c565b5060a0820151805162000ee09160058401916020909101906200105c565b5060c091909101516006909101805460ff1916911515919091179055600083815260036020818152604092839020845181546001600160a01b03199081166001600160a01b03928316178355868401516001840155948601516002830180549096169116179093556060840151805185949362000f63939085019201906200105c565b506080820151805162000f819160048401916020909101906200105c565b5060a0820151805162000f9f9160058401916020909101906200105c565b5060c091909101516006909101805460ff1916911515919091179055336000908152600260209081526040808320805460018101825590845291909220018490555183906001600160a01b038416907fa2efd812126ee384de06ab0fc42b5df2ce90a26cfcf275779adbede001b49e319062001021908a908a908a90620014ff565b60405180910390a3505050505050565b6000908152600360205260409020600601805460ff19166001179055565b80546001019055565b5490565b8280546200106a90620015ba565b90600052602060002090601f0160209004810192826200108e5760008555620010d9565b82601f10620010a957805160ff1916838001178555620010d9565b82800160010185558215620010d9579182015b82811115620010d9578251825591602001919060010190620010bc565b50620010e79291506200114a565b5090565b6040518060e0016040528060006001600160a01b031681526020016000815260200160006001600160a01b031681526020016060815260200160608152602001606081526020016000151581525090565b6136df806200163683390190565b5b80821115620010e757600081556001016200114b565b600082601f83011262001172578081fd5b813567ffffffffffffffff808211156200119057620011906200161f565b604051601f8301601f19908116603f01168101908282118183101715620011bb57620011bb6200161f565b81604052838152866020858801011115620011d4578485fd5b8360208701602083013792830160200193909352509392505050565b60008060006060848603121562001205578283fd5b833567ffffffffffffffff808211156200121d578485fd5b6200122b8783880162001161565b9450602086013591508082111562001241578384fd5b6200124f8783880162001161565b9350604086013591508082111562001265578283fd5b50620012748682870162001161565b9150509250925092565b60006020828403121562001290578081fd5b5035919050565b60008060408385031215620012aa578182fd5b82359150602083013567ffffffffffffffff811115620012c8578182fd5b620012d68582860162001161565b9150509250929050565b600080600060608486031215620012f5578283fd5b83359250602084013567ffffffffffffffff8082111562001241578384fd5b60008151808452815b818110156200133b576020818501810151868301820152016200131d565b818111156200134d5782602083870101525b50601f01601f19169290920160200192915050565b600060018060a01b038083511684526020830151602085015280604084015116604085015250606082015160e06060850152620013a360e085018262001314565b905060808301518482036080860152620013be828262001314565b91505060a083015184820360a0860152620013da828262001314565b91505060c0830151151560c08501528091505092915050565b6000602080830181845280855180835260408601915060408482028701019250838701855b828110156200144a57603f198886030184526200143785835162001362565b9450928501929085019060010162001418565b5092979650505050505050565b6001600160a01b038881168252602082018890528616604082015260e0606082018190526000906200148c9083018762001314565b8281036080840152620014a0818762001314565b905082810360a0840152620014b6818662001314565b91505082151560c083015298975050505050505050565b600060408252620014e2604083018562001314565b8281036020840152620014f6818562001314565b95945050505050565b60006060825262001514606083018662001314565b828103602084015262001528818662001314565b905082810360408401526200153e818562001314565b9695505050505050565b6020808252600f908201526e27379031b7b63632b1ba34b7b7399760891b604082015260600190565b6020808252600a90820152694e6f74206f776e65722160b01b604082015260600190565b600060208252620015aa602083018462001362565b9392505050565b90815260200190565b600281046001821680620015cf57607f821691505b60208210811415620015f157634e487b7160e01b600052602260045260246000fd5b50919050565b60006000198214156200161857634e487b7160e01b81526011600452602481fd5b5060010190565b634e487b7160e01b600052604160045260246000fdfe60806040526658d15e17628000600a553480156200001c57600080fd5b50604051620036df380380620036df8339810160408190526200003f9162000242565b81518290829062000058906000906020850190620000e9565b5080516200006e906001906020840190620000e9565b5050506200008b620000856200009360201b60201c565b62000097565b5050620002fc565b3390565b600780546001600160a01b038381166001600160a01b0319831681179093556040519116919082907f8be0079c531659141344cd1fd0a4f28419497f9722a3daafe3b4186f6b6457e090600090a35050565b828054620000f790620002a9565b90600052602060002090601f0160209004810192826200011b576000855562000166565b82601f106200013657805160ff191683800117855562000166565b8280016001018555821562000166579182015b828111156200016657825182559160200191906001019062000149565b506200017492915062000178565b5090565b5b8082111562000174576000815560010162000179565b600082601f830112620001a0578081fd5b81516001600160401b0380821115620001bd57620001bd620002e6565b604051601f8301601f19908116603f01168101908282118183101715620001e857620001e8620002e6565b8160405283815260209250868385880101111562000204578485fd5b8491505b8382101562000227578582018301518183018401529082019062000208565b838211156200023857848385830101525b9695505050505050565b6000806040838503121562000255578182fd5b82516001600160401b03808211156200026c578384fd5b6200027a868387016200018f565b9350602085015191508082111562000290578283fd5b506200029f858286016200018f565b9150509250929050565b600281046001821680620002be57607f821691505b60208210811415620002e057634e487b7160e01b600052602260045260246000fd5b50919050565b634e487b7160e01b600052604160045260246000fd5b6133d3806200030c6000396000f3fe60806040526004361061021e5760003560e01c806370a0823111610123578063c4b3a2c5116100ab578063e23a60fe1161006f578063e23a60fe14610601578063e78980d414610621578063e985e9c514610641578063f0d2fad814610661578063f2fde38b1461068157610228565b8063c4b3a2c514610582578063c78f19f9146105a2578063c87b56dd146105b7578063ccb4918d146105d7578063d547cfb7146105ec57610228565b80638c06490b116100f25780638c06490b146105055780638da5cb5b1461051857806395d89b411461052d578063a22cb46514610542578063b88d4fde1461056257610228565b806370a082311461049b57806370cbcb43146104bb578063715018a6146104d05780637c726b69146104e557610228565b80632f745c59116101a657806343d32ae71161017557806343d32ae7146103e15780634f6ccce7146104015780635b6d9d3b146104215780636352211e1461044e5780636f1a0af51461046e57610228565b80632f745c591461036a57806336b536be1461038a5780633ccfd60b146103ac57806342842e0e146103c157610228565b806318160ddd116101ed57806318160ddd146102d457806321f422e5146102f657806323b872dd14610309578063243adbdd146103295780632a55205a1461033c57610228565b806301ffc9a71461022d57806306fdde0314610263578063081812fc14610285578063095ea7b3146102b257610228565b3661022857600080fd5b600080fd5b34801561023957600080fd5b5061024d6102483660046126f6565b6106a1565b60405161025a91906129ab565b60405180910390f35b34801561026f57600080fd5b506102786106e9565b60405161025a91906129b6565b34801561029157600080fd5b506102a56102a03660046127e4565b61077b565b60405161025a91906128f3565b3480156102be57600080fd5b506102d26102cd36600461269b565b6107c7565b005b3480156102e057600080fd5b506102e961085f565b60405161025a9190613190565b6102d26103043660046127fc565b610865565b34801561031557600080fd5b506102d26103243660046125ad565b610926565b6102e96103373660046127e4565b61095e565b34801561034857600080fd5b5061035c6103573660046127fc565b610b84565b60405161025a929190612944565b34801561037657600080fd5b506102e961038536600461269b565b610bda565b34801561039657600080fd5b5061039f610c2f565b60405161025a919061295d565b3480156103b857600080fd5b506102d2610d97565b3480156103cd57600080fd5b506102d26103dc3660046125ad565b610e77565b3480156103ed57600080fd5b5061024d6103fc36600461272e565b610e92565b34801561040d57600080fd5b506102e961041c3660046127e4565b610ec3565b34801561042d57600080fd5b5061044161043c3660046127e4565b610f1e565b60405161025a9190613170565b34801561045a57600080fd5b506102a56104693660046127e4565b610f59565b34801561047a57600080fd5b5061048e6104893660046127e4565b610f8e565b60405161025a9190613162565b3480156104a757600080fd5b506102e96104b6366004612561565b610ffd565b3480156104c757600080fd5b5061039f611041565b3480156104dc57600080fd5b506102d261117e565b3480156104f157600080fd5b506102d26105003660046127e4565b6111c9565b6102e9610513366004612761565b61122d565b34801561052457600080fd5b506102a561136c565b34801561053957600080fd5b5061027861137b565b34801561054e57600080fd5b506102d261055d366004612661565b61138a565b34801561056e57600080fd5b506102d261057d3660046125e8565b61139c565b34801561058e57600080fd5b506102d261059d3660046126c4565b6113db565b3480156105ae57600080fd5b506102e9611444565b3480156105c357600080fd5b506102786105d23660046127e4565b61144a565b3480156105e357600080fd5b506102e961156b565b3480156105f857600080fd5b5061027861157c565b34801561060d57600080fd5b506102d261061c3660046127fc565b61160a565b34801561062d57600080fd5b506102d261063c36600461281d565b6116ee565b34801561064d57600080fd5b5061024d61065c36600461257b565b611710565b34801561066d57600080fd5b506102d261067c3660046127e4565b61173e565b34801561068d57600080fd5b506102d261069c366004612561565b6117d4565b60006001600160e01b031982166380ac58cd60e01b14806106d257506001600160e01b03198216635b5e139f60e01b145b806106e157506106e182611842565b90505b919050565b6060600080546106f8906132db565b80601f0160208091040260200160405190810160405280929190818152602001828054610724906132db565b80156107715780601f1061074657610100808354040283529160200191610771565b820191906000526020600020905b81548152906001019060200180831161075457829003601f168201915b5050505050905090565b60006107868261185b565b6107ab5760405162461bcd60e51b81526004016107a290612e8d565b60405180910390fd5b506000908152600460205260409020546001600160a01b031690565b60006107d282610f59565b9050806001600160a01b0316836001600160a01b031614156108065760405162461bcd60e51b81526004016107a290612fc3565b806001600160a01b0316610818611878565b6001600160a01b0316148061083457506108348161065c611878565b6108505760405162461bcd60e51b81526004016107a290612c6a565b61085a838361187c565b505050565b60115490565b3361086f83610f59565b6001600160a01b0316146108955760405162461bcd60e51b81526004016107a290612c33565b6000828152600e6020526040902060020154600160a01b900460ff16156108ce5760405162461bcd60e51b81526004016107a290612dd0565b600a5434146108ef5760405162461bcd60e51b81526004016107a29061303b565b6000828152600e6020526040902060028101805460ff60a01b1916600160a01b179055600101819055610922600b6118ea565b5050565b610937610931611878565b826118f3565b6109535760405162461bcd60e51b81526004016107a29061307f565b61085a838383611970565b60008061096a83610f59565b9050336001600160a01b03821614156109955760405162461bcd60e51b81526004016107a290612f0e565b6000838152600e602052604090206001015434146109c55760405162461bcd60e51b81526004016107a2906130f4565b6000838152600860209081526040808320815180830190925280546001600160a01b031680835260019091015492820183905290929091606490610a099034613279565b610a139190613265565b9050610a20843388611970565b6000868152600e6020526040812060010154610a3d90839061324d565b6000888152600e6020526040902060020154909150600160a81b900460ff1615610ab0576001600160a01b0385166108fc610a788434613298565b6040518115909202916000818181858888f19350505050158015610aa0573d6000803e3d6000fd5b50610aab8383611aa3565b610afa565b6000878152600e6020526040808220600101839055516001600160a01b038716913480156108fc02929091818181858888f19350505050158015610af8573d6000803e3d6000fd5b505b610b04600b611ad9565b6000878152600e602052604090819020600201805461ffff60a01b1916600160a81b179055517f4bfbfeeba2f706c81ab0cb0d1984899c83191e05f9b5b4463fa39cde0031ab8990610b619089903490869086908b903390613219565b60405180910390a150505060009384525050600e60205250604090206001015490565b6000828152600860209081526040808320815180830190925280546001600160a01b03168083526001909101549282018390529291606490610bc69086613279565b610bd09190613265565b9150509250929050565b6000610be583610ffd565b8210610c035760405162461bcd60e51b81526004016107a290612b14565b506001600160a01b0382166000908152600f602090815260408083208484529091529020545b92915050565b60606000610c3b61085f565b9050600080610c4a600b611b00565b67ffffffffffffffff811115610c7057634e487b7160e01b600052604160045260246000fd5b604051908082528060200260200182016040528015610ca957816020015b610c966123c0565b815260200190600190039081610c8e5790505b50905060005b83811015610d8f576000610cc282610ec3565b6000818152600e60205260409020600281015491925090600160a01b900460ff16151560011415610d7a576040805160a081018252825481526001830154602082015260028301546001600160a01b0381169282019290925260ff600160a01b8304811615156060830152600160a81b909204909116151560808201528451859087908110610d6157634e487b7160e01b600052603260045260246000fd5b6020908102919091010152610d7760018661324d565b94505b50508080610d8790613316565b915050610caf565b509250505090565b610d9f611878565b6001600160a01b0316610db061136c565b6001600160a01b031614610dd65760405162461bcd60e51b81526004016107a290612ed9565b4780610df45760405162461bcd60e51b81526004016107a290612cc7565b6000610dfe61136c565b6001600160a01b031682604051610e14906128f0565b60006040518083038185875af1925050503d8060008114610e51576040519150601f19603f3d011682016040523d82523d6000602084013e610e56565b606091505b50509050806109225760405162461bcd60e51b81526004016107a290612f50565b61085a8383836040518060200160405280600081525061139c565b6000600d82604051610ea491906128a5565b9081526040519081900360200190205460ff1615156001149050919050565b6000610ecd61085f565b8210610eeb5760405162461bcd60e51b81526004016107a290612b14565b60118281548110610f0c57634e487b7160e01b600052603260045260246000fd5b90600052602060002001549050919050565b610f266123ee565b50600090815260086020908152604091829020825180840190935280546001600160a01b03168352600101549082015290565b6000818152600260205260408120546001600160a01b0316806106e15760405162461bcd60e51b81526004016107a290612d39565b610f966123c0565b506000908152600e6020908152604091829020825160a08101845281548152600182015492810192909252600201546001600160a01b0381169282019290925260ff600160a01b8304811615156060830152600160a81b9092049091161515608082015290565b60006001600160a01b0382166110255760405162461bcd60e51b81526004016107a290612cef565b506001600160a01b031660009081526003602052604090205490565b6060600061104e33610ffd565b905060008167ffffffffffffffff81111561107957634e487b7160e01b600052604160045260246000fd5b6040519080825280602002602001820160405280156110b257816020015b61109f6123c0565b8152602001906001900390816110975790505b50905060005b828110156111775760006110cc3383610bda565b6000818152600e6020908152604091829020825160a0810184528154815260018201549281019290925260028101546001600160a01b0381169383019390935260ff600160a01b8404811615156060840152600160a81b909304909216151560808201528551929350909185908590811061115757634e487b7160e01b600052603260045260246000fd5b60200260200101819052505050808061116f90613316565b9150506110b8565b5091505090565b611186611878565b6001600160a01b031661119761136c565b6001600160a01b0316146111bd5760405162461bcd60e51b81526004016107a290612ed9565b6111c76000611b04565b565b6111d1611878565b6001600160a01b03166111e261136c565b6001600160a01b0316146112085760405162461bcd60e51b81526004016107a290612ed9565b600081116112285760405162461bcd60e51b81526004016107a290612f2e565b600a55565b600061123886610e92565b156112555760405162461bcd60e51b81526004016107a2906130d0565b600a5434146112765760405162461bcd60e51b81526004016107a290613004565b611280600c6118ea565b61128a600b6118ea565b6000611296600c611b00565b6000818152600e60205260409020600201805460ff60a81b1916905590506112be3382611b56565b6112c88188611b70565b6112d28186611bb4565b6112e633856001600160601b0316836113db565b6001600d886040516112f891906128a5565b908152604051908190036020018120805492151560ff19909316929092179091557f38a1312905b7ebaaf517ceeff9d63a5c1dda4f8617d2639d839cbb04722f71699061135a9083908a908a90339081908c908c906001906000908e90613199565b60405180910390a19695505050505050565b6007546001600160a01b031690565b6060600180546106f8906132db565b610922611395611878565b8383611c6f565b6113ad6113a7611878565b836118f3565b6113c95760405162461bcd60e51b81526004016107a29061307f565b6113d584848484611d12565b50505050565b60648211156113fc5760405162461bcd60e51b81526004016107a2906129c9565b6040805180820182526001600160a01b03948516815260208082019485526000938452600890529120905181546001600160a01b031916931692909217825551600190910155565b600a5481565b60606114558261185b565b6114715760405162461bcd60e51b81526004016107a290612e3c565b6000828152600660205260408120805461148a906132db565b80601f01602080910402602001604051908101604052809291908181526020018280546114b6906132db565b80156115035780601f106114d857610100808354040283529160200191611503565b820191906000526020600020905b8154815290600101906020018083116114e657829003601f168201915b505050505090506000611514611d45565b9050805160001415611528575090506106e4565b81511561155a5780826040516020016115429291906128c1565b604051602081830303815290604052925050506106e4565b61156384611d57565b949350505050565b6000611577600b611b00565b905090565b60098054611589906132db565b80601f01602080910402602001604051908101604052809291908181526020018280546115b5906132db565b80156116025780601f106115d757610100808354040283529160200191611602565b820191906000526020600020905b8154815290600101906020018083116115e557829003601f168201915b505050505081565b611612611878565b6001600160a01b031661162361136c565b6001600160a01b0316146116495760405162461bcd60e51b81526004016107a290612ed9565b6000828152600860209081526040808320815180830190925280546001600160a01b031682526001015491810182905291906064906116889085613279565b6116929190613265565b6000858152600e6020526040902060020154909150600160a81b900460ff16156116d7576116c0818461324d565b6000858152600e60205260409020600101556113d5565b50506000918252600e602052604090912060010155565b6000918252600860205260409091206001600160601b03909116600190910155565b6001600160a01b03918216600090815260056020908152604080832093909416825291909152205460ff1690565b3361174882610f59565b6001600160a01b03161461176e5760405162461bcd60e51b81526004016107a29061313e565b6000818152600e6020526040902060020154600160a01b900460ff1615156001146117ab5760405162461bcd60e51b81526004016107a29061311c565b6000818152600e60205260409020600201805460ff60a01b191690556117d1600b611ad9565b50565b6117dc611878565b6001600160a01b03166117ed61136c565b6001600160a01b0316146118135760405162461bcd60e51b81526004016107a290612ed9565b6001600160a01b0381166118395760405162461bcd60e51b81526004016107a290612a89565b6117d181611b04565b6001600160e01b031981166301ffc9a760e01b14919050565b6000908152600260205260409020546001600160a01b0316151590565b3390565b600081815260046020526040902080546001600160a01b0319166001600160a01b03841690811790915581906118b182610f59565b6001600160a01b03167f8c5be1e5ebec7d5bd14f71427d1e84f3dd0314c0f7b2291e5b200ac8c7c3b92560405160405180910390a45050565b80546001019055565b60006118fe8261185b565b61191a5760405162461bcd60e51b81526004016107a290612be7565b600061192583610f59565b9050806001600160a01b0316846001600160a01b031614806119605750836001600160a01b03166119558461077b565b6001600160a01b0316145b8061156357506115638185611710565b826001600160a01b031661198382610f59565b6001600160a01b0316146119a95760405162461bcd60e51b81526004016107a290612acf565b6001600160a01b0382166119cf5760405162461bcd60e51b81526004016107a290612b6c565b6119da838383611dda565b6119e560008261187c565b6001600160a01b0383166000908152600360205260408120805460019290611a0e908490613298565b90915550506001600160a01b0382166000908152600360205260408120805460019290611a3c90849061324d565b909155505060008181526002602052604080822080546001600160a01b0319166001600160a01b0386811691821790925591518493918716917fddf252ad1be2c89b69c2b068fc378daa952ba7f163c4a11628f55a4df523b3ef91a461085a83838361085a565b6040516001600160a01b0383169082156108fc029083906000818181858888f1935050505015801561085a573d6000803e3d6000fd5b805480611af85760405162461bcd60e51b81526004016107a290612a00565b600019019055565b5490565b600780546001600160a01b038381166001600160a01b0319831681179093556040519116919082907f8be0079c531659141344cd1fd0a4f28419497f9722a3daafe3b4186f6b6457e090600090a35050565b610922828260405180602001604052806000815250611e63565b611b798261185b565b611b955760405162461bcd60e51b81526004016107a290612d82565b6000828152600660209081526040909120825161085a92840190612405565b60008111611bd45760405162461bcd60e51b81526004016107a290612f2e565b6040805160a081018252838152602080820193845233828401908152600160608401818152600060808601818152988152600e9094529490922092518355935190820155915160029092018054915193511515600160a81b0260ff60a81b19941515600160a01b0260ff60a01b196001600160a01b03959095166001600160a01b031990941693909317939093169190911792909216179055565b816001600160a01b0316836001600160a01b03161415611ca15760405162461bcd60e51b81526004016107a290612bb0565b6001600160a01b0383811660008181526005602090815260408083209487168084529490915290819020805460ff1916851515179055517f17307eab39ab6107e8899845ad3d59bd9653f200f220920489ca2b5937696c3190611d059085906129ab565b60405180910390a3505050565b611d1d848484611970565b611d2984848484611e96565b6113d55760405162461bcd60e51b81526004016107a290612a37565b60408051602081019091526000815290565b6060611d628261185b565b611d7e5760405162461bcd60e51b81526004016107a290612f74565b6000611d88611d45565b90506000815111611da85760405180602001604052806000815250611dd3565b80611db284611fb1565b604051602001611dc39291906128c1565b6040516020818303038152906040525b9392505050565b611de583838361085a565b6001600160a01b038316611e0157611dfc816120cc565b611e24565b816001600160a01b0316836001600160a01b031614611e2457611e248382612110565b6001600160a01b038216611e4057611e3b816121ad565b61085a565b826001600160a01b0316826001600160a01b03161461085a5761085a8282612286565b611e6d83836122ca565b611e7a6000848484611e96565b61085a5760405162461bcd60e51b81526004016107a290612a37565b6000611eaa846001600160a01b03166123b1565b15611fa657836001600160a01b031663150b7a02611ec6611878565b8786866040518563ffffffff1660e01b8152600401611ee89493929190612907565b602060405180830381600087803b158015611f0257600080fd5b505af1925050508015611f32575060408051601f3d908101601f19168201909252611f2f91810190612712565b60015b611f8c573d808015611f60576040519150601f19603f3d011682016040523d82523d6000602084013e611f65565b606091505b508051611f845760405162461bcd60e51b81526004016107a290612a37565b805181602001fd5b6001600160e01b031916630a85bd0160e11b149050611563565b506001949350505050565b606081611fd657506040805180820190915260018152600360fc1b60208201526106e4565b8160005b81156120005780611fea81613316565b9150611ff99050600a83613265565b9150611fda565b60008167ffffffffffffffff81111561202957634e487b7160e01b600052604160045260246000fd5b6040519080825280601f01601f191660200182016040528015612053576020820181803683370190505b5090505b841561156357612068600183613298565b9150612075600a86613331565b61208090603061324d565b60f81b8183815181106120a357634e487b7160e01b600052603260045260246000fd5b60200101906001600160f81b031916908160001a9053506120c5600a86613265565b9450612057565b601180546000838152601260205260408120829055600182018355919091527f31ecc21a745e3968a04e9570e4425bc18fa8019c68028196b546d1669c200c680155565b6000600161211d84610ffd565b6121279190613298565b60008381526010602052604090205490915080821461217a576001600160a01b0384166000908152600f602090815260408083208584528252808320548484528184208190558352601090915290208190555b5060009182526010602090815260408084208490556001600160a01b039094168352600f81528383209183525290812055565b6011546000906121bf90600190613298565b600083815260126020526040812054601180549394509092849081106121f557634e487b7160e01b600052603260045260246000fd5b90600052602060002001549050806011838154811061222457634e487b7160e01b600052603260045260246000fd5b600091825260208083209091019290925582815260129091526040808220849055858252812055601180548061226a57634e487b7160e01b600052603160045260246000fd5b6001900381819060005260206000200160009055905550505050565b600061229183610ffd565b6001600160a01b039093166000908152600f60209081526040808320868452825280832085905593825260109052919091209190915550565b6001600160a01b0382166122f05760405162461bcd60e51b81526004016107a290612e07565b6122f98161185b565b156123165760405162461bcd60e51b81526004016107a290612b35565b61232260008383611dda565b6001600160a01b038216600090815260036020526040812080546001929061234b90849061324d565b909155505060008181526002602052604080822080546001600160a01b0319166001600160a01b03861690811790915590518392907fddf252ad1be2c89b69c2b068fc378daa952ba7f163c4a11628f55a4df523b3ef908290a46109226000838361085a565b6001600160a01b03163b151590565b6040805160a08101825260008082526020820181905291810182905260608101829052608081019190915290565b604080518082019091526000808252602082015290565b828054612411906132db565b90600052602060002090601f0160209004810192826124335760008555612479565b82601f1061244c57805160ff1916838001178555612479565b82800160010185558215612479579182015b8281111561247957825182559160200191906001019061245e565b50612485929150612489565b5090565b5b80821115612485576000815560010161248a565b600067ffffffffffffffff808411156124b9576124b9613371565b604051601f8501601f19908116603f011681019082821181831017156124e1576124e1613371565b816040528093508581528686860111156124fa57600080fd5b858560208301376000602087830101525050509392505050565b80356001600160a01b03811681146106e457600080fd5b600082601f83011261253b578081fd5b611dd38383356020850161249e565b80356001600160601b03811681146106e457600080fd5b600060208284031215612572578081fd5b611dd382612514565b6000806040838503121561258d578081fd5b61259683612514565b91506125a460208401612514565b90509250929050565b6000806000606084860312156125c1578081fd5b6125ca84612514565b92506125d860208501612514565b9150604084013590509250925092565b600080600080608085870312156125fd578081fd5b61260685612514565b935061261460208601612514565b925060408501359150606085013567ffffffffffffffff811115612636578182fd5b8501601f81018713612646578182fd5b6126558782356020840161249e565b91505092959194509250565b60008060408385031215612673578182fd5b61267c83612514565b915060208301358015158114612690578182fd5b809150509250929050565b600080604083850312156126ad578182fd5b6126b683612514565b946020939093013593505050565b6000806000606084860312156126d8578283fd5b6126e184612514565b95602085013595506040909401359392505050565b600060208284031215612707578081fd5b8135611dd381613387565b600060208284031215612723578081fd5b8151611dd381613387565b60006020828403121561273f578081fd5b813567ffffffffffffffff811115612755578182fd5b6115638482850161252b565b600080600080600060a08688031215612778578081fd5b853567ffffffffffffffff8082111561278f578283fd5b61279b89838a0161252b565b965060208801359150808211156127b0578283fd5b506127bd8882890161252b565b945050604086013592506127d36060870161254a565b949793965091946080013592915050565b6000602082840312156127f5578081fd5b5035919050565b6000806040838503121561280e578182fd5b50508035926020909101359150565b6000806040838503121561282f578182fd5b823591506125a46020840161254a565b600081518084526128578160208601602086016132af565b601f01601f19169290920160200192915050565b80518252602080820151908301526040808201516001600160a01b0316908301526060808201511515908301526080908101511515910152565b600082516128b78184602087016132af565b9190910192915050565b600083516128d38184602088016132af565b8351908301906128e78183602088016132af565b01949350505050565b90565b6001600160a01b0391909116815260200190565b6001600160a01b038581168252841660208201526040810183905260806060820181905260009061293a9083018461283f565b9695505050505050565b6001600160a01b03929092168252602082015260400190565b6020808252825182820181905260009190848201906040850190845b8181101561299f5761298c83855161286b565b9284019260a09290920191600101612979565b50909695505050505050565b901515815260200190565b600060208252611dd3602083018461283f565b6020808252601a908201527f45524332393831526f79616c746965733a20546f6f2068696768000000000000604082015260600190565b6020808252601b908201527f436f756e7465723a2064656372656d656e74206f766572666c6f770000000000604082015260600190565b60208082526032908201527f4552433732313a207472616e7366657220746f206e6f6e20455243373231526560408201527131b2b4bb32b91034b6b83632b6b2b73a32b960711b606082015260800190565b60208082526026908201527f4f776e61626c653a206e6577206f776e657220697320746865207a65726f206160408201526564647265737360d01b606082015260800190565b60208082526025908201527f4552433732313a207472616e736665722066726f6d20696e636f72726563742060408201526437bbb732b960d91b606082015260800190565b602080825260079082015266125b9e081bdd5d60ca1b604082015260600190565b6020808252601c908201527f4552433732313a20746f6b656e20616c7265616479206d696e74656400000000604082015260600190565b60208082526024908201527f4552433732313a207472616e7366657220746f20746865207a65726f206164646040820152637265737360e01b606082015260800190565b60208082526019908201527f4552433732313a20617070726f766520746f2063616c6c657200000000000000604082015260600190565b6020808252602c908201527f4552433732313a206f70657261746f7220717565727920666f72206e6f6e657860408201526b34b9ba32b73a103a37b5b2b760a11b606082015260800190565b6020808252601d908201527f596f7520617265206e6f74206f776e6572206f662074686973206e6674000000604082015260600190565b60208082526038908201527f4552433732313a20617070726f76652063616c6c6572206973206e6f74206f7760408201527f6e6572206e6f7220617070726f76656420666f7220616c6c0000000000000000606082015260800190565b6020808252600e908201526d43616e277420776974686472617760901b604082015260600190565b6020808252602a908201527f4552433732313a2062616c616e636520717565727920666f7220746865207a65604082015269726f206164647265737360b01b606082015260800190565b60208082526029908201527f4552433732313a206f776e657220717565727920666f72206e6f6e657869737460408201526832b73a103a37b5b2b760b91b606082015260800190565b6020808252602e908201527f45524337323155524953746f726167653a2055524920736574206f66206e6f6e60408201526d32bc34b9ba32b73a103a37b5b2b760911b606082015260800190565b60208082526017908201527f4974656d20697320616c7265616479206f6e2073616c65000000000000000000604082015260600190565b6020808252818101527f4552433732313a206d696e7420746f20746865207a65726f2061646472657373604082015260600190565b60208082526031908201527f45524337323155524953746f726167653a2055524920717565727920666f72206040820152703737b732bc34b9ba32b73a103a37b5b2b760791b606082015260800190565b6020808252602c908201527f4552433732313a20617070726f76656420717565727920666f72206e6f6e657860408201526b34b9ba32b73a103a37b5b2b760a11b606082015260800190565b6020808252818101527f4f776e61626c653a2063616c6c6572206973206e6f7420746865206f776e6572604082015260600190565b602080825260069082015265596f7572277360d01b604082015260600190565b602080825260089082015267213c20312077656960c01b604082015260600190565b6020808252600a90820152692a3c103330b4b632b21760b11b604082015260600190565b6020808252602f908201527f4552433732314d657461646174613a2055524920717565727920666f72206e6f60408201526e3732bc34b9ba32b73a103a37b5b2b760891b606082015260800190565b60208082526021908201527f4552433732313a20617070726f76616c20746f2063757272656e74206f776e656040820152603960f91b606082015260800190565b6020808252601a908201527f5072696365206e6f74206571206c697374696e67207072696365000000000000604082015260600190565b60208082526024908201527f5072696365206d75737420626520657175616c20746f206c697374696e6720706040820152637269636560e01b606082015260800190565b60208082526031908201527f4552433732313a207472616e736665722063616c6c6572206973206e6f74206f6040820152701ddb995c881b9bdc88185c1c1c9bdd9959607a1b606082015260800190565b6020808252600a90820152695552492065786973747360b01b604082015260600190565b6020808252600e908201526d76616c756520213d20707269636560901b604082015260600190565b6020808252600890820152676e6f742073616c6560c01b604082015260600190565b6020808252600a90820152694e6f74206f776e65722160b01b604082015260600190565b60a08101610c29828461286b565b81516001600160a01b031681526020918201519181019190915260400190565b90815260200190565b60006101408c83528060208401526131b38184018d61283f565b905082810360408401526131c7818c61283f565b6001600160a01b039a8b1660608501529890991660808301525060a08101959095526001600160601b039390931660c085015290151560e0840152151561010083015261012090910152949350505050565b9586526020860194909452604085019290925260608401526001600160a01b0390811660808401521660a082015260c00190565b6000821982111561326057613260613345565b500190565b6000826132745761327461335b565b500490565b600081600019048311821515161561329357613293613345565b500290565b6000828210156132aa576132aa613345565b500390565b60005b838110156132ca5781810151838201526020016132b2565b838111156113d55750506000910152565b6002810460018216806132ef57607f821691505b6020821081141561331057634e487b7160e01b600052602260045260246000fd5b50919050565b600060001982141561332a5761332a613345565b5060010190565b6000826133405761334061335b565b500690565b634e487b7160e01b600052601160045260246000fd5b634e487b7160e01b600052601260045260246000fd5b634e487b7160e01b600052604160045260246000fd5b6001600160e01b0319811681146117d157600080fdfea26469706673582212204b0f67c33a1ec1844b9533a1bc8d58a16072be5ac5be7191b5f46fb36933a2bf64736f6c63430008010033a2646970667358221220f6b93b27b71d0803295fc86ba94a52f575017313043d3e20eb476ca732a30d2664736f6c63430008010033",
  "immutableReferences": {},
  "source": "// SPDX-License-Identifier: MIT\npragma solidity >=0.4.22 <0.9.0;\n\nimport \"./NftMarket.sol\";\n\ncontract Factory {\n    using Counters for Counters.Counter;\n\n    struct CollectionNft {\n        NftMarket token;\n        uint collectionId;\n        address creator;\n        string name;\n        string symbol;\n        string collectionURI;\n        bool isPublished;\n    }\n\n    Counters.Counter private _collectionIds;\n\n    CollectionNft[] public allCollections;\n\n\n    mapping(address => uint []) private _ownedCollections;\n\n    mapping(uint => CollectionNft) private _idToCollection;\n\n    event collectionCreated(\n        address indexed Collection,\n        string Name,\n        string Symbol,\n        string collectionURI,\n        uint indexed collectionId\n    );\n\n    function collectionsAmount() public view returns (uint) {\n        return allCollections.length;\n    }\n\n    function getAllCollections() public view returns (CollectionNft[] memory) {\n        return allCollections;\n    }\n\n    function createCollection(\n        string memory Name,\n        string memory Symbol,\n        string memory collectionURI\n\n    ) public {\n\n        _collectionIds.increment();\n        uint newCollectionIds = _collectionIds.current();\n        NftMarket token = new NftMarket(Name, Symbol);\n        CollectionNft memory newCollection;\n        newCollection.collectionId = newCollectionIds;\n        newCollection.token = token;\n        newCollection.creator = msg.sender;\n        newCollection.name = Name;\n        newCollection.symbol = Symbol;\n        newCollection.collectionURI = collectionURI;\n        newCollection.isPublished = true;\n\n        allCollections.push(newCollection);\n        _idToCollection[newCollectionIds] = newCollection;\n        _ownedCollections[msg.sender].push(newCollectionIds);\n\n        emit collectionCreated(address(token), Name, Symbol, collectionURI, newCollectionIds);\n    }\n\n    function setNewCollectionIdentity(uint collectionIds, string memory name, string memory symbol) public {\n        require(msg.sender == _idToCollection[collectionIds].creator, \"Not owner!\");\n        _idToCollection[collectionIds].name = name;\n        _idToCollection[collectionIds].symbol = symbol;\n    }\n\n    function setNewCollectionURI(uint collectionIds, string memory collectionURI) public {\n        require(msg.sender == _idToCollection[collectionIds].creator, \"Not owner!\");\n        _idToCollection[collectionIds].collectionURI = collectionURI;\n    }\n\n    function getCollectionById(uint collectionIds) public view returns (CollectionNft memory){\n        return _idToCollection[collectionIds];\n    }\n\n    function publishCollection(uint collectionIds) public {\n        _idToCollection[collectionIds].isPublished = true;\n    }\n\n    function hideFromPublishedCollection(uint collectionIds) public {\n        _idToCollection[collectionIds].isPublished = false;\n    }\n\n\n    function getOwnedCollections() public view returns (CollectionNft[] memory){\n        require(_ownedCollections[msg.sender].length > 0, \"No collections.\");\n        uint currentIndex = 0;\n        CollectionNft[] memory ownedCollections = new CollectionNft[](_ownedCollections[msg.sender].length);\n        for (uint i = 0; i < _ownedCollections[msg.sender].length; i++) {\n            CollectionNft storage collection = _idToCollection[_ownedCollections[msg.sender][i]];\n            ownedCollections[currentIndex] = collection;\n            currentIndex++;\n        }\n        return ownedCollections;\n\n    }\n}\n",
  "sourcePath": "/home/igor/11_Ethereum/nft-marketplace-first/contracts/Factory.sol",
  "compiler": {
    "name": "solc",
    "version": "0.8.1+commit.df193b15.Emscripten.clang"
  },
  "schemaVersion": "3.4.9",
  "updatedAt": "2023-02-20T09:12:53.966Z",
  "networkType": "ethereum",
  "devdoc": {
    "kind": "dev",
    "methods": {},
    "version": 1
  },
  "userdoc": {
    "kind": "user",
    "methods": {},
    "version": 1
  }
}