{
  "contractName": "NftMarket",
  "abi": [
    {
      "inputs": [],
      "stateMutability": "nonpayable",
      "type": "constructor"
    },
    {
      "anonymous": false,
      "inputs": [
        {
          "indexed": true,
          "internalType": "address",
          "name": "owner",
          "type": "address"
        },
        {
          "indexed": true,
          "internalType": "address",
          "name": "approved",
          "type": "address"
        },
        {
          "indexed": true,
          "internalType": "uint256",
          "name": "tokenId",
          "type": "uint256"
        }
      ],
      "name": "Approval",
      "type": "event"
    },
    {
      "anonymous": false,
      "inputs": [
        {
          "indexed": true,
          "internalType": "address",
          "name": "owner",
          "type": "address"
        },
        {
          "indexed": true,
          "internalType": "address",
          "name": "operator",
          "type": "address"
        },
        {
          "indexed": false,
          "internalType": "bool",
          "name": "approved",
          "type": "bool"
        }
      ],
      "name": "ApprovalForAll",
      "type": "event"
    },
    {
      "anonymous": false,
      "inputs": [
        {
          "indexed": false,
          "internalType": "uint256",
          "name": "tokenId",
          "type": "uint256"
        },
        {
          "indexed": false,
          "internalType": "uint256",
          "name": "price",
          "type": "uint256"
        },
        {
          "indexed": false,
          "internalType": "address",
          "name": "creator",
          "type": "address"
        },
        {
          "indexed": false,
          "internalType": "bool",
          "name": "isListed",
          "type": "bool"
        },
        {
          "indexed": false,
          "internalType": "bool",
          "name": "isSold",
          "type": "bool"
        }
      ],
      "name": "NftItemCreated",
      "type": "event"
    },
    {
      "anonymous": false,
      "inputs": [
        {
          "indexed": true,
          "internalType": "address",
          "name": "previousOwner",
          "type": "address"
        },
        {
          "indexed": true,
          "internalType": "address",
          "name": "newOwner",
          "type": "address"
        }
      ],
      "name": "OwnershipTransferred",
      "type": "event"
    },
    {
      "anonymous": false,
      "inputs": [
        {
          "indexed": false,
          "internalType": "address",
          "name": "receiver",
          "type": "address"
        },
        {
          "indexed": false,
          "internalType": "uint256",
          "name": "tokenId",
          "type": "uint256"
        },
        {
          "indexed": false,
          "internalType": "uint256",
          "name": "royaltyAmount",
          "type": "uint256"
        }
      ],
      "name": "RoyaltyAmountSent",
      "type": "event"
    },
    {
      "anonymous": false,
      "inputs": [
        {
          "indexed": true,
          "internalType": "address",
          "name": "from",
          "type": "address"
        },
        {
          "indexed": true,
          "internalType": "address",
          "name": "to",
          "type": "address"
        },
        {
          "indexed": true,
          "internalType": "uint256",
          "name": "tokenId",
          "type": "uint256"
        }
      ],
      "name": "Transfer",
      "type": "event"
    },
    {
      "inputs": [
        {
          "internalType": "address",
          "name": "to",
          "type": "address"
        },
        {
          "internalType": "uint256",
          "name": "tokenId",
          "type": "uint256"
        }
      ],
      "name": "approve",
      "outputs": [],
      "stateMutability": "nonpayable",
      "type": "function"
    },
    {
      "inputs": [
        {
          "internalType": "address",
          "name": "owner",
          "type": "address"
        }
      ],
      "name": "balanceOf",
      "outputs": [
        {
          "internalType": "uint256",
          "name": "",
          "type": "uint256"
        }
      ],
      "stateMutability": "view",
      "type": "function",
      "constant": true
    },
    {
      "inputs": [],
      "name": "baseTokenURI",
      "outputs": [
        {
          "internalType": "string",
          "name": "",
          "type": "string"
        }
      ],
      "stateMutability": "view",
      "type": "function",
      "constant": true
    },
    {
      "inputs": [
        {
          "internalType": "uint256",
          "name": "tokenId",
          "type": "uint256"
        }
      ],
      "name": "getApproved",
      "outputs": [
        {
          "internalType": "address",
          "name": "",
          "type": "address"
        }
      ],
      "stateMutability": "view",
      "type": "function",
      "constant": true
    },
    {
      "inputs": [
        {
          "internalType": "address",
          "name": "owner",
          "type": "address"
        },
        {
          "internalType": "address",
          "name": "operator",
          "type": "address"
        }
      ],
      "name": "isApprovedForAll",
      "outputs": [
        {
          "internalType": "bool",
          "name": "",
          "type": "bool"
        }
      ],
      "stateMutability": "view",
      "type": "function",
      "constant": true
    },
    {
      "inputs": [],
      "name": "listingPrice",
      "outputs": [
        {
          "internalType": "uint256",
          "name": "",
          "type": "uint256"
        }
      ],
      "stateMutability": "view",
      "type": "function",
      "constant": true
    },
    {
      "inputs": [
        {
          "internalType": "address",
          "name": "",
          "type": "address"
        }
      ],
      "name": "mintsPerAddress",
      "outputs": [
        {
          "internalType": "uint256",
          "name": "",
          "type": "uint256"
        }
      ],
      "stateMutability": "view",
      "type": "function",
      "constant": true
    },
    {
      "inputs": [],
      "name": "name",
      "outputs": [
        {
          "internalType": "string",
          "name": "",
          "type": "string"
        }
      ],
      "stateMutability": "view",
      "type": "function",
      "constant": true
    },
    {
      "inputs": [],
      "name": "owner",
      "outputs": [
        {
          "internalType": "address",
          "name": "",
          "type": "address"
        }
      ],
      "stateMutability": "view",
      "type": "function",
      "constant": true
    },
    {
      "inputs": [
        {
          "internalType": "uint256",
          "name": "tokenId",
          "type": "uint256"
        }
      ],
      "name": "ownerOf",
      "outputs": [
        {
          "internalType": "address",
          "name": "",
          "type": "address"
        }
      ],
      "stateMutability": "view",
      "type": "function",
      "constant": true
    },
    {
      "inputs": [],
      "name": "renounceOwnership",
      "outputs": [],
      "stateMutability": "nonpayable",
      "type": "function"
    },
    {
      "inputs": [
        {
          "internalType": "address",
          "name": "from",
          "type": "address"
        },
        {
          "internalType": "address",
          "name": "to",
          "type": "address"
        },
        {
          "internalType": "uint256",
          "name": "tokenId",
          "type": "uint256"
        }
      ],
      "name": "safeTransferFrom",
      "outputs": [],
      "stateMutability": "nonpayable",
      "type": "function"
    },
    {
      "inputs": [
        {
          "internalType": "address",
          "name": "from",
          "type": "address"
        },
        {
          "internalType": "address",
          "name": "to",
          "type": "address"
        },
        {
          "internalType": "uint256",
          "name": "tokenId",
          "type": "uint256"
        },
        {
          "internalType": "bytes",
          "name": "_data",
          "type": "bytes"
        }
      ],
      "name": "safeTransferFrom",
      "outputs": [],
      "stateMutability": "nonpayable",
      "type": "function"
    },
    {
      "inputs": [
        {
          "internalType": "address",
          "name": "operator",
          "type": "address"
        },
        {
          "internalType": "bool",
          "name": "approved",
          "type": "bool"
        }
      ],
      "name": "setApprovalForAll",
      "outputs": [],
      "stateMutability": "nonpayable",
      "type": "function"
    },
    {
      "inputs": [],
      "name": "symbol",
      "outputs": [
        {
          "internalType": "string",
          "name": "",
          "type": "string"
        }
      ],
      "stateMutability": "view",
      "type": "function",
      "constant": true
    },
    {
      "inputs": [
        {
          "internalType": "uint256",
          "name": "tokenId",
          "type": "uint256"
        }
      ],
      "name": "tokenURI",
      "outputs": [
        {
          "internalType": "string",
          "name": "",
          "type": "string"
        }
      ],
      "stateMutability": "view",
      "type": "function",
      "constant": true
    },
    {
      "inputs": [
        {
          "internalType": "address",
          "name": "from",
          "type": "address"
        },
        {
          "internalType": "address",
          "name": "to",
          "type": "address"
        },
        {
          "internalType": "uint256",
          "name": "tokenId",
          "type": "uint256"
        }
      ],
      "name": "transferFrom",
      "outputs": [],
      "stateMutability": "nonpayable",
      "type": "function"
    },
    {
      "inputs": [
        {
          "internalType": "address",
          "name": "newOwner",
          "type": "address"
        }
      ],
      "name": "transferOwnership",
      "outputs": [],
      "stateMutability": "nonpayable",
      "type": "function"
    },
    {
      "stateMutability": "payable",
      "type": "receive",
      "payable": true
    },
    {
      "inputs": [
        {
          "internalType": "uint256",
          "name": "newPrice",
          "type": "uint256"
        }
      ],
      "name": "setListingPrice",
      "outputs": [],
      "stateMutability": "nonpayable",
      "type": "function"
    },
    {
      "inputs": [
        {
          "internalType": "uint256",
          "name": "tokenId",
          "type": "uint256"
        }
      ],
      "name": "getNftItem",
      "outputs": [
        {
          "components": [
            {
              "internalType": "uint256",
              "name": "tokenId",
              "type": "uint256"
            },
            {
              "internalType": "uint256",
              "name": "price",
              "type": "uint256"
            },
            {
              "internalType": "address",
              "name": "creator",
              "type": "address"
            },
            {
              "internalType": "bool",
              "name": "isListed",
              "type": "bool"
            },
            {
              "internalType": "bool",
              "name": "isSold",
              "type": "bool"
            }
          ],
          "internalType": "struct NftMarket.NftItem",
          "name": "",
          "type": "tuple"
        }
      ],
      "stateMutability": "view",
      "type": "function",
      "constant": true
    },
    {
      "inputs": [],
      "name": "listedItemsCount",
      "outputs": [
        {
          "internalType": "uint256",
          "name": "",
          "type": "uint256"
        }
      ],
      "stateMutability": "view",
      "type": "function",
      "constant": true
    },
    {
      "inputs": [
        {
          "internalType": "string",
          "name": "tokenURI",
          "type": "string"
        }
      ],
      "name": "tokenURIExists",
      "outputs": [
        {
          "internalType": "bool",
          "name": "",
          "type": "bool"
        }
      ],
      "stateMutability": "view",
      "type": "function",
      "constant": true
    },
    {
      "inputs": [],
      "name": "totalSupply",
      "outputs": [
        {
          "internalType": "uint256",
          "name": "",
          "type": "uint256"
        }
      ],
      "stateMutability": "view",
      "type": "function",
      "constant": true
    },
    {
      "inputs": [
        {
          "internalType": "uint256",
          "name": "index",
          "type": "uint256"
        }
      ],
      "name": "tokenByIndex",
      "outputs": [
        {
          "internalType": "uint256",
          "name": "",
          "type": "uint256"
        }
      ],
      "stateMutability": "view",
      "type": "function",
      "constant": true
    },
    {
      "inputs": [
        {
          "internalType": "address",
          "name": "owner",
          "type": "address"
        },
        {
          "internalType": "uint256",
          "name": "index",
          "type": "uint256"
        }
      ],
      "name": "tokenOfOwnerByIndex",
      "outputs": [
        {
          "internalType": "uint256",
          "name": "",
          "type": "uint256"
        }
      ],
      "stateMutability": "view",
      "type": "function",
      "constant": true
    },
    {
      "inputs": [],
      "name": "getAllNftsOnSale",
      "outputs": [
        {
          "components": [
            {
              "internalType": "uint256",
              "name": "tokenId",
              "type": "uint256"
            },
            {
              "internalType": "uint256",
              "name": "price",
              "type": "uint256"
            },
            {
              "internalType": "address",
              "name": "creator",
              "type": "address"
            },
            {
              "internalType": "bool",
              "name": "isListed",
              "type": "bool"
            },
            {
              "internalType": "bool",
              "name": "isSold",
              "type": "bool"
            }
          ],
          "internalType": "struct NftMarket.NftItem[]",
          "name": "",
          "type": "tuple[]"
        }
      ],
      "stateMutability": "view",
      "type": "function",
      "constant": true
    },
    {
      "inputs": [],
      "name": "getOwnedNfts",
      "outputs": [
        {
          "components": [
            {
              "internalType": "uint256",
              "name": "tokenId",
              "type": "uint256"
            },
            {
              "internalType": "uint256",
              "name": "price",
              "type": "uint256"
            },
            {
              "internalType": "address",
              "name": "creator",
              "type": "address"
            },
            {
              "internalType": "bool",
              "name": "isListed",
              "type": "bool"
            },
            {
              "internalType": "bool",
              "name": "isSold",
              "type": "bool"
            }
          ],
          "internalType": "struct NftMarket.NftItem[]",
          "name": "",
          "type": "tuple[]"
        }
      ],
      "stateMutability": "view",
      "type": "function",
      "constant": true
    },
    {
      "inputs": [
        {
          "internalType": "string",
          "name": "tokenURI",
          "type": "string"
        },
        {
          "internalType": "uint256",
          "name": "price",
          "type": "uint256"
        },
        {
          "internalType": "uint96",
          "name": "royalty",
          "type": "uint96"
        }
      ],
      "name": "mintToken",
      "outputs": [
        {
          "internalType": "uint256",
          "name": "",
          "type": "uint256"
        }
      ],
      "stateMutability": "payable",
      "type": "function",
      "payable": true
    },
    {
      "inputs": [
        {
          "internalType": "bytes4",
          "name": "interfaceId",
          "type": "bytes4"
        }
      ],
      "name": "supportsInterface",
      "outputs": [
        {
          "internalType": "bool",
          "name": "",
          "type": "bool"
        }
      ],
      "stateMutability": "view",
      "type": "function",
      "constant": true
    },
    {
      "inputs": [
        {
          "internalType": "address",
          "name": "recipient",
          "type": "address"
        },
        {
          "internalType": "uint256",
          "name": "value",
          "type": "uint256"
        },
        {
          "internalType": "uint256",
          "name": "tokenId",
          "type": "uint256"
        }
      ],
      "name": "setRoyalties",
      "outputs": [],
      "stateMutability": "nonpayable",
      "type": "function"
    },
    {
      "inputs": [
        {
          "internalType": "uint256",
          "name": "tokenId",
          "type": "uint256"
        },
        {
          "internalType": "uint256",
          "name": "value",
          "type": "uint256"
        }
      ],
      "name": "royaltyInfo",
      "outputs": [
        {
          "internalType": "address",
          "name": "receiver",
          "type": "address"
        },
        {
          "internalType": "uint256",
          "name": "royaltyAmount",
          "type": "uint256"
        }
      ],
      "stateMutability": "view",
      "type": "function",
      "constant": true
    },
    {
      "inputs": [
        {
          "internalType": "uint256",
          "name": "tokenId",
          "type": "uint256"
        }
      ],
      "name": "getRoyaltyPerTokenId",
      "outputs": [
        {
          "components": [
            {
              "internalType": "address",
              "name": "recipient",
              "type": "address"
            },
            {
              "internalType": "uint256",
              "name": "amount",
              "type": "uint256"
            }
          ],
          "internalType": "struct NftMarket.RoyaltyInfo",
          "name": "",
          "type": "tuple"
        }
      ],
      "stateMutability": "view",
      "type": "function",
      "constant": true
    },
    {
      "inputs": [
        {
          "internalType": "uint256",
          "name": "tokenId",
          "type": "uint256"
        },
        {
          "internalType": "uint96",
          "name": "royalty",
          "type": "uint96"
        }
      ],
      "name": "changeRoyaltyPerTokenId",
      "outputs": [],
      "stateMutability": "nonpayable",
      "type": "function"
    },
    {
      "inputs": [
        {
          "internalType": "uint256",
          "name": "tokenId",
          "type": "uint256"
        }
      ],
      "name": "buyNft",
      "outputs": [],
      "stateMutability": "payable",
      "type": "function",
      "payable": true
    },
    {
      "inputs": [],
      "name": "withdraw",
      "outputs": [],
      "stateMutability": "nonpayable",
      "type": "function"
    },
    {
      "inputs": [
        {
          "internalType": "uint256",
          "name": "tokenId",
          "type": "uint256"
        },
        {
          "internalType": "uint256",
          "name": "newPrice",
          "type": "uint256"
        }
      ],
      "name": "placeNftOnSale",
      "outputs": [],
      "stateMutability": "payable",
      "type": "function",
      "payable": true
    },
    {
      "inputs": [
        {
          "internalType": "uint256",
          "name": "tokenId",
          "type": "uint256"
        }
      ],
      "name": "removeNftFromSale",
      "outputs": [],
      "stateMutability": "nonpayable",
      "type": "function"
    },
    {
      "inputs": [
        {
          "internalType": "uint256",
          "name": "tokenId",
          "type": "uint256"
        },
        {
          "internalType": "uint256",
          "name": "price",
          "type": "uint256"
        }
      ],
      "name": "setNewPrice",
      "outputs": [],
      "stateMutability": "nonpayable",
      "type": "function"
    }
  ],
  "bytecode": "0x60806040526658d15e17628000600a553480156200001c57600080fd5b506040518060400160405280600a81526020017f50756d706b696e4e4654000000000000000000000000000000000000000000008152506040518060400160405280600481526020017f504e4654000000000000000000000000000000000000000000000000000000008152508160009080519060200190620000a1929190620001b1565b508060019080519060200190620000ba929190620001b1565b505050620000dd620000d1620000e360201b60201c565b620000eb60201b60201c565b620002c5565b600033905090565b6000600760009054906101000a900473ffffffffffffffffffffffffffffffffffffffff16905081600760006101000a81548173ffffffffffffffffffffffffffffffffffffffff021916908373ffffffffffffffffffffffffffffffffffffffff1602179055508173ffffffffffffffffffffffffffffffffffffffff168173ffffffffffffffffffffffffffffffffffffffff167f8be0079c531659141344cd1fd0a4f28419497f9722a3daafe3b4186f6b6457e060405160405180910390a35050565b828054620001bf9062000290565b90600052602060002090601f016020900481019282620001e357600085556200022f565b82601f10620001fe57805160ff19168380011785556200022f565b828001600101855582156200022f579182015b828111156200022e57825182559160200191906001019062000211565b5b5090506200023e919062000242565b5090565b5b808211156200025d57600081600090555060010162000243565b5090565b7f4e487b7100000000000000000000000000000000000000000000000000000000600052602260045260246000fd5b60006002820490506001821680620002a957607f821691505b602082108103620002bf57620002be62000261565b5b50919050565b615bec80620002d56000396000f3fe6080604052600436106102295760003560e01c806370a0823111610123578063c78f19f9116100ab578063e23a60fe1161006f578063e23a60fe1461084d578063e78980d414610876578063e985e9c51461089f578063f0d2fad8146108dc578063f2fde38b1461090557610233565b8063c78f19f91461075f578063c87b56dd1461078a578063ccb4918d146107c7578063d547cfb7146107f2578063dfde9cd71461081d57610233565b80638da5cb5b116100f25780638da5cb5b1461068e57806395d89b41146106b9578063a22cb465146106e4578063b88d4fde1461070d578063c4b3a2c51461073657610233565b806370a08231146105e657806370cbcb4314610623578063715018a61461064e5780637c726b691461066557610233565b80632f745c59116101b157806343d32ae71161017557806343d32ae7146104b55780634f6ccce7146104f25780635b6d9d3b1461052f5780636352211e1461056c5780636f1a0af5146105a957610233565b80632f745c59146103d05780633023eba61461040d57806336b536be1461044a5780633ccfd60b1461047557806342842e0e1461048c57610233565b806318160ddd116101f857806318160ddd1461030657806321f422e51461033157806323b872dd1461034d578063243adbdd146103765780632a55205a1461039257610233565b806301ffc9a71461023857806306fdde0314610275578063081812fc146102a0578063095ea7b3146102dd57610233565b3661023357600080fd5b600080fd5b34801561024457600080fd5b5061025f600480360381019061025a9190613d4b565b61092e565b60405161026c9190613d93565b60405180910390f35b34801561028157600080fd5b5061028a61098f565b6040516102979190613e47565b60405180910390f35b3480156102ac57600080fd5b506102c760048036038101906102c29190613e9f565b610a21565b6040516102d49190613f0d565b60405180910390f35b3480156102e957600080fd5b5061030460048036038101906102ff9190613f54565b610aa6565b005b34801561031257600080fd5b5061031b610bbd565b6040516103289190613fa3565b60405180910390f35b61034b60048036038101906103469190613fbe565b610bca565b005b34801561035957600080fd5b50610374600480360381019061036f9190613ffe565b610d46565b005b610390600480360381019061038b9190613e9f565b610da6565b005b34801561039e57600080fd5b506103b960048036038101906103b49190613fbe565b6110f3565b6040516103c7929190614051565b60405180910390f35b3480156103dc57600080fd5b506103f760048036038101906103f29190613f54565b6111a5565b6040516104049190613fa3565b60405180910390f35b34801561041957600080fd5b50610434600480360381019061042f919061407a565b61124a565b6040516104419190613fa3565b60405180910390f35b34801561045657600080fd5b5061045f611262565b60405161046c91906141eb565b60405180910390f35b34801561048157600080fd5b5061048a611417565b005b34801561049857600080fd5b506104b360048036038101906104ae9190613ffe565b611592565b005b3480156104c157600080fd5b506104dc60048036038101906104d79190614342565b6115b2565b6040516104e99190613d93565b60405180910390f35b3480156104fe57600080fd5b5061051960048036038101906105149190613e9f565b6115ee565b6040516105269190613fa3565b60405180910390f35b34801561053b57600080fd5b5061055660048036038101906105519190613e9f565b61165f565b60405161056391906143ba565b60405180910390f35b34801561057857600080fd5b50610593600480360381019061058e9190613e9f565b6116ec565b6040516105a09190613f0d565b60405180910390f35b3480156105b557600080fd5b506105d060048036038101906105cb9190613e9f565b61179d565b6040516105dd919061443d565b60405180910390f35b3480156105f257600080fd5b5061060d6004803603810190610608919061407a565b61186a565b60405161061a9190613fa3565b60405180910390f35b34801561062f57600080fd5b50610638611921565b60405161064591906141eb565b60405180910390f35b34801561065a57600080fd5b50610663611aa0565b005b34801561067157600080fd5b5061068c60048036038101906106879190613e9f565b611b28565b005b34801561069a57600080fd5b506106a3611bf1565b6040516106b09190613f0d565b60405180910390f35b3480156106c557600080fd5b506106ce611c1b565b6040516106db9190613e47565b60405180910390f35b3480156106f057600080fd5b5061070b60048036038101906107069190614484565b611cad565b005b34801561071957600080fd5b50610734600480360381019061072f9190614565565b611cc3565b005b34801561074257600080fd5b5061075d600480360381019061075891906145e8565b611d25565b005b34801561076b57600080fd5b50610774611e00565b6040516107819190613fa3565b60405180910390f35b34801561079657600080fd5b506107b160048036038101906107ac9190613e9f565b611e06565b6040516107be9190613e47565b60405180910390f35b3480156107d357600080fd5b506107dc611f57565b6040516107e99190613fa3565b60405180910390f35b3480156107fe57600080fd5b50610807611f68565b6040516108149190613e47565b60405180910390f35b6108376004803603810190610832919061467f565b611ff6565b6040516108449190613fa3565b60405180910390f35b34801561085957600080fd5b50610874600480360381019061086f9190613fbe565b61221f565b005b34801561088257600080fd5b5061089d600480360381019061089891906146ee565b6123ad565b005b3480156108ab57600080fd5b506108c660048036038101906108c1919061472e565b6123da565b6040516108d39190613d93565b60405180910390f35b3480156108e857600080fd5b5061090360048036038101906108fe9190613e9f565b61246e565b005b34801561091157600080fd5b5061092c6004803603810190610927919061407a565b61258a565b005b6000632a55205a60e01b7bffffffffffffffffffffffffffffffffffffffffffffffffffffffff1916827bffffffffffffffffffffffffffffffffffffffffffffffffffffffff19161480610988575061098782612681565b5b9050919050565b60606000805461099e9061479d565b80601f01602080910402602001604051908101604052809291908181526020018280546109ca9061479d565b8015610a175780601f106109ec57610100808354040283529160200191610a17565b820191906000526020600020905b8154815290600101906020018083116109fa57829003601f168201915b5050505050905090565b6000610a2c82612763565b610a6b576040517f08c379a0000000000000000000000000000000000000000000000000000000008152600401610a6290614840565b60405180910390fd5b6004600083815260200190815260200160002060009054906101000a900473ffffffffffffffffffffffffffffffffffffffff169050919050565b6000610ab1826116ec565b90508073ffffffffffffffffffffffffffffffffffffffff168373ffffffffffffffffffffffffffffffffffffffff1603610b21576040517f08c379a0000000000000000000000000000000000000000000000000000000008152600401610b18906148d2565b60405180910390fd5b8073ffffffffffffffffffffffffffffffffffffffff16610b406127cf565b73ffffffffffffffffffffffffffffffffffffffff161480610b6f5750610b6e81610b696127cf565b6123da565b5b610bae576040517f08c379a0000000000000000000000000000000000000000000000000000000008152600401610ba590614964565b60405180910390fd5b610bb883836127d7565b505050565b6000601180549050905090565b3373ffffffffffffffffffffffffffffffffffffffff16610bea836116ec565b73ffffffffffffffffffffffffffffffffffffffff1614610c40576040517f08c379a0000000000000000000000000000000000000000000000000000000008152600401610c37906149d0565b60405180910390fd5b60001515600e600084815260200190815260200160002060020160149054906101000a900460ff16151514610caa576040517f08c379a0000000000000000000000000000000000000000000000000000000008152600401610ca190614a3c565b60405180910390fd5b600a543414610cee576040517f08c379a0000000000000000000000000000000000000000000000000000000008152600401610ce590614ace565b60405180910390fd5b6001600e600084815260200190815260200160002060020160146101000a81548160ff02191690831515021790555080600e600084815260200190815260200160002060010181905550610d42600b612890565b5050565b610d57610d516127cf565b826128a6565b610d96576040517f08c379a0000000000000000000000000000000000000000000000000000000008152600401610d8d90614b60565b60405180910390fd5b610da1838383612984565b505050565b6000600e60008381526020019081526020016000206001015490506000610dcc836116ec565b90508073ffffffffffffffffffffffffffffffffffffffff163373ffffffffffffffffffffffffffffffffffffffff1603610e3c576040517f08c379a0000000000000000000000000000000000000000000000000000000008152600401610e3390614bcc565b60405180910390fd5b813414610e7e576040517f08c379a0000000000000000000000000000000000000000000000000000000008152600401610e7590614c38565b60405180910390fd5b6000600860008581526020019081526020016000206040518060400160405290816000820160009054906101000a900473ffffffffffffffffffffffffffffffffffffffff1673ffffffffffffffffffffffffffffffffffffffff1673ffffffffffffffffffffffffffffffffffffffff168152602001600182015481525050905060008160000151905060006064836020015134610f1d9190614c87565b610f279190614d10565b9050610f34843388612984565b600e600087815260200190815260200160002060020160159054906101000a900460ff1615610ff9578373ffffffffffffffffffffffffffffffffffffffff166108fc8234610f839190614d41565b9081150290604051600060405180830381858888f19350505050158015610fae573d6000803e3d6000fd5b50610fb98282612bea565b7fda09752ee9c059f617067751244dd0c7878c482a696ca05394dfa1c337e52a82828783604051610fec93929190614d75565b60405180910390a1611083565b600081600e60008981526020019081526020016000206001015461101d9190614dac565b905080600e6000898152602001908152602001600020600101819055508473ffffffffffffffffffffffffffffffffffffffff166108fc349081150290604051600060405180830381858888f19350505050158015611080573d6000803e3d6000fd5b50505b61108d600b612c35565b6000600e600088815260200190815260200160002060020160146101000a81548160ff0219169083151502179055506001600e600088815260200190815260200160002060020160156101000a81548160ff021916908315150217905550505050505050565b6000806000600860008681526020019081526020016000206040518060400160405290816000820160009054906101000a900473ffffffffffffffffffffffffffffffffffffffff1673ffffffffffffffffffffffffffffffffffffffff1673ffffffffffffffffffffffffffffffffffffffff16815260200160018201548152505090508060000151925060648160200151856111919190614c87565b61119b9190614d10565b9150509250929050565b60006111b08361186a565b82106111f1576040517f08c379a00000000000000000000000000000000000000000000000000000000081526004016111e890614e4e565b60405180910390fd5b600f60008473ffffffffffffffffffffffffffffffffffffffff1673ffffffffffffffffffffffffffffffffffffffff168152602001908152602001600020600083815260200190815260200160002054905092915050565b60136020528060005260406000206000915090505481565b6060600061126e610bbd565b905060008061127d600b612c91565b67ffffffffffffffff81111561129657611295614217565b5b6040519080825280602002602001820160405280156112cf57816020015b6112bc613bc3565b8152602001906001900390816112b45790505b50905060005b8381101561140d5760006112e8826115ee565b90506000600e60008381526020019081526020016000209050600115158160020160149054906101000a900460ff161515036113f857806040518060a001604052908160008201548152602001600182015481526020016002820160009054906101000a900473ffffffffffffffffffffffffffffffffffffffff1673ffffffffffffffffffffffffffffffffffffffff1673ffffffffffffffffffffffffffffffffffffffff1681526020016002820160149054906101000a900460ff161515151581526020016002820160159054906101000a900460ff1615151515815250508486815181106113dd576113dc614e6e565b5b60200260200101819052506001856113f59190614dac565b94505b5050808061140590614e9d565b9150506112d5565b5080935050505090565b61141f6127cf565b73ffffffffffffffffffffffffffffffffffffffff1661143d611bf1565b73ffffffffffffffffffffffffffffffffffffffff1614611493576040517f08c379a000000000000000000000000000000000000000000000000000000000815260040161148a90614f31565b60405180910390fd5b6000479050600081116114db576040517f08c379a00000000000000000000000000000000000000000000000000000000081526004016114d290614f9d565b60405180910390fd5b60006114e5611bf1565b73ffffffffffffffffffffffffffffffffffffffff168260405161150890614fee565b60006040518083038185875af1925050503d8060008114611545576040519150601f19603f3d011682016040523d82523d6000602084013e61154a565b606091505b505090508061158e576040517f08c379a00000000000000000000000000000000000000000000000000000000081526004016115859061504f565b60405180910390fd5b5050565b6115ad83838360405180602001604052806000815250611cc3565b505050565b600060011515600d836040516115c891906150ab565b908152602001604051809103902060009054906101000a900460ff161515149050919050565b60006115f8610bbd565b8210611639576040517f08c379a000000000000000000000000000000000000000000000000000000000815260040161163090614e4e565b60405180910390fd5b6011828154811061164d5761164c614e6e565b5b90600052602060002001549050919050565b611667613c0c565b600860008381526020019081526020016000206040518060400160405290816000820160009054906101000a900473ffffffffffffffffffffffffffffffffffffffff1673ffffffffffffffffffffffffffffffffffffffff1673ffffffffffffffffffffffffffffffffffffffff1681526020016001820154815250509050919050565b6000806002600084815260200190815260200160002060009054906101000a900473ffffffffffffffffffffffffffffffffffffffff169050600073ffffffffffffffffffffffffffffffffffffffff168173ffffffffffffffffffffffffffffffffffffffff1603611794576040517f08c379a000000000000000000000000000000000000000000000000000000000815260040161178b90615134565b60405180910390fd5b80915050919050565b6117a5613bc3565b600e60008381526020019081526020016000206040518060a001604052908160008201548152602001600182015481526020016002820160009054906101000a900473ffffffffffffffffffffffffffffffffffffffff1673ffffffffffffffffffffffffffffffffffffffff1673ffffffffffffffffffffffffffffffffffffffff1681526020016002820160149054906101000a900460ff161515151581526020016002820160159054906101000a900460ff1615151515815250509050919050565b60008073ffffffffffffffffffffffffffffffffffffffff168273ffffffffffffffffffffffffffffffffffffffff16036118da576040517f08c379a00000000000000000000000000000000000000000000000000000000081526004016118d1906151c6565b60405180910390fd5b600360008373ffffffffffffffffffffffffffffffffffffffff1673ffffffffffffffffffffffffffffffffffffffff168152602001908152602001600020549050919050565b6060600061192e3361186a565b905060008167ffffffffffffffff81111561194c5761194b614217565b5b60405190808252806020026020018201604052801561198557816020015b611972613bc3565b81526020019060019003908161196a5790505b50905060005b82811015611a9757600061199f33836111a5565b90506000600e60008381526020019081526020016000209050806040518060a001604052908160008201548152602001600182015481526020016002820160009054906101000a900473ffffffffffffffffffffffffffffffffffffffff1673ffffffffffffffffffffffffffffffffffffffff1673ffffffffffffffffffffffffffffffffffffffff1681526020016002820160149054906101000a900460ff161515151581526020016002820160159054906101000a900460ff161515151581525050848481518110611a7757611a76614e6e565b5b602002602001018190525050508080611a8f90614e9d565b91505061198b565b50809250505090565b611aa86127cf565b73ffffffffffffffffffffffffffffffffffffffff16611ac6611bf1565b73ffffffffffffffffffffffffffffffffffffffff1614611b1c576040517f08c379a0000000000000000000000000000000000000000000000000000000008152600401611b1390614f31565b60405180910390fd5b611b266000612c9f565b565b611b306127cf565b73ffffffffffffffffffffffffffffffffffffffff16611b4e611bf1565b73ffffffffffffffffffffffffffffffffffffffff1614611ba4576040517f08c379a0000000000000000000000000000000000000000000000000000000008152600401611b9b90614f31565b60405180910390fd5b60008111611be7576040517f08c379a0000000000000000000000000000000000000000000000000000000008152600401611bde90615232565b60405180910390fd5b80600a8190555050565b6000600760009054906101000a900473ffffffffffffffffffffffffffffffffffffffff16905090565b606060018054611c2a9061479d565b80601f0160208091040260200160405190810160405280929190818152602001828054611c569061479d565b8015611ca35780601f10611c7857610100808354040283529160200191611ca3565b820191906000526020600020905b815481529060010190602001808311611c8657829003601f168201915b5050505050905090565b611cbf611cb86127cf565b8383612d65565b5050565b611cd4611cce6127cf565b836128a6565b611d13576040517f08c379a0000000000000000000000000000000000000000000000000000000008152600401611d0a90614b60565b60405180910390fd5b611d1f84848484612ed1565b50505050565b6064821115611d69576040517f08c379a0000000000000000000000000000000000000000000000000000000008152600401611d609061529e565b60405180910390fd5b60405180604001604052808473ffffffffffffffffffffffffffffffffffffffff168152602001838152506008600083815260200190815260200160002060008201518160000160006101000a81548173ffffffffffffffffffffffffffffffffffffffff021916908373ffffffffffffffffffffffffffffffffffffffff16021790555060208201518160010155905050505050565b600a5481565b6060611e1182612763565b611e50576040517f08c379a0000000000000000000000000000000000000000000000000000000008152600401611e4790615330565b60405180910390fd5b6000600660008481526020019081526020016000208054611e709061479d565b80601f0160208091040260200160405190810160405280929190818152602001828054611e9c9061479d565b8015611ee95780601f10611ebe57610100808354040283529160200191611ee9565b820191906000526020600020905b815481529060010190602001808311611ecc57829003601f168201915b505050505090506000611efa612f2d565b90506000815103611f0f578192505050611f52565b600082511115611f44578082604051602001611f2c929190615350565b60405160208183030381529060405292505050611f52565b611f4d84612f44565b925050505b919050565b6000611f63600b612c91565b905090565b60098054611f759061479d565b80601f0160208091040260200160405190810160405280929190818152602001828054611fa19061479d565b8015611fee5780601f10611fc357610100808354040283529160200191611fee565b820191906000526020600020905b815481529060010190602001808311611fd157829003601f168201915b505050505081565b6000612001846115b2565b15612041576040517f08c379a0000000000000000000000000000000000000000000000000000000008152600401612038906153c0565b60405180910390fd5b600a543414612085576040517f08c379a000000000000000000000000000000000000000000000000000000000815260040161207c90614ace565b60405180910390fd5b61208f600c612c91565b601360003373ffffffffffffffffffffffffffffffffffffffff1673ffffffffffffffffffffffffffffffffffffffff16815260200190815260200160002060008282546120dd9190614dac565b925050819055506120ee600c612890565b6120f8600b612890565b6000612104600c612c91565b90506000600e600083815260200190815260200160002060020160156101000a81548160ff0219169083151502179055506000836bffffffffffffffffffffffff16146121be576121553382612feb565b61215f8186613009565b612169818561307d565b61218233846bffffffffffffffffffffffff1683611d25565b6001600d8660405161219491906150ab565b908152602001604051809103902060006101000a81548160ff021916908315150217905550612214565b6121c83382612feb565b6121d28186613009565b6121dc818561307d565b6001600d866040516121ee91906150ab565b908152602001604051809103902060006101000a81548160ff0219169083151502179055505b809150509392505050565b3373ffffffffffffffffffffffffffffffffffffffff1661223f836116ec565b73ffffffffffffffffffffffffffffffffffffffff1614612295576040517f08c379a000000000000000000000000000000000000000000000000000000000815260040161228c906149d0565b60405180910390fd5b6000600860008481526020019081526020016000206040518060400160405290816000820160009054906101000a900473ffffffffffffffffffffffffffffffffffffffff1673ffffffffffffffffffffffffffffffffffffffff1673ffffffffffffffffffffffffffffffffffffffff16815260200160018201548152505090506000606482602001518461232b9190614c87565b6123359190614d10565b9050600e600085815260200190815260200160002060020160159054906101000a900460ff161561238b57808361236c9190614dac565b600e6000868152602001908152602001600020600101819055506123a7565b82600e6000868152602001908152602001600020600101819055505b50505050565b806bffffffffffffffffffffffff1660086000848152602001908152602001600020600101819055505050565b6000600560008473ffffffffffffffffffffffffffffffffffffffff1673ffffffffffffffffffffffffffffffffffffffff16815260200190815260200160002060008373ffffffffffffffffffffffffffffffffffffffff1673ffffffffffffffffffffffffffffffffffffffff16815260200190815260200160002060009054906101000a900460ff16905092915050565b3373ffffffffffffffffffffffffffffffffffffffff1661248e826116ec565b73ffffffffffffffffffffffffffffffffffffffff16146124e4576040517f08c379a00000000000000000000000000000000000000000000000000000000081526004016124db906149d0565b60405180910390fd5b60011515600e600083815260200190815260200160002060020160149054906101000a900460ff1615151461254e576040517f08c379a000000000000000000000000000000000000000000000000000000000815260040161254590615452565b60405180910390fd5b6000600e600083815260200190815260200160002060020160146101000a81548160ff021916908315150217905550612587600b612c35565b50565b6125926127cf565b73ffffffffffffffffffffffffffffffffffffffff166125b0611bf1565b73ffffffffffffffffffffffffffffffffffffffff1614612606576040517f08c379a00000000000000000000000000000000000000000000000000000000081526004016125fd90614f31565b60405180910390fd5b600073ffffffffffffffffffffffffffffffffffffffff168173ffffffffffffffffffffffffffffffffffffffff1603612675576040517f08c379a000000000000000000000000000000000000000000000000000000000815260040161266c906154e4565b60405180910390fd5b61267e81612c9f565b50565b60007f80ac58cd000000000000000000000000000000000000000000000000000000007bffffffffffffffffffffffffffffffffffffffffffffffffffffffff1916827bffffffffffffffffffffffffffffffffffffffffffffffffffffffff1916148061274c57507f5b5e139f000000000000000000000000000000000000000000000000000000007bffffffffffffffffffffffffffffffffffffffffffffffffffffffff1916827bffffffffffffffffffffffffffffffffffffffffffffffffffffffff1916145b8061275c575061275b826131f9565b5b9050919050565b60008073ffffffffffffffffffffffffffffffffffffffff166002600084815260200190815260200160002060009054906101000a900473ffffffffffffffffffffffffffffffffffffffff1673ffffffffffffffffffffffffffffffffffffffff1614159050919050565b600033905090565b816004600083815260200190815260200160002060006101000a81548173ffffffffffffffffffffffffffffffffffffffff021916908373ffffffffffffffffffffffffffffffffffffffff160217905550808273ffffffffffffffffffffffffffffffffffffffff1661284a836116ec565b73ffffffffffffffffffffffffffffffffffffffff167f8c5be1e5ebec7d5bd14f71427d1e84f3dd0314c0f7b2291e5b200ac8c7c3b92560405160405180910390a45050565b6001816000016000828254019250508190555050565b60006128b182612763565b6128f0576040517f08c379a00000000000000000000000000000000000000000000000000000000081526004016128e790615576565b60405180910390fd5b60006128fb836116ec565b90508073ffffffffffffffffffffffffffffffffffffffff168473ffffffffffffffffffffffffffffffffffffffff16148061296a57508373ffffffffffffffffffffffffffffffffffffffff1661295284610a21565b73ffffffffffffffffffffffffffffffffffffffff16145b8061297b575061297a81856123da565b5b91505092915050565b8273ffffffffffffffffffffffffffffffffffffffff166129a4826116ec565b73ffffffffffffffffffffffffffffffffffffffff16146129fa576040517f08c379a00000000000000000000000000000000000000000000000000000000081526004016129f190615608565b60405180910390fd5b600073ffffffffffffffffffffffffffffffffffffffff168273ffffffffffffffffffffffffffffffffffffffff1603612a69576040517f08c379a0000000000000000000000000000000000000000000000000000000008152600401612a609061569a565b60405180910390fd5b612a74838383613263565b612a7f6000826127d7565b6001600360008573ffffffffffffffffffffffffffffffffffffffff1673ffffffffffffffffffffffffffffffffffffffff1681526020019081526020016000206000828254612acf9190614d41565b925050819055506001600360008473ffffffffffffffffffffffffffffffffffffffff1673ffffffffffffffffffffffffffffffffffffffff1681526020019081526020016000206000828254612b269190614dac565b92505081905550816002600083815260200190815260200160002060006101000a81548173ffffffffffffffffffffffffffffffffffffffff021916908373ffffffffffffffffffffffffffffffffffffffff160217905550808273ffffffffffffffffffffffffffffffffffffffff168473ffffffffffffffffffffffffffffffffffffffff167fddf252ad1be2c89b69c2b068fc378daa952ba7f163c4a11628f55a4df523b3ef60405160405180910390a4612be5838383613375565b505050565b8173ffffffffffffffffffffffffffffffffffffffff166108fc829081150290604051600060405180830381858888f19350505050158015612c30573d6000803e3d6000fd5b505050565b60008160000154905060008111612c81576040517f08c379a0000000000000000000000000000000000000000000000000000000008152600401612c7890615706565b60405180910390fd5b6001810382600001819055505050565b600081600001549050919050565b6000600760009054906101000a900473ffffffffffffffffffffffffffffffffffffffff16905081600760006101000a81548173ffffffffffffffffffffffffffffffffffffffff021916908373ffffffffffffffffffffffffffffffffffffffff1602179055508173ffffffffffffffffffffffffffffffffffffffff168173ffffffffffffffffffffffffffffffffffffffff167f8be0079c531659141344cd1fd0a4f28419497f9722a3daafe3b4186f6b6457e060405160405180910390a35050565b8173ffffffffffffffffffffffffffffffffffffffff168373ffffffffffffffffffffffffffffffffffffffff1603612dd3576040517f08c379a0000000000000000000000000000000000000000000000000000000008152600401612dca90615772565b60405180910390fd5b80600560008573ffffffffffffffffffffffffffffffffffffffff1673ffffffffffffffffffffffffffffffffffffffff16815260200190815260200160002060008473ffffffffffffffffffffffffffffffffffffffff1673ffffffffffffffffffffffffffffffffffffffff16815260200190815260200160002060006101000a81548160ff0219169083151502179055508173ffffffffffffffffffffffffffffffffffffffff168373ffffffffffffffffffffffffffffffffffffffff167f17307eab39ab6107e8899845ad3d59bd9653f200f220920489ca2b5937696c3183604051612ec49190613d93565b60405180910390a3505050565b612edc848484612984565b612ee88484848461337a565b612f27576040517f08c379a0000000000000000000000000000000000000000000000000000000008152600401612f1e90615804565b60405180910390fd5b50505050565b606060405180602001604052806000815250905090565b6060612f4f82612763565b612f8e576040517f08c379a0000000000000000000000000000000000000000000000000000000008152600401612f8590615896565b60405180910390fd5b6000612f98612f2d565b90506000815111612fb85760405180602001604052806000815250612fe3565b80612fc284613501565b604051602001612fd3929190615350565b6040516020818303038152906040525b915050919050565b613005828260405180602001604052806000815250613661565b5050565b61301282612763565b613051576040517f08c379a000000000000000000000000000000000000000000000000000000000815260040161304890615928565b60405180910390fd5b80600660008481526020019081526020016000209080519060200190613078929190613c3c565b505050565b600081116130c0576040517f08c379a00000000000000000000000000000000000000000000000000000000081526004016130b790615232565b60405180910390fd5b6040518060a001604052808381526020018281526020013373ffffffffffffffffffffffffffffffffffffffff16815260200160011515815260200160001515815250600e6000848152602001908152602001600020600082015181600001556020820151816001015560408201518160020160006101000a81548173ffffffffffffffffffffffffffffffffffffffff021916908373ffffffffffffffffffffffffffffffffffffffff16021790555060608201518160020160146101000a81548160ff02191690831515021790555060808201518160020160156101000a81548160ff0219169083151502179055509050507fc72fa779846cafae8e0b3ff446217506f9b128fb16aeb52e1d58c520dbd235b6828233600160006040516131ed959493929190615948565b60405180910390a15050565b60007f01ffc9a7000000000000000000000000000000000000000000000000000000007bffffffffffffffffffffffffffffffffffffffffffffffffffffffff1916827bffffffffffffffffffffffffffffffffffffffffffffffffffffffff1916149050919050565b61326e8383836136bc565b600073ffffffffffffffffffffffffffffffffffffffff168373ffffffffffffffffffffffffffffffffffffffff16036132b0576132ab816136c1565b6132ef565b8173ffffffffffffffffffffffffffffffffffffffff168373ffffffffffffffffffffffffffffffffffffffff16146132ee576132ed838261370a565b5b5b600073ffffffffffffffffffffffffffffffffffffffff168273ffffffffffffffffffffffffffffffffffffffff16036133315761332c81613877565b613370565b8273ffffffffffffffffffffffffffffffffffffffff168273ffffffffffffffffffffffffffffffffffffffff161461336f5761336e8282613948565b5b5b505050565b505050565b600061339b8473ffffffffffffffffffffffffffffffffffffffff166139c7565b156134f4578373ffffffffffffffffffffffffffffffffffffffff1663150b7a026133c46127cf565b8786866040518563ffffffff1660e01b81526004016133e694939291906159f0565b6020604051808303816000875af192505050801561342257506040513d601f19601f8201168201806040525081019061341f9190615a51565b60015b6134a4573d8060008114613452576040519150601f19603f3d011682016040523d82523d6000602084013e613457565b606091505b50600081510361349c576040517f08c379a000000000000000000000000000000000000000000000000000000000815260040161349390615804565b60405180910390fd5b805181602001fd5b63150b7a0260e01b7bffffffffffffffffffffffffffffffffffffffffffffffffffffffff1916817bffffffffffffffffffffffffffffffffffffffffffffffffffffffff1916149150506134f9565b600190505b949350505050565b606060008203613548576040518060400160405280600181526020017f3000000000000000000000000000000000000000000000000000000000000000815250905061365c565b600082905060005b6000821461357a57808061356390614e9d565b915050600a826135739190614d10565b9150613550565b60008167ffffffffffffffff81111561359657613595614217565b5b6040519080825280601f01601f1916602001820160405280156135c85781602001600182028036833780820191505090505b5090505b60008514613655576001826135e19190614d41565b9150600a856135f09190615a7e565b60306135fc9190614dac565b60f81b81838151811061361257613611614e6e565b5b60200101907effffffffffffffffffffffffffffffffffffffffffffffffffffffffffffff1916908160001a905350600a8561364e9190614d10565b94506135cc565b8093505050505b919050565b61366b83836139ea565b613678600084848461337a565b6136b7576040517f08c379a00000000000000000000000000000000000000000000000000000000081526004016136ae90615804565b60405180910390fd5b505050565b505050565b6011805490506012600083815260200190815260200160002081905550601181908060018154018082558091505060019003906000526020600020016000909190919091505550565b600060016137178461186a565b6137219190614d41565b9050600060106000848152602001908152602001600020549050818114613806576000600f60008673ffffffffffffffffffffffffffffffffffffffff1673ffffffffffffffffffffffffffffffffffffffff168152602001908152602001600020600084815260200190815260200160002054905080600f60008773ffffffffffffffffffffffffffffffffffffffff1673ffffffffffffffffffffffffffffffffffffffff168152602001908152602001600020600084815260200190815260200160002081905550816010600083815260200190815260200160002081905550505b6010600084815260200190815260200160002060009055600f60008573ffffffffffffffffffffffffffffffffffffffff1673ffffffffffffffffffffffffffffffffffffffff16815260200190815260200160002060008381526020019081526020016000206000905550505050565b6000600160118054905061388b9190614d41565b90506000601260008481526020019081526020016000205490506000601183815481106138bb576138ba614e6e565b5b9060005260206000200154905080601183815481106138dd576138dc614e6e565b5b90600052602060002001819055508160126000838152602001908152602001600020819055506012600085815260200190815260200160002060009055601180548061392c5761392b615aaf565b5b6001900381819060005260206000200160009055905550505050565b60006139538361186a565b905081600f60008573ffffffffffffffffffffffffffffffffffffffff1673ffffffffffffffffffffffffffffffffffffffff168152602001908152602001600020600083815260200190815260200160002081905550806010600084815260200190815260200160002081905550505050565b6000808273ffffffffffffffffffffffffffffffffffffffff163b119050919050565b600073ffffffffffffffffffffffffffffffffffffffff168273ffffffffffffffffffffffffffffffffffffffff1603613a59576040517f08c379a0000000000000000000000000000000000000000000000000000000008152600401613a5090615b2a565b60405180910390fd5b613a6281612763565b15613aa2576040517f08c379a0000000000000000000000000000000000000000000000000000000008152600401613a9990615b96565b60405180910390fd5b613aae60008383613263565b6001600360008473ffffffffffffffffffffffffffffffffffffffff1673ffffffffffffffffffffffffffffffffffffffff1681526020019081526020016000206000828254613afe9190614dac565b92505081905550816002600083815260200190815260200160002060006101000a81548173ffffffffffffffffffffffffffffffffffffffff021916908373ffffffffffffffffffffffffffffffffffffffff160217905550808273ffffffffffffffffffffffffffffffffffffffff16600073ffffffffffffffffffffffffffffffffffffffff167fddf252ad1be2c89b69c2b068fc378daa952ba7f163c4a11628f55a4df523b3ef60405160405180910390a4613bbf60008383613375565b5050565b6040518060a001604052806000815260200160008152602001600073ffffffffffffffffffffffffffffffffffffffff1681526020016000151581526020016000151581525090565b6040518060400160405280600073ffffffffffffffffffffffffffffffffffffffff168152602001600081525090565b828054613c489061479d565b90600052602060002090601f016020900481019282613c6a5760008555613cb1565b82601f10613c8357805160ff1916838001178555613cb1565b82800160010185558215613cb1579182015b82811115613cb0578251825591602001919060010190613c95565b5b509050613cbe9190613cc2565b5090565b5b80821115613cdb576000816000905550600101613cc3565b5090565b6000604051905090565b600080fd5b600080fd5b60007fffffffff0000000000000000000000000000000000000000000000000000000082169050919050565b613d2881613cf3565b8114613d3357600080fd5b50565b600081359050613d4581613d1f565b92915050565b600060208284031215613d6157613d60613ce9565b5b6000613d6f84828501613d36565b91505092915050565b60008115159050919050565b613d8d81613d78565b82525050565b6000602082019050613da86000830184613d84565b92915050565b600081519050919050565b600082825260208201905092915050565b60005b83811015613de8578082015181840152602081019050613dcd565b83811115613df7576000848401525b50505050565b6000601f19601f8301169050919050565b6000613e1982613dae565b613e238185613db9565b9350613e33818560208601613dca565b613e3c81613dfd565b840191505092915050565b60006020820190508181036000830152613e618184613e0e565b905092915050565b6000819050919050565b613e7c81613e69565b8114613e8757600080fd5b50565b600081359050613e9981613e73565b92915050565b600060208284031215613eb557613eb4613ce9565b5b6000613ec384828501613e8a565b91505092915050565b600073ffffffffffffffffffffffffffffffffffffffff82169050919050565b6000613ef782613ecc565b9050919050565b613f0781613eec565b82525050565b6000602082019050613f226000830184613efe565b92915050565b613f3181613eec565b8114613f3c57600080fd5b50565b600081359050613f4e81613f28565b92915050565b60008060408385031215613f6b57613f6a613ce9565b5b6000613f7985828601613f3f565b9250506020613f8a85828601613e8a565b9150509250929050565b613f9d81613e69565b82525050565b6000602082019050613fb86000830184613f94565b92915050565b60008060408385031215613fd557613fd4613ce9565b5b6000613fe385828601613e8a565b9250506020613ff485828601613e8a565b9150509250929050565b60008060006060848603121561401757614016613ce9565b5b600061402586828701613f3f565b935050602061403686828701613f3f565b925050604061404786828701613e8a565b9150509250925092565b60006040820190506140666000830185613efe565b6140736020830184613f94565b9392505050565b6000602082840312156140905761408f613ce9565b5b600061409e84828501613f3f565b91505092915050565b600081519050919050565b600082825260208201905092915050565b6000819050602082019050919050565b6140dc81613e69565b82525050565b6140eb81613eec565b82525050565b6140fa81613d78565b82525050565b60a08201600082015161411660008501826140d3565b50602082015161412960208501826140d3565b50604082015161413c60408501826140e2565b50606082015161414f60608501826140f1565b50608082015161416260808501826140f1565b50505050565b60006141748383614100565b60a08301905092915050565b6000602082019050919050565b6000614198826140a7565b6141a281856140b2565b93506141ad836140c3565b8060005b838110156141de5781516141c58882614168565b97506141d083614180565b9250506001810190506141b1565b5085935050505092915050565b60006020820190508181036000830152614205818461418d565b905092915050565b600080fd5b600080fd5b7f4e487b7100000000000000000000000000000000000000000000000000000000600052604160045260246000fd5b61424f82613dfd565b810181811067ffffffffffffffff8211171561426e5761426d614217565b5b80604052505050565b6000614281613cdf565b905061428d8282614246565b919050565b600067ffffffffffffffff8211156142ad576142ac614217565b5b6142b682613dfd565b9050602081019050919050565b82818337600083830152505050565b60006142e56142e084614292565b614277565b90508281526020810184848401111561430157614300614212565b5b61430c8482856142c3565b509392505050565b600082601f8301126143295761432861420d565b5b81356143398482602086016142d2565b91505092915050565b60006020828403121561435857614357613ce9565b5b600082013567ffffffffffffffff81111561437657614375613cee565b5b61438284828501614314565b91505092915050565b6040820160008201516143a160008501826140e2565b5060208201516143b460208501826140d3565b50505050565b60006040820190506143cf600083018461438b565b92915050565b60a0820160008201516143eb60008501826140d3565b5060208201516143fe60208501826140d3565b50604082015161441160408501826140e2565b50606082015161442460608501826140f1565b50608082015161443760808501826140f1565b50505050565b600060a08201905061445260008301846143d5565b92915050565b61446181613d78565b811461446c57600080fd5b50565b60008135905061447e81614458565b92915050565b6000806040838503121561449b5761449a613ce9565b5b60006144a985828601613f3f565b92505060206144ba8582860161446f565b9150509250929050565b600067ffffffffffffffff8211156144df576144de614217565b5b6144e882613dfd565b9050602081019050919050565b6000614508614503846144c4565b614277565b90508281526020810184848401111561452457614523614212565b5b61452f8482856142c3565b509392505050565b600082601f83011261454c5761454b61420d565b5b813561455c8482602086016144f5565b91505092915050565b6000806000806080858703121561457f5761457e613ce9565b5b600061458d87828801613f3f565b945050602061459e87828801613f3f565b93505060406145af87828801613e8a565b925050606085013567ffffffffffffffff8111156145d0576145cf613cee565b5b6145dc87828801614537565b91505092959194509250565b60008060006060848603121561460157614600613ce9565b5b600061460f86828701613f3f565b935050602061462086828701613e8a565b925050604061463186828701613e8a565b9150509250925092565b60006bffffffffffffffffffffffff82169050919050565b61465c8161463b565b811461466757600080fd5b50565b60008135905061467981614653565b92915050565b60008060006060848603121561469857614697613ce9565b5b600084013567ffffffffffffffff8111156146b6576146b5613cee565b5b6146c286828701614314565b93505060206146d386828701613e8a565b92505060406146e48682870161466a565b9150509250925092565b6000806040838503121561470557614704613ce9565b5b600061471385828601613e8a565b92505060206147248582860161466a565b9150509250929050565b6000806040838503121561474557614744613ce9565b5b600061475385828601613f3f565b925050602061476485828601613f3f565b9150509250929050565b7f4e487b7100000000000000000000000000000000000000000000000000000000600052602260045260246000fd5b600060028204905060018216806147b557607f821691505b6020821081036147c8576147c761476e565b5b50919050565b7f4552433732313a20617070726f76656420717565727920666f72206e6f6e657860008201527f697374656e7420746f6b656e0000000000000000000000000000000000000000602082015250565b600061482a602c83613db9565b9150614835826147ce565b604082019050919050565b600060208201905081810360008301526148598161481d565b9050919050565b7f4552433732313a20617070726f76616c20746f2063757272656e74206f776e6560008201527f7200000000000000000000000000000000000000000000000000000000000000602082015250565b60006148bc602183613db9565b91506148c782614860565b604082019050919050565b600060208201905081810360008301526148eb816148af565b9050919050565b7f4552433732313a20617070726f76652063616c6c6572206973206e6f74206f7760008201527f6e6572206e6f7220617070726f76656420666f7220616c6c0000000000000000602082015250565b600061494e603883613db9565b9150614959826148f2565b604082019050919050565b6000602082019050818103600083015261497d81614941565b9050919050565b7f596f7520617265206e6f74206f776e6572206f662074686973206e6674000000600082015250565b60006149ba601d83613db9565b91506149c582614984565b602082019050919050565b600060208201905081810360008301526149e9816149ad565b9050919050565b7f4974656d20697320616c7265616479206f6e2073616c65000000000000000000600082015250565b6000614a26601783613db9565b9150614a31826149f0565b602082019050919050565b60006020820190508181036000830152614a5581614a19565b9050919050565b7f5072696365206d75737420626520657175616c20746f206c697374696e67207060008201527f7269636500000000000000000000000000000000000000000000000000000000602082015250565b6000614ab8602483613db9565b9150614ac382614a5c565b604082019050919050565b60006020820190508181036000830152614ae781614aab565b9050919050565b7f4552433732313a207472616e736665722063616c6c6572206973206e6f74206f60008201527f776e6572206e6f7220617070726f766564000000000000000000000000000000602082015250565b6000614b4a603183613db9565b9150614b5582614aee565b604082019050919050565b60006020820190508181036000830152614b7981614b3d565b9050919050565b7f596f7520616c7265616479206f776e2074686973204e46540000000000000000600082015250565b6000614bb6601883613db9565b9150614bc182614b80565b602082019050919050565b60006020820190508181036000830152614be581614ba9565b9050919050565b7f506c65617365207375626d6974207468652061736b696e672070726963650000600082015250565b6000614c22601e83613db9565b9150614c2d82614bec565b602082019050919050565b60006020820190508181036000830152614c5181614c15565b9050919050565b7f4e487b7100000000000000000000000000000000000000000000000000000000600052601160045260246000fd5b6000614c9282613e69565b9150614c9d83613e69565b9250817fffffffffffffffffffffffffffffffffffffffffffffffffffffffffffffffff0483118215151615614cd657614cd5614c58565b5b828202905092915050565b7f4e487b7100000000000000000000000000000000000000000000000000000000600052601260045260246000fd5b6000614d1b82613e69565b9150614d2683613e69565b925082614d3657614d35614ce1565b5b828204905092915050565b6000614d4c82613e69565b9150614d5783613e69565b925082821015614d6a57614d69614c58565b5b828203905092915050565b6000606082019050614d8a6000830186613efe565b614d976020830185613f94565b614da46040830184613f94565b949350505050565b6000614db782613e69565b9150614dc283613e69565b9250827fffffffffffffffffffffffffffffffffffffffffffffffffffffffffffffffff03821115614df757614df6614c58565b5b828201905092915050565b7f496e646578206f7574206f6620626f756e647300000000000000000000000000600082015250565b6000614e38601383613db9565b9150614e4382614e02565b602082019050919050565b60006020820190508181036000830152614e6781614e2b565b9050919050565b7f4e487b7100000000000000000000000000000000000000000000000000000000600052603260045260246000fd5b6000614ea882613e69565b91507fffffffffffffffffffffffffffffffffffffffffffffffffffffffffffffffff8203614eda57614ed9614c58565b5b600182019050919050565b7f4f776e61626c653a2063616c6c6572206973206e6f7420746865206f776e6572600082015250565b6000614f1b602083613db9565b9150614f2682614ee5565b602082019050919050565b60006020820190508181036000830152614f4a81614f0e565b9050919050565b7f4e6f206574686572206c65667420746f20776974686472617700000000000000600082015250565b6000614f87601983613db9565b9150614f9282614f51565b602082019050919050565b60006020820190508181036000830152614fb681614f7a565b9050919050565b600081905092915050565b50565b6000614fd8600083614fbd565b9150614fe382614fc8565b600082019050919050565b6000614ff982614fcb565b9150819050919050565b7f5472616e73666572206661696c65642e00000000000000000000000000000000600082015250565b6000615039601083613db9565b915061504482615003565b602082019050919050565b600060208201905081810360008301526150688161502c565b9050919050565b600081905092915050565b600061508582613dae565b61508f818561506f565b935061509f818560208601613dca565b80840191505092915050565b60006150b7828461507a565b915081905092915050565b7f4552433732313a206f776e657220717565727920666f72206e6f6e657869737460008201527f656e7420746f6b656e0000000000000000000000000000000000000000000000602082015250565b600061511e602983613db9565b9150615129826150c2565b604082019050919050565b6000602082019050818103600083015261514d81615111565b9050919050565b7f4552433732313a2062616c616e636520717565727920666f7220746865207a6560008201527f726f206164647265737300000000000000000000000000000000000000000000602082015250565b60006151b0602a83613db9565b91506151bb82615154565b604082019050919050565b600060208201905081810360008301526151df816151a3565b9050919050565b7f5072696365206d757374206265206174206c6561737420312077656900000000600082015250565b600061521c601c83613db9565b9150615227826151e6565b602082019050919050565b6000602082019050818103600083015261524b8161520f565b9050919050565b7f45524332393831526f79616c746965733a20546f6f2068696768000000000000600082015250565b6000615288601a83613db9565b915061529382615252565b602082019050919050565b600060208201905081810360008301526152b78161527b565b9050919050565b7f45524337323155524953746f726167653a2055524920717565727920666f722060008201527f6e6f6e6578697374656e7420746f6b656e000000000000000000000000000000602082015250565b600061531a603183613db9565b9150615325826152be565b604082019050919050565b600060208201905081810360008301526153498161530d565b9050919050565b600061535c828561507a565b9150615368828461507a565b91508190509392505050565b7f546f6b656e2055524920616c7265616479206578697374730000000000000000600082015250565b60006153aa601883613db9565b91506153b582615374565b602082019050919050565b600060208201905081810360008301526153d98161539d565b9050919050565b7f4974656d20697320616c72656164792072656d6f7665642066726f6d2073616c60008201527f6500000000000000000000000000000000000000000000000000000000000000602082015250565b600061543c602183613db9565b9150615447826153e0565b604082019050919050565b6000602082019050818103600083015261546b8161542f565b9050919050565b7f4f776e61626c653a206e6577206f776e657220697320746865207a65726f206160008201527f6464726573730000000000000000000000000000000000000000000000000000602082015250565b60006154ce602683613db9565b91506154d982615472565b604082019050919050565b600060208201905081810360008301526154fd816154c1565b9050919050565b7f4552433732313a206f70657261746f7220717565727920666f72206e6f6e657860008201527f697374656e7420746f6b656e0000000000000000000000000000000000000000602082015250565b6000615560602c83613db9565b915061556b82615504565b604082019050919050565b6000602082019050818103600083015261558f81615553565b9050919050565b7f4552433732313a207472616e736665722066726f6d20696e636f72726563742060008201527f6f776e6572000000000000000000000000000000000000000000000000000000602082015250565b60006155f2602583613db9565b91506155fd82615596565b604082019050919050565b60006020820190508181036000830152615621816155e5565b9050919050565b7f4552433732313a207472616e7366657220746f20746865207a65726f2061646460008201527f7265737300000000000000000000000000000000000000000000000000000000602082015250565b6000615684602483613db9565b915061568f82615628565b604082019050919050565b600060208201905081810360008301526156b381615677565b9050919050565b7f436f756e7465723a2064656372656d656e74206f766572666c6f770000000000600082015250565b60006156f0601b83613db9565b91506156fb826156ba565b602082019050919050565b6000602082019050818103600083015261571f816156e3565b9050919050565b7f4552433732313a20617070726f766520746f2063616c6c657200000000000000600082015250565b600061575c601983613db9565b915061576782615726565b602082019050919050565b6000602082019050818103600083015261578b8161574f565b9050919050565b7f4552433732313a207472616e7366657220746f206e6f6e20455243373231526560008201527f63656976657220696d706c656d656e7465720000000000000000000000000000602082015250565b60006157ee603283613db9565b91506157f982615792565b604082019050919050565b6000602082019050818103600083015261581d816157e1565b9050919050565b7f4552433732314d657461646174613a2055524920717565727920666f72206e6f60008201527f6e6578697374656e7420746f6b656e0000000000000000000000000000000000602082015250565b6000615880602f83613db9565b915061588b82615824565b604082019050919050565b600060208201905081810360008301526158af81615873565b9050919050565b7f45524337323155524953746f726167653a2055524920736574206f66206e6f6e60008201527f6578697374656e7420746f6b656e000000000000000000000000000000000000602082015250565b6000615912602e83613db9565b915061591d826158b6565b604082019050919050565b6000602082019050818103600083015261594181615905565b9050919050565b600060a08201905061595d6000830188613f94565b61596a6020830187613f94565b6159776040830186613efe565b6159846060830185613d84565b6159916080830184613d84565b9695505050505050565b600081519050919050565b600082825260208201905092915050565b60006159c28261599b565b6159cc81856159a6565b93506159dc818560208601613dca565b6159e581613dfd565b840191505092915050565b6000608082019050615a056000830187613efe565b615a126020830186613efe565b615a1f6040830185613f94565b8181036060830152615a3181846159b7565b905095945050505050565b600081519050615a4b81613d1f565b92915050565b600060208284031215615a6757615a66613ce9565b5b6000615a7584828501615a3c565b91505092915050565b6000615a8982613e69565b9150615a9483613e69565b925082615aa457615aa3614ce1565b5b828206905092915050565b7f4e487b7100000000000000000000000000000000000000000000000000000000600052603160045260246000fd5b7f4552433732313a206d696e7420746f20746865207a65726f2061646472657373600082015250565b6000615b14602083613db9565b9150615b1f82615ade565b602082019050919050565b60006020820190508181036000830152615b4381615b07565b9050919050565b7f4552433732313a20746f6b656e20616c7265616479206d696e74656400000000600082015250565b6000615b80601c83613db9565b9150615b8b82615b4a565b602082019050919050565b60006020820190508181036000830152615baf81615b73565b905091905056fea26469706673582212200cbb301b22ce9923caecefd9581d8fbc5dfae4ce1d0b37519267d05159ae90a164736f6c634300080d0033",
  "immutableReferences": {},
  "source": "// SPDX-License-Identifier: MIT\npragma solidity >=0.4.22 <0.9.0;\n\nimport \"@openzeppelin/contracts/token/ERC721/extensions/ERC721URIStorage.sol\";\nimport \"@openzeppelin/contracts/utils/Counters.sol\";\nimport \"@openzeppelin/contracts/access/Ownable.sol\";\n\ncontract NftMarket is ERC721URIStorage, Ownable {\n    using Counters for Counters.Counter;\n\n    struct NftItem {\n        uint tokenId;\n        uint price;\n        address creator;\n        bool isListed;\n        bool isSold;\n    }\n\n    struct RoyaltyInfo {\n        address recipient;\n        uint256 amount;\n    }\n\n    mapping(uint256 => RoyaltyInfo) royaltyPerTokenId;\n\n    //Interface for royalties\n    bytes4 private constant _INTERFACE_ID_ERC2981 = 0x2a55205a;\n\n    string public baseTokenURI;\n\n    uint public listingPrice = 0.025 ether;\n\n    Counters.Counter private _listedItems;\n    Counters.Counter private _tokenIds;\n\n    mapping(string => bool) private _usedTokenURIs;\n    mapping(uint => NftItem) private _idToNftItem;\n\n    mapping(address => mapping(uint => uint)) private _ownedTokens;\n    mapping(uint => uint) private _idToOwnedIndex;\n\n    uint256[] private _allNfts;\n    mapping(uint => uint) private _idToNftIndex;\n\n    event NftItemCreated (\n        uint tokenId,\n        uint price,\n        address creator,\n        bool isListed,\n        bool isSold\n    );\n    event RoyaltyAmountSent (\n        address receiver,\n        uint tokenId,\n        uint royaltyAmount\n    );\n\n    //amount of mints that each address has executed.\n    mapping(address => uint256) public mintsPerAddress;\n\n    constructor() ERC721(\"PumpkinNFT\", \"PNFT\") {}\n\n    //ensure that modified function cannot be called by another contract\n    modifier callerIsUser() {\n        require(tx.origin == msg.sender, \"The caller is another contract\");\n        _;\n    }\n\n\n    function setListingPrice(uint newPrice) external onlyOwner {\n        require(newPrice > 0, \"Price must be at least 1 wei\");\n        listingPrice = newPrice;\n    }\n\n    function getNftItem(uint tokenId) public view returns (NftItem memory) {\n        return _idToNftItem[tokenId];\n    }\n\n    function listedItemsCount() public view returns (uint) {\n        return _listedItems.current();\n    }\n\n    function tokenURIExists(string memory tokenURI) public view returns (bool) {\n        return _usedTokenURIs[tokenURI] == true;\n    }\n\n    function totalSupply() public view returns (uint) {\n        return _allNfts.length;\n    }\n\n    function tokenByIndex(uint index) public view returns (uint) {\n        require(index < totalSupply(), \"Index out of bounds\");\n        return _allNfts[index];\n    }\n\n    function tokenOfOwnerByIndex(address owner, uint index) public view returns (uint) {\n        require(index < ERC721.balanceOf(owner), \"Index out of bounds\");\n        return _ownedTokens[owner][index];\n    }\n\n    function getAllNftsOnSale() public view returns (NftItem[] memory) {\n        uint allItemsCounts = totalSupply();\n        uint currentIndex = 0;\n        NftItem[] memory items = new NftItem[](_listedItems.current());\n\n        for (uint i = 0; i < allItemsCounts; i++) {\n            uint tokenId = tokenByIndex(i);\n            NftItem storage item = _idToNftItem[tokenId];\n\n            if (item.isListed == true) {\n                items[currentIndex] = item;\n                currentIndex += 1;\n            }\n        }\n\n        return items;\n    }\n\n    function getOwnedNfts() public view returns (NftItem[] memory) {\n        uint ownedItemsCount = ERC721.balanceOf(msg.sender);\n        NftItem[] memory items = new NftItem[](ownedItemsCount);\n\n        for (uint i = 0; i < ownedItemsCount; i++) {\n            uint tokenId = tokenOfOwnerByIndex(msg.sender, i);\n            NftItem storage item = _idToNftItem[tokenId];\n            items[i] = item;\n        }\n\n        return items;\n    }\n\n    function mintToken(string memory tokenURI, uint price, uint96 royalty) public payable returns (uint) {\n        require(!tokenURIExists(tokenURI), \"Token URI already exists\");\n        require(msg.value == listingPrice, \"Price must be equal to listing price\");\n        mintsPerAddress[msg.sender] += _tokenIds.current();\n        _tokenIds.increment();\n        _listedItems.increment();\n\n        uint newTokenId = _tokenIds.current();\n        _idToNftItem[newTokenId].isSold = false;\n        if (royalty != 0) {\n\n            _safeMint(msg.sender, newTokenId);\n            _setTokenURI(newTokenId, tokenURI);\n            _createNftItem(newTokenId, price);\n            setRoyalties(msg.sender, royalty, newTokenId);\n            _usedTokenURIs[tokenURI] = true;\n\n        } else {\n            _safeMint(msg.sender, newTokenId);\n            _setTokenURI(newTokenId, tokenURI);\n            _createNftItem(newTokenId, price);\n            _usedTokenURIs[tokenURI] = true;\n        }\n        return newTokenId;\n\n    }\n\n    //interface for royalties\n    function supportsInterface(bytes4 interfaceId) public view override(ERC721) returns (bool){\n        return interfaceId == _INTERFACE_ID_ERC2981 || super.supportsInterface(interfaceId);\n    }\n\n    function setRoyalties(address recipient, uint256 value, uint256 tokenId) public {\n        require(value <= 100, 'ERC2981Royalties: Too high');\n        royaltyPerTokenId[tokenId] = RoyaltyInfo(recipient, value);\n    }\n\n    function royaltyInfo(uint256 tokenId, uint256 value) external view returns (address receiver, uint256 royaltyAmount)\n    {\n        RoyaltyInfo memory royalties = royaltyPerTokenId[tokenId];\n        receiver = royalties.recipient;\n        royaltyAmount = (value * royalties.amount) / 100;\n    }\n\n    function getRoyaltyPerTokenId(uint256 tokenId) public view returns (RoyaltyInfo memory){\n        return royaltyPerTokenId[tokenId];\n    }\n\n    function changeRoyaltyPerTokenId(uint256 tokenId, uint96 royalty) public {\n        royaltyPerTokenId[tokenId].amount = royalty;\n    }\n\n    //fallback receive function\n    receive() external payable {\n        revert();\n    }\n\n    function _sentRoyaltyAmount(address creator, uint256 amount) private {\n        payable(creator).transfer(amount);\n    }\n\n    function buyNft(\n        uint tokenId\n    ) public payable {\n        uint price = _idToNftItem[tokenId].price;\n        address owner = ERC721.ownerOf(tokenId);\n        require(msg.sender != owner, \"You already own this NFT\");\n        require(msg.value == price, \"Please submit the asking price\");\n\n        RoyaltyInfo memory royalties = royaltyPerTokenId[tokenId];\n        address creator = royalties.recipient;\n        uint256 royaltyAmount = (msg.value * royalties.amount) / 100;\n        _transfer(owner, msg.sender, tokenId);\n\n        if (_idToNftItem[tokenId].isSold) {\n            payable(owner).transfer(msg.value - royaltyAmount);\n            _sentRoyaltyAmount(creator, royaltyAmount);\n            emit RoyaltyAmountSent(creator, tokenId, royaltyAmount);\n        } else {\n            uint priceWithRoyalty = _idToNftItem[tokenId].price + royaltyAmount;\n            _idToNftItem[tokenId].price = priceWithRoyalty;\n            payable(owner).transfer(msg.value);\n        }\n\n        _listedItems.decrement();\n        _idToNftItem[tokenId].isListed = false;\n        _idToNftItem[tokenId].isSold = true;\n    }\n    //Withdraw money in contract to Owner\n    function withdraw() external onlyOwner {\n        uint256 balance = address(this).balance;\n        require(balance > 0, \"No ether left to withdraw\");\n        (bool success,) = payable(owner()).call{value : balance}(\"\");\n        require(success, \"Transfer failed.\");\n    }\n\n    function placeNftOnSale(uint tokenId, uint newPrice) public payable {\n        require(ERC721.ownerOf(tokenId) == msg.sender, \"You are not owner of this nft\");\n        require(_idToNftItem[tokenId].isListed == false, \"Item is already on sale\");\n        require(msg.value == listingPrice, \"Price must be equal to listing price\");\n\n        _idToNftItem[tokenId].isListed = true;\n        _idToNftItem[tokenId].price = newPrice;\n        _listedItems.increment();\n    }\n\n\n    function removeNftFromSale(uint tokenId) public {\n        require(ERC721.ownerOf(tokenId) == msg.sender, \"You are not owner of this nft\");\n        require(_idToNftItem[tokenId].isListed == true, \"Item is already removed from sale\");\n        _idToNftItem[tokenId].isListed = false;\n        _listedItems.decrement();\n    }\n\n    function setNewPrice(uint tokenId, uint price) public {\n        require(ERC721.ownerOf(tokenId) == msg.sender, \"You are not owner of this nft\");\n        RoyaltyInfo memory royalties = royaltyPerTokenId[tokenId];\n        uint256 royaltyAmount = (price * royalties.amount) / 100;\n        if (_idToNftItem[tokenId].isSold) {\n            _idToNftItem[tokenId].price = price + royaltyAmount;\n        } else {\n            _idToNftItem[tokenId].price = price;\n        }\n\n    }\n\n    function _createNftItem(\n        uint tokenId,\n        uint price\n    ) private {\n        require(price > 0, \"Price must be at least 1 wei\");\n\n        _idToNftItem[tokenId] = NftItem(\n            tokenId,\n            price,\n            msg.sender,\n            true,\n            false\n        );\n        emit NftItemCreated(tokenId, price, msg.sender, true, false);\n    }\n\n    function _beforeTokenTransfer(\n        address from,\n        address to,\n        uint tokenId\n    ) internal virtual override {\n        super._beforeTokenTransfer(from, to, tokenId);\n\n        if (from == address(0)) {\n            _addTokenToAllTokensEnumeration(tokenId);\n        } else if (from != to) {\n            _removeTokenFromOwnerEnumeration(from, tokenId);\n        }\n\n        if (to == address(0)) {\n            _removeTokenFromAllTokensEnumeration(tokenId);\n        } else if (to != from) {\n            _addTokenToOwnerEnumeration(to, tokenId);\n        }\n    }\n\n    function _addTokenToAllTokensEnumeration(uint tokenId) private {\n        _idToNftIndex[tokenId] = _allNfts.length;\n        _allNfts.push(tokenId);\n    }\n\n    function _addTokenToOwnerEnumeration(address to, uint tokenId) private {\n        uint length = ERC721.balanceOf(to);\n        _ownedTokens[to][length] = tokenId;\n        _idToOwnedIndex[tokenId] = length;\n    }\n\n    function _removeTokenFromOwnerEnumeration(address from, uint tokenId) private {\n        uint lastTokenIndex = ERC721.balanceOf(from) - 1;\n        uint tokenIndex = _idToOwnedIndex[tokenId];\n\n        if (tokenIndex != lastTokenIndex) {\n            uint lastTokenId = _ownedTokens[from][lastTokenIndex];\n\n            _ownedTokens[from][tokenIndex] = lastTokenId;\n            _idToOwnedIndex[lastTokenId] = tokenIndex;\n        }\n\n        delete _idToOwnedIndex[tokenId];\n        delete _ownedTokens[from][lastTokenIndex];\n    }\n\n    function _removeTokenFromAllTokensEnumeration(uint tokenId) private {\n        uint lastTokenIndex = _allNfts.length - 1;\n        uint tokenIndex = _idToNftIndex[tokenId];\n        uint lastTokenId = _allNfts[lastTokenIndex];\n\n        _allNfts[tokenIndex] = lastTokenId;\n        _idToNftIndex[lastTokenId] = tokenIndex;\n\n        delete _idToNftIndex[tokenId];\n        _allNfts.pop();\n    }\n}\n",
  "sourcePath": "/home/igor/11_Ethereum/nft-marketplace-first/contracts/NftMarket.sol",
  "compiler": {
    "name": "solc",
    "version": "0.8.13+commit.abaa5c0e.Emscripten.clang"
  },
  "schemaVersion": "3.4.9",
  "updatedAt": "2023-01-21T11:46:02.353Z",
  "networkType": "ethereum",
  "devdoc": {
    "kind": "dev",
    "methods": {
      "approve(address,uint256)": {
        "details": "See {IERC721-approve}."
      },
      "balanceOf(address)": {
        "details": "See {IERC721-balanceOf}."
      },
      "getApproved(uint256)": {
        "details": "See {IERC721-getApproved}."
      },
      "isApprovedForAll(address,address)": {
        "details": "See {IERC721-isApprovedForAll}."
      },
      "name()": {
        "details": "See {IERC721Metadata-name}."
      },
      "owner()": {
        "details": "Returns the address of the current owner."
      },
      "ownerOf(uint256)": {
        "details": "See {IERC721-ownerOf}."
      },
      "renounceOwnership()": {
        "details": "Leaves the contract without owner. It will not be possible to call `onlyOwner` functions anymore. Can only be called by the current owner. NOTE: Renouncing ownership will leave the contract without an owner, thereby removing any functionality that is only available to the owner."
      },
      "safeTransferFrom(address,address,uint256)": {
        "details": "See {IERC721-safeTransferFrom}."
      },
      "safeTransferFrom(address,address,uint256,bytes)": {
        "details": "See {IERC721-safeTransferFrom}."
      },
      "setApprovalForAll(address,bool)": {
        "details": "See {IERC721-setApprovalForAll}."
      },
      "supportsInterface(bytes4)": {
        "details": "See {IERC165-supportsInterface}."
      },
      "symbol()": {
        "details": "See {IERC721Metadata-symbol}."
      },
      "tokenURI(uint256)": {
        "details": "See {IERC721Metadata-tokenURI}."
      },
      "transferFrom(address,address,uint256)": {
        "details": "See {IERC721-transferFrom}."
      },
      "transferOwnership(address)": {
        "details": "Transfers ownership of the contract to a new account (`newOwner`). Can only be called by the current owner."
      }
    },
    "version": 1
  },
  "userdoc": {
    "kind": "user",
    "methods": {},
    "version": 1
  }
}