{
  "contractName": "NftMarket",
  "abi": [
    {
      "inputs": [
        {
          "internalType": "string",
          "name": "TokenName",
          "type": "string"
        },
        {
          "internalType": "string",
          "name": "TokenSymbol",
          "type": "string"
        }
      ],
      "stateMutability": "nonpayable",
      "type": "constructor"
    },
    {
      "anonymous": false,
      "inputs": [
        {
          "indexed": true,
          "internalType": "address",
          "name": "owner",
          "type": "address"
        },
        {
          "indexed": true,
          "internalType": "address",
          "name": "approved",
          "type": "address"
        },
        {
          "indexed": true,
          "internalType": "uint256",
          "name": "tokenId",
          "type": "uint256"
        }
      ],
      "name": "Approval",
      "type": "event"
    },
    {
      "anonymous": false,
      "inputs": [
        {
          "indexed": true,
          "internalType": "address",
          "name": "owner",
          "type": "address"
        },
        {
          "indexed": true,
          "internalType": "address",
          "name": "operator",
          "type": "address"
        },
        {
          "indexed": false,
          "internalType": "bool",
          "name": "approved",
          "type": "bool"
        }
      ],
      "name": "ApprovalForAll",
      "type": "event"
    },
    {
      "anonymous": false,
      "inputs": [
        {
          "indexed": false,
          "internalType": "uint256",
          "name": "tokenId",
          "type": "uint256"
        },
        {
          "indexed": false,
          "internalType": "string",
          "name": "tokenURI",
          "type": "string"
        },
        {
          "indexed": false,
          "internalType": "string",
          "name": "nftName",
          "type": "string"
        },
        {
          "indexed": false,
          "internalType": "address",
          "name": "creator",
          "type": "address"
        },
        {
          "indexed": false,
          "internalType": "address",
          "name": "owner",
          "type": "address"
        },
        {
          "indexed": false,
          "internalType": "uint256",
          "name": "price",
          "type": "uint256"
        },
        {
          "indexed": false,
          "internalType": "uint96",
          "name": "royalty",
          "type": "uint96"
        },
        {
          "indexed": false,
          "internalType": "bool",
          "name": "isListed",
          "type": "bool"
        },
        {
          "indexed": false,
          "internalType": "bool",
          "name": "isSold",
          "type": "bool"
        },
        {
          "indexed": false,
          "internalType": "uint256",
          "name": "networkId",
          "type": "uint256"
        }
      ],
      "name": "NFT",
      "type": "event"
    },
    {
      "anonymous": false,
      "inputs": [
        {
          "indexed": false,
          "internalType": "uint256",
          "name": "tokenId",
          "type": "uint256"
        },
        {
          "indexed": false,
          "internalType": "uint256",
          "name": "price",
          "type": "uint256"
        },
        {
          "indexed": false,
          "internalType": "uint256",
          "name": "royaltyAmount",
          "type": "uint256"
        },
        {
          "indexed": false,
          "internalType": "uint256",
          "name": "priceWithRoyalty",
          "type": "uint256"
        },
        {
          "indexed": false,
          "internalType": "address",
          "name": "previousOwner",
          "type": "address"
        },
        {
          "indexed": false,
          "internalType": "address",
          "name": "owner",
          "type": "address"
        }
      ],
      "name": "NftBought",
      "type": "event"
    },
    {
      "anonymous": false,
      "inputs": [
        {
          "indexed": true,
          "internalType": "address",
          "name": "previousOwner",
          "type": "address"
        },
        {
          "indexed": true,
          "internalType": "address",
          "name": "newOwner",
          "type": "address"
        }
      ],
      "name": "OwnershipTransferred",
      "type": "event"
    },
    {
      "anonymous": false,
      "inputs": [
        {
          "indexed": true,
          "internalType": "address",
          "name": "from",
          "type": "address"
        },
        {
          "indexed": true,
          "internalType": "address",
          "name": "to",
          "type": "address"
        },
        {
          "indexed": true,
          "internalType": "uint256",
          "name": "tokenId",
          "type": "uint256"
        }
      ],
      "name": "Transfer",
      "type": "event"
    },
    {
      "inputs": [
        {
          "internalType": "address",
          "name": "to",
          "type": "address"
        },
        {
          "internalType": "uint256",
          "name": "tokenId",
          "type": "uint256"
        }
      ],
      "name": "approve",
      "outputs": [],
      "stateMutability": "nonpayable",
      "type": "function"
    },
    {
      "inputs": [
        {
          "internalType": "address",
          "name": "owner",
          "type": "address"
        }
      ],
      "name": "balanceOf",
      "outputs": [
        {
          "internalType": "uint256",
          "name": "",
          "type": "uint256"
        }
      ],
      "stateMutability": "view",
      "type": "function"
    },
    {
      "inputs": [],
      "name": "baseTokenURI",
      "outputs": [
        {
          "internalType": "string",
          "name": "",
          "type": "string"
        }
      ],
      "stateMutability": "view",
      "type": "function"
    },
    {
      "inputs": [
        {
          "internalType": "uint256",
          "name": "tokenId",
          "type": "uint256"
        }
      ],
      "name": "getApproved",
      "outputs": [
        {
          "internalType": "address",
          "name": "",
          "type": "address"
        }
      ],
      "stateMutability": "view",
      "type": "function"
    },
    {
      "inputs": [
        {
          "internalType": "address",
          "name": "owner",
          "type": "address"
        },
        {
          "internalType": "address",
          "name": "operator",
          "type": "address"
        }
      ],
      "name": "isApprovedForAll",
      "outputs": [
        {
          "internalType": "bool",
          "name": "",
          "type": "bool"
        }
      ],
      "stateMutability": "view",
      "type": "function"
    },
    {
      "inputs": [],
      "name": "listingPrice",
      "outputs": [
        {
          "internalType": "uint256",
          "name": "",
          "type": "uint256"
        }
      ],
      "stateMutability": "view",
      "type": "function"
    },
    {
      "inputs": [],
      "name": "name",
      "outputs": [
        {
          "internalType": "string",
          "name": "",
          "type": "string"
        }
      ],
      "stateMutability": "view",
      "type": "function"
    },
    {
      "inputs": [],
      "name": "owner",
      "outputs": [
        {
          "internalType": "address",
          "name": "",
          "type": "address"
        }
      ],
      "stateMutability": "view",
      "type": "function"
    },
    {
      "inputs": [
        {
          "internalType": "uint256",
          "name": "tokenId",
          "type": "uint256"
        }
      ],
      "name": "ownerOf",
      "outputs": [
        {
          "internalType": "address",
          "name": "",
          "type": "address"
        }
      ],
      "stateMutability": "view",
      "type": "function"
    },
    {
      "inputs": [],
      "name": "renounceOwnership",
      "outputs": [],
      "stateMutability": "nonpayable",
      "type": "function"
    },
    {
      "inputs": [
        {
          "internalType": "address",
          "name": "from",
          "type": "address"
        },
        {
          "internalType": "address",
          "name": "to",
          "type": "address"
        },
        {
          "internalType": "uint256",
          "name": "tokenId",
          "type": "uint256"
        }
      ],
      "name": "safeTransferFrom",
      "outputs": [],
      "stateMutability": "nonpayable",
      "type": "function"
    },
    {
      "inputs": [
        {
          "internalType": "address",
          "name": "from",
          "type": "address"
        },
        {
          "internalType": "address",
          "name": "to",
          "type": "address"
        },
        {
          "internalType": "uint256",
          "name": "tokenId",
          "type": "uint256"
        },
        {
          "internalType": "bytes",
          "name": "_data",
          "type": "bytes"
        }
      ],
      "name": "safeTransferFrom",
      "outputs": [],
      "stateMutability": "nonpayable",
      "type": "function"
    },
    {
      "inputs": [
        {
          "internalType": "address",
          "name": "operator",
          "type": "address"
        },
        {
          "internalType": "bool",
          "name": "approved",
          "type": "bool"
        }
      ],
      "name": "setApprovalForAll",
      "outputs": [],
      "stateMutability": "nonpayable",
      "type": "function"
    },
    {
      "inputs": [
        {
          "internalType": "bytes4",
          "name": "interfaceId",
          "type": "bytes4"
        }
      ],
      "name": "supportsInterface",
      "outputs": [
        {
          "internalType": "bool",
          "name": "",
          "type": "bool"
        }
      ],
      "stateMutability": "view",
      "type": "function"
    },
    {
      "inputs": [],
      "name": "symbol",
      "outputs": [
        {
          "internalType": "string",
          "name": "",
          "type": "string"
        }
      ],
      "stateMutability": "view",
      "type": "function"
    },
    {
      "inputs": [
        {
          "internalType": "uint256",
          "name": "tokenId",
          "type": "uint256"
        }
      ],
      "name": "tokenURI",
      "outputs": [
        {
          "internalType": "string",
          "name": "",
          "type": "string"
        }
      ],
      "stateMutability": "view",
      "type": "function"
    },
    {
      "inputs": [
        {
          "internalType": "address",
          "name": "from",
          "type": "address"
        },
        {
          "internalType": "address",
          "name": "to",
          "type": "address"
        },
        {
          "internalType": "uint256",
          "name": "tokenId",
          "type": "uint256"
        }
      ],
      "name": "transferFrom",
      "outputs": [],
      "stateMutability": "nonpayable",
      "type": "function"
    },
    {
      "inputs": [
        {
          "internalType": "address",
          "name": "newOwner",
          "type": "address"
        }
      ],
      "name": "transferOwnership",
      "outputs": [],
      "stateMutability": "nonpayable",
      "type": "function"
    },
    {
      "stateMutability": "payable",
      "type": "receive"
    },
    {
      "inputs": [
        {
          "internalType": "uint256",
          "name": "newPrice",
          "type": "uint256"
        }
      ],
      "name": "setListingPrice",
      "outputs": [],
      "stateMutability": "nonpayable",
      "type": "function"
    },
    {
      "inputs": [
        {
          "internalType": "uint256",
          "name": "tokenId",
          "type": "uint256"
        }
      ],
      "name": "getNftItem",
      "outputs": [
        {
          "components": [
            {
              "internalType": "uint256",
              "name": "tokenId",
              "type": "uint256"
            },
            {
              "internalType": "uint256",
              "name": "price",
              "type": "uint256"
            },
            {
              "internalType": "address",
              "name": "creator",
              "type": "address"
            },
            {
              "internalType": "bool",
              "name": "isListed",
              "type": "bool"
            },
            {
              "internalType": "bool",
              "name": "isSold",
              "type": "bool"
            }
          ],
          "internalType": "struct NftMarket.NftItem",
          "name": "",
          "type": "tuple"
        }
      ],
      "stateMutability": "view",
      "type": "function"
    },
    {
      "inputs": [],
      "name": "listedItemsCount",
      "outputs": [
        {
          "internalType": "uint256",
          "name": "",
          "type": "uint256"
        }
      ],
      "stateMutability": "view",
      "type": "function"
    },
    {
      "inputs": [
        {
          "internalType": "string",
          "name": "tokenURI",
          "type": "string"
        }
      ],
      "name": "tokenURIExists",
      "outputs": [
        {
          "internalType": "bool",
          "name": "",
          "type": "bool"
        }
      ],
      "stateMutability": "view",
      "type": "function"
    },
    {
      "inputs": [],
      "name": "totalSupply",
      "outputs": [
        {
          "internalType": "uint256",
          "name": "",
          "type": "uint256"
        }
      ],
      "stateMutability": "view",
      "type": "function"
    },
    {
      "inputs": [
        {
          "internalType": "uint256",
          "name": "index",
          "type": "uint256"
        }
      ],
      "name": "tokenByIndex",
      "outputs": [
        {
          "internalType": "uint256",
          "name": "",
          "type": "uint256"
        }
      ],
      "stateMutability": "view",
      "type": "function"
    },
    {
      "inputs": [
        {
          "internalType": "address",
          "name": "owner",
          "type": "address"
        },
        {
          "internalType": "uint256",
          "name": "index",
          "type": "uint256"
        }
      ],
      "name": "tokenOfOwnerByIndex",
      "outputs": [
        {
          "internalType": "uint256",
          "name": "",
          "type": "uint256"
        }
      ],
      "stateMutability": "view",
      "type": "function"
    },
    {
      "inputs": [],
      "name": "getAllNftsOnSale",
      "outputs": [
        {
          "components": [
            {
              "internalType": "uint256",
              "name": "tokenId",
              "type": "uint256"
            },
            {
              "internalType": "uint256",
              "name": "price",
              "type": "uint256"
            },
            {
              "internalType": "address",
              "name": "creator",
              "type": "address"
            },
            {
              "internalType": "bool",
              "name": "isListed",
              "type": "bool"
            },
            {
              "internalType": "bool",
              "name": "isSold",
              "type": "bool"
            }
          ],
          "internalType": "struct NftMarket.NftItem[]",
          "name": "",
          "type": "tuple[]"
        }
      ],
      "stateMutability": "view",
      "type": "function"
    },
    {
      "inputs": [],
      "name": "getOwnedNfts",
      "outputs": [
        {
          "components": [
            {
              "internalType": "uint256",
              "name": "tokenId",
              "type": "uint256"
            },
            {
              "internalType": "uint256",
              "name": "price",
              "type": "uint256"
            },
            {
              "internalType": "address",
              "name": "creator",
              "type": "address"
            },
            {
              "internalType": "bool",
              "name": "isListed",
              "type": "bool"
            },
            {
              "internalType": "bool",
              "name": "isSold",
              "type": "bool"
            }
          ],
          "internalType": "struct NftMarket.NftItem[]",
          "name": "",
          "type": "tuple[]"
        }
      ],
      "stateMutability": "view",
      "type": "function"
    },
    {
      "inputs": [
        {
          "internalType": "string",
          "name": "tokenURI",
          "type": "string"
        },
        {
          "internalType": "string",
          "name": "nftName",
          "type": "string"
        },
        {
          "internalType": "uint256",
          "name": "price",
          "type": "uint256"
        },
        {
          "internalType": "uint96",
          "name": "royalty",
          "type": "uint96"
        },
        {
          "internalType": "uint256",
          "name": "networkId",
          "type": "uint256"
        }
      ],
      "name": "mintToken",
      "outputs": [
        {
          "internalType": "uint256",
          "name": "",
          "type": "uint256"
        }
      ],
      "stateMutability": "payable",
      "type": "function"
    },
    {
      "inputs": [
        {
          "internalType": "address",
          "name": "recipient",
          "type": "address"
        },
        {
          "internalType": "uint256",
          "name": "value",
          "type": "uint256"
        },
        {
          "internalType": "uint256",
          "name": "tokenId",
          "type": "uint256"
        }
      ],
      "name": "setRoyalties",
      "outputs": [],
      "stateMutability": "nonpayable",
      "type": "function"
    },
    {
      "inputs": [
        {
          "internalType": "uint256",
          "name": "tokenId",
          "type": "uint256"
        },
        {
          "internalType": "uint256",
          "name": "value",
          "type": "uint256"
        }
      ],
      "name": "royaltyInfo",
      "outputs": [
        {
          "internalType": "address",
          "name": "receiver",
          "type": "address"
        },
        {
          "internalType": "uint256",
          "name": "royaltyAmount",
          "type": "uint256"
        }
      ],
      "stateMutability": "view",
      "type": "function"
    },
    {
      "inputs": [
        {
          "internalType": "uint256",
          "name": "tokenId",
          "type": "uint256"
        }
      ],
      "name": "getRoyaltyPerTokenId",
      "outputs": [
        {
          "components": [
            {
              "internalType": "address",
              "name": "recipient",
              "type": "address"
            },
            {
              "internalType": "uint256",
              "name": "amount",
              "type": "uint256"
            }
          ],
          "internalType": "struct NftMarket.RoyaltyInfo",
          "name": "",
          "type": "tuple"
        }
      ],
      "stateMutability": "view",
      "type": "function"
    },
    {
      "inputs": [
        {
          "internalType": "uint256",
          "name": "tokenId",
          "type": "uint256"
        },
        {
          "internalType": "uint96",
          "name": "royalty",
          "type": "uint96"
        }
      ],
      "name": "changeRoyaltyPerTokenId",
      "outputs": [],
      "stateMutability": "nonpayable",
      "type": "function"
    },
    {
      "inputs": [
        {
          "internalType": "uint256",
          "name": "tokenId",
          "type": "uint256"
        }
      ],
      "name": "buyNft",
      "outputs": [
        {
          "internalType": "uint256",
          "name": "",
          "type": "uint256"
        }
      ],
      "stateMutability": "payable",
      "type": "function"
    },
    {
      "inputs": [],
      "name": "withdraw",
      "outputs": [],
      "stateMutability": "nonpayable",
      "type": "function"
    },
    {
      "inputs": [
        {
          "internalType": "uint256",
          "name": "tokenId",
          "type": "uint256"
        },
        {
          "internalType": "uint256",
          "name": "newPrice",
          "type": "uint256"
        }
      ],
      "name": "placeNftOnSale",
      "outputs": [],
      "stateMutability": "payable",
      "type": "function"
    },
    {
      "inputs": [
        {
          "internalType": "uint256",
          "name": "tokenId",
          "type": "uint256"
        }
      ],
      "name": "removeNftFromSale",
      "outputs": [],
      "stateMutability": "nonpayable",
      "type": "function"
    },
    {
      "inputs": [
        {
          "internalType": "uint256",
          "name": "tokenId",
          "type": "uint256"
        },
        {
          "internalType": "uint256",
          "name": "price",
          "type": "uint256"
        }
      ],
      "name": "setNewPrice",
      "outputs": [],
      "stateMutability": "nonpayable",
      "type": "function"
    }
  ],
  "bytecode": "0x60806040526658d15e17628000600a553480156200001c57600080fd5b50604051620036df380380620036df8339810160408190526200003f9162000242565b81518290829062000058906000906020850190620000e9565b5080516200006e906001906020840190620000e9565b5050506200008b620000856200009360201b60201c565b62000097565b5050620002fc565b3390565b600780546001600160a01b038381166001600160a01b0319831681179093556040519116919082907f8be0079c531659141344cd1fd0a4f28419497f9722a3daafe3b4186f6b6457e090600090a35050565b828054620000f790620002a9565b90600052602060002090601f0160209004810192826200011b576000855562000166565b82601f106200013657805160ff191683800117855562000166565b8280016001018555821562000166579182015b828111156200016657825182559160200191906001019062000149565b506200017492915062000178565b5090565b5b8082111562000174576000815560010162000179565b600082601f830112620001a0578081fd5b81516001600160401b0380821115620001bd57620001bd620002e6565b604051601f8301601f19908116603f01168101908282118183101715620001e857620001e8620002e6565b8160405283815260209250868385880101111562000204578485fd5b8491505b8382101562000227578582018301518183018401529082019062000208565b838211156200023857848385830101525b9695505050505050565b6000806040838503121562000255578182fd5b82516001600160401b03808211156200026c578384fd5b6200027a868387016200018f565b9350602085015191508082111562000290578283fd5b506200029f858286016200018f565b9150509250929050565b600281046001821680620002be57607f821691505b60208210811415620002e057634e487b7160e01b600052602260045260246000fd5b50919050565b634e487b7160e01b600052604160045260246000fd5b6133d3806200030c6000396000f3fe60806040526004361061021e5760003560e01c806370a0823111610123578063c4b3a2c5116100ab578063e23a60fe1161006f578063e23a60fe14610601578063e78980d414610621578063e985e9c514610641578063f0d2fad814610661578063f2fde38b1461068157610228565b8063c4b3a2c514610582578063c78f19f9146105a2578063c87b56dd146105b7578063ccb4918d146105d7578063d547cfb7146105ec57610228565b80638c06490b116100f25780638c06490b146105055780638da5cb5b1461051857806395d89b411461052d578063a22cb46514610542578063b88d4fde1461056257610228565b806370a082311461049b57806370cbcb43146104bb578063715018a6146104d05780637c726b69146104e557610228565b80632f745c59116101a657806343d32ae71161017557806343d32ae7146103e15780634f6ccce7146104015780635b6d9d3b146104215780636352211e1461044e5780636f1a0af51461046e57610228565b80632f745c591461036a57806336b536be1461038a5780633ccfd60b146103ac57806342842e0e146103c157610228565b806318160ddd116101ed57806318160ddd146102d457806321f422e5146102f657806323b872dd14610309578063243adbdd146103295780632a55205a1461033c57610228565b806301ffc9a71461022d57806306fdde0314610263578063081812fc14610285578063095ea7b3146102b257610228565b3661022857600080fd5b600080fd5b34801561023957600080fd5b5061024d6102483660046126f6565b6106a1565b60405161025a91906129ab565b60405180910390f35b34801561026f57600080fd5b506102786106e9565b60405161025a91906129b6565b34801561029157600080fd5b506102a56102a03660046127e4565b61077b565b60405161025a91906128f3565b3480156102be57600080fd5b506102d26102cd36600461269b565b6107c7565b005b3480156102e057600080fd5b506102e961085f565b60405161025a9190613190565b6102d26103043660046127fc565b610865565b34801561031557600080fd5b506102d26103243660046125ad565b610926565b6102e96103373660046127e4565b61095e565b34801561034857600080fd5b5061035c6103573660046127fc565b610b84565b60405161025a929190612944565b34801561037657600080fd5b506102e961038536600461269b565b610bda565b34801561039657600080fd5b5061039f610c2f565b60405161025a919061295d565b3480156103b857600080fd5b506102d2610d97565b3480156103cd57600080fd5b506102d26103dc3660046125ad565b610e77565b3480156103ed57600080fd5b5061024d6103fc36600461272e565b610e92565b34801561040d57600080fd5b506102e961041c3660046127e4565b610ec3565b34801561042d57600080fd5b5061044161043c3660046127e4565b610f1e565b60405161025a9190613170565b34801561045a57600080fd5b506102a56104693660046127e4565b610f59565b34801561047a57600080fd5b5061048e6104893660046127e4565b610f8e565b60405161025a9190613162565b3480156104a757600080fd5b506102e96104b6366004612561565b610ffd565b3480156104c757600080fd5b5061039f611041565b3480156104dc57600080fd5b506102d261117e565b3480156104f157600080fd5b506102d26105003660046127e4565b6111c9565b6102e9610513366004612761565b61122d565b34801561052457600080fd5b506102a561136c565b34801561053957600080fd5b5061027861137b565b34801561054e57600080fd5b506102d261055d366004612661565b61138a565b34801561056e57600080fd5b506102d261057d3660046125e8565b61139c565b34801561058e57600080fd5b506102d261059d3660046126c4565b6113db565b3480156105ae57600080fd5b506102e9611444565b3480156105c357600080fd5b506102786105d23660046127e4565b61144a565b3480156105e357600080fd5b506102e961156b565b3480156105f857600080fd5b5061027861157c565b34801561060d57600080fd5b506102d261061c3660046127fc565b61160a565b34801561062d57600080fd5b506102d261063c36600461281d565b6116ee565b34801561064d57600080fd5b5061024d61065c36600461257b565b611710565b34801561066d57600080fd5b506102d261067c3660046127e4565b61173e565b34801561068d57600080fd5b506102d261069c366004612561565b6117d4565b60006001600160e01b031982166380ac58cd60e01b14806106d257506001600160e01b03198216635b5e139f60e01b145b806106e157506106e182611842565b90505b919050565b6060600080546106f8906132db565b80601f0160208091040260200160405190810160405280929190818152602001828054610724906132db565b80156107715780601f1061074657610100808354040283529160200191610771565b820191906000526020600020905b81548152906001019060200180831161075457829003601f168201915b5050505050905090565b60006107868261185b565b6107ab5760405162461bcd60e51b81526004016107a290612e8d565b60405180910390fd5b506000908152600460205260409020546001600160a01b031690565b60006107d282610f59565b9050806001600160a01b0316836001600160a01b031614156108065760405162461bcd60e51b81526004016107a290612fc3565b806001600160a01b0316610818611878565b6001600160a01b0316148061083457506108348161065c611878565b6108505760405162461bcd60e51b81526004016107a290612c6a565b61085a838361187c565b505050565b60115490565b3361086f83610f59565b6001600160a01b0316146108955760405162461bcd60e51b81526004016107a290612c33565b6000828152600e6020526040902060020154600160a01b900460ff16156108ce5760405162461bcd60e51b81526004016107a290612dd0565b600a5434146108ef5760405162461bcd60e51b81526004016107a29061303b565b6000828152600e6020526040902060028101805460ff60a01b1916600160a01b179055600101819055610922600b6118ea565b5050565b610937610931611878565b826118f3565b6109535760405162461bcd60e51b81526004016107a29061307f565b61085a838383611970565b60008061096a83610f59565b9050336001600160a01b03821614156109955760405162461bcd60e51b81526004016107a290612f0e565b6000838152600e602052604090206001015434146109c55760405162461bcd60e51b81526004016107a2906130f4565b6000838152600860209081526040808320815180830190925280546001600160a01b031680835260019091015492820183905290929091606490610a099034613279565b610a139190613265565b9050610a20843388611970565b6000868152600e6020526040812060010154610a3d90839061324d565b6000888152600e6020526040902060020154909150600160a81b900460ff1615610ab0576001600160a01b0385166108fc610a788434613298565b6040518115909202916000818181858888f19350505050158015610aa0573d6000803e3d6000fd5b50610aab8383611aa3565b610afa565b6000878152600e6020526040808220600101839055516001600160a01b038716913480156108fc02929091818181858888f19350505050158015610af8573d6000803e3d6000fd5b505b610b04600b611ad9565b6000878152600e602052604090819020600201805461ffff60a01b1916600160a81b179055517f4bfbfeeba2f706c81ab0cb0d1984899c83191e05f9b5b4463fa39cde0031ab8990610b619089903490869086908b903390613219565b60405180910390a150505060009384525050600e60205250604090206001015490565b6000828152600860209081526040808320815180830190925280546001600160a01b03168083526001909101549282018390529291606490610bc69086613279565b610bd09190613265565b9150509250929050565b6000610be583610ffd565b8210610c035760405162461bcd60e51b81526004016107a290612b14565b506001600160a01b0382166000908152600f602090815260408083208484529091529020545b92915050565b60606000610c3b61085f565b9050600080610c4a600b611b00565b67ffffffffffffffff811115610c7057634e487b7160e01b600052604160045260246000fd5b604051908082528060200260200182016040528015610ca957816020015b610c966123c0565b815260200190600190039081610c8e5790505b50905060005b83811015610d8f576000610cc282610ec3565b6000818152600e60205260409020600281015491925090600160a01b900460ff16151560011415610d7a576040805160a081018252825481526001830154602082015260028301546001600160a01b0381169282019290925260ff600160a01b8304811615156060830152600160a81b909204909116151560808201528451859087908110610d6157634e487b7160e01b600052603260045260246000fd5b6020908102919091010152610d7760018661324d565b94505b50508080610d8790613316565b915050610caf565b509250505090565b610d9f611878565b6001600160a01b0316610db061136c565b6001600160a01b031614610dd65760405162461bcd60e51b81526004016107a290612ed9565b4780610df45760405162461bcd60e51b81526004016107a290612cc7565b6000610dfe61136c565b6001600160a01b031682604051610e14906128f0565b60006040518083038185875af1925050503d8060008114610e51576040519150601f19603f3d011682016040523d82523d6000602084013e610e56565b606091505b50509050806109225760405162461bcd60e51b81526004016107a290612f50565b61085a8383836040518060200160405280600081525061139c565b6000600d82604051610ea491906128a5565b9081526040519081900360200190205460ff1615156001149050919050565b6000610ecd61085f565b8210610eeb5760405162461bcd60e51b81526004016107a290612b14565b60118281548110610f0c57634e487b7160e01b600052603260045260246000fd5b90600052602060002001549050919050565b610f266123ee565b50600090815260086020908152604091829020825180840190935280546001600160a01b03168352600101549082015290565b6000818152600260205260408120546001600160a01b0316806106e15760405162461bcd60e51b81526004016107a290612d39565b610f966123c0565b506000908152600e6020908152604091829020825160a08101845281548152600182015492810192909252600201546001600160a01b0381169282019290925260ff600160a01b8304811615156060830152600160a81b9092049091161515608082015290565b60006001600160a01b0382166110255760405162461bcd60e51b81526004016107a290612cef565b506001600160a01b031660009081526003602052604090205490565b6060600061104e33610ffd565b905060008167ffffffffffffffff81111561107957634e487b7160e01b600052604160045260246000fd5b6040519080825280602002602001820160405280156110b257816020015b61109f6123c0565b8152602001906001900390816110975790505b50905060005b828110156111775760006110cc3383610bda565b6000818152600e6020908152604091829020825160a0810184528154815260018201549281019290925260028101546001600160a01b0381169383019390935260ff600160a01b8404811615156060840152600160a81b909304909216151560808201528551929350909185908590811061115757634e487b7160e01b600052603260045260246000fd5b60200260200101819052505050808061116f90613316565b9150506110b8565b5091505090565b611186611878565b6001600160a01b031661119761136c565b6001600160a01b0316146111bd5760405162461bcd60e51b81526004016107a290612ed9565b6111c76000611b04565b565b6111d1611878565b6001600160a01b03166111e261136c565b6001600160a01b0316146112085760405162461bcd60e51b81526004016107a290612ed9565b600081116112285760405162461bcd60e51b81526004016107a290612f2e565b600a55565b600061123886610e92565b156112555760405162461bcd60e51b81526004016107a2906130d0565b600a5434146112765760405162461bcd60e51b81526004016107a290613004565b611280600c6118ea565b61128a600b6118ea565b6000611296600c611b00565b6000818152600e60205260409020600201805460ff60a81b1916905590506112be3382611b56565b6112c88188611b70565b6112d28186611bb4565b6112e633856001600160601b0316836113db565b6001600d886040516112f891906128a5565b908152604051908190036020018120805492151560ff19909316929092179091557f38a1312905b7ebaaf517ceeff9d63a5c1dda4f8617d2639d839cbb04722f71699061135a9083908a908a90339081908c908c906001906000908e90613199565b60405180910390a19695505050505050565b6007546001600160a01b031690565b6060600180546106f8906132db565b610922611395611878565b8383611c6f565b6113ad6113a7611878565b836118f3565b6113c95760405162461bcd60e51b81526004016107a29061307f565b6113d584848484611d12565b50505050565b60648211156113fc5760405162461bcd60e51b81526004016107a2906129c9565b6040805180820182526001600160a01b03948516815260208082019485526000938452600890529120905181546001600160a01b031916931692909217825551600190910155565b600a5481565b60606114558261185b565b6114715760405162461bcd60e51b81526004016107a290612e3c565b6000828152600660205260408120805461148a906132db565b80601f01602080910402602001604051908101604052809291908181526020018280546114b6906132db565b80156115035780601f106114d857610100808354040283529160200191611503565b820191906000526020600020905b8154815290600101906020018083116114e657829003601f168201915b505050505090506000611514611d45565b9050805160001415611528575090506106e4565b81511561155a5780826040516020016115429291906128c1565b604051602081830303815290604052925050506106e4565b61156384611d57565b949350505050565b6000611577600b611b00565b905090565b60098054611589906132db565b80601f01602080910402602001604051908101604052809291908181526020018280546115b5906132db565b80156116025780601f106115d757610100808354040283529160200191611602565b820191906000526020600020905b8154815290600101906020018083116115e557829003601f168201915b505050505081565b611612611878565b6001600160a01b031661162361136c565b6001600160a01b0316146116495760405162461bcd60e51b81526004016107a290612ed9565b6000828152600860209081526040808320815180830190925280546001600160a01b031682526001015491810182905291906064906116889085613279565b6116929190613265565b6000858152600e6020526040902060020154909150600160a81b900460ff16156116d7576116c0818461324d565b6000858152600e60205260409020600101556113d5565b50506000918252600e602052604090912060010155565b6000918252600860205260409091206001600160601b03909116600190910155565b6001600160a01b03918216600090815260056020908152604080832093909416825291909152205460ff1690565b3361174882610f59565b6001600160a01b03161461176e5760405162461bcd60e51b81526004016107a29061313e565b6000818152600e6020526040902060020154600160a01b900460ff1615156001146117ab5760405162461bcd60e51b81526004016107a29061311c565b6000818152600e60205260409020600201805460ff60a01b191690556117d1600b611ad9565b50565b6117dc611878565b6001600160a01b03166117ed61136c565b6001600160a01b0316146118135760405162461bcd60e51b81526004016107a290612ed9565b6001600160a01b0381166118395760405162461bcd60e51b81526004016107a290612a89565b6117d181611b04565b6001600160e01b031981166301ffc9a760e01b14919050565b6000908152600260205260409020546001600160a01b0316151590565b3390565b600081815260046020526040902080546001600160a01b0319166001600160a01b03841690811790915581906118b182610f59565b6001600160a01b03167f8c5be1e5ebec7d5bd14f71427d1e84f3dd0314c0f7b2291e5b200ac8c7c3b92560405160405180910390a45050565b80546001019055565b60006118fe8261185b565b61191a5760405162461bcd60e51b81526004016107a290612be7565b600061192583610f59565b9050806001600160a01b0316846001600160a01b031614806119605750836001600160a01b03166119558461077b565b6001600160a01b0316145b8061156357506115638185611710565b826001600160a01b031661198382610f59565b6001600160a01b0316146119a95760405162461bcd60e51b81526004016107a290612acf565b6001600160a01b0382166119cf5760405162461bcd60e51b81526004016107a290612b6c565b6119da838383611dda565b6119e560008261187c565b6001600160a01b0383166000908152600360205260408120805460019290611a0e908490613298565b90915550506001600160a01b0382166000908152600360205260408120805460019290611a3c90849061324d565b909155505060008181526002602052604080822080546001600160a01b0319166001600160a01b0386811691821790925591518493918716917fddf252ad1be2c89b69c2b068fc378daa952ba7f163c4a11628f55a4df523b3ef91a461085a83838361085a565b6040516001600160a01b0383169082156108fc029083906000818181858888f1935050505015801561085a573d6000803e3d6000fd5b805480611af85760405162461bcd60e51b81526004016107a290612a00565b600019019055565b5490565b600780546001600160a01b038381166001600160a01b0319831681179093556040519116919082907f8be0079c531659141344cd1fd0a4f28419497f9722a3daafe3b4186f6b6457e090600090a35050565b610922828260405180602001604052806000815250611e63565b611b798261185b565b611b955760405162461bcd60e51b81526004016107a290612d82565b6000828152600660209081526040909120825161085a92840190612405565b60008111611bd45760405162461bcd60e51b81526004016107a290612f2e565b6040805160a081018252838152602080820193845233828401908152600160608401818152600060808601818152988152600e9094529490922092518355935190820155915160029092018054915193511515600160a81b0260ff60a81b19941515600160a01b0260ff60a01b196001600160a01b03959095166001600160a01b031990941693909317939093169190911792909216179055565b816001600160a01b0316836001600160a01b03161415611ca15760405162461bcd60e51b81526004016107a290612bb0565b6001600160a01b0383811660008181526005602090815260408083209487168084529490915290819020805460ff1916851515179055517f17307eab39ab6107e8899845ad3d59bd9653f200f220920489ca2b5937696c3190611d059085906129ab565b60405180910390a3505050565b611d1d848484611970565b611d2984848484611e96565b6113d55760405162461bcd60e51b81526004016107a290612a37565b60408051602081019091526000815290565b6060611d628261185b565b611d7e5760405162461bcd60e51b81526004016107a290612f74565b6000611d88611d45565b90506000815111611da85760405180602001604052806000815250611dd3565b80611db284611fb1565b604051602001611dc39291906128c1565b6040516020818303038152906040525b9392505050565b611de583838361085a565b6001600160a01b038316611e0157611dfc816120cc565b611e24565b816001600160a01b0316836001600160a01b031614611e2457611e248382612110565b6001600160a01b038216611e4057611e3b816121ad565b61085a565b826001600160a01b0316826001600160a01b03161461085a5761085a8282612286565b611e6d83836122ca565b611e7a6000848484611e96565b61085a5760405162461bcd60e51b81526004016107a290612a37565b6000611eaa846001600160a01b03166123b1565b15611fa657836001600160a01b031663150b7a02611ec6611878565b8786866040518563ffffffff1660e01b8152600401611ee89493929190612907565b602060405180830381600087803b158015611f0257600080fd5b505af1925050508015611f32575060408051601f3d908101601f19168201909252611f2f91810190612712565b60015b611f8c573d808015611f60576040519150601f19603f3d011682016040523d82523d6000602084013e611f65565b606091505b508051611f845760405162461bcd60e51b81526004016107a290612a37565b805181602001fd5b6001600160e01b031916630a85bd0160e11b149050611563565b506001949350505050565b606081611fd657506040805180820190915260018152600360fc1b60208201526106e4565b8160005b81156120005780611fea81613316565b9150611ff99050600a83613265565b9150611fda565b60008167ffffffffffffffff81111561202957634e487b7160e01b600052604160045260246000fd5b6040519080825280601f01601f191660200182016040528015612053576020820181803683370190505b5090505b841561156357612068600183613298565b9150612075600a86613331565b61208090603061324d565b60f81b8183815181106120a357634e487b7160e01b600052603260045260246000fd5b60200101906001600160f81b031916908160001a9053506120c5600a86613265565b9450612057565b601180546000838152601260205260408120829055600182018355919091527f31ecc21a745e3968a04e9570e4425bc18fa8019c68028196b546d1669c200c680155565b6000600161211d84610ffd565b6121279190613298565b60008381526010602052604090205490915080821461217a576001600160a01b0384166000908152600f602090815260408083208584528252808320548484528184208190558352601090915290208190555b5060009182526010602090815260408084208490556001600160a01b039094168352600f81528383209183525290812055565b6011546000906121bf90600190613298565b600083815260126020526040812054601180549394509092849081106121f557634e487b7160e01b600052603260045260246000fd5b90600052602060002001549050806011838154811061222457634e487b7160e01b600052603260045260246000fd5b600091825260208083209091019290925582815260129091526040808220849055858252812055601180548061226a57634e487b7160e01b600052603160045260246000fd5b6001900381819060005260206000200160009055905550505050565b600061229183610ffd565b6001600160a01b039093166000908152600f60209081526040808320868452825280832085905593825260109052919091209190915550565b6001600160a01b0382166122f05760405162461bcd60e51b81526004016107a290612e07565b6122f98161185b565b156123165760405162461bcd60e51b81526004016107a290612b35565b61232260008383611dda565b6001600160a01b038216600090815260036020526040812080546001929061234b90849061324d565b909155505060008181526002602052604080822080546001600160a01b0319166001600160a01b03861690811790915590518392907fddf252ad1be2c89b69c2b068fc378daa952ba7f163c4a11628f55a4df523b3ef908290a46109226000838361085a565b6001600160a01b03163b151590565b6040805160a08101825260008082526020820181905291810182905260608101829052608081019190915290565b604080518082019091526000808252602082015290565b828054612411906132db565b90600052602060002090601f0160209004810192826124335760008555612479565b82601f1061244c57805160ff1916838001178555612479565b82800160010185558215612479579182015b8281111561247957825182559160200191906001019061245e565b50612485929150612489565b5090565b5b80821115612485576000815560010161248a565b600067ffffffffffffffff808411156124b9576124b9613371565b604051601f8501601f19908116603f011681019082821181831017156124e1576124e1613371565b816040528093508581528686860111156124fa57600080fd5b858560208301376000602087830101525050509392505050565b80356001600160a01b03811681146106e457600080fd5b600082601f83011261253b578081fd5b611dd38383356020850161249e565b80356001600160601b03811681146106e457600080fd5b600060208284031215612572578081fd5b611dd382612514565b6000806040838503121561258d578081fd5b61259683612514565b91506125a460208401612514565b90509250929050565b6000806000606084860312156125c1578081fd5b6125ca84612514565b92506125d860208501612514565b9150604084013590509250925092565b600080600080608085870312156125fd578081fd5b61260685612514565b935061261460208601612514565b925060408501359150606085013567ffffffffffffffff811115612636578182fd5b8501601f81018713612646578182fd5b6126558782356020840161249e565b91505092959194509250565b60008060408385031215612673578182fd5b61267c83612514565b915060208301358015158114612690578182fd5b809150509250929050565b600080604083850312156126ad578182fd5b6126b683612514565b946020939093013593505050565b6000806000606084860312156126d8578283fd5b6126e184612514565b95602085013595506040909401359392505050565b600060208284031215612707578081fd5b8135611dd381613387565b600060208284031215612723578081fd5b8151611dd381613387565b60006020828403121561273f578081fd5b813567ffffffffffffffff811115612755578182fd5b6115638482850161252b565b600080600080600060a08688031215612778578081fd5b853567ffffffffffffffff8082111561278f578283fd5b61279b89838a0161252b565b965060208801359150808211156127b0578283fd5b506127bd8882890161252b565b945050604086013592506127d36060870161254a565b949793965091946080013592915050565b6000602082840312156127f5578081fd5b5035919050565b6000806040838503121561280e578182fd5b50508035926020909101359150565b6000806040838503121561282f578182fd5b823591506125a46020840161254a565b600081518084526128578160208601602086016132af565b601f01601f19169290920160200192915050565b80518252602080820151908301526040808201516001600160a01b0316908301526060808201511515908301526080908101511515910152565b600082516128b78184602087016132af565b9190910192915050565b600083516128d38184602088016132af565b8351908301906128e78183602088016132af565b01949350505050565b90565b6001600160a01b0391909116815260200190565b6001600160a01b038581168252841660208201526040810183905260806060820181905260009061293a9083018461283f565b9695505050505050565b6001600160a01b03929092168252602082015260400190565b6020808252825182820181905260009190848201906040850190845b8181101561299f5761298c83855161286b565b9284019260a09290920191600101612979565b50909695505050505050565b901515815260200190565b600060208252611dd3602083018461283f565b6020808252601a908201527f45524332393831526f79616c746965733a20546f6f2068696768000000000000604082015260600190565b6020808252601b908201527f436f756e7465723a2064656372656d656e74206f766572666c6f770000000000604082015260600190565b60208082526032908201527f4552433732313a207472616e7366657220746f206e6f6e20455243373231526560408201527131b2b4bb32b91034b6b83632b6b2b73a32b960711b606082015260800190565b60208082526026908201527f4f776e61626c653a206e6577206f776e657220697320746865207a65726f206160408201526564647265737360d01b606082015260800190565b60208082526025908201527f4552433732313a207472616e736665722066726f6d20696e636f72726563742060408201526437bbb732b960d91b606082015260800190565b602080825260079082015266125b9e081bdd5d60ca1b604082015260600190565b6020808252601c908201527f4552433732313a20746f6b656e20616c7265616479206d696e74656400000000604082015260600190565b60208082526024908201527f4552433732313a207472616e7366657220746f20746865207a65726f206164646040820152637265737360e01b606082015260800190565b60208082526019908201527f4552433732313a20617070726f766520746f2063616c6c657200000000000000604082015260600190565b6020808252602c908201527f4552433732313a206f70657261746f7220717565727920666f72206e6f6e657860408201526b34b9ba32b73a103a37b5b2b760a11b606082015260800190565b6020808252601d908201527f596f7520617265206e6f74206f776e6572206f662074686973206e6674000000604082015260600190565b60208082526038908201527f4552433732313a20617070726f76652063616c6c6572206973206e6f74206f7760408201527f6e6572206e6f7220617070726f76656420666f7220616c6c0000000000000000606082015260800190565b6020808252600e908201526d43616e277420776974686472617760901b604082015260600190565b6020808252602a908201527f4552433732313a2062616c616e636520717565727920666f7220746865207a65604082015269726f206164647265737360b01b606082015260800190565b60208082526029908201527f4552433732313a206f776e657220717565727920666f72206e6f6e657869737460408201526832b73a103a37b5b2b760b91b606082015260800190565b6020808252602e908201527f45524337323155524953746f726167653a2055524920736574206f66206e6f6e60408201526d32bc34b9ba32b73a103a37b5b2b760911b606082015260800190565b60208082526017908201527f4974656d20697320616c7265616479206f6e2073616c65000000000000000000604082015260600190565b6020808252818101527f4552433732313a206d696e7420746f20746865207a65726f2061646472657373604082015260600190565b60208082526031908201527f45524337323155524953746f726167653a2055524920717565727920666f72206040820152703737b732bc34b9ba32b73a103a37b5b2b760791b606082015260800190565b6020808252602c908201527f4552433732313a20617070726f76656420717565727920666f72206e6f6e657860408201526b34b9ba32b73a103a37b5b2b760a11b606082015260800190565b6020808252818101527f4f776e61626c653a2063616c6c6572206973206e6f7420746865206f776e6572604082015260600190565b602080825260069082015265596f7572277360d01b604082015260600190565b602080825260089082015267213c20312077656960c01b604082015260600190565b6020808252600a90820152692a3c103330b4b632b21760b11b604082015260600190565b6020808252602f908201527f4552433732314d657461646174613a2055524920717565727920666f72206e6f60408201526e3732bc34b9ba32b73a103a37b5b2b760891b606082015260800190565b60208082526021908201527f4552433732313a20617070726f76616c20746f2063757272656e74206f776e656040820152603960f91b606082015260800190565b6020808252601a908201527f5072696365206e6f74206571206c697374696e67207072696365000000000000604082015260600190565b60208082526024908201527f5072696365206d75737420626520657175616c20746f206c697374696e6720706040820152637269636560e01b606082015260800190565b60208082526031908201527f4552433732313a207472616e736665722063616c6c6572206973206e6f74206f6040820152701ddb995c881b9bdc88185c1c1c9bdd9959607a1b606082015260800190565b6020808252600a90820152695552492065786973747360b01b604082015260600190565b6020808252600e908201526d76616c756520213d20707269636560901b604082015260600190565b6020808252600890820152676e6f742073616c6560c01b604082015260600190565b6020808252600a90820152694e6f74206f776e65722160b01b604082015260600190565b60a08101610c29828461286b565b81516001600160a01b031681526020918201519181019190915260400190565b90815260200190565b60006101408c83528060208401526131b38184018d61283f565b905082810360408401526131c7818c61283f565b6001600160a01b039a8b1660608501529890991660808301525060a08101959095526001600160601b039390931660c085015290151560e0840152151561010083015261012090910152949350505050565b9586526020860194909452604085019290925260608401526001600160a01b0390811660808401521660a082015260c00190565b6000821982111561326057613260613345565b500190565b6000826132745761327461335b565b500490565b600081600019048311821515161561329357613293613345565b500290565b6000828210156132aa576132aa613345565b500390565b60005b838110156132ca5781810151838201526020016132b2565b838111156113d55750506000910152565b6002810460018216806132ef57607f821691505b6020821081141561331057634e487b7160e01b600052602260045260246000fd5b50919050565b600060001982141561332a5761332a613345565b5060010190565b6000826133405761334061335b565b500690565b634e487b7160e01b600052601160045260246000fd5b634e487b7160e01b600052601260045260246000fd5b634e487b7160e01b600052604160045260246000fd5b6001600160e01b0319811681146117d157600080fdfea26469706673582212204b0f67c33a1ec1844b9533a1bc8d58a16072be5ac5be7191b5f46fb36933a2bf64736f6c63430008010033",
  "immutableReferences": {},
  "source": "// SPDX-License-Identifier: MIT\npragma solidity >=0.4.22 <0.9.0;\n\nimport \"@openzeppelin/contracts/token/ERC721/extensions/ERC721URIStorage.sol\";\nimport \"@openzeppelin/contracts/utils/Counters.sol\";\nimport \"@openzeppelin/contracts/access/Ownable.sol\";\n\ncontract NftMarket is ERC721URIStorage, Ownable {\n    using Counters for Counters.Counter;\n\n    struct NftItem {\n        uint tokenId;\n        uint price;\n        address creator;\n        bool isListed;\n        bool isSold;\n    }\n\n    struct RoyaltyInfo {\n        address recipient;\n        uint256 amount;\n    }\n\n    mapping(uint256 => RoyaltyInfo) royaltyPerTokenId;\n\n    //Interface for royalties\n    bytes4 private constant _INTERFACE_ID_ERC2981 = 0x2a55205a;\n\n    string public baseTokenURI;\n\n    uint public listingPrice = 0.025 ether;\n\n    Counters.Counter private _listedItems;\n    Counters.Counter private _tokenIds;\n\n    mapping(string => bool) private _usedTokenURIs;\n    mapping(uint => NftItem) private _idToNftItem;\n\n    mapping(address => mapping(uint => uint)) private _ownedTokens;\n    mapping(uint => uint) private _idToOwnedIndex;\n\n    uint256[] private _allNfts;\n    mapping(uint => uint) private _idToNftIndex;\n\n    event NFT (\n        uint tokenId,\n        string tokenURI,\n        string nftName,\n        address creator,\n        address owner,\n        uint price,\n        uint96 royalty,\n        bool isListed,\n        bool isSold,\n        uint networkId\n    );\n    event NftBought (\n        uint tokenId,\n        uint price,\n        uint royaltyAmount,\n        uint priceWithRoyalty,\n        address previousOwner,\n        address owner\n    );\n\n\n    constructor(string memory TokenName, string memory TokenSymbol) ERC721(TokenName, TokenSymbol) {}\n\n    function setListingPrice(uint newPrice) external onlyOwner {\n        require(newPrice > 0, \"!< 1 wei\");\n        listingPrice = newPrice;\n    }\n\n    function getNftItem(uint tokenId) public view returns (NftItem memory) {\n        return _idToNftItem[tokenId];\n    }\n\n    function listedItemsCount() public view returns (uint) {\n        return _listedItems.current();\n    }\n\n    function tokenURIExists(string memory tokenURI) public view returns (bool) {\n        return _usedTokenURIs[tokenURI] == true;\n    }\n\n    function totalSupply() public view returns (uint) {\n        return _allNfts.length;\n    }\n\n    function tokenByIndex(uint index) public view returns (uint) {\n        require(index < totalSupply(), \"Inx out\");\n        return _allNfts[index];\n    }\n\n    function tokenOfOwnerByIndex(address owner, uint index) public view returns (uint) {\n        require(index < ERC721.balanceOf(owner), \"Inx out\");\n        return _ownedTokens[owner][index];\n    }\n\n    function getAllNftsOnSale() public view returns (NftItem[] memory) {\n        uint allItemsCounts = totalSupply();\n        uint currentIndex = 0;\n        NftItem[] memory items = new NftItem[](_listedItems.current());\n\n        for (uint i = 0; i < allItemsCounts; i++) {\n            uint tokenId = tokenByIndex(i);\n            NftItem storage item = _idToNftItem[tokenId];\n\n            if (item.isListed == true) {\n                items[currentIndex] = item;\n                currentIndex += 1;\n            }\n        }\n        return items;\n    }\n\n    function getOwnedNfts() public view returns (NftItem[] memory) {\n        uint ownedItemsCount = ERC721.balanceOf(msg.sender);\n        NftItem[] memory items = new NftItem[](ownedItemsCount);\n\n        for (uint i = 0; i < ownedItemsCount; i++) {\n            uint tokenId = tokenOfOwnerByIndex(msg.sender, i);\n            NftItem storage item = _idToNftItem[tokenId];\n            items[i] = item;\n        }\n        return items;\n    }\n\n    function mintToken(\n        string memory tokenURI,\n        string memory nftName,\n        uint price,\n        uint96 royalty,\n        uint networkId\n    ) public payable returns (uint) {\n        require(!tokenURIExists(tokenURI), \"URI exists\");\n        require(msg.value == listingPrice, \"Price not eq listing price\");\n        _tokenIds.increment();\n        _listedItems.increment();\n\n        uint newTokenId = _tokenIds.current();\n        _idToNftItem[newTokenId].isSold = false;\n\n        _safeMint(msg.sender, newTokenId);\n        _setTokenURI(newTokenId, tokenURI);\n        _createNft(newTokenId, price);\n        setRoyalties(msg.sender, royalty, newTokenId);\n        _usedTokenURIs[tokenURI] = true;\n\n        emit NFT(\n            newTokenId,\n            tokenURI,\n            nftName,\n            msg.sender,\n            msg.sender,\n            price,\n            royalty,\n            true,\n            false,\n            networkId\n        );\n\n        return newTokenId;\n    }\n\n    function setRoyalties(address recipient, uint256 value, uint256 tokenId) public {\n        require(value <= 100, 'ERC2981Royalties: Too high');\n        royaltyPerTokenId[tokenId] = RoyaltyInfo(recipient, value);\n    }\n\n    function royaltyInfo(uint256 tokenId, uint256 value) external view returns (address receiver, uint256 royaltyAmount)\n    {\n        RoyaltyInfo memory royalties = royaltyPerTokenId[tokenId];\n        receiver = royalties.recipient;\n        royaltyAmount = (value * royalties.amount) / 100;\n    }\n\n\n    function getRoyaltyPerTokenId(uint256 tokenId) public view returns (RoyaltyInfo memory){\n        return royaltyPerTokenId[tokenId];\n    }\n\n    function changeRoyaltyPerTokenId(uint256 tokenId, uint96 royalty) public {\n        royaltyPerTokenId[tokenId].amount = royalty;\n    }\n\n    function _sentRoyaltyAmount(address creator, uint256 amount) private {\n        payable(creator).transfer(amount);\n    }\n    //fallback receive function\n    receive() external payable {\n        revert();\n    }\n    function buyNft(\n        uint tokenId\n    ) public payable returns (uint){\n        address owner = ERC721.ownerOf(tokenId);\n        require(msg.sender != owner, \"Your's\");\n        require(msg.value == _idToNftItem[tokenId].price, \"value != price\");\n\n        RoyaltyInfo memory royalties = royaltyPerTokenId[tokenId];\n        address creator = royalties.recipient;\n        uint256 royaltyAmount = (msg.value * royalties.amount) / 100;\n        _transfer(owner, msg.sender, tokenId);\n        uint priceWithRoyalty = _idToNftItem[tokenId].price + royaltyAmount;\n        if (_idToNftItem[tokenId].isSold) {\n            payable(owner).transfer(msg.value - royaltyAmount);\n            _sentRoyaltyAmount(creator, royaltyAmount);\n        } else {\n\n            _idToNftItem[tokenId].price = priceWithRoyalty;\n            payable(owner).transfer(msg.value);\n        }\n\n        _listedItems.decrement();\n        _idToNftItem[tokenId].isListed = false;\n        _idToNftItem[tokenId].isSold = true;\n\n        emit NftBought(tokenId, msg.value, royaltyAmount, priceWithRoyalty, owner, msg.sender);\n        return _idToNftItem[tokenId].price;\n    }\n\n    function withdraw() external onlyOwner {\n        uint256 balance = address(this).balance;\n        require(balance > 0, \"Can't withdraw\");\n        (bool success,) = payable(owner()).call{value : balance}(\"\");\n        require(success, \"Tx failed.\");\n    }\n\n    function placeNftOnSale(uint tokenId, uint newPrice) public payable {\n        require(ERC721.ownerOf(tokenId) == msg.sender, \"You are not owner of this nft\");\n        require(_idToNftItem[tokenId].isListed == false, \"Item is already on sale\");\n        require(msg.value == listingPrice, \"Price must be equal to listing price\");\n\n        _idToNftItem[tokenId].isListed = true;\n        _idToNftItem[tokenId].price = newPrice;\n        _listedItems.increment();\n    }\n\n    function removeNftFromSale(uint tokenId) public {\n        require(ERC721.ownerOf(tokenId) == msg.sender, \"Not owner!\");\n        require(_idToNftItem[tokenId].isListed == true, \"not sale\");\n        _idToNftItem[tokenId].isListed = false;\n        _listedItems.decrement();\n    }\n\n    function setNewPrice(uint tokenId, uint price) public onlyOwner {\n        RoyaltyInfo memory royalties = royaltyPerTokenId[tokenId];\n        uint256 royaltyAmount = (price * royalties.amount) / 100;\n        if (_idToNftItem[tokenId].isSold) {\n            _idToNftItem[tokenId].price = price + royaltyAmount;\n        } else {\n            _idToNftItem[tokenId].price = price;\n        }\n\n    }\n\n    function _createNft(\n        uint tokenId,\n        uint price\n    ) private {\n        require(price > 0, \"!< 1 wei\");\n\n        _idToNftItem[tokenId] = NftItem(\n            tokenId,\n            price,\n            msg.sender,\n            true,\n            false\n        );\n    }\n\n    function _beforeTokenTransfer(\n        address from,\n        address to,\n        uint tokenId\n    ) internal virtual override {\n        super._beforeTokenTransfer(from, to, tokenId);\n\n        if (from == address(0)) {\n            _addTokenToAllTokensEnumeration(tokenId);\n        } else if (from != to) {\n            _removeTokenFromOwnerEnumeration(from, tokenId);\n        }\n\n        if (to == address(0)) {\n            _removeTokenFromAllTokensEnumeration(tokenId);\n        } else if (to != from) {\n            _addTokenToOwnerEnumeration(to, tokenId);\n        }\n    }\n\n    function _addTokenToAllTokensEnumeration(uint tokenId) private {\n        _idToNftIndex[tokenId] = _allNfts.length;\n        _allNfts.push(tokenId);\n    }\n\n    function _addTokenToOwnerEnumeration(address to, uint tokenId) private {\n        uint length = ERC721.balanceOf(to);\n        _ownedTokens[to][length] = tokenId;\n        _idToOwnedIndex[tokenId] = length;\n    }\n\n    function _removeTokenFromOwnerEnumeration(address from, uint tokenId) private {\n        uint lastTokenIndex = ERC721.balanceOf(from) - 1;\n        uint tokenIndex = _idToOwnedIndex[tokenId];\n\n        if (tokenIndex != lastTokenIndex) {\n            uint lastTokenId = _ownedTokens[from][lastTokenIndex];\n\n            _ownedTokens[from][tokenIndex] = lastTokenId;\n            _idToOwnedIndex[lastTokenId] = tokenIndex;\n        }\n\n        delete _idToOwnedIndex[tokenId];\n        delete _ownedTokens[from][lastTokenIndex];\n    }\n\n    function _removeTokenFromAllTokensEnumeration(uint tokenId) private {\n        uint lastTokenIndex = _allNfts.length - 1;\n        uint tokenIndex = _idToNftIndex[tokenId];\n        uint lastTokenId = _allNfts[lastTokenIndex];\n\n        _allNfts[tokenIndex] = lastTokenId;\n        _idToNftIndex[lastTokenId] = tokenIndex;\n\n        delete _idToNftIndex[tokenId];\n        _allNfts.pop();\n    }\n}\n",
  "sourcePath": "/home/igor/11_Ethereum/nft-marketplace-first/contracts/NftMarket.sol",
  "compiler": {
    "name": "solc",
    "version": "0.8.1+commit.df193b15.Emscripten.clang"
  },
  "schemaVersion": "3.4.9",
  "updatedAt": "2023-02-20T07:46:09.082Z",
  "devdoc": {
    "kind": "dev",
    "methods": {
      "approve(address,uint256)": {
        "details": "See {IERC721-approve}."
      },
      "balanceOf(address)": {
        "details": "See {IERC721-balanceOf}."
      },
      "getApproved(uint256)": {
        "details": "See {IERC721-getApproved}."
      },
      "isApprovedForAll(address,address)": {
        "details": "See {IERC721-isApprovedForAll}."
      },
      "name()": {
        "details": "See {IERC721Metadata-name}."
      },
      "owner()": {
        "details": "Returns the address of the current owner."
      },
      "ownerOf(uint256)": {
        "details": "See {IERC721-ownerOf}."
      },
      "renounceOwnership()": {
        "details": "Leaves the contract without owner. It will not be possible to call `onlyOwner` functions anymore. Can only be called by the current owner. NOTE: Renouncing ownership will leave the contract without an owner, thereby removing any functionality that is only available to the owner."
      },
      "safeTransferFrom(address,address,uint256)": {
        "details": "See {IERC721-safeTransferFrom}."
      },
      "safeTransferFrom(address,address,uint256,bytes)": {
        "details": "See {IERC721-safeTransferFrom}."
      },
      "setApprovalForAll(address,bool)": {
        "details": "See {IERC721-setApprovalForAll}."
      },
      "supportsInterface(bytes4)": {
        "details": "See {IERC165-supportsInterface}."
      },
      "symbol()": {
        "details": "See {IERC721Metadata-symbol}."
      },
      "tokenURI(uint256)": {
        "details": "See {IERC721Metadata-tokenURI}."
      },
      "transferFrom(address,address,uint256)": {
        "details": "See {IERC721-transferFrom}."
      },
      "transferOwnership(address)": {
        "details": "Transfers ownership of the contract to a new account (`newOwner`). Can only be called by the current owner."
      }
    },
    "version": 1
  },
  "userdoc": {
    "kind": "user",
    "methods": {},
    "version": 1
  }
}