{
  "contractName": "NftMarket",
  "abi": [
    {
      "inputs": [],
      "stateMutability": "nonpayable",
      "type": "constructor"
    },
    {
      "anonymous": false,
      "inputs": [
        {
          "indexed": true,
          "internalType": "address",
          "name": "owner",
          "type": "address"
        },
        {
          "indexed": true,
          "internalType": "address",
          "name": "approved",
          "type": "address"
        },
        {
          "indexed": true,
          "internalType": "uint256",
          "name": "tokenId",
          "type": "uint256"
        }
      ],
      "name": "Approval",
      "type": "event"
    },
    {
      "anonymous": false,
      "inputs": [
        {
          "indexed": true,
          "internalType": "address",
          "name": "owner",
          "type": "address"
        },
        {
          "indexed": true,
          "internalType": "address",
          "name": "operator",
          "type": "address"
        },
        {
          "indexed": false,
          "internalType": "bool",
          "name": "approved",
          "type": "bool"
        }
      ],
      "name": "ApprovalForAll",
      "type": "event"
    },
    {
      "anonymous": false,
      "inputs": [
        {
          "indexed": false,
          "internalType": "uint256",
          "name": "tokenId",
          "type": "uint256"
        },
        {
          "indexed": false,
          "internalType": "uint256",
          "name": "price",
          "type": "uint256"
        },
        {
          "indexed": false,
          "internalType": "uint256",
          "name": "royaltyAmount",
          "type": "uint256"
        },
        {
          "indexed": false,
          "internalType": "address",
          "name": "previousOwner",
          "type": "address"
        },
        {
          "indexed": false,
          "internalType": "address",
          "name": "owner",
          "type": "address"
        },
        {
          "indexed": false,
          "internalType": "uint256",
          "name": "boughtAt",
          "type": "uint256"
        }
      ],
      "name": "NftBought",
      "type": "event"
    },
    {
      "anonymous": false,
      "inputs": [
        {
          "indexed": false,
          "internalType": "uint256",
          "name": "tokenId",
          "type": "uint256"
        },
        {
          "indexed": false,
          "internalType": "uint256",
          "name": "price",
          "type": "uint256"
        },
        {
          "indexed": false,
          "internalType": "address",
          "name": "creator",
          "type": "address"
        },
        {
          "indexed": false,
          "internalType": "bool",
          "name": "isListed",
          "type": "bool"
        },
        {
          "indexed": false,
          "internalType": "bool",
          "name": "isSold",
          "type": "bool"
        }
      ],
      "name": "NftItemCreated",
      "type": "event"
    },
    {
      "anonymous": false,
      "inputs": [
        {
          "indexed": true,
          "internalType": "address",
          "name": "previousOwner",
          "type": "address"
        },
        {
          "indexed": true,
          "internalType": "address",
          "name": "newOwner",
          "type": "address"
        }
      ],
      "name": "OwnershipTransferred",
      "type": "event"
    },
    {
      "anonymous": false,
      "inputs": [
        {
          "indexed": false,
          "internalType": "address",
          "name": "receiver",
          "type": "address"
        },
        {
          "indexed": false,
          "internalType": "uint256",
          "name": "tokenId",
          "type": "uint256"
        },
        {
          "indexed": false,
          "internalType": "uint256",
          "name": "royaltyAmount",
          "type": "uint256"
        }
      ],
      "name": "RoyaltyAmountSent",
      "type": "event"
    },
    {
      "anonymous": false,
      "inputs": [
        {
          "indexed": false,
          "internalType": "uint256",
          "name": "tokenId",
          "type": "uint256"
        },
        {
          "indexed": false,
          "internalType": "address",
          "name": "creator",
          "type": "address"
        },
        {
          "indexed": false,
          "internalType": "string",
          "name": "tokenURI",
          "type": "string"
        },
        {
          "indexed": false,
          "internalType": "uint256",
          "name": "mintedAt",
          "type": "uint256"
        }
      ],
      "name": "TokenIsMinted",
      "type": "event"
    },
    {
      "anonymous": false,
      "inputs": [
        {
          "indexed": true,
          "internalType": "address",
          "name": "from",
          "type": "address"
        },
        {
          "indexed": true,
          "internalType": "address",
          "name": "to",
          "type": "address"
        },
        {
          "indexed": true,
          "internalType": "uint256",
          "name": "tokenId",
          "type": "uint256"
        }
      ],
      "name": "Transfer",
      "type": "event"
    },
    {
      "inputs": [
        {
          "internalType": "address",
          "name": "to",
          "type": "address"
        },
        {
          "internalType": "uint256",
          "name": "tokenId",
          "type": "uint256"
        }
      ],
      "name": "approve",
      "outputs": [],
      "stateMutability": "nonpayable",
      "type": "function"
    },
    {
      "inputs": [
        {
          "internalType": "address",
          "name": "owner",
          "type": "address"
        }
      ],
      "name": "balanceOf",
      "outputs": [
        {
          "internalType": "uint256",
          "name": "",
          "type": "uint256"
        }
      ],
      "stateMutability": "view",
      "type": "function",
      "constant": true
    },
    {
      "inputs": [],
      "name": "baseTokenURI",
      "outputs": [
        {
          "internalType": "string",
          "name": "",
          "type": "string"
        }
      ],
      "stateMutability": "view",
      "type": "function",
      "constant": true
    },
    {
      "inputs": [
        {
          "internalType": "uint256",
          "name": "tokenId",
          "type": "uint256"
        }
      ],
      "name": "getApproved",
      "outputs": [
        {
          "internalType": "address",
          "name": "",
          "type": "address"
        }
      ],
      "stateMutability": "view",
      "type": "function",
      "constant": true
    },
    {
      "inputs": [
        {
          "internalType": "address",
          "name": "owner",
          "type": "address"
        },
        {
          "internalType": "address",
          "name": "operator",
          "type": "address"
        }
      ],
      "name": "isApprovedForAll",
      "outputs": [
        {
          "internalType": "bool",
          "name": "",
          "type": "bool"
        }
      ],
      "stateMutability": "view",
      "type": "function",
      "constant": true
    },
    {
      "inputs": [],
      "name": "listingPrice",
      "outputs": [
        {
          "internalType": "uint256",
          "name": "",
          "type": "uint256"
        }
      ],
      "stateMutability": "view",
      "type": "function",
      "constant": true
    },
    {
      "inputs": [
        {
          "internalType": "address",
          "name": "",
          "type": "address"
        }
      ],
      "name": "mintsPerAddress",
      "outputs": [
        {
          "internalType": "uint256",
          "name": "",
          "type": "uint256"
        }
      ],
      "stateMutability": "view",
      "type": "function",
      "constant": true
    },
    {
      "inputs": [],
      "name": "name",
      "outputs": [
        {
          "internalType": "string",
          "name": "",
          "type": "string"
        }
      ],
      "stateMutability": "view",
      "type": "function",
      "constant": true
    },
    {
      "inputs": [],
      "name": "owner",
      "outputs": [
        {
          "internalType": "address",
          "name": "",
          "type": "address"
        }
      ],
      "stateMutability": "view",
      "type": "function",
      "constant": true
    },
    {
      "inputs": [
        {
          "internalType": "uint256",
          "name": "tokenId",
          "type": "uint256"
        }
      ],
      "name": "ownerOf",
      "outputs": [
        {
          "internalType": "address",
          "name": "",
          "type": "address"
        }
      ],
      "stateMutability": "view",
      "type": "function",
      "constant": true
    },
    {
      "inputs": [],
      "name": "renounceOwnership",
      "outputs": [],
      "stateMutability": "nonpayable",
      "type": "function"
    },
    {
      "inputs": [
        {
          "internalType": "address",
          "name": "from",
          "type": "address"
        },
        {
          "internalType": "address",
          "name": "to",
          "type": "address"
        },
        {
          "internalType": "uint256",
          "name": "tokenId",
          "type": "uint256"
        }
      ],
      "name": "safeTransferFrom",
      "outputs": [],
      "stateMutability": "nonpayable",
      "type": "function"
    },
    {
      "inputs": [
        {
          "internalType": "address",
          "name": "from",
          "type": "address"
        },
        {
          "internalType": "address",
          "name": "to",
          "type": "address"
        },
        {
          "internalType": "uint256",
          "name": "tokenId",
          "type": "uint256"
        },
        {
          "internalType": "bytes",
          "name": "_data",
          "type": "bytes"
        }
      ],
      "name": "safeTransferFrom",
      "outputs": [],
      "stateMutability": "nonpayable",
      "type": "function"
    },
    {
      "inputs": [
        {
          "internalType": "address",
          "name": "operator",
          "type": "address"
        },
        {
          "internalType": "bool",
          "name": "approved",
          "type": "bool"
        }
      ],
      "name": "setApprovalForAll",
      "outputs": [],
      "stateMutability": "nonpayable",
      "type": "function"
    },
    {
      "inputs": [],
      "name": "symbol",
      "outputs": [
        {
          "internalType": "string",
          "name": "",
          "type": "string"
        }
      ],
      "stateMutability": "view",
      "type": "function",
      "constant": true
    },
    {
      "inputs": [
        {
          "internalType": "uint256",
          "name": "tokenId",
          "type": "uint256"
        }
      ],
      "name": "tokenURI",
      "outputs": [
        {
          "internalType": "string",
          "name": "",
          "type": "string"
        }
      ],
      "stateMutability": "view",
      "type": "function",
      "constant": true
    },
    {
      "inputs": [
        {
          "internalType": "address",
          "name": "from",
          "type": "address"
        },
        {
          "internalType": "address",
          "name": "to",
          "type": "address"
        },
        {
          "internalType": "uint256",
          "name": "tokenId",
          "type": "uint256"
        }
      ],
      "name": "transferFrom",
      "outputs": [],
      "stateMutability": "nonpayable",
      "type": "function"
    },
    {
      "inputs": [
        {
          "internalType": "address",
          "name": "newOwner",
          "type": "address"
        }
      ],
      "name": "transferOwnership",
      "outputs": [],
      "stateMutability": "nonpayable",
      "type": "function"
    },
    {
      "stateMutability": "payable",
      "type": "receive",
      "payable": true
    },
    {
      "inputs": [
        {
          "internalType": "uint256",
          "name": "newPrice",
          "type": "uint256"
        }
      ],
      "name": "setListingPrice",
      "outputs": [],
      "stateMutability": "nonpayable",
      "type": "function"
    },
    {
      "inputs": [
        {
          "internalType": "uint256",
          "name": "tokenId",
          "type": "uint256"
        }
      ],
      "name": "getNftItem",
      "outputs": [
        {
          "components": [
            {
              "internalType": "uint256",
              "name": "tokenId",
              "type": "uint256"
            },
            {
              "internalType": "uint256",
              "name": "price",
              "type": "uint256"
            },
            {
              "internalType": "address",
              "name": "creator",
              "type": "address"
            },
            {
              "internalType": "bool",
              "name": "isListed",
              "type": "bool"
            },
            {
              "internalType": "bool",
              "name": "isSold",
              "type": "bool"
            }
          ],
          "internalType": "struct NftMarket.NftItem",
          "name": "",
          "type": "tuple"
        }
      ],
      "stateMutability": "view",
      "type": "function",
      "constant": true
    },
    {
      "inputs": [],
      "name": "listedItemsCount",
      "outputs": [
        {
          "internalType": "uint256",
          "name": "",
          "type": "uint256"
        }
      ],
      "stateMutability": "view",
      "type": "function",
      "constant": true
    },
    {
      "inputs": [
        {
          "internalType": "string",
          "name": "tokenURI",
          "type": "string"
        }
      ],
      "name": "tokenURIExists",
      "outputs": [
        {
          "internalType": "bool",
          "name": "",
          "type": "bool"
        }
      ],
      "stateMutability": "view",
      "type": "function",
      "constant": true
    },
    {
      "inputs": [],
      "name": "totalSupply",
      "outputs": [
        {
          "internalType": "uint256",
          "name": "",
          "type": "uint256"
        }
      ],
      "stateMutability": "view",
      "type": "function",
      "constant": true
    },
    {
      "inputs": [
        {
          "internalType": "uint256",
          "name": "index",
          "type": "uint256"
        }
      ],
      "name": "tokenByIndex",
      "outputs": [
        {
          "internalType": "uint256",
          "name": "",
          "type": "uint256"
        }
      ],
      "stateMutability": "view",
      "type": "function",
      "constant": true
    },
    {
      "inputs": [
        {
          "internalType": "address",
          "name": "owner",
          "type": "address"
        },
        {
          "internalType": "uint256",
          "name": "index",
          "type": "uint256"
        }
      ],
      "name": "tokenOfOwnerByIndex",
      "outputs": [
        {
          "internalType": "uint256",
          "name": "",
          "type": "uint256"
        }
      ],
      "stateMutability": "view",
      "type": "function",
      "constant": true
    },
    {
      "inputs": [],
      "name": "getAllNftsOnSale",
      "outputs": [
        {
          "components": [
            {
              "internalType": "uint256",
              "name": "tokenId",
              "type": "uint256"
            },
            {
              "internalType": "uint256",
              "name": "price",
              "type": "uint256"
            },
            {
              "internalType": "address",
              "name": "creator",
              "type": "address"
            },
            {
              "internalType": "bool",
              "name": "isListed",
              "type": "bool"
            },
            {
              "internalType": "bool",
              "name": "isSold",
              "type": "bool"
            }
          ],
          "internalType": "struct NftMarket.NftItem[]",
          "name": "",
          "type": "tuple[]"
        }
      ],
      "stateMutability": "view",
      "type": "function",
      "constant": true
    },
    {
      "inputs": [],
      "name": "getOwnedNfts",
      "outputs": [
        {
          "components": [
            {
              "internalType": "uint256",
              "name": "tokenId",
              "type": "uint256"
            },
            {
              "internalType": "uint256",
              "name": "price",
              "type": "uint256"
            },
            {
              "internalType": "address",
              "name": "creator",
              "type": "address"
            },
            {
              "internalType": "bool",
              "name": "isListed",
              "type": "bool"
            },
            {
              "internalType": "bool",
              "name": "isSold",
              "type": "bool"
            }
          ],
          "internalType": "struct NftMarket.NftItem[]",
          "name": "",
          "type": "tuple[]"
        }
      ],
      "stateMutability": "view",
      "type": "function",
      "constant": true
    },
    {
      "inputs": [
        {
          "internalType": "string",
          "name": "tokenURI",
          "type": "string"
        },
        {
          "internalType": "uint256",
          "name": "price",
          "type": "uint256"
        },
        {
          "internalType": "uint96",
          "name": "royalty",
          "type": "uint96"
        }
      ],
      "name": "mintToken",
      "outputs": [
        {
          "internalType": "uint256",
          "name": "",
          "type": "uint256"
        }
      ],
      "stateMutability": "payable",
      "type": "function",
      "payable": true
    },
    {
      "inputs": [
        {
          "internalType": "bytes4",
          "name": "interfaceId",
          "type": "bytes4"
        }
      ],
      "name": "supportsInterface",
      "outputs": [
        {
          "internalType": "bool",
          "name": "",
          "type": "bool"
        }
      ],
      "stateMutability": "view",
      "type": "function",
      "constant": true
    },
    {
      "inputs": [
        {
          "internalType": "address",
          "name": "recipient",
          "type": "address"
        },
        {
          "internalType": "uint256",
          "name": "value",
          "type": "uint256"
        },
        {
          "internalType": "uint256",
          "name": "tokenId",
          "type": "uint256"
        }
      ],
      "name": "setRoyalties",
      "outputs": [],
      "stateMutability": "nonpayable",
      "type": "function"
    },
    {
      "inputs": [
        {
          "internalType": "uint256",
          "name": "tokenId",
          "type": "uint256"
        },
        {
          "internalType": "uint256",
          "name": "value",
          "type": "uint256"
        }
      ],
      "name": "royaltyInfo",
      "outputs": [
        {
          "internalType": "address",
          "name": "receiver",
          "type": "address"
        },
        {
          "internalType": "uint256",
          "name": "royaltyAmount",
          "type": "uint256"
        }
      ],
      "stateMutability": "view",
      "type": "function",
      "constant": true
    },
    {
      "inputs": [
        {
          "internalType": "uint256",
          "name": "tokenId",
          "type": "uint256"
        }
      ],
      "name": "getRoyaltyPerTokenId",
      "outputs": [
        {
          "components": [
            {
              "internalType": "address",
              "name": "recipient",
              "type": "address"
            },
            {
              "internalType": "uint256",
              "name": "amount",
              "type": "uint256"
            }
          ],
          "internalType": "struct NftMarket.RoyaltyInfo",
          "name": "",
          "type": "tuple"
        }
      ],
      "stateMutability": "view",
      "type": "function",
      "constant": true
    },
    {
      "inputs": [
        {
          "internalType": "uint256",
          "name": "tokenId",
          "type": "uint256"
        },
        {
          "internalType": "uint96",
          "name": "royalty",
          "type": "uint96"
        }
      ],
      "name": "changeRoyaltyPerTokenId",
      "outputs": [],
      "stateMutability": "nonpayable",
      "type": "function"
    },
    {
      "inputs": [
        {
          "internalType": "uint256",
          "name": "tokenId",
          "type": "uint256"
        }
      ],
      "name": "buyNft",
      "outputs": [],
      "stateMutability": "payable",
      "type": "function",
      "payable": true
    },
    {
      "inputs": [],
      "name": "withdraw",
      "outputs": [],
      "stateMutability": "nonpayable",
      "type": "function"
    },
    {
      "inputs": [
        {
          "internalType": "uint256",
          "name": "tokenId",
          "type": "uint256"
        },
        {
          "internalType": "uint256",
          "name": "newPrice",
          "type": "uint256"
        }
      ],
      "name": "placeNftOnSale",
      "outputs": [],
      "stateMutability": "payable",
      "type": "function",
      "payable": true
    },
    {
      "inputs": [
        {
          "internalType": "uint256",
          "name": "tokenId",
          "type": "uint256"
        }
      ],
      "name": "removeNftFromSale",
      "outputs": [],
      "stateMutability": "nonpayable",
      "type": "function"
    },
    {
      "inputs": [
        {
          "internalType": "uint256",
          "name": "tokenId",
          "type": "uint256"
        },
        {
          "internalType": "uint256",
          "name": "price",
          "type": "uint256"
        }
      ],
      "name": "setNewPrice",
      "outputs": [],
      "stateMutability": "nonpayable",
      "type": "function"
    }
  ],
  "bytecode": "0x60806040526658d15e17628000600a553480156200001c57600080fd5b506040518060400160405280600a81526020017f50756d706b696e4e4654000000000000000000000000000000000000000000008152506040518060400160405280600481526020017f504e4654000000000000000000000000000000000000000000000000000000008152508160009080519060200190620000a1929190620001b1565b508060019080519060200190620000ba929190620001b1565b505050620000dd620000d1620000e360201b60201c565b620000eb60201b60201c565b620002c5565b600033905090565b6000600760009054906101000a900473ffffffffffffffffffffffffffffffffffffffff16905081600760006101000a81548173ffffffffffffffffffffffffffffffffffffffff021916908373ffffffffffffffffffffffffffffffffffffffff1602179055508173ffffffffffffffffffffffffffffffffffffffff168173ffffffffffffffffffffffffffffffffffffffff167f8be0079c531659141344cd1fd0a4f28419497f9722a3daafe3b4186f6b6457e060405160405180910390a35050565b828054620001bf9062000290565b90600052602060002090601f016020900481019282620001e357600085556200022f565b82601f10620001fe57805160ff19168380011785556200022f565b828001600101855582156200022f579182015b828111156200022e57825182559160200191906001019062000211565b5b5090506200023e919062000242565b5090565b5b808211156200025d57600081600090555060010162000243565b5090565b7f4e487b7100000000000000000000000000000000000000000000000000000000600052602260045260246000fd5b60006002820490506001821680620002a957607f821691505b602082108103620002bf57620002be62000261565b5b50919050565b615d2380620002d56000396000f3fe6080604052600436106102295760003560e01c806370a0823111610123578063c78f19f9116100ab578063e23a60fe1161006f578063e23a60fe1461084d578063e78980d414610876578063e985e9c51461089f578063f0d2fad8146108dc578063f2fde38b1461090557610233565b8063c78f19f91461075f578063c87b56dd1461078a578063ccb4918d146107c7578063d547cfb7146107f2578063dfde9cd71461081d57610233565b80638da5cb5b116100f25780638da5cb5b1461068e57806395d89b41146106b9578063a22cb465146106e4578063b88d4fde1461070d578063c4b3a2c51461073657610233565b806370a08231146105e657806370cbcb4314610623578063715018a61461064e5780637c726b691461066557610233565b80632f745c59116101b157806343d32ae71161017557806343d32ae7146104b55780634f6ccce7146104f25780635b6d9d3b1461052f5780636352211e1461056c5780636f1a0af5146105a957610233565b80632f745c59146103d05780633023eba61461040d57806336b536be1461044a5780633ccfd60b1461047557806342842e0e1461048c57610233565b806318160ddd116101f857806318160ddd1461030657806321f422e51461033157806323b872dd1461034d578063243adbdd146103765780632a55205a1461039257610233565b806301ffc9a71461023857806306fdde0314610275578063081812fc146102a0578063095ea7b3146102dd57610233565b3661023357600080fd5b600080fd5b34801561024457600080fd5b5061025f600480360381019061025a9190613dd5565b61092e565b60405161026c9190613e1d565b60405180910390f35b34801561028157600080fd5b5061028a61098f565b6040516102979190613ed1565b60405180910390f35b3480156102ac57600080fd5b506102c760048036038101906102c29190613f29565b610a21565b6040516102d49190613f97565b60405180910390f35b3480156102e957600080fd5b5061030460048036038101906102ff9190613fde565b610aa6565b005b34801561031257600080fd5b5061031b610bbd565b604051610328919061402d565b60405180910390f35b61034b60048036038101906103469190614048565b610bca565b005b34801561035957600080fd5b50610374600480360381019061036f9190614088565b610d46565b005b610390600480360381019061038b9190613f29565b610da6565b005b34801561039e57600080fd5b506103b960048036038101906103b49190614048565b61113a565b6040516103c79291906140db565b60405180910390f35b3480156103dc57600080fd5b506103f760048036038101906103f29190613fde565b6111ec565b604051610404919061402d565b60405180910390f35b34801561041957600080fd5b50610434600480360381019061042f9190614104565b611291565b604051610441919061402d565b60405180910390f35b34801561045657600080fd5b5061045f6112a9565b60405161046c9190614275565b60405180910390f35b34801561048157600080fd5b5061048a61145e565b005b34801561049857600080fd5b506104b360048036038101906104ae9190614088565b6115d9565b005b3480156104c157600080fd5b506104dc60048036038101906104d791906143cc565b6115f9565b6040516104e99190613e1d565b60405180910390f35b3480156104fe57600080fd5b5061051960048036038101906105149190613f29565b611635565b604051610526919061402d565b60405180910390f35b34801561053b57600080fd5b5061055660048036038101906105519190613f29565b6116a6565b6040516105639190614444565b60405180910390f35b34801561057857600080fd5b50610593600480360381019061058e9190613f29565b611733565b6040516105a09190613f97565b60405180910390f35b3480156105b557600080fd5b506105d060048036038101906105cb9190613f29565b6117e4565b6040516105dd91906144c7565b60405180910390f35b3480156105f257600080fd5b5061060d60048036038101906106089190614104565b6118b1565b60405161061a919061402d565b60405180910390f35b34801561062f57600080fd5b50610638611968565b6040516106459190614275565b60405180910390f35b34801561065a57600080fd5b50610663611ae7565b005b34801561067157600080fd5b5061068c60048036038101906106879190613f29565b611b6f565b005b34801561069a57600080fd5b506106a3611c38565b6040516106b09190613f97565b60405180910390f35b3480156106c557600080fd5b506106ce611c62565b6040516106db9190613ed1565b60405180910390f35b3480156106f057600080fd5b5061070b6004803603810190610706919061450e565b611cf4565b005b34801561071957600080fd5b50610734600480360381019061072f91906145ef565b611d0a565b005b34801561074257600080fd5b5061075d60048036038101906107589190614672565b611d6c565b005b34801561076b57600080fd5b50610774611e47565b604051610781919061402d565b60405180910390f35b34801561079657600080fd5b506107b160048036038101906107ac9190613f29565b611e4d565b6040516107be9190613ed1565b60405180910390f35b3480156107d357600080fd5b506107dc611f9e565b6040516107e9919061402d565b60405180910390f35b3480156107fe57600080fd5b50610807611faf565b6040516108149190613ed1565b60405180910390f35b61083760048036038101906108329190614709565b61203d565b604051610844919061402d565b60405180910390f35b34801561085957600080fd5b50610874600480360381019061086f9190614048565b6122a9565b005b34801561088257600080fd5b5061089d60048036038101906108989190614778565b612437565b005b3480156108ab57600080fd5b506108c660048036038101906108c191906147b8565b612464565b6040516108d39190613e1d565b60405180910390f35b3480156108e857600080fd5b5061090360048036038101906108fe9190613f29565b6124f8565b005b34801561091157600080fd5b5061092c60048036038101906109279190614104565b612614565b005b6000632a55205a60e01b7bffffffffffffffffffffffffffffffffffffffffffffffffffffffff1916827bffffffffffffffffffffffffffffffffffffffffffffffffffffffff1916148061098857506109878261270b565b5b9050919050565b60606000805461099e90614827565b80601f01602080910402602001604051908101604052809291908181526020018280546109ca90614827565b8015610a175780601f106109ec57610100808354040283529160200191610a17565b820191906000526020600020905b8154815290600101906020018083116109fa57829003601f168201915b5050505050905090565b6000610a2c826127ed565b610a6b576040517f08c379a0000000000000000000000000000000000000000000000000000000008152600401610a62906148ca565b60405180910390fd5b6004600083815260200190815260200160002060009054906101000a900473ffffffffffffffffffffffffffffffffffffffff169050919050565b6000610ab182611733565b90508073ffffffffffffffffffffffffffffffffffffffff168373ffffffffffffffffffffffffffffffffffffffff1603610b21576040517f08c379a0000000000000000000000000000000000000000000000000000000008152600401610b189061495c565b60405180910390fd5b8073ffffffffffffffffffffffffffffffffffffffff16610b40612859565b73ffffffffffffffffffffffffffffffffffffffff161480610b6f5750610b6e81610b69612859565b612464565b5b610bae576040517f08c379a0000000000000000000000000000000000000000000000000000000008152600401610ba5906149ee565b60405180910390fd5b610bb88383612861565b505050565b6000601180549050905090565b3373ffffffffffffffffffffffffffffffffffffffff16610bea83611733565b73ffffffffffffffffffffffffffffffffffffffff1614610c40576040517f08c379a0000000000000000000000000000000000000000000000000000000008152600401610c3790614a5a565b60405180910390fd5b60001515600e600084815260200190815260200160002060020160149054906101000a900460ff16151514610caa576040517f08c379a0000000000000000000000000000000000000000000000000000000008152600401610ca190614ac6565b60405180910390fd5b600a543414610cee576040517f08c379a0000000000000000000000000000000000000000000000000000000008152600401610ce590614b58565b60405180910390fd5b6001600e600084815260200190815260200160002060020160146101000a81548160ff02191690831515021790555080600e600084815260200190815260200160002060010181905550610d42600b61291a565b5050565b610d57610d51612859565b82612930565b610d96576040517f08c379a0000000000000000000000000000000000000000000000000000000008152600401610d8d90614bea565b60405180910390fd5b610da1838383612a0e565b505050565b6000600e60008381526020019081526020016000206001015490506000610dcc83611733565b90508073ffffffffffffffffffffffffffffffffffffffff163373ffffffffffffffffffffffffffffffffffffffff1603610e3c576040517f08c379a0000000000000000000000000000000000000000000000000000000008152600401610e3390614c56565b60405180910390fd5b813414610e7e576040517f08c379a0000000000000000000000000000000000000000000000000000000008152600401610e7590614cc2565b60405180910390fd5b6000600860008581526020019081526020016000206040518060400160405290816000820160009054906101000a900473ffffffffffffffffffffffffffffffffffffffff1673ffffffffffffffffffffffffffffffffffffffff1673ffffffffffffffffffffffffffffffffffffffff168152602001600182015481525050905060008160000151905060006064836020015134610f1d9190614d11565b610f279190614d9a565b9050610f34843388612a0e565b600e600087815260200190815260200160002060020160159054906101000a900460ff1615610ff9578373ffffffffffffffffffffffffffffffffffffffff166108fc8234610f839190614dcb565b9081150290604051600060405180830381858888f19350505050158015610fae573d6000803e3d6000fd5b50610fb98282612c74565b7fda09752ee9c059f617067751244dd0c7878c482a696ca05394dfa1c337e52a82828783604051610fec93929190614dff565b60405180910390a1611083565b600081600e60008981526020019081526020016000206001015461101d9190614e36565b905080600e6000898152602001908152602001600020600101819055508473ffffffffffffffffffffffffffffffffffffffff166108fc349081150290604051600060405180830381858888f19350505050158015611080573d6000803e3d6000fd5b50505b61108d600b612cbf565b6000600e600088815260200190815260200160002060020160146101000a81548160ff0219169083151502179055506001600e600088815260200190815260200160002060020160156101000a81548160ff02191690831515021790555060004290507f05649df894b86488ddb70529d1581119a112590a5a13945e9ebd978ea9d4647387348488338660405161112996959493929190614e8c565b60405180910390a150505050505050565b6000806000600860008681526020019081526020016000206040518060400160405290816000820160009054906101000a900473ffffffffffffffffffffffffffffffffffffffff1673ffffffffffffffffffffffffffffffffffffffff1673ffffffffffffffffffffffffffffffffffffffff16815260200160018201548152505090508060000151925060648160200151856111d89190614d11565b6111e29190614d9a565b9150509250929050565b60006111f7836118b1565b8210611238576040517f08c379a000000000000000000000000000000000000000000000000000000000815260040161122f90614f39565b60405180910390fd5b600f60008473ffffffffffffffffffffffffffffffffffffffff1673ffffffffffffffffffffffffffffffffffffffff168152602001908152602001600020600083815260200190815260200160002054905092915050565b60136020528060005260406000206000915090505481565b606060006112b5610bbd565b90506000806112c4600b612d1b565b67ffffffffffffffff8111156112dd576112dc6142a1565b5b60405190808252806020026020018201604052801561131657816020015b611303613c4d565b8152602001906001900390816112fb5790505b50905060005b8381101561145457600061132f82611635565b90506000600e60008381526020019081526020016000209050600115158160020160149054906101000a900460ff1615150361143f57806040518060a001604052908160008201548152602001600182015481526020016002820160009054906101000a900473ffffffffffffffffffffffffffffffffffffffff1673ffffffffffffffffffffffffffffffffffffffff1673ffffffffffffffffffffffffffffffffffffffff1681526020016002820160149054906101000a900460ff161515151581526020016002820160159054906101000a900460ff16151515158152505084868151811061142457611423614f59565b5b602002602001018190525060018561143c9190614e36565b94505b5050808061144c90614f88565b91505061131c565b5080935050505090565b611466612859565b73ffffffffffffffffffffffffffffffffffffffff16611484611c38565b73ffffffffffffffffffffffffffffffffffffffff16146114da576040517f08c379a00000000000000000000000000000000000000000000000000000000081526004016114d19061501c565b60405180910390fd5b600047905060008111611522576040517f08c379a000000000000000000000000000000000000000000000000000000000815260040161151990615088565b60405180910390fd5b600061152c611c38565b73ffffffffffffffffffffffffffffffffffffffff168260405161154f906150d9565b60006040518083038185875af1925050503d806000811461158c576040519150601f19603f3d011682016040523d82523d6000602084013e611591565b606091505b50509050806115d5576040517f08c379a00000000000000000000000000000000000000000000000000000000081526004016115cc9061513a565b60405180910390fd5b5050565b6115f483838360405180602001604052806000815250611d0a565b505050565b600060011515600d8360405161160f9190615196565b908152602001604051809103902060009054906101000a900460ff161515149050919050565b600061163f610bbd565b8210611680576040517f08c379a000000000000000000000000000000000000000000000000000000000815260040161167790614f39565b60405180910390fd5b6011828154811061169457611693614f59565b5b90600052602060002001549050919050565b6116ae613c96565b600860008381526020019081526020016000206040518060400160405290816000820160009054906101000a900473ffffffffffffffffffffffffffffffffffffffff1673ffffffffffffffffffffffffffffffffffffffff1673ffffffffffffffffffffffffffffffffffffffff1681526020016001820154815250509050919050565b6000806002600084815260200190815260200160002060009054906101000a900473ffffffffffffffffffffffffffffffffffffffff169050600073ffffffffffffffffffffffffffffffffffffffff168173ffffffffffffffffffffffffffffffffffffffff16036117db576040517f08c379a00000000000000000000000000000000000000000000000000000000081526004016117d29061521f565b60405180910390fd5b80915050919050565b6117ec613c4d565b600e60008381526020019081526020016000206040518060a001604052908160008201548152602001600182015481526020016002820160009054906101000a900473ffffffffffffffffffffffffffffffffffffffff1673ffffffffffffffffffffffffffffffffffffffff1673ffffffffffffffffffffffffffffffffffffffff1681526020016002820160149054906101000a900460ff161515151581526020016002820160159054906101000a900460ff1615151515815250509050919050565b60008073ffffffffffffffffffffffffffffffffffffffff168273ffffffffffffffffffffffffffffffffffffffff1603611921576040517f08c379a0000000000000000000000000000000000000000000000000000000008152600401611918906152b1565b60405180910390fd5b600360008373ffffffffffffffffffffffffffffffffffffffff1673ffffffffffffffffffffffffffffffffffffffff168152602001908152602001600020549050919050565b60606000611975336118b1565b905060008167ffffffffffffffff811115611993576119926142a1565b5b6040519080825280602002602001820160405280156119cc57816020015b6119b9613c4d565b8152602001906001900390816119b15790505b50905060005b82811015611ade5760006119e633836111ec565b90506000600e60008381526020019081526020016000209050806040518060a001604052908160008201548152602001600182015481526020016002820160009054906101000a900473ffffffffffffffffffffffffffffffffffffffff1673ffffffffffffffffffffffffffffffffffffffff1673ffffffffffffffffffffffffffffffffffffffff1681526020016002820160149054906101000a900460ff161515151581526020016002820160159054906101000a900460ff161515151581525050848481518110611abe57611abd614f59565b5b602002602001018190525050508080611ad690614f88565b9150506119d2565b50809250505090565b611aef612859565b73ffffffffffffffffffffffffffffffffffffffff16611b0d611c38565b73ffffffffffffffffffffffffffffffffffffffff1614611b63576040517f08c379a0000000000000000000000000000000000000000000000000000000008152600401611b5a9061501c565b60405180910390fd5b611b6d6000612d29565b565b611b77612859565b73ffffffffffffffffffffffffffffffffffffffff16611b95611c38565b73ffffffffffffffffffffffffffffffffffffffff1614611beb576040517f08c379a0000000000000000000000000000000000000000000000000000000008152600401611be29061501c565b60405180910390fd5b60008111611c2e576040517f08c379a0000000000000000000000000000000000000000000000000000000008152600401611c259061531d565b60405180910390fd5b80600a8190555050565b6000600760009054906101000a900473ffffffffffffffffffffffffffffffffffffffff16905090565b606060018054611c7190614827565b80601f0160208091040260200160405190810160405280929190818152602001828054611c9d90614827565b8015611cea5780601f10611cbf57610100808354040283529160200191611cea565b820191906000526020600020905b815481529060010190602001808311611ccd57829003601f168201915b5050505050905090565b611d06611cff612859565b8383612def565b5050565b611d1b611d15612859565b83612930565b611d5a576040517f08c379a0000000000000000000000000000000000000000000000000000000008152600401611d5190614bea565b60405180910390fd5b611d6684848484612f5b565b50505050565b6064821115611db0576040517f08c379a0000000000000000000000000000000000000000000000000000000008152600401611da790615389565b60405180910390fd5b60405180604001604052808473ffffffffffffffffffffffffffffffffffffffff168152602001838152506008600083815260200190815260200160002060008201518160000160006101000a81548173ffffffffffffffffffffffffffffffffffffffff021916908373ffffffffffffffffffffffffffffffffffffffff16021790555060208201518160010155905050505050565b600a5481565b6060611e58826127ed565b611e97576040517f08c379a0000000000000000000000000000000000000000000000000000000008152600401611e8e9061541b565b60405180910390fd5b6000600660008481526020019081526020016000208054611eb790614827565b80601f0160208091040260200160405190810160405280929190818152602001828054611ee390614827565b8015611f305780601f10611f0557610100808354040283529160200191611f30565b820191906000526020600020905b815481529060010190602001808311611f1357829003601f168201915b505050505090506000611f41612fb7565b90506000815103611f56578192505050611f99565b600082511115611f8b578082604051602001611f7392919061543b565b60405160208183030381529060405292505050611f99565b611f9484612fce565b925050505b919050565b6000611faa600b612d1b565b905090565b60098054611fbc90614827565b80601f0160208091040260200160405190810160405280929190818152602001828054611fe890614827565b80156120355780601f1061200a57610100808354040283529160200191612035565b820191906000526020600020905b81548152906001019060200180831161201857829003601f168201915b505050505081565b6000612048846115f9565b15612088576040517f08c379a000000000000000000000000000000000000000000000000000000000815260040161207f906154ab565b60405180910390fd5b600a5434146120cc576040517f08c379a00000000000000000000000000000000000000000000000000000000081526004016120c390614b58565b60405180910390fd5b6120d6600c612d1b565b601360003373ffffffffffffffffffffffffffffffffffffffff1673ffffffffffffffffffffffffffffffffffffffff16815260200190815260200160002060008282546121249190614e36565b92505081905550612135600c61291a565b61213f600b61291a565b600061214b600c612d1b565b90506000600e600083815260200190815260200160002060020160156101000a81548160ff0219169083151502179055506000836bffffffffffffffffffffffff16146122055761219c3382613075565b6121a68186613093565b6121b08185613107565b6121c933846bffffffffffffffffffffffff1683611d6c565b6001600d866040516121db9190615196565b908152602001604051809103902060006101000a81548160ff02191690831515021790555061225b565b61220f3382613075565b6122198186613093565b6122238185613107565b6001600d866040516122359190615196565b908152602001604051809103902060006101000a81548160ff0219169083151502179055505b60004290507f64f3f3b5388b641dd538c4857f65b7acf14a3c5dc6b116b1b20b2bb8efbac4c48233888460405161229594939291906154cb565b60405180910390a181925050509392505050565b3373ffffffffffffffffffffffffffffffffffffffff166122c983611733565b73ffffffffffffffffffffffffffffffffffffffff161461231f576040517f08c379a000000000000000000000000000000000000000000000000000000000815260040161231690614a5a565b60405180910390fd5b6000600860008481526020019081526020016000206040518060400160405290816000820160009054906101000a900473ffffffffffffffffffffffffffffffffffffffff1673ffffffffffffffffffffffffffffffffffffffff1673ffffffffffffffffffffffffffffffffffffffff1681526020016001820154815250509050600060648260200151846123b59190614d11565b6123bf9190614d9a565b9050600e600085815260200190815260200160002060020160159054906101000a900460ff16156124155780836123f69190614e36565b600e600086815260200190815260200160002060010181905550612431565b82600e6000868152602001908152602001600020600101819055505b50505050565b806bffffffffffffffffffffffff1660086000848152602001908152602001600020600101819055505050565b6000600560008473ffffffffffffffffffffffffffffffffffffffff1673ffffffffffffffffffffffffffffffffffffffff16815260200190815260200160002060008373ffffffffffffffffffffffffffffffffffffffff1673ffffffffffffffffffffffffffffffffffffffff16815260200190815260200160002060009054906101000a900460ff16905092915050565b3373ffffffffffffffffffffffffffffffffffffffff1661251882611733565b73ffffffffffffffffffffffffffffffffffffffff161461256e576040517f08c379a000000000000000000000000000000000000000000000000000000000815260040161256590614a5a565b60405180910390fd5b60011515600e600083815260200190815260200160002060020160149054906101000a900460ff161515146125d8576040517f08c379a00000000000000000000000000000000000000000000000000000000081526004016125cf90615589565b60405180910390fd5b6000600e600083815260200190815260200160002060020160146101000a81548160ff021916908315150217905550612611600b612cbf565b50565b61261c612859565b73ffffffffffffffffffffffffffffffffffffffff1661263a611c38565b73ffffffffffffffffffffffffffffffffffffffff1614612690576040517f08c379a00000000000000000000000000000000000000000000000000000000081526004016126879061501c565b60405180910390fd5b600073ffffffffffffffffffffffffffffffffffffffff168173ffffffffffffffffffffffffffffffffffffffff16036126ff576040517f08c379a00000000000000000000000000000000000000000000000000000000081526004016126f69061561b565b60405180910390fd5b61270881612d29565b50565b60007f80ac58cd000000000000000000000000000000000000000000000000000000007bffffffffffffffffffffffffffffffffffffffffffffffffffffffff1916827bffffffffffffffffffffffffffffffffffffffffffffffffffffffff191614806127d657507f5b5e139f000000000000000000000000000000000000000000000000000000007bffffffffffffffffffffffffffffffffffffffffffffffffffffffff1916827bffffffffffffffffffffffffffffffffffffffffffffffffffffffff1916145b806127e657506127e582613283565b5b9050919050565b60008073ffffffffffffffffffffffffffffffffffffffff166002600084815260200190815260200160002060009054906101000a900473ffffffffffffffffffffffffffffffffffffffff1673ffffffffffffffffffffffffffffffffffffffff1614159050919050565b600033905090565b816004600083815260200190815260200160002060006101000a81548173ffffffffffffffffffffffffffffffffffffffff021916908373ffffffffffffffffffffffffffffffffffffffff160217905550808273ffffffffffffffffffffffffffffffffffffffff166128d483611733565b73ffffffffffffffffffffffffffffffffffffffff167f8c5be1e5ebec7d5bd14f71427d1e84f3dd0314c0f7b2291e5b200ac8c7c3b92560405160405180910390a45050565b6001816000016000828254019250508190555050565b600061293b826127ed565b61297a576040517f08c379a0000000000000000000000000000000000000000000000000000000008152600401612971906156ad565b60405180910390fd5b600061298583611733565b90508073ffffffffffffffffffffffffffffffffffffffff168473ffffffffffffffffffffffffffffffffffffffff1614806129f457508373ffffffffffffffffffffffffffffffffffffffff166129dc84610a21565b73ffffffffffffffffffffffffffffffffffffffff16145b80612a055750612a048185612464565b5b91505092915050565b8273ffffffffffffffffffffffffffffffffffffffff16612a2e82611733565b73ffffffffffffffffffffffffffffffffffffffff1614612a84576040517f08c379a0000000000000000000000000000000000000000000000000000000008152600401612a7b9061573f565b60405180910390fd5b600073ffffffffffffffffffffffffffffffffffffffff168273ffffffffffffffffffffffffffffffffffffffff1603612af3576040517f08c379a0000000000000000000000000000000000000000000000000000000008152600401612aea906157d1565b60405180910390fd5b612afe8383836132ed565b612b09600082612861565b6001600360008573ffffffffffffffffffffffffffffffffffffffff1673ffffffffffffffffffffffffffffffffffffffff1681526020019081526020016000206000828254612b599190614dcb565b925050819055506001600360008473ffffffffffffffffffffffffffffffffffffffff1673ffffffffffffffffffffffffffffffffffffffff1681526020019081526020016000206000828254612bb09190614e36565b92505081905550816002600083815260200190815260200160002060006101000a81548173ffffffffffffffffffffffffffffffffffffffff021916908373ffffffffffffffffffffffffffffffffffffffff160217905550808273ffffffffffffffffffffffffffffffffffffffff168473ffffffffffffffffffffffffffffffffffffffff167fddf252ad1be2c89b69c2b068fc378daa952ba7f163c4a11628f55a4df523b3ef60405160405180910390a4612c6f8383836133ff565b505050565b8173ffffffffffffffffffffffffffffffffffffffff166108fc829081150290604051600060405180830381858888f19350505050158015612cba573d6000803e3d6000fd5b505050565b60008160000154905060008111612d0b576040517f08c379a0000000000000000000000000000000000000000000000000000000008152600401612d029061583d565b60405180910390fd5b6001810382600001819055505050565b600081600001549050919050565b6000600760009054906101000a900473ffffffffffffffffffffffffffffffffffffffff16905081600760006101000a81548173ffffffffffffffffffffffffffffffffffffffff021916908373ffffffffffffffffffffffffffffffffffffffff1602179055508173ffffffffffffffffffffffffffffffffffffffff168173ffffffffffffffffffffffffffffffffffffffff167f8be0079c531659141344cd1fd0a4f28419497f9722a3daafe3b4186f6b6457e060405160405180910390a35050565b8173ffffffffffffffffffffffffffffffffffffffff168373ffffffffffffffffffffffffffffffffffffffff1603612e5d576040517f08c379a0000000000000000000000000000000000000000000000000000000008152600401612e54906158a9565b60405180910390fd5b80600560008573ffffffffffffffffffffffffffffffffffffffff1673ffffffffffffffffffffffffffffffffffffffff16815260200190815260200160002060008473ffffffffffffffffffffffffffffffffffffffff1673ffffffffffffffffffffffffffffffffffffffff16815260200190815260200160002060006101000a81548160ff0219169083151502179055508173ffffffffffffffffffffffffffffffffffffffff168373ffffffffffffffffffffffffffffffffffffffff167f17307eab39ab6107e8899845ad3d59bd9653f200f220920489ca2b5937696c3183604051612f4e9190613e1d565b60405180910390a3505050565b612f66848484612a0e565b612f7284848484613404565b612fb1576040517f08c379a0000000000000000000000000000000000000000000000000000000008152600401612fa89061593b565b60405180910390fd5b50505050565b606060405180602001604052806000815250905090565b6060612fd9826127ed565b613018576040517f08c379a000000000000000000000000000000000000000000000000000000000815260040161300f906159cd565b60405180910390fd5b6000613022612fb7565b90506000815111613042576040518060200160405280600081525061306d565b8061304c8461358b565b60405160200161305d92919061543b565b6040516020818303038152906040525b915050919050565b61308f8282604051806020016040528060008152506136eb565b5050565b61309c826127ed565b6130db576040517f08c379a00000000000000000000000000000000000000000000000000000000081526004016130d290615a5f565b60405180910390fd5b80600660008481526020019081526020016000209080519060200190613102929190613cc6565b505050565b6000811161314a576040517f08c379a00000000000000000000000000000000000000000000000000000000081526004016131419061531d565b60405180910390fd5b6040518060a001604052808381526020018281526020013373ffffffffffffffffffffffffffffffffffffffff16815260200160011515815260200160001515815250600e6000848152602001908152602001600020600082015181600001556020820151816001015560408201518160020160006101000a81548173ffffffffffffffffffffffffffffffffffffffff021916908373ffffffffffffffffffffffffffffffffffffffff16021790555060608201518160020160146101000a81548160ff02191690831515021790555060808201518160020160156101000a81548160ff0219169083151502179055509050507fc72fa779846cafae8e0b3ff446217506f9b128fb16aeb52e1d58c520dbd235b682823360016000604051613277959493929190615a7f565b60405180910390a15050565b60007f01ffc9a7000000000000000000000000000000000000000000000000000000007bffffffffffffffffffffffffffffffffffffffffffffffffffffffff1916827bffffffffffffffffffffffffffffffffffffffffffffffffffffffff1916149050919050565b6132f8838383613746565b600073ffffffffffffffffffffffffffffffffffffffff168373ffffffffffffffffffffffffffffffffffffffff160361333a576133358161374b565b613379565b8173ffffffffffffffffffffffffffffffffffffffff168373ffffffffffffffffffffffffffffffffffffffff1614613378576133778382613794565b5b5b600073ffffffffffffffffffffffffffffffffffffffff168273ffffffffffffffffffffffffffffffffffffffff16036133bb576133b681613901565b6133fa565b8273ffffffffffffffffffffffffffffffffffffffff168273ffffffffffffffffffffffffffffffffffffffff16146133f9576133f882826139d2565b5b5b505050565b505050565b60006134258473ffffffffffffffffffffffffffffffffffffffff16613a51565b1561357e578373ffffffffffffffffffffffffffffffffffffffff1663150b7a0261344e612859565b8786866040518563ffffffff1660e01b81526004016134709493929190615b27565b6020604051808303816000875af19250505080156134ac57506040513d601f19601f820116820180604052508101906134a99190615b88565b60015b61352e573d80600081146134dc576040519150601f19603f3d011682016040523d82523d6000602084013e6134e1565b606091505b506000815103613526576040517f08c379a000000000000000000000000000000000000000000000000000000000815260040161351d9061593b565b60405180910390fd5b805181602001fd5b63150b7a0260e01b7bffffffffffffffffffffffffffffffffffffffffffffffffffffffff1916817bffffffffffffffffffffffffffffffffffffffffffffffffffffffff191614915050613583565b600190505b949350505050565b6060600082036135d2576040518060400160405280600181526020017f300000000000000000000000000000000000000000000000000000000000000081525090506136e6565b600082905060005b600082146136045780806135ed90614f88565b915050600a826135fd9190614d9a565b91506135da565b60008167ffffffffffffffff8111156136205761361f6142a1565b5b6040519080825280601f01601f1916602001820160405280156136525781602001600182028036833780820191505090505b5090505b600085146136df5760018261366b9190614dcb565b9150600a8561367a9190615bb5565b60306136869190614e36565b60f81b81838151811061369c5761369b614f59565b5b60200101907effffffffffffffffffffffffffffffffffffffffffffffffffffffffffffff1916908160001a905350600a856136d89190614d9a565b9450613656565b8093505050505b919050565b6136f58383613a74565b6137026000848484613404565b613741576040517f08c379a00000000000000000000000000000000000000000000000000000000081526004016137389061593b565b60405180910390fd5b505050565b505050565b6011805490506012600083815260200190815260200160002081905550601181908060018154018082558091505060019003906000526020600020016000909190919091505550565b600060016137a1846118b1565b6137ab9190614dcb565b9050600060106000848152602001908152602001600020549050818114613890576000600f60008673ffffffffffffffffffffffffffffffffffffffff1673ffffffffffffffffffffffffffffffffffffffff168152602001908152602001600020600084815260200190815260200160002054905080600f60008773ffffffffffffffffffffffffffffffffffffffff1673ffffffffffffffffffffffffffffffffffffffff168152602001908152602001600020600084815260200190815260200160002081905550816010600083815260200190815260200160002081905550505b6010600084815260200190815260200160002060009055600f60008573ffffffffffffffffffffffffffffffffffffffff1673ffffffffffffffffffffffffffffffffffffffff16815260200190815260200160002060008381526020019081526020016000206000905550505050565b600060016011805490506139159190614dcb565b905060006012600084815260200190815260200160002054905060006011838154811061394557613944614f59565b5b90600052602060002001549050806011838154811061396757613966614f59565b5b9060005260206000200181905550816012600083815260200190815260200160002081905550601260008581526020019081526020016000206000905560118054806139b6576139b5615be6565b5b6001900381819060005260206000200160009055905550505050565b60006139dd836118b1565b905081600f60008573ffffffffffffffffffffffffffffffffffffffff1673ffffffffffffffffffffffffffffffffffffffff168152602001908152602001600020600083815260200190815260200160002081905550806010600084815260200190815260200160002081905550505050565b6000808273ffffffffffffffffffffffffffffffffffffffff163b119050919050565b600073ffffffffffffffffffffffffffffffffffffffff168273ffffffffffffffffffffffffffffffffffffffff1603613ae3576040517f08c379a0000000000000000000000000000000000000000000000000000000008152600401613ada90615c61565b60405180910390fd5b613aec816127ed565b15613b2c576040517f08c379a0000000000000000000000000000000000000000000000000000000008152600401613b2390615ccd565b60405180910390fd5b613b38600083836132ed565b6001600360008473ffffffffffffffffffffffffffffffffffffffff1673ffffffffffffffffffffffffffffffffffffffff1681526020019081526020016000206000828254613b889190614e36565b92505081905550816002600083815260200190815260200160002060006101000a81548173ffffffffffffffffffffffffffffffffffffffff021916908373ffffffffffffffffffffffffffffffffffffffff160217905550808273ffffffffffffffffffffffffffffffffffffffff16600073ffffffffffffffffffffffffffffffffffffffff167fddf252ad1be2c89b69c2b068fc378daa952ba7f163c4a11628f55a4df523b3ef60405160405180910390a4613c49600083836133ff565b5050565b6040518060a001604052806000815260200160008152602001600073ffffffffffffffffffffffffffffffffffffffff1681526020016000151581526020016000151581525090565b6040518060400160405280600073ffffffffffffffffffffffffffffffffffffffff168152602001600081525090565b828054613cd290614827565b90600052602060002090601f016020900481019282613cf45760008555613d3b565b82601f10613d0d57805160ff1916838001178555613d3b565b82800160010185558215613d3b579182015b82811115613d3a578251825591602001919060010190613d1f565b5b509050613d489190613d4c565b5090565b5b80821115613d65576000816000905550600101613d4d565b5090565b6000604051905090565b600080fd5b600080fd5b60007fffffffff0000000000000000000000000000000000000000000000000000000082169050919050565b613db281613d7d565b8114613dbd57600080fd5b50565b600081359050613dcf81613da9565b92915050565b600060208284031215613deb57613dea613d73565b5b6000613df984828501613dc0565b91505092915050565b60008115159050919050565b613e1781613e02565b82525050565b6000602082019050613e326000830184613e0e565b92915050565b600081519050919050565b600082825260208201905092915050565b60005b83811015613e72578082015181840152602081019050613e57565b83811115613e81576000848401525b50505050565b6000601f19601f8301169050919050565b6000613ea382613e38565b613ead8185613e43565b9350613ebd818560208601613e54565b613ec681613e87565b840191505092915050565b60006020820190508181036000830152613eeb8184613e98565b905092915050565b6000819050919050565b613f0681613ef3565b8114613f1157600080fd5b50565b600081359050613f2381613efd565b92915050565b600060208284031215613f3f57613f3e613d73565b5b6000613f4d84828501613f14565b91505092915050565b600073ffffffffffffffffffffffffffffffffffffffff82169050919050565b6000613f8182613f56565b9050919050565b613f9181613f76565b82525050565b6000602082019050613fac6000830184613f88565b92915050565b613fbb81613f76565b8114613fc657600080fd5b50565b600081359050613fd881613fb2565b92915050565b60008060408385031215613ff557613ff4613d73565b5b600061400385828601613fc9565b925050602061401485828601613f14565b9150509250929050565b61402781613ef3565b82525050565b6000602082019050614042600083018461401e565b92915050565b6000806040838503121561405f5761405e613d73565b5b600061406d85828601613f14565b925050602061407e85828601613f14565b9150509250929050565b6000806000606084860312156140a1576140a0613d73565b5b60006140af86828701613fc9565b93505060206140c086828701613fc9565b92505060406140d186828701613f14565b9150509250925092565b60006040820190506140f06000830185613f88565b6140fd602083018461401e565b9392505050565b60006020828403121561411a57614119613d73565b5b600061412884828501613fc9565b91505092915050565b600081519050919050565b600082825260208201905092915050565b6000819050602082019050919050565b61416681613ef3565b82525050565b61417581613f76565b82525050565b61418481613e02565b82525050565b60a0820160008201516141a0600085018261415d565b5060208201516141b3602085018261415d565b5060408201516141c6604085018261416c565b5060608201516141d9606085018261417b565b5060808201516141ec608085018261417b565b50505050565b60006141fe838361418a565b60a08301905092915050565b6000602082019050919050565b600061422282614131565b61422c818561413c565b93506142378361414d565b8060005b8381101561426857815161424f88826141f2565b975061425a8361420a565b92505060018101905061423b565b5085935050505092915050565b6000602082019050818103600083015261428f8184614217565b905092915050565b600080fd5b600080fd5b7f4e487b7100000000000000000000000000000000000000000000000000000000600052604160045260246000fd5b6142d982613e87565b810181811067ffffffffffffffff821117156142f8576142f76142a1565b5b80604052505050565b600061430b613d69565b905061431782826142d0565b919050565b600067ffffffffffffffff821115614337576143366142a1565b5b61434082613e87565b9050602081019050919050565b82818337600083830152505050565b600061436f61436a8461431c565b614301565b90508281526020810184848401111561438b5761438a61429c565b5b61439684828561434d565b509392505050565b600082601f8301126143b3576143b2614297565b5b81356143c384826020860161435c565b91505092915050565b6000602082840312156143e2576143e1613d73565b5b600082013567ffffffffffffffff811115614400576143ff613d78565b5b61440c8482850161439e565b91505092915050565b60408201600082015161442b600085018261416c565b50602082015161443e602085018261415d565b50505050565b60006040820190506144596000830184614415565b92915050565b60a082016000820151614475600085018261415d565b506020820151614488602085018261415d565b50604082015161449b604085018261416c565b5060608201516144ae606085018261417b565b5060808201516144c1608085018261417b565b50505050565b600060a0820190506144dc600083018461445f565b92915050565b6144eb81613e02565b81146144f657600080fd5b50565b600081359050614508816144e2565b92915050565b6000806040838503121561452557614524613d73565b5b600061453385828601613fc9565b9250506020614544858286016144f9565b9150509250929050565b600067ffffffffffffffff821115614569576145686142a1565b5b61457282613e87565b9050602081019050919050565b600061459261458d8461454e565b614301565b9050828152602081018484840111156145ae576145ad61429c565b5b6145b984828561434d565b509392505050565b600082601f8301126145d6576145d5614297565b5b81356145e684826020860161457f565b91505092915050565b6000806000806080858703121561460957614608613d73565b5b600061461787828801613fc9565b945050602061462887828801613fc9565b935050604061463987828801613f14565b925050606085013567ffffffffffffffff81111561465a57614659613d78565b5b614666878288016145c1565b91505092959194509250565b60008060006060848603121561468b5761468a613d73565b5b600061469986828701613fc9565b93505060206146aa86828701613f14565b92505060406146bb86828701613f14565b9150509250925092565b60006bffffffffffffffffffffffff82169050919050565b6146e6816146c5565b81146146f157600080fd5b50565b600081359050614703816146dd565b92915050565b60008060006060848603121561472257614721613d73565b5b600084013567ffffffffffffffff8111156147405761473f613d78565b5b61474c8682870161439e565b935050602061475d86828701613f14565b925050604061476e868287016146f4565b9150509250925092565b6000806040838503121561478f5761478e613d73565b5b600061479d85828601613f14565b92505060206147ae858286016146f4565b9150509250929050565b600080604083850312156147cf576147ce613d73565b5b60006147dd85828601613fc9565b92505060206147ee85828601613fc9565b9150509250929050565b7f4e487b7100000000000000000000000000000000000000000000000000000000600052602260045260246000fd5b6000600282049050600182168061483f57607f821691505b602082108103614852576148516147f8565b5b50919050565b7f4552433732313a20617070726f76656420717565727920666f72206e6f6e657860008201527f697374656e7420746f6b656e0000000000000000000000000000000000000000602082015250565b60006148b4602c83613e43565b91506148bf82614858565b604082019050919050565b600060208201905081810360008301526148e3816148a7565b9050919050565b7f4552433732313a20617070726f76616c20746f2063757272656e74206f776e6560008201527f7200000000000000000000000000000000000000000000000000000000000000602082015250565b6000614946602183613e43565b9150614951826148ea565b604082019050919050565b6000602082019050818103600083015261497581614939565b9050919050565b7f4552433732313a20617070726f76652063616c6c6572206973206e6f74206f7760008201527f6e6572206e6f7220617070726f76656420666f7220616c6c0000000000000000602082015250565b60006149d8603883613e43565b91506149e38261497c565b604082019050919050565b60006020820190508181036000830152614a07816149cb565b9050919050565b7f596f7520617265206e6f74206f776e6572206f662074686973206e6674000000600082015250565b6000614a44601d83613e43565b9150614a4f82614a0e565b602082019050919050565b60006020820190508181036000830152614a7381614a37565b9050919050565b7f4974656d20697320616c7265616479206f6e2073616c65000000000000000000600082015250565b6000614ab0601783613e43565b9150614abb82614a7a565b602082019050919050565b60006020820190508181036000830152614adf81614aa3565b9050919050565b7f5072696365206d75737420626520657175616c20746f206c697374696e67207060008201527f7269636500000000000000000000000000000000000000000000000000000000602082015250565b6000614b42602483613e43565b9150614b4d82614ae6565b604082019050919050565b60006020820190508181036000830152614b7181614b35565b9050919050565b7f4552433732313a207472616e736665722063616c6c6572206973206e6f74206f60008201527f776e6572206e6f7220617070726f766564000000000000000000000000000000602082015250565b6000614bd4603183613e43565b9150614bdf82614b78565b604082019050919050565b60006020820190508181036000830152614c0381614bc7565b9050919050565b7f596f7520616c7265616479206f776e2074686973204e46540000000000000000600082015250565b6000614c40601883613e43565b9150614c4b82614c0a565b602082019050919050565b60006020820190508181036000830152614c6f81614c33565b9050919050565b7f506c65617365207375626d6974207468652061736b696e672070726963650000600082015250565b6000614cac601e83613e43565b9150614cb782614c76565b602082019050919050565b60006020820190508181036000830152614cdb81614c9f565b9050919050565b7f4e487b7100000000000000000000000000000000000000000000000000000000600052601160045260246000fd5b6000614d1c82613ef3565b9150614d2783613ef3565b9250817fffffffffffffffffffffffffffffffffffffffffffffffffffffffffffffffff0483118215151615614d6057614d5f614ce2565b5b828202905092915050565b7f4e487b7100000000000000000000000000000000000000000000000000000000600052601260045260246000fd5b6000614da582613ef3565b9150614db083613ef3565b925082614dc057614dbf614d6b565b5b828204905092915050565b6000614dd682613ef3565b9150614de183613ef3565b925082821015614df457614df3614ce2565b5b828203905092915050565b6000606082019050614e146000830186613f88565b614e21602083018561401e565b614e2e604083018461401e565b949350505050565b6000614e4182613ef3565b9150614e4c83613ef3565b9250827fffffffffffffffffffffffffffffffffffffffffffffffffffffffffffffffff03821115614e8157614e80614ce2565b5b828201905092915050565b600060c082019050614ea1600083018961401e565b614eae602083018861401e565b614ebb604083018761401e565b614ec86060830186613f88565b614ed56080830185613f88565b614ee260a083018461401e565b979650505050505050565b7f496e646578206f7574206f6620626f756e647300000000000000000000000000600082015250565b6000614f23601383613e43565b9150614f2e82614eed565b602082019050919050565b60006020820190508181036000830152614f5281614f16565b9050919050565b7f4e487b7100000000000000000000000000000000000000000000000000000000600052603260045260246000fd5b6000614f9382613ef3565b91507fffffffffffffffffffffffffffffffffffffffffffffffffffffffffffffffff8203614fc557614fc4614ce2565b5b600182019050919050565b7f4f776e61626c653a2063616c6c6572206973206e6f7420746865206f776e6572600082015250565b6000615006602083613e43565b915061501182614fd0565b602082019050919050565b6000602082019050818103600083015261503581614ff9565b9050919050565b7f4e6f206574686572206c65667420746f20776974686472617700000000000000600082015250565b6000615072601983613e43565b915061507d8261503c565b602082019050919050565b600060208201905081810360008301526150a181615065565b9050919050565b600081905092915050565b50565b60006150c36000836150a8565b91506150ce826150b3565b600082019050919050565b60006150e4826150b6565b9150819050919050565b7f5472616e73666572206661696c65642e00000000000000000000000000000000600082015250565b6000615124601083613e43565b915061512f826150ee565b602082019050919050565b6000602082019050818103600083015261515381615117565b9050919050565b600081905092915050565b600061517082613e38565b61517a818561515a565b935061518a818560208601613e54565b80840191505092915050565b60006151a28284615165565b915081905092915050565b7f4552433732313a206f776e657220717565727920666f72206e6f6e657869737460008201527f656e7420746f6b656e0000000000000000000000000000000000000000000000602082015250565b6000615209602983613e43565b9150615214826151ad565b604082019050919050565b60006020820190508181036000830152615238816151fc565b9050919050565b7f4552433732313a2062616c616e636520717565727920666f7220746865207a6560008201527f726f206164647265737300000000000000000000000000000000000000000000602082015250565b600061529b602a83613e43565b91506152a68261523f565b604082019050919050565b600060208201905081810360008301526152ca8161528e565b9050919050565b7f5072696365206d757374206265206174206c6561737420312077656900000000600082015250565b6000615307601c83613e43565b9150615312826152d1565b602082019050919050565b60006020820190508181036000830152615336816152fa565b9050919050565b7f45524332393831526f79616c746965733a20546f6f2068696768000000000000600082015250565b6000615373601a83613e43565b915061537e8261533d565b602082019050919050565b600060208201905081810360008301526153a281615366565b9050919050565b7f45524337323155524953746f726167653a2055524920717565727920666f722060008201527f6e6f6e6578697374656e7420746f6b656e000000000000000000000000000000602082015250565b6000615405603183613e43565b9150615410826153a9565b604082019050919050565b60006020820190508181036000830152615434816153f8565b9050919050565b60006154478285615165565b91506154538284615165565b91508190509392505050565b7f546f6b656e2055524920616c7265616479206578697374730000000000000000600082015250565b6000615495601883613e43565b91506154a08261545f565b602082019050919050565b600060208201905081810360008301526154c481615488565b9050919050565b60006080820190506154e0600083018761401e565b6154ed6020830186613f88565b81810360408301526154ff8185613e98565b905061550e606083018461401e565b95945050505050565b7f4974656d20697320616c72656164792072656d6f7665642066726f6d2073616c60008201527f6500000000000000000000000000000000000000000000000000000000000000602082015250565b6000615573602183613e43565b915061557e82615517565b604082019050919050565b600060208201905081810360008301526155a281615566565b9050919050565b7f4f776e61626c653a206e6577206f776e657220697320746865207a65726f206160008201527f6464726573730000000000000000000000000000000000000000000000000000602082015250565b6000615605602683613e43565b9150615610826155a9565b604082019050919050565b60006020820190508181036000830152615634816155f8565b9050919050565b7f4552433732313a206f70657261746f7220717565727920666f72206e6f6e657860008201527f697374656e7420746f6b656e0000000000000000000000000000000000000000602082015250565b6000615697602c83613e43565b91506156a28261563b565b604082019050919050565b600060208201905081810360008301526156c68161568a565b9050919050565b7f4552433732313a207472616e736665722066726f6d20696e636f72726563742060008201527f6f776e6572000000000000000000000000000000000000000000000000000000602082015250565b6000615729602583613e43565b9150615734826156cd565b604082019050919050565b600060208201905081810360008301526157588161571c565b9050919050565b7f4552433732313a207472616e7366657220746f20746865207a65726f2061646460008201527f7265737300000000000000000000000000000000000000000000000000000000602082015250565b60006157bb602483613e43565b91506157c68261575f565b604082019050919050565b600060208201905081810360008301526157ea816157ae565b9050919050565b7f436f756e7465723a2064656372656d656e74206f766572666c6f770000000000600082015250565b6000615827601b83613e43565b9150615832826157f1565b602082019050919050565b600060208201905081810360008301526158568161581a565b9050919050565b7f4552433732313a20617070726f766520746f2063616c6c657200000000000000600082015250565b6000615893601983613e43565b915061589e8261585d565b602082019050919050565b600060208201905081810360008301526158c281615886565b9050919050565b7f4552433732313a207472616e7366657220746f206e6f6e20455243373231526560008201527f63656976657220696d706c656d656e7465720000000000000000000000000000602082015250565b6000615925603283613e43565b9150615930826158c9565b604082019050919050565b6000602082019050818103600083015261595481615918565b9050919050565b7f4552433732314d657461646174613a2055524920717565727920666f72206e6f60008201527f6e6578697374656e7420746f6b656e0000000000000000000000000000000000602082015250565b60006159b7602f83613e43565b91506159c28261595b565b604082019050919050565b600060208201905081810360008301526159e6816159aa565b9050919050565b7f45524337323155524953746f726167653a2055524920736574206f66206e6f6e60008201527f6578697374656e7420746f6b656e000000000000000000000000000000000000602082015250565b6000615a49602e83613e43565b9150615a54826159ed565b604082019050919050565b60006020820190508181036000830152615a7881615a3c565b9050919050565b600060a082019050615a94600083018861401e565b615aa1602083018761401e565b615aae6040830186613f88565b615abb6060830185613e0e565b615ac86080830184613e0e565b9695505050505050565b600081519050919050565b600082825260208201905092915050565b6000615af982615ad2565b615b038185615add565b9350615b13818560208601613e54565b615b1c81613e87565b840191505092915050565b6000608082019050615b3c6000830187613f88565b615b496020830186613f88565b615b56604083018561401e565b8181036060830152615b688184615aee565b905095945050505050565b600081519050615b8281613da9565b92915050565b600060208284031215615b9e57615b9d613d73565b5b6000615bac84828501615b73565b91505092915050565b6000615bc082613ef3565b9150615bcb83613ef3565b925082615bdb57615bda614d6b565b5b828206905092915050565b7f4e487b7100000000000000000000000000000000000000000000000000000000600052603160045260246000fd5b7f4552433732313a206d696e7420746f20746865207a65726f2061646472657373600082015250565b6000615c4b602083613e43565b9150615c5682615c15565b602082019050919050565b60006020820190508181036000830152615c7a81615c3e565b9050919050565b7f4552433732313a20746f6b656e20616c7265616479206d696e74656400000000600082015250565b6000615cb7601c83613e43565b9150615cc282615c81565b602082019050919050565b60006020820190508181036000830152615ce681615caa565b905091905056fea26469706673582212208548bd0953a9c70918eba58ad69c5de47cb891d15e8eff1f4e006b34cc47e9db64736f6c634300080d0033",
  "immutableReferences": {},
  "source": "// SPDX-License-Identifier: MIT\npragma solidity >=0.4.22 <0.9.0;\n\nimport \"@openzeppelin/contracts/token/ERC721/extensions/ERC721URIStorage.sol\";\nimport \"@openzeppelin/contracts/utils/Counters.sol\";\nimport \"@openzeppelin/contracts/access/Ownable.sol\";\n\ncontract NftMarket is ERC721URIStorage, Ownable {\n    using Counters for Counters.Counter;\n\n    struct NftItem {\n        uint tokenId;\n        uint price;\n        address creator;\n        bool isListed;\n        bool isSold;\n    }\n\n    struct RoyaltyInfo {\n        address recipient;\n        uint256 amount;\n    }\n\n    mapping(uint256 => RoyaltyInfo) royaltyPerTokenId;\n\n    //Interface for royalties\n    bytes4 private constant _INTERFACE_ID_ERC2981 = 0x2a55205a;\n\n    string public baseTokenURI;\n\n    uint public listingPrice = 0.025 ether;\n\n    Counters.Counter private _listedItems;\n    Counters.Counter private _tokenIds;\n\n    mapping(string => bool) private _usedTokenURIs;\n    mapping(uint => NftItem) private _idToNftItem;\n\n    mapping(address => mapping(uint => uint)) private _ownedTokens;\n    mapping(uint => uint) private _idToOwnedIndex;\n\n    uint256[] private _allNfts;\n    mapping(uint => uint) private _idToNftIndex;\n\n    event NftItemCreated (\n        uint tokenId,\n        uint price,\n        address creator,\n        bool isListed,\n        bool isSold\n    );\n    event NftBought (\n        uint tokenId,\n        uint price,\n        uint royaltyAmount,\n        address previousOwner,\n        address owner,\n        uint boughtAt\n    );\n    event TokenIsMinted (\n        uint tokenId,\n        address creator,\n        string tokenURI,\n        uint mintedAt\n    );\n\n    event RoyaltyAmountSent (\n        address receiver,\n        uint tokenId,\n        uint royaltyAmount\n    );\n\n    //amount of mints that each address has executed.\n    mapping(address => uint256) public mintsPerAddress;\n\n    constructor() ERC721(\"PumpkinNFT\", \"PNFT\") {}\n\n    //ensure that modified function cannot be called by another contract\n    modifier callerIsUser() {\n        require(tx.origin == msg.sender, \"The caller is another contract\");\n        _;\n    }\n\n\n    function setListingPrice(uint newPrice) external onlyOwner {\n        require(newPrice > 0, \"Price must be at least 1 wei\");\n        listingPrice = newPrice;\n    }\n\n    function getNftItem(uint tokenId) public view returns (NftItem memory) {\n        return _idToNftItem[tokenId];\n    }\n\n    function listedItemsCount() public view returns (uint) {\n        return _listedItems.current();\n    }\n\n    function tokenURIExists(string memory tokenURI) public view returns (bool) {\n        return _usedTokenURIs[tokenURI] == true;\n    }\n\n    function totalSupply() public view returns (uint) {\n        return _allNfts.length;\n    }\n\n    function tokenByIndex(uint index) public view returns (uint) {\n        require(index < totalSupply(), \"Index out of bounds\");\n        return _allNfts[index];\n    }\n\n    function tokenOfOwnerByIndex(address owner, uint index) public view returns (uint) {\n        require(index < ERC721.balanceOf(owner), \"Index out of bounds\");\n        return _ownedTokens[owner][index];\n    }\n\n    function getAllNftsOnSale() public view returns (NftItem[] memory) {\n        uint allItemsCounts = totalSupply();\n        uint currentIndex = 0;\n        NftItem[] memory items = new NftItem[](_listedItems.current());\n\n        for (uint i = 0; i < allItemsCounts; i++) {\n            uint tokenId = tokenByIndex(i);\n            NftItem storage item = _idToNftItem[tokenId];\n\n            if (item.isListed == true) {\n                items[currentIndex] = item;\n                currentIndex += 1;\n            }\n        }\n\n        return items;\n    }\n\n\n\n    function getOwnedNfts() public view returns (NftItem[] memory) {\n        uint ownedItemsCount = ERC721.balanceOf(msg.sender);\n        NftItem[] memory items = new NftItem[](ownedItemsCount);\n\n        for (uint i = 0; i < ownedItemsCount; i++) {\n            uint tokenId = tokenOfOwnerByIndex(msg.sender, i);\n            NftItem storage item = _idToNftItem[tokenId];\n            items[i] = item;\n        }\n\n        return items;\n    }\n\n    function mintToken(string memory tokenURI, uint price, uint96 royalty) public payable returns (uint) {\n        require(!tokenURIExists(tokenURI), \"Token URI already exists\");\n        require(msg.value == listingPrice, \"Price must be equal to listing price\");\n        mintsPerAddress[msg.sender] += _tokenIds.current();\n        _tokenIds.increment();\n        _listedItems.increment();\n\n        uint newTokenId = _tokenIds.current();\n        _idToNftItem[newTokenId].isSold = false;\n        if (royalty != 0) {\n\n            _safeMint(msg.sender, newTokenId);\n            _setTokenURI(newTokenId, tokenURI);\n            _createNftItem(newTokenId, price);\n            setRoyalties(msg.sender, royalty, newTokenId);\n            _usedTokenURIs[tokenURI] = true;\n\n        } else {\n            _safeMint(msg.sender, newTokenId);\n            _setTokenURI(newTokenId, tokenURI);\n            _createNftItem(newTokenId, price);\n            _usedTokenURIs[tokenURI] = true;\n        }\n        uint mintedAt = block.timestamp;\n        emit TokenIsMinted(newTokenId, msg.sender, tokenURI, mintedAt);\n        return newTokenId;\n    }\n\n\n\n    //interface for royalties\n    function supportsInterface(bytes4 interfaceId) public view override(ERC721) returns (bool){\n        return interfaceId == _INTERFACE_ID_ERC2981 || super.supportsInterface(interfaceId);\n    }\n\n    function setRoyalties(address recipient, uint256 value, uint256 tokenId) public {\n        require(value <= 100, 'ERC2981Royalties: Too high');\n        royaltyPerTokenId[tokenId] = RoyaltyInfo(recipient, value);\n    }\n\n    function royaltyInfo(uint256 tokenId, uint256 value) external view returns (address receiver, uint256 royaltyAmount)\n    {\n        RoyaltyInfo memory royalties = royaltyPerTokenId[tokenId];\n        receiver = royalties.recipient;\n        royaltyAmount = (value * royalties.amount) / 100;\n    }\n\n    function getRoyaltyPerTokenId(uint256 tokenId) public view returns (RoyaltyInfo memory){\n        return royaltyPerTokenId[tokenId];\n    }\n\n    function changeRoyaltyPerTokenId(uint256 tokenId, uint96 royalty) public {\n        royaltyPerTokenId[tokenId].amount = royalty;\n    }\n\n    //fallback receive function\n    receive() external payable {\n        revert();\n    }\n\n    function _sentRoyaltyAmount(address creator, uint256 amount) private {\n        payable(creator).transfer(amount);\n    }\n\n    function buyNft(\n        uint tokenId\n    ) public payable {\n        uint price = _idToNftItem[tokenId].price;\n        address owner = ERC721.ownerOf(tokenId);\n        require(msg.sender != owner, \"You already own this NFT\");\n        require(msg.value == price, \"Please submit the asking price\");\n\n        RoyaltyInfo memory royalties = royaltyPerTokenId[tokenId];\n        address creator = royalties.recipient;\n        uint256 royaltyAmount = (msg.value * royalties.amount) / 100;\n        _transfer(owner, msg.sender, tokenId);\n\n        if (_idToNftItem[tokenId].isSold) {\n            payable(owner).transfer(msg.value - royaltyAmount);\n            _sentRoyaltyAmount(creator, royaltyAmount);\n            emit RoyaltyAmountSent(creator, tokenId, royaltyAmount);\n        } else {\n            uint priceWithRoyalty = _idToNftItem[tokenId].price + royaltyAmount;\n            _idToNftItem[tokenId].price = priceWithRoyalty;\n            payable(owner).transfer(msg.value);\n        }\n\n        _listedItems.decrement();\n        _idToNftItem[tokenId].isListed = false;\n        _idToNftItem[tokenId].isSold = true;\n        uint boughtAt = block.timestamp;\n\n        emit NftBought(tokenId, msg.value, royaltyAmount, owner, msg.sender, boughtAt);\n    }\n\n    //Withdraw money in contract to Owner\n    function withdraw() external onlyOwner {\n        uint256 balance = address(this).balance;\n        require(balance > 0, \"No ether left to withdraw\");\n        (bool success,) = payable(owner()).call{value : balance}(\"\");\n        require(success, \"Transfer failed.\");\n    }\n\n    function placeNftOnSale(uint tokenId, uint newPrice) public payable {\n        require(ERC721.ownerOf(tokenId) == msg.sender, \"You are not owner of this nft\");\n        require(_idToNftItem[tokenId].isListed == false, \"Item is already on sale\");\n        require(msg.value == listingPrice, \"Price must be equal to listing price\");\n\n        _idToNftItem[tokenId].isListed = true;\n        _idToNftItem[tokenId].price = newPrice;\n        _listedItems.increment();\n    }\n\n\n    function removeNftFromSale(uint tokenId) public {\n        require(ERC721.ownerOf(tokenId) == msg.sender, \"You are not owner of this nft\");\n        require(_idToNftItem[tokenId].isListed == true, \"Item is already removed from sale\");\n        _idToNftItem[tokenId].isListed = false;\n        _listedItems.decrement();\n    }\n\n    function setNewPrice(uint tokenId, uint price) public {\n        require(ERC721.ownerOf(tokenId) == msg.sender, \"You are not owner of this nft\");\n        RoyaltyInfo memory royalties = royaltyPerTokenId[tokenId];\n        uint256 royaltyAmount = (price * royalties.amount) / 100;\n        if (_idToNftItem[tokenId].isSold) {\n            _idToNftItem[tokenId].price = price + royaltyAmount;\n        } else {\n            _idToNftItem[tokenId].price = price;\n        }\n\n    }\n\n    function _createNftItem(\n        uint tokenId,\n        uint price\n    ) private {\n        require(price > 0, \"Price must be at least 1 wei\");\n\n        _idToNftItem[tokenId] = NftItem(\n            tokenId,\n            price,\n            msg.sender,\n            true,\n            false\n        );\n        emit NftItemCreated(tokenId, price, msg.sender, true, false);\n    }\n\n    function _beforeTokenTransfer(\n        address from,\n        address to,\n        uint tokenId\n    ) internal virtual override {\n        super._beforeTokenTransfer(from, to, tokenId);\n\n        if (from == address(0)) {\n            _addTokenToAllTokensEnumeration(tokenId);\n        } else if (from != to) {\n            _removeTokenFromOwnerEnumeration(from, tokenId);\n        }\n\n        if (to == address(0)) {\n            _removeTokenFromAllTokensEnumeration(tokenId);\n        } else if (to != from) {\n            _addTokenToOwnerEnumeration(to, tokenId);\n        }\n    }\n\n    function _addTokenToAllTokensEnumeration(uint tokenId) private {\n        _idToNftIndex[tokenId] = _allNfts.length;\n        _allNfts.push(tokenId);\n    }\n\n    function _addTokenToOwnerEnumeration(address to, uint tokenId) private {\n        uint length = ERC721.balanceOf(to);\n        _ownedTokens[to][length] = tokenId;\n        _idToOwnedIndex[tokenId] = length;\n    }\n\n    function _removeTokenFromOwnerEnumeration(address from, uint tokenId) private {\n        uint lastTokenIndex = ERC721.balanceOf(from) - 1;\n        uint tokenIndex = _idToOwnedIndex[tokenId];\n\n        if (tokenIndex != lastTokenIndex) {\n            uint lastTokenId = _ownedTokens[from][lastTokenIndex];\n\n            _ownedTokens[from][tokenIndex] = lastTokenId;\n            _idToOwnedIndex[lastTokenId] = tokenIndex;\n        }\n\n        delete _idToOwnedIndex[tokenId];\n        delete _ownedTokens[from][lastTokenIndex];\n    }\n\n    function _removeTokenFromAllTokensEnumeration(uint tokenId) private {\n        uint lastTokenIndex = _allNfts.length - 1;\n        uint tokenIndex = _idToNftIndex[tokenId];\n        uint lastTokenId = _allNfts[lastTokenIndex];\n\n        _allNfts[tokenIndex] = lastTokenId;\n        _idToNftIndex[lastTokenId] = tokenIndex;\n\n        delete _idToNftIndex[tokenId];\n        _allNfts.pop();\n    }\n}\n",
  "sourcePath": "/home/igor/11_Ethereum/nft-marketplace-first/contracts/NftMarket.sol",
  "compiler": {
    "name": "solc",
    "version": "0.8.13+commit.abaa5c0e.Emscripten.clang"
  },
  "schemaVersion": "3.4.9",
  "updatedAt": "2023-01-27T10:37:38.283Z",
  "networkType": "ethereum",
  "devdoc": {
    "kind": "dev",
    "methods": {
      "approve(address,uint256)": {
        "details": "See {IERC721-approve}."
      },
      "balanceOf(address)": {
        "details": "See {IERC721-balanceOf}."
      },
      "getApproved(uint256)": {
        "details": "See {IERC721-getApproved}."
      },
      "isApprovedForAll(address,address)": {
        "details": "See {IERC721-isApprovedForAll}."
      },
      "name()": {
        "details": "See {IERC721Metadata-name}."
      },
      "owner()": {
        "details": "Returns the address of the current owner."
      },
      "ownerOf(uint256)": {
        "details": "See {IERC721-ownerOf}."
      },
      "renounceOwnership()": {
        "details": "Leaves the contract without owner. It will not be possible to call `onlyOwner` functions anymore. Can only be called by the current owner. NOTE: Renouncing ownership will leave the contract without an owner, thereby removing any functionality that is only available to the owner."
      },
      "safeTransferFrom(address,address,uint256)": {
        "details": "See {IERC721-safeTransferFrom}."
      },
      "safeTransferFrom(address,address,uint256,bytes)": {
        "details": "See {IERC721-safeTransferFrom}."
      },
      "setApprovalForAll(address,bool)": {
        "details": "See {IERC721-setApprovalForAll}."
      },
      "supportsInterface(bytes4)": {
        "details": "See {IERC165-supportsInterface}."
      },
      "symbol()": {
        "details": "See {IERC721Metadata-symbol}."
      },
      "tokenURI(uint256)": {
        "details": "See {IERC721Metadata-tokenURI}."
      },
      "transferFrom(address,address,uint256)": {
        "details": "See {IERC721-transferFrom}."
      },
      "transferOwnership(address)": {
        "details": "Transfers ownership of the contract to a new account (`newOwner`). Can only be called by the current owner."
      }
    },
    "version": 1
  },
  "userdoc": {
    "kind": "user",
    "methods": {},
    "version": 1
  }
}