{
  "contractName": "NftMarket",
  "abi": [
    {
      "inputs": [],
      "stateMutability": "nonpayable",
      "type": "constructor"
    },
    {
      "anonymous": false,
      "inputs": [
        {
          "indexed": true,
          "internalType": "address",
          "name": "owner",
          "type": "address"
        },
        {
          "indexed": true,
          "internalType": "address",
          "name": "approved",
          "type": "address"
        },
        {
          "indexed": true,
          "internalType": "uint256",
          "name": "tokenId",
          "type": "uint256"
        }
      ],
      "name": "Approval",
      "type": "event"
    },
    {
      "anonymous": false,
      "inputs": [
        {
          "indexed": true,
          "internalType": "address",
          "name": "owner",
          "type": "address"
        },
        {
          "indexed": true,
          "internalType": "address",
          "name": "operator",
          "type": "address"
        },
        {
          "indexed": false,
          "internalType": "bool",
          "name": "approved",
          "type": "bool"
        }
      ],
      "name": "ApprovalForAll",
      "type": "event"
    },
    {
      "anonymous": false,
      "inputs": [
        {
          "indexed": false,
          "internalType": "uint256",
          "name": "tokenId",
          "type": "uint256"
        },
        {
          "indexed": false,
          "internalType": "uint256",
          "name": "price",
          "type": "uint256"
        },
        {
          "indexed": false,
          "internalType": "uint256",
          "name": "royaltyAmount",
          "type": "uint256"
        },
        {
          "indexed": false,
          "internalType": "address",
          "name": "previousOwner",
          "type": "address"
        },
        {
          "indexed": false,
          "internalType": "address",
          "name": "owner",
          "type": "address"
        },
        {
          "indexed": false,
          "internalType": "uint256",
          "name": "boughtAt",
          "type": "uint256"
        }
      ],
      "name": "NftBought",
      "type": "event"
    },
    {
      "anonymous": false,
      "inputs": [
        {
          "indexed": false,
          "internalType": "uint256",
          "name": "tokenId",
          "type": "uint256"
        },
        {
          "indexed": false,
          "internalType": "uint256",
          "name": "price",
          "type": "uint256"
        },
        {
          "indexed": false,
          "internalType": "address",
          "name": "creator",
          "type": "address"
        },
        {
          "indexed": false,
          "internalType": "bool",
          "name": "isListed",
          "type": "bool"
        },
        {
          "indexed": false,
          "internalType": "bool",
          "name": "isSold",
          "type": "bool"
        }
      ],
      "name": "NftItemCreated",
      "type": "event"
    },
    {
      "anonymous": false,
      "inputs": [
        {
          "indexed": true,
          "internalType": "address",
          "name": "previousOwner",
          "type": "address"
        },
        {
          "indexed": true,
          "internalType": "address",
          "name": "newOwner",
          "type": "address"
        }
      ],
      "name": "OwnershipTransferred",
      "type": "event"
    },
    {
      "anonymous": false,
      "inputs": [
        {
          "indexed": false,
          "internalType": "address",
          "name": "receiver",
          "type": "address"
        },
        {
          "indexed": false,
          "internalType": "uint256",
          "name": "tokenId",
          "type": "uint256"
        },
        {
          "indexed": false,
          "internalType": "uint256",
          "name": "royaltyAmount",
          "type": "uint256"
        }
      ],
      "name": "RoyaltyAmountSent",
      "type": "event"
    },
    {
      "anonymous": false,
      "inputs": [
        {
          "indexed": false,
          "internalType": "uint256",
          "name": "tokenId",
          "type": "uint256"
        },
        {
          "indexed": false,
          "internalType": "address",
          "name": "creator",
          "type": "address"
        },
        {
          "indexed": false,
          "internalType": "string",
          "name": "tokenURI",
          "type": "string"
        },
        {
          "indexed": false,
          "internalType": "string",
          "name": "nftName",
          "type": "string"
        },
        {
          "indexed": false,
          "internalType": "uint256",
          "name": "mintedAt",
          "type": "uint256"
        }
      ],
      "name": "TokenIsMinted",
      "type": "event"
    },
    {
      "anonymous": false,
      "inputs": [
        {
          "indexed": true,
          "internalType": "address",
          "name": "from",
          "type": "address"
        },
        {
          "indexed": true,
          "internalType": "address",
          "name": "to",
          "type": "address"
        },
        {
          "indexed": true,
          "internalType": "uint256",
          "name": "tokenId",
          "type": "uint256"
        }
      ],
      "name": "Transfer",
      "type": "event"
    },
    {
      "inputs": [
        {
          "internalType": "address",
          "name": "to",
          "type": "address"
        },
        {
          "internalType": "uint256",
          "name": "tokenId",
          "type": "uint256"
        }
      ],
      "name": "approve",
      "outputs": [],
      "stateMutability": "nonpayable",
      "type": "function"
    },
    {
      "inputs": [
        {
          "internalType": "address",
          "name": "owner",
          "type": "address"
        }
      ],
      "name": "balanceOf",
      "outputs": [
        {
          "internalType": "uint256",
          "name": "",
          "type": "uint256"
        }
      ],
      "stateMutability": "view",
      "type": "function",
      "constant": true
    },
    {
      "inputs": [],
      "name": "baseTokenURI",
      "outputs": [
        {
          "internalType": "string",
          "name": "",
          "type": "string"
        }
      ],
      "stateMutability": "view",
      "type": "function",
      "constant": true
    },
    {
      "inputs": [
        {
          "internalType": "uint256",
          "name": "tokenId",
          "type": "uint256"
        }
      ],
      "name": "getApproved",
      "outputs": [
        {
          "internalType": "address",
          "name": "",
          "type": "address"
        }
      ],
      "stateMutability": "view",
      "type": "function",
      "constant": true
    },
    {
      "inputs": [
        {
          "internalType": "address",
          "name": "owner",
          "type": "address"
        },
        {
          "internalType": "address",
          "name": "operator",
          "type": "address"
        }
      ],
      "name": "isApprovedForAll",
      "outputs": [
        {
          "internalType": "bool",
          "name": "",
          "type": "bool"
        }
      ],
      "stateMutability": "view",
      "type": "function",
      "constant": true
    },
    {
      "inputs": [],
      "name": "listingPrice",
      "outputs": [
        {
          "internalType": "uint256",
          "name": "",
          "type": "uint256"
        }
      ],
      "stateMutability": "view",
      "type": "function",
      "constant": true
    },
    {
      "inputs": [
        {
          "internalType": "address",
          "name": "",
          "type": "address"
        }
      ],
      "name": "mintsPerAddress",
      "outputs": [
        {
          "internalType": "uint256",
          "name": "",
          "type": "uint256"
        }
      ],
      "stateMutability": "view",
      "type": "function",
      "constant": true
    },
    {
      "inputs": [],
      "name": "name",
      "outputs": [
        {
          "internalType": "string",
          "name": "",
          "type": "string"
        }
      ],
      "stateMutability": "view",
      "type": "function",
      "constant": true
    },
    {
      "inputs": [],
      "name": "owner",
      "outputs": [
        {
          "internalType": "address",
          "name": "",
          "type": "address"
        }
      ],
      "stateMutability": "view",
      "type": "function",
      "constant": true
    },
    {
      "inputs": [
        {
          "internalType": "uint256",
          "name": "tokenId",
          "type": "uint256"
        }
      ],
      "name": "ownerOf",
      "outputs": [
        {
          "internalType": "address",
          "name": "",
          "type": "address"
        }
      ],
      "stateMutability": "view",
      "type": "function",
      "constant": true
    },
    {
      "inputs": [],
      "name": "renounceOwnership",
      "outputs": [],
      "stateMutability": "nonpayable",
      "type": "function"
    },
    {
      "inputs": [
        {
          "internalType": "address",
          "name": "from",
          "type": "address"
        },
        {
          "internalType": "address",
          "name": "to",
          "type": "address"
        },
        {
          "internalType": "uint256",
          "name": "tokenId",
          "type": "uint256"
        }
      ],
      "name": "safeTransferFrom",
      "outputs": [],
      "stateMutability": "nonpayable",
      "type": "function"
    },
    {
      "inputs": [
        {
          "internalType": "address",
          "name": "from",
          "type": "address"
        },
        {
          "internalType": "address",
          "name": "to",
          "type": "address"
        },
        {
          "internalType": "uint256",
          "name": "tokenId",
          "type": "uint256"
        },
        {
          "internalType": "bytes",
          "name": "_data",
          "type": "bytes"
        }
      ],
      "name": "safeTransferFrom",
      "outputs": [],
      "stateMutability": "nonpayable",
      "type": "function"
    },
    {
      "inputs": [
        {
          "internalType": "address",
          "name": "operator",
          "type": "address"
        },
        {
          "internalType": "bool",
          "name": "approved",
          "type": "bool"
        }
      ],
      "name": "setApprovalForAll",
      "outputs": [],
      "stateMutability": "nonpayable",
      "type": "function"
    },
    {
      "inputs": [],
      "name": "symbol",
      "outputs": [
        {
          "internalType": "string",
          "name": "",
          "type": "string"
        }
      ],
      "stateMutability": "view",
      "type": "function",
      "constant": true
    },
    {
      "inputs": [
        {
          "internalType": "uint256",
          "name": "tokenId",
          "type": "uint256"
        }
      ],
      "name": "tokenURI",
      "outputs": [
        {
          "internalType": "string",
          "name": "",
          "type": "string"
        }
      ],
      "stateMutability": "view",
      "type": "function",
      "constant": true
    },
    {
      "inputs": [
        {
          "internalType": "address",
          "name": "from",
          "type": "address"
        },
        {
          "internalType": "address",
          "name": "to",
          "type": "address"
        },
        {
          "internalType": "uint256",
          "name": "tokenId",
          "type": "uint256"
        }
      ],
      "name": "transferFrom",
      "outputs": [],
      "stateMutability": "nonpayable",
      "type": "function"
    },
    {
      "inputs": [
        {
          "internalType": "address",
          "name": "newOwner",
          "type": "address"
        }
      ],
      "name": "transferOwnership",
      "outputs": [],
      "stateMutability": "nonpayable",
      "type": "function"
    },
    {
      "stateMutability": "payable",
      "type": "receive",
      "payable": true
    },
    {
      "inputs": [
        {
          "internalType": "uint256",
          "name": "newPrice",
          "type": "uint256"
        }
      ],
      "name": "setListingPrice",
      "outputs": [],
      "stateMutability": "nonpayable",
      "type": "function"
    },
    {
      "inputs": [
        {
          "internalType": "uint256",
          "name": "tokenId",
          "type": "uint256"
        }
      ],
      "name": "getNftItem",
      "outputs": [
        {
          "components": [
            {
              "internalType": "uint256",
              "name": "tokenId",
              "type": "uint256"
            },
            {
              "internalType": "uint256",
              "name": "price",
              "type": "uint256"
            },
            {
              "internalType": "address",
              "name": "creator",
              "type": "address"
            },
            {
              "internalType": "bool",
              "name": "isListed",
              "type": "bool"
            },
            {
              "internalType": "bool",
              "name": "isSold",
              "type": "bool"
            }
          ],
          "internalType": "struct NftMarket.NftItem",
          "name": "",
          "type": "tuple"
        }
      ],
      "stateMutability": "view",
      "type": "function",
      "constant": true
    },
    {
      "inputs": [],
      "name": "listedItemsCount",
      "outputs": [
        {
          "internalType": "uint256",
          "name": "",
          "type": "uint256"
        }
      ],
      "stateMutability": "view",
      "type": "function",
      "constant": true
    },
    {
      "inputs": [
        {
          "internalType": "string",
          "name": "tokenURI",
          "type": "string"
        }
      ],
      "name": "tokenURIExists",
      "outputs": [
        {
          "internalType": "bool",
          "name": "",
          "type": "bool"
        }
      ],
      "stateMutability": "view",
      "type": "function",
      "constant": true
    },
    {
      "inputs": [],
      "name": "totalSupply",
      "outputs": [
        {
          "internalType": "uint256",
          "name": "",
          "type": "uint256"
        }
      ],
      "stateMutability": "view",
      "type": "function",
      "constant": true
    },
    {
      "inputs": [
        {
          "internalType": "uint256",
          "name": "index",
          "type": "uint256"
        }
      ],
      "name": "tokenByIndex",
      "outputs": [
        {
          "internalType": "uint256",
          "name": "",
          "type": "uint256"
        }
      ],
      "stateMutability": "view",
      "type": "function",
      "constant": true
    },
    {
      "inputs": [
        {
          "internalType": "address",
          "name": "owner",
          "type": "address"
        },
        {
          "internalType": "uint256",
          "name": "index",
          "type": "uint256"
        }
      ],
      "name": "tokenOfOwnerByIndex",
      "outputs": [
        {
          "internalType": "uint256",
          "name": "",
          "type": "uint256"
        }
      ],
      "stateMutability": "view",
      "type": "function",
      "constant": true
    },
    {
      "inputs": [],
      "name": "getAllNftsOnSale",
      "outputs": [
        {
          "components": [
            {
              "internalType": "uint256",
              "name": "tokenId",
              "type": "uint256"
            },
            {
              "internalType": "uint256",
              "name": "price",
              "type": "uint256"
            },
            {
              "internalType": "address",
              "name": "creator",
              "type": "address"
            },
            {
              "internalType": "bool",
              "name": "isListed",
              "type": "bool"
            },
            {
              "internalType": "bool",
              "name": "isSold",
              "type": "bool"
            }
          ],
          "internalType": "struct NftMarket.NftItem[]",
          "name": "",
          "type": "tuple[]"
        }
      ],
      "stateMutability": "view",
      "type": "function",
      "constant": true
    },
    {
      "inputs": [],
      "name": "getOwnedNfts",
      "outputs": [
        {
          "components": [
            {
              "internalType": "uint256",
              "name": "tokenId",
              "type": "uint256"
            },
            {
              "internalType": "uint256",
              "name": "price",
              "type": "uint256"
            },
            {
              "internalType": "address",
              "name": "creator",
              "type": "address"
            },
            {
              "internalType": "bool",
              "name": "isListed",
              "type": "bool"
            },
            {
              "internalType": "bool",
              "name": "isSold",
              "type": "bool"
            }
          ],
          "internalType": "struct NftMarket.NftItem[]",
          "name": "",
          "type": "tuple[]"
        }
      ],
      "stateMutability": "view",
      "type": "function",
      "constant": true
    },
    {
      "inputs": [
        {
          "internalType": "string",
          "name": "tokenURI",
          "type": "string"
        },
        {
          "internalType": "string",
          "name": "nftName",
          "type": "string"
        },
        {
          "internalType": "uint256",
          "name": "price",
          "type": "uint256"
        },
        {
          "internalType": "uint96",
          "name": "royalty",
          "type": "uint96"
        }
      ],
      "name": "mintToken",
      "outputs": [
        {
          "internalType": "uint256",
          "name": "",
          "type": "uint256"
        }
      ],
      "stateMutability": "payable",
      "type": "function",
      "payable": true
    },
    {
      "inputs": [
        {
          "internalType": "bytes4",
          "name": "interfaceId",
          "type": "bytes4"
        }
      ],
      "name": "supportsInterface",
      "outputs": [
        {
          "internalType": "bool",
          "name": "",
          "type": "bool"
        }
      ],
      "stateMutability": "view",
      "type": "function",
      "constant": true
    },
    {
      "inputs": [
        {
          "internalType": "address",
          "name": "recipient",
          "type": "address"
        },
        {
          "internalType": "uint256",
          "name": "value",
          "type": "uint256"
        },
        {
          "internalType": "uint256",
          "name": "tokenId",
          "type": "uint256"
        }
      ],
      "name": "setRoyalties",
      "outputs": [],
      "stateMutability": "nonpayable",
      "type": "function"
    },
    {
      "inputs": [
        {
          "internalType": "uint256",
          "name": "tokenId",
          "type": "uint256"
        },
        {
          "internalType": "uint256",
          "name": "value",
          "type": "uint256"
        }
      ],
      "name": "royaltyInfo",
      "outputs": [
        {
          "internalType": "address",
          "name": "receiver",
          "type": "address"
        },
        {
          "internalType": "uint256",
          "name": "royaltyAmount",
          "type": "uint256"
        }
      ],
      "stateMutability": "view",
      "type": "function",
      "constant": true
    },
    {
      "inputs": [
        {
          "internalType": "uint256",
          "name": "tokenId",
          "type": "uint256"
        }
      ],
      "name": "getRoyaltyPerTokenId",
      "outputs": [
        {
          "components": [
            {
              "internalType": "address",
              "name": "recipient",
              "type": "address"
            },
            {
              "internalType": "uint256",
              "name": "amount",
              "type": "uint256"
            }
          ],
          "internalType": "struct NftMarket.RoyaltyInfo",
          "name": "",
          "type": "tuple"
        }
      ],
      "stateMutability": "view",
      "type": "function",
      "constant": true
    },
    {
      "inputs": [
        {
          "internalType": "uint256",
          "name": "tokenId",
          "type": "uint256"
        },
        {
          "internalType": "uint96",
          "name": "royalty",
          "type": "uint96"
        }
      ],
      "name": "changeRoyaltyPerTokenId",
      "outputs": [],
      "stateMutability": "nonpayable",
      "type": "function"
    },
    {
      "inputs": [
        {
          "internalType": "uint256",
          "name": "tokenId",
          "type": "uint256"
        }
      ],
      "name": "buyNft",
      "outputs": [],
      "stateMutability": "payable",
      "type": "function",
      "payable": true
    },
    {
      "inputs": [],
      "name": "withdraw",
      "outputs": [],
      "stateMutability": "nonpayable",
      "type": "function"
    },
    {
      "inputs": [
        {
          "internalType": "uint256",
          "name": "tokenId",
          "type": "uint256"
        },
        {
          "internalType": "uint256",
          "name": "newPrice",
          "type": "uint256"
        }
      ],
      "name": "placeNftOnSale",
      "outputs": [],
      "stateMutability": "payable",
      "type": "function",
      "payable": true
    },
    {
      "inputs": [
        {
          "internalType": "uint256",
          "name": "tokenId",
          "type": "uint256"
        }
      ],
      "name": "removeNftFromSale",
      "outputs": [],
      "stateMutability": "nonpayable",
      "type": "function"
    },
    {
      "inputs": [
        {
          "internalType": "uint256",
          "name": "tokenId",
          "type": "uint256"
        },
        {
          "internalType": "uint256",
          "name": "price",
          "type": "uint256"
        }
      ],
      "name": "setNewPrice",
      "outputs": [],
      "stateMutability": "nonpayable",
      "type": "function"
    }
  ],
  "bytecode": "0x60806040526658d15e17628000600a553480156200001c57600080fd5b506040518060400160405280600a81526020017f50756d706b696e4e4654000000000000000000000000000000000000000000008152506040518060400160405280600481526020017f504e4654000000000000000000000000000000000000000000000000000000008152508160009080519060200190620000a1929190620001b1565b508060019080519060200190620000ba929190620001b1565b505050620000dd620000d1620000e360201b60201c565b620000eb60201b60201c565b620002c5565b600033905090565b6000600760009054906101000a900473ffffffffffffffffffffffffffffffffffffffff16905081600760006101000a81548173ffffffffffffffffffffffffffffffffffffffff021916908373ffffffffffffffffffffffffffffffffffffffff1602179055508173ffffffffffffffffffffffffffffffffffffffff168173ffffffffffffffffffffffffffffffffffffffff167f8be0079c531659141344cd1fd0a4f28419497f9722a3daafe3b4186f6b6457e060405160405180910390a35050565b828054620001bf9062000290565b90600052602060002090601f016020900481019282620001e357600085556200022f565b82601f10620001fe57805160ff19168380011785556200022f565b828001600101855582156200022f579182015b828111156200022e57825182559160200191906001019062000211565b5b5090506200023e919062000242565b5090565b5b808211156200025d57600081600090555060010162000243565b5090565b7f4e487b7100000000000000000000000000000000000000000000000000000000600052602260045260246000fd5b60006002820490506001821680620002a957607f821691505b602082108103620002bf57620002be62000261565b5b50919050565b615d6b80620002d56000396000f3fe6080604052600436106102295760003560e01c806370a0823111610123578063c4b3a2c5116100ab578063e23a60fe1161006f578063e23a60fe1461084d578063e78980d414610876578063e985e9c51461089f578063f0d2fad8146108dc578063f2fde38b1461090557610233565b8063c4b3a2c514610766578063c78f19f91461078f578063c87b56dd146107ba578063ccb4918d146107f7578063d547cfb71461082257610233565b806382366605116100f2578063823666051461068e5780638da5cb5b146106be57806395d89b41146106e9578063a22cb46514610714578063b88d4fde1461073d57610233565b806370a08231146105e657806370cbcb4314610623578063715018a61461064e5780637c726b691461066557610233565b80632f745c59116101b157806343d32ae71161017557806343d32ae7146104b55780634f6ccce7146104f25780635b6d9d3b1461052f5780636352211e1461056c5780636f1a0af5146105a957610233565b80632f745c59146103d05780633023eba61461040d57806336b536be1461044a5780633ccfd60b1461047557806342842e0e1461048c57610233565b806318160ddd116101f857806318160ddd1461030657806321f422e51461033157806323b872dd1461034d578063243adbdd146103765780632a55205a1461039257610233565b806301ffc9a71461023857806306fdde0314610275578063081812fc146102a0578063095ea7b3146102dd57610233565b3661023357600080fd5b600080fd5b34801561024457600080fd5b5061025f600480360381019061025a9190613dd8565b61092e565b60405161026c9190613e20565b60405180910390f35b34801561028157600080fd5b5061028a61098f565b6040516102979190613ed4565b60405180910390f35b3480156102ac57600080fd5b506102c760048036038101906102c29190613f2c565b610a21565b6040516102d49190613f9a565b60405180910390f35b3480156102e957600080fd5b5061030460048036038101906102ff9190613fe1565b610aa6565b005b34801561031257600080fd5b5061031b610bbd565b6040516103289190614030565b60405180910390f35b61034b6004803603810190610346919061404b565b610bca565b005b34801561035957600080fd5b50610374600480360381019061036f919061408b565b610d46565b005b610390600480360381019061038b9190613f2c565b610da6565b005b34801561039e57600080fd5b506103b960048036038101906103b4919061404b565b61113a565b6040516103c79291906140de565b60405180910390f35b3480156103dc57600080fd5b506103f760048036038101906103f29190613fe1565b6111ec565b6040516104049190614030565b60405180910390f35b34801561041957600080fd5b50610434600480360381019061042f9190614107565b611291565b6040516104419190614030565b60405180910390f35b34801561045657600080fd5b5061045f6112a9565b60405161046c9190614278565b60405180910390f35b34801561048157600080fd5b5061048a61145e565b005b34801561049857600080fd5b506104b360048036038101906104ae919061408b565b6115d9565b005b3480156104c157600080fd5b506104dc60048036038101906104d791906143cf565b6115f9565b6040516104e99190613e20565b60405180910390f35b3480156104fe57600080fd5b5061051960048036038101906105149190613f2c565b611635565b6040516105269190614030565b60405180910390f35b34801561053b57600080fd5b5061055660048036038101906105519190613f2c565b6116a6565b6040516105639190614447565b60405180910390f35b34801561057857600080fd5b50610593600480360381019061058e9190613f2c565b611733565b6040516105a09190613f9a565b60405180910390f35b3480156105b557600080fd5b506105d060048036038101906105cb9190613f2c565b6117e4565b6040516105dd91906144ca565b60405180910390f35b3480156105f257600080fd5b5061060d60048036038101906106089190614107565b6118b1565b60405161061a9190614030565b60405180910390f35b34801561062f57600080fd5b50610638611968565b6040516106459190614278565b60405180910390f35b34801561065a57600080fd5b50610663611ae7565b005b34801561067157600080fd5b5061068c60048036038101906106879190613f2c565b611b6f565b005b6106a860048036038101906106a39190614529565b611c38565b6040516106b59190614030565b60405180910390f35b3480156106ca57600080fd5b506106d3611ea7565b6040516106e09190613f9a565b60405180910390f35b3480156106f557600080fd5b506106fe611ed1565b60405161070b9190613ed4565b60405180910390f35b34801561072057600080fd5b5061073b600480360381019061073691906145f4565b611f63565b005b34801561074957600080fd5b50610764600480360381019061075f91906146d5565b611f79565b005b34801561077257600080fd5b5061078d60048036038101906107889190614758565b611fdb565b005b34801561079b57600080fd5b506107a46120b6565b6040516107b19190614030565b60405180910390f35b3480156107c657600080fd5b506107e160048036038101906107dc9190613f2c565b6120bc565b6040516107ee9190613ed4565b60405180910390f35b34801561080357600080fd5b5061080c61220d565b6040516108199190614030565b60405180910390f35b34801561082e57600080fd5b5061083761221e565b6040516108449190613ed4565b60405180910390f35b34801561085957600080fd5b50610874600480360381019061086f919061404b565b6122ac565b005b34801561088257600080fd5b5061089d600480360381019061089891906147ab565b61243a565b005b3480156108ab57600080fd5b506108c660048036038101906108c191906147eb565b612467565b6040516108d39190613e20565b60405180910390f35b3480156108e857600080fd5b5061090360048036038101906108fe9190613f2c565b6124fb565b005b34801561091157600080fd5b5061092c60048036038101906109279190614107565b612617565b005b6000632a55205a60e01b7bffffffffffffffffffffffffffffffffffffffffffffffffffffffff1916827bffffffffffffffffffffffffffffffffffffffffffffffffffffffff1916148061098857506109878261270e565b5b9050919050565b60606000805461099e9061485a565b80601f01602080910402602001604051908101604052809291908181526020018280546109ca9061485a565b8015610a175780601f106109ec57610100808354040283529160200191610a17565b820191906000526020600020905b8154815290600101906020018083116109fa57829003601f168201915b5050505050905090565b6000610a2c826127f0565b610a6b576040517f08c379a0000000000000000000000000000000000000000000000000000000008152600401610a62906148fd565b60405180910390fd5b6004600083815260200190815260200160002060009054906101000a900473ffffffffffffffffffffffffffffffffffffffff169050919050565b6000610ab182611733565b90508073ffffffffffffffffffffffffffffffffffffffff168373ffffffffffffffffffffffffffffffffffffffff1603610b21576040517f08c379a0000000000000000000000000000000000000000000000000000000008152600401610b189061498f565b60405180910390fd5b8073ffffffffffffffffffffffffffffffffffffffff16610b4061285c565b73ffffffffffffffffffffffffffffffffffffffff161480610b6f5750610b6e81610b6961285c565b612467565b5b610bae576040517f08c379a0000000000000000000000000000000000000000000000000000000008152600401610ba590614a21565b60405180910390fd5b610bb88383612864565b505050565b6000601180549050905090565b3373ffffffffffffffffffffffffffffffffffffffff16610bea83611733565b73ffffffffffffffffffffffffffffffffffffffff1614610c40576040517f08c379a0000000000000000000000000000000000000000000000000000000008152600401610c3790614a8d565b60405180910390fd5b60001515600e600084815260200190815260200160002060020160149054906101000a900460ff16151514610caa576040517f08c379a0000000000000000000000000000000000000000000000000000000008152600401610ca190614af9565b60405180910390fd5b600a543414610cee576040517f08c379a0000000000000000000000000000000000000000000000000000000008152600401610ce590614b8b565b60405180910390fd5b6001600e600084815260200190815260200160002060020160146101000a81548160ff02191690831515021790555080600e600084815260200190815260200160002060010181905550610d42600b61291d565b5050565b610d57610d5161285c565b82612933565b610d96576040517f08c379a0000000000000000000000000000000000000000000000000000000008152600401610d8d90614c1d565b60405180910390fd5b610da1838383612a11565b505050565b6000600e60008381526020019081526020016000206001015490506000610dcc83611733565b90508073ffffffffffffffffffffffffffffffffffffffff163373ffffffffffffffffffffffffffffffffffffffff1603610e3c576040517f08c379a0000000000000000000000000000000000000000000000000000000008152600401610e3390614c89565b60405180910390fd5b813414610e7e576040517f08c379a0000000000000000000000000000000000000000000000000000000008152600401610e7590614cf5565b60405180910390fd5b6000600860008581526020019081526020016000206040518060400160405290816000820160009054906101000a900473ffffffffffffffffffffffffffffffffffffffff1673ffffffffffffffffffffffffffffffffffffffff1673ffffffffffffffffffffffffffffffffffffffff168152602001600182015481525050905060008160000151905060006064836020015134610f1d9190614d44565b610f279190614dcd565b9050610f34843388612a11565b600e600087815260200190815260200160002060020160159054906101000a900460ff1615610ff9578373ffffffffffffffffffffffffffffffffffffffff166108fc8234610f839190614dfe565b9081150290604051600060405180830381858888f19350505050158015610fae573d6000803e3d6000fd5b50610fb98282612c77565b7fda09752ee9c059f617067751244dd0c7878c482a696ca05394dfa1c337e52a82828783604051610fec93929190614e32565b60405180910390a1611083565b600081600e60008981526020019081526020016000206001015461101d9190614e69565b905080600e6000898152602001908152602001600020600101819055508473ffffffffffffffffffffffffffffffffffffffff166108fc349081150290604051600060405180830381858888f19350505050158015611080573d6000803e3d6000fd5b50505b61108d600b612cc2565b6000600e600088815260200190815260200160002060020160146101000a81548160ff0219169083151502179055506001600e600088815260200190815260200160002060020160156101000a81548160ff02191690831515021790555060004290507f05649df894b86488ddb70529d1581119a112590a5a13945e9ebd978ea9d4647387348488338660405161112996959493929190614ebf565b60405180910390a150505050505050565b6000806000600860008681526020019081526020016000206040518060400160405290816000820160009054906101000a900473ffffffffffffffffffffffffffffffffffffffff1673ffffffffffffffffffffffffffffffffffffffff1673ffffffffffffffffffffffffffffffffffffffff16815260200160018201548152505090508060000151925060648160200151856111d89190614d44565b6111e29190614dcd565b9150509250929050565b60006111f7836118b1565b8210611238576040517f08c379a000000000000000000000000000000000000000000000000000000000815260040161122f90614f6c565b60405180910390fd5b600f60008473ffffffffffffffffffffffffffffffffffffffff1673ffffffffffffffffffffffffffffffffffffffff168152602001908152602001600020600083815260200190815260200160002054905092915050565b60136020528060005260406000206000915090505481565b606060006112b5610bbd565b90506000806112c4600b612d1e565b67ffffffffffffffff8111156112dd576112dc6142a4565b5b60405190808252806020026020018201604052801561131657816020015b611303613c50565b8152602001906001900390816112fb5790505b50905060005b8381101561145457600061132f82611635565b90506000600e60008381526020019081526020016000209050600115158160020160149054906101000a900460ff1615150361143f57806040518060a001604052908160008201548152602001600182015481526020016002820160009054906101000a900473ffffffffffffffffffffffffffffffffffffffff1673ffffffffffffffffffffffffffffffffffffffff1673ffffffffffffffffffffffffffffffffffffffff1681526020016002820160149054906101000a900460ff161515151581526020016002820160159054906101000a900460ff16151515158152505084868151811061142457611423614f8c565b5b602002602001018190525060018561143c9190614e69565b94505b5050808061144c90614fbb565b91505061131c565b5080935050505090565b61146661285c565b73ffffffffffffffffffffffffffffffffffffffff16611484611ea7565b73ffffffffffffffffffffffffffffffffffffffff16146114da576040517f08c379a00000000000000000000000000000000000000000000000000000000081526004016114d19061504f565b60405180910390fd5b600047905060008111611522576040517f08c379a0000000000000000000000000000000000000000000000000000000008152600401611519906150bb565b60405180910390fd5b600061152c611ea7565b73ffffffffffffffffffffffffffffffffffffffff168260405161154f9061510c565b60006040518083038185875af1925050503d806000811461158c576040519150601f19603f3d011682016040523d82523d6000602084013e611591565b606091505b50509050806115d5576040517f08c379a00000000000000000000000000000000000000000000000000000000081526004016115cc9061516d565b60405180910390fd5b5050565b6115f483838360405180602001604052806000815250611f79565b505050565b600060011515600d8360405161160f91906151c9565b908152602001604051809103902060009054906101000a900460ff161515149050919050565b600061163f610bbd565b8210611680576040517f08c379a000000000000000000000000000000000000000000000000000000000815260040161167790614f6c565b60405180910390fd5b6011828154811061169457611693614f8c565b5b90600052602060002001549050919050565b6116ae613c99565b600860008381526020019081526020016000206040518060400160405290816000820160009054906101000a900473ffffffffffffffffffffffffffffffffffffffff1673ffffffffffffffffffffffffffffffffffffffff1673ffffffffffffffffffffffffffffffffffffffff1681526020016001820154815250509050919050565b6000806002600084815260200190815260200160002060009054906101000a900473ffffffffffffffffffffffffffffffffffffffff169050600073ffffffffffffffffffffffffffffffffffffffff168173ffffffffffffffffffffffffffffffffffffffff16036117db576040517f08c379a00000000000000000000000000000000000000000000000000000000081526004016117d290615252565b60405180910390fd5b80915050919050565b6117ec613c50565b600e60008381526020019081526020016000206040518060a001604052908160008201548152602001600182015481526020016002820160009054906101000a900473ffffffffffffffffffffffffffffffffffffffff1673ffffffffffffffffffffffffffffffffffffffff1673ffffffffffffffffffffffffffffffffffffffff1681526020016002820160149054906101000a900460ff161515151581526020016002820160159054906101000a900460ff1615151515815250509050919050565b60008073ffffffffffffffffffffffffffffffffffffffff168273ffffffffffffffffffffffffffffffffffffffff1603611921576040517f08c379a0000000000000000000000000000000000000000000000000000000008152600401611918906152e4565b60405180910390fd5b600360008373ffffffffffffffffffffffffffffffffffffffff1673ffffffffffffffffffffffffffffffffffffffff168152602001908152602001600020549050919050565b60606000611975336118b1565b905060008167ffffffffffffffff811115611993576119926142a4565b5b6040519080825280602002602001820160405280156119cc57816020015b6119b9613c50565b8152602001906001900390816119b15790505b50905060005b82811015611ade5760006119e633836111ec565b90506000600e60008381526020019081526020016000209050806040518060a001604052908160008201548152602001600182015481526020016002820160009054906101000a900473ffffffffffffffffffffffffffffffffffffffff1673ffffffffffffffffffffffffffffffffffffffff1673ffffffffffffffffffffffffffffffffffffffff1681526020016002820160149054906101000a900460ff161515151581526020016002820160159054906101000a900460ff161515151581525050848481518110611abe57611abd614f8c565b5b602002602001018190525050508080611ad690614fbb565b9150506119d2565b50809250505090565b611aef61285c565b73ffffffffffffffffffffffffffffffffffffffff16611b0d611ea7565b73ffffffffffffffffffffffffffffffffffffffff1614611b63576040517f08c379a0000000000000000000000000000000000000000000000000000000008152600401611b5a9061504f565b60405180910390fd5b611b6d6000612d2c565b565b611b7761285c565b73ffffffffffffffffffffffffffffffffffffffff16611b95611ea7565b73ffffffffffffffffffffffffffffffffffffffff1614611beb576040517f08c379a0000000000000000000000000000000000000000000000000000000008152600401611be29061504f565b60405180910390fd5b60008111611c2e576040517f08c379a0000000000000000000000000000000000000000000000000000000008152600401611c2590615350565b60405180910390fd5b80600a8190555050565b6000611c43856115f9565b15611c83576040517f08c379a0000000000000000000000000000000000000000000000000000000008152600401611c7a906153bc565b60405180910390fd5b600a543414611cc7576040517f08c379a0000000000000000000000000000000000000000000000000000000008152600401611cbe90614b8b565b60405180910390fd5b611cd1600c612d1e565b601360003373ffffffffffffffffffffffffffffffffffffffff1673ffffffffffffffffffffffffffffffffffffffff1681526020019081526020016000206000828254611d1f9190614e69565b92505081905550611d30600c61291d565b611d3a600b61291d565b6000611d46600c612d1e565b90506000600e600083815260200190815260200160002060020160156101000a81548160ff0219169083151502179055506000836bffffffffffffffffffffffff1614611e0057611d973382612df2565b611da18187612e10565b611dab8185612e84565b611dc433846bffffffffffffffffffffffff1683611fdb565b6001600d87604051611dd691906151c9565b908152602001604051809103902060006101000a81548160ff021916908315150217905550611e56565b611e0a3382612df2565b611e148187612e10565b611e1e8185612e84565b6001600d87604051611e3091906151c9565b908152602001604051809103902060006101000a81548160ff0219169083151502179055505b60004290507f2dd6c9eceb61fda087e386899b3abc6a0cc6b502530795c2a61ef55b9b9ac7938233898985604051611e929594939291906153dc565b60405180910390a18192505050949350505050565b6000600760009054906101000a900473ffffffffffffffffffffffffffffffffffffffff16905090565b606060018054611ee09061485a565b80601f0160208091040260200160405190810160405280929190818152602001828054611f0c9061485a565b8015611f595780601f10611f2e57610100808354040283529160200191611f59565b820191906000526020600020905b815481529060010190602001808311611f3c57829003601f168201915b5050505050905090565b611f75611f6e61285c565b8383613000565b5050565b611f8a611f8461285c565b83612933565b611fc9576040517f08c379a0000000000000000000000000000000000000000000000000000000008152600401611fc090614c1d565b60405180910390fd5b611fd58484848461316c565b50505050565b606482111561201f576040517f08c379a000000000000000000000000000000000000000000000000000000000815260040161201690615489565b60405180910390fd5b60405180604001604052808473ffffffffffffffffffffffffffffffffffffffff168152602001838152506008600083815260200190815260200160002060008201518160000160006101000a81548173ffffffffffffffffffffffffffffffffffffffff021916908373ffffffffffffffffffffffffffffffffffffffff16021790555060208201518160010155905050505050565b600a5481565b60606120c7826127f0565b612106576040517f08c379a00000000000000000000000000000000000000000000000000000000081526004016120fd9061551b565b60405180910390fd5b60006006600084815260200190815260200160002080546121269061485a565b80601f01602080910402602001604051908101604052809291908181526020018280546121529061485a565b801561219f5780601f106121745761010080835404028352916020019161219f565b820191906000526020600020905b81548152906001019060200180831161218257829003601f168201915b5050505050905060006121b06131c8565b905060008151036121c5578192505050612208565b6000825111156121fa5780826040516020016121e292919061553b565b60405160208183030381529060405292505050612208565b612203846131df565b925050505b919050565b6000612219600b612d1e565b905090565b6009805461222b9061485a565b80601f01602080910402602001604051908101604052809291908181526020018280546122579061485a565b80156122a45780601f10612279576101008083540402835291602001916122a4565b820191906000526020600020905b81548152906001019060200180831161228757829003601f168201915b505050505081565b3373ffffffffffffffffffffffffffffffffffffffff166122cc83611733565b73ffffffffffffffffffffffffffffffffffffffff1614612322576040517f08c379a000000000000000000000000000000000000000000000000000000000815260040161231990614a8d565b60405180910390fd5b6000600860008481526020019081526020016000206040518060400160405290816000820160009054906101000a900473ffffffffffffffffffffffffffffffffffffffff1673ffffffffffffffffffffffffffffffffffffffff1673ffffffffffffffffffffffffffffffffffffffff1681526020016001820154815250509050600060648260200151846123b89190614d44565b6123c29190614dcd565b9050600e600085815260200190815260200160002060020160159054906101000a900460ff16156124185780836123f99190614e69565b600e600086815260200190815260200160002060010181905550612434565b82600e6000868152602001908152602001600020600101819055505b50505050565b806bffffffffffffffffffffffff1660086000848152602001908152602001600020600101819055505050565b6000600560008473ffffffffffffffffffffffffffffffffffffffff1673ffffffffffffffffffffffffffffffffffffffff16815260200190815260200160002060008373ffffffffffffffffffffffffffffffffffffffff1673ffffffffffffffffffffffffffffffffffffffff16815260200190815260200160002060009054906101000a900460ff16905092915050565b3373ffffffffffffffffffffffffffffffffffffffff1661251b82611733565b73ffffffffffffffffffffffffffffffffffffffff1614612571576040517f08c379a000000000000000000000000000000000000000000000000000000000815260040161256890614a8d565b60405180910390fd5b60011515600e600083815260200190815260200160002060020160149054906101000a900460ff161515146125db576040517f08c379a00000000000000000000000000000000000000000000000000000000081526004016125d2906155d1565b60405180910390fd5b6000600e600083815260200190815260200160002060020160146101000a81548160ff021916908315150217905550612614600b612cc2565b50565b61261f61285c565b73ffffffffffffffffffffffffffffffffffffffff1661263d611ea7565b73ffffffffffffffffffffffffffffffffffffffff1614612693576040517f08c379a000000000000000000000000000000000000000000000000000000000815260040161268a9061504f565b60405180910390fd5b600073ffffffffffffffffffffffffffffffffffffffff168173ffffffffffffffffffffffffffffffffffffffff1603612702576040517f08c379a00000000000000000000000000000000000000000000000000000000081526004016126f990615663565b60405180910390fd5b61270b81612d2c565b50565b60007f80ac58cd000000000000000000000000000000000000000000000000000000007bffffffffffffffffffffffffffffffffffffffffffffffffffffffff1916827bffffffffffffffffffffffffffffffffffffffffffffffffffffffff191614806127d957507f5b5e139f000000000000000000000000000000000000000000000000000000007bffffffffffffffffffffffffffffffffffffffffffffffffffffffff1916827bffffffffffffffffffffffffffffffffffffffffffffffffffffffff1916145b806127e957506127e882613286565b5b9050919050565b60008073ffffffffffffffffffffffffffffffffffffffff166002600084815260200190815260200160002060009054906101000a900473ffffffffffffffffffffffffffffffffffffffff1673ffffffffffffffffffffffffffffffffffffffff1614159050919050565b600033905090565b816004600083815260200190815260200160002060006101000a81548173ffffffffffffffffffffffffffffffffffffffff021916908373ffffffffffffffffffffffffffffffffffffffff160217905550808273ffffffffffffffffffffffffffffffffffffffff166128d783611733565b73ffffffffffffffffffffffffffffffffffffffff167f8c5be1e5ebec7d5bd14f71427d1e84f3dd0314c0f7b2291e5b200ac8c7c3b92560405160405180910390a45050565b6001816000016000828254019250508190555050565b600061293e826127f0565b61297d576040517f08c379a0000000000000000000000000000000000000000000000000000000008152600401612974906156f5565b60405180910390fd5b600061298883611733565b90508073ffffffffffffffffffffffffffffffffffffffff168473ffffffffffffffffffffffffffffffffffffffff1614806129f757508373ffffffffffffffffffffffffffffffffffffffff166129df84610a21565b73ffffffffffffffffffffffffffffffffffffffff16145b80612a085750612a078185612467565b5b91505092915050565b8273ffffffffffffffffffffffffffffffffffffffff16612a3182611733565b73ffffffffffffffffffffffffffffffffffffffff1614612a87576040517f08c379a0000000000000000000000000000000000000000000000000000000008152600401612a7e90615787565b60405180910390fd5b600073ffffffffffffffffffffffffffffffffffffffff168273ffffffffffffffffffffffffffffffffffffffff1603612af6576040517f08c379a0000000000000000000000000000000000000000000000000000000008152600401612aed90615819565b60405180910390fd5b612b018383836132f0565b612b0c600082612864565b6001600360008573ffffffffffffffffffffffffffffffffffffffff1673ffffffffffffffffffffffffffffffffffffffff1681526020019081526020016000206000828254612b5c9190614dfe565b925050819055506001600360008473ffffffffffffffffffffffffffffffffffffffff1673ffffffffffffffffffffffffffffffffffffffff1681526020019081526020016000206000828254612bb39190614e69565b92505081905550816002600083815260200190815260200160002060006101000a81548173ffffffffffffffffffffffffffffffffffffffff021916908373ffffffffffffffffffffffffffffffffffffffff160217905550808273ffffffffffffffffffffffffffffffffffffffff168473ffffffffffffffffffffffffffffffffffffffff167fddf252ad1be2c89b69c2b068fc378daa952ba7f163c4a11628f55a4df523b3ef60405160405180910390a4612c72838383613402565b505050565b8173ffffffffffffffffffffffffffffffffffffffff166108fc829081150290604051600060405180830381858888f19350505050158015612cbd573d6000803e3d6000fd5b505050565b60008160000154905060008111612d0e576040517f08c379a0000000000000000000000000000000000000000000000000000000008152600401612d0590615885565b60405180910390fd5b6001810382600001819055505050565b600081600001549050919050565b6000600760009054906101000a900473ffffffffffffffffffffffffffffffffffffffff16905081600760006101000a81548173ffffffffffffffffffffffffffffffffffffffff021916908373ffffffffffffffffffffffffffffffffffffffff1602179055508173ffffffffffffffffffffffffffffffffffffffff168173ffffffffffffffffffffffffffffffffffffffff167f8be0079c531659141344cd1fd0a4f28419497f9722a3daafe3b4186f6b6457e060405160405180910390a35050565b612e0c828260405180602001604052806000815250613407565b5050565b612e19826127f0565b612e58576040517f08c379a0000000000000000000000000000000000000000000000000000000008152600401612e4f90615917565b60405180910390fd5b80600660008481526020019081526020016000209080519060200190612e7f929190613cc9565b505050565b60008111612ec7576040517f08c379a0000000000000000000000000000000000000000000000000000000008152600401612ebe90615350565b60405180910390fd5b6040518060a001604052808381526020018281526020013373ffffffffffffffffffffffffffffffffffffffff16815260200160011515815260200160001515815250600e6000848152602001908152602001600020600082015181600001556020820151816001015560408201518160020160006101000a81548173ffffffffffffffffffffffffffffffffffffffff021916908373ffffffffffffffffffffffffffffffffffffffff16021790555060608201518160020160146101000a81548160ff02191690831515021790555060808201518160020160156101000a81548160ff0219169083151502179055509050507fc72fa779846cafae8e0b3ff446217506f9b128fb16aeb52e1d58c520dbd235b682823360016000604051612ff4959493929190615937565b60405180910390a15050565b8173ffffffffffffffffffffffffffffffffffffffff168373ffffffffffffffffffffffffffffffffffffffff160361306e576040517f08c379a0000000000000000000000000000000000000000000000000000000008152600401613065906159d6565b60405180910390fd5b80600560008573ffffffffffffffffffffffffffffffffffffffff1673ffffffffffffffffffffffffffffffffffffffff16815260200190815260200160002060008473ffffffffffffffffffffffffffffffffffffffff1673ffffffffffffffffffffffffffffffffffffffff16815260200190815260200160002060006101000a81548160ff0219169083151502179055508173ffffffffffffffffffffffffffffffffffffffff168373ffffffffffffffffffffffffffffffffffffffff167f17307eab39ab6107e8899845ad3d59bd9653f200f220920489ca2b5937696c318360405161315f9190613e20565b60405180910390a3505050565b613177848484612a11565b61318384848484613462565b6131c2576040517f08c379a00000000000000000000000000000000000000000000000000000000081526004016131b990615a68565b60405180910390fd5b50505050565b606060405180602001604052806000815250905090565b60606131ea826127f0565b613229576040517f08c379a000000000000000000000000000000000000000000000000000000000815260040161322090615afa565b60405180910390fd5b60006132336131c8565b90506000815111613253576040518060200160405280600081525061327e565b8061325d846135e9565b60405160200161326e92919061553b565b6040516020818303038152906040525b915050919050565b60007f01ffc9a7000000000000000000000000000000000000000000000000000000007bffffffffffffffffffffffffffffffffffffffffffffffffffffffff1916827bffffffffffffffffffffffffffffffffffffffffffffffffffffffff1916149050919050565b6132fb838383613749565b600073ffffffffffffffffffffffffffffffffffffffff168373ffffffffffffffffffffffffffffffffffffffff160361333d576133388161374e565b61337c565b8173ffffffffffffffffffffffffffffffffffffffff168373ffffffffffffffffffffffffffffffffffffffff161461337b5761337a8382613797565b5b5b600073ffffffffffffffffffffffffffffffffffffffff168273ffffffffffffffffffffffffffffffffffffffff16036133be576133b981613904565b6133fd565b8273ffffffffffffffffffffffffffffffffffffffff168273ffffffffffffffffffffffffffffffffffffffff16146133fc576133fb82826139d5565b5b5b505050565b505050565b6134118383613a54565b61341e6000848484613462565b61345d576040517f08c379a000000000000000000000000000000000000000000000000000000000815260040161345490615a68565b60405180910390fd5b505050565b60006134838473ffffffffffffffffffffffffffffffffffffffff16613c2d565b156135dc578373ffffffffffffffffffffffffffffffffffffffff1663150b7a026134ac61285c565b8786866040518563ffffffff1660e01b81526004016134ce9493929190615b6f565b6020604051808303816000875af192505050801561350a57506040513d601f19601f820116820180604052508101906135079190615bd0565b60015b61358c573d806000811461353a576040519150601f19603f3d011682016040523d82523d6000602084013e61353f565b606091505b506000815103613584576040517f08c379a000000000000000000000000000000000000000000000000000000000815260040161357b90615a68565b60405180910390fd5b805181602001fd5b63150b7a0260e01b7bffffffffffffffffffffffffffffffffffffffffffffffffffffffff1916817bffffffffffffffffffffffffffffffffffffffffffffffffffffffff1916149150506135e1565b600190505b949350505050565b606060008203613630576040518060400160405280600181526020017f30000000000000000000000000000000000000000000000000000000000000008152509050613744565b600082905060005b6000821461366257808061364b90614fbb565b915050600a8261365b9190614dcd565b9150613638565b60008167ffffffffffffffff81111561367e5761367d6142a4565b5b6040519080825280601f01601f1916602001820160405280156136b05781602001600182028036833780820191505090505b5090505b6000851461373d576001826136c99190614dfe565b9150600a856136d89190615bfd565b60306136e49190614e69565b60f81b8183815181106136fa576136f9614f8c565b5b60200101907effffffffffffffffffffffffffffffffffffffffffffffffffffffffffffff1916908160001a905350600a856137369190614dcd565b94506136b4565b8093505050505b919050565b505050565b6011805490506012600083815260200190815260200160002081905550601181908060018154018082558091505060019003906000526020600020016000909190919091505550565b600060016137a4846118b1565b6137ae9190614dfe565b9050600060106000848152602001908152602001600020549050818114613893576000600f60008673ffffffffffffffffffffffffffffffffffffffff1673ffffffffffffffffffffffffffffffffffffffff168152602001908152602001600020600084815260200190815260200160002054905080600f60008773ffffffffffffffffffffffffffffffffffffffff1673ffffffffffffffffffffffffffffffffffffffff168152602001908152602001600020600084815260200190815260200160002081905550816010600083815260200190815260200160002081905550505b6010600084815260200190815260200160002060009055600f60008573ffffffffffffffffffffffffffffffffffffffff1673ffffffffffffffffffffffffffffffffffffffff16815260200190815260200160002060008381526020019081526020016000206000905550505050565b600060016011805490506139189190614dfe565b905060006012600084815260200190815260200160002054905060006011838154811061394857613947614f8c565b5b90600052602060002001549050806011838154811061396a57613969614f8c565b5b9060005260206000200181905550816012600083815260200190815260200160002081905550601260008581526020019081526020016000206000905560118054806139b9576139b8615c2e565b5b6001900381819060005260206000200160009055905550505050565b60006139e0836118b1565b905081600f60008573ffffffffffffffffffffffffffffffffffffffff1673ffffffffffffffffffffffffffffffffffffffff168152602001908152602001600020600083815260200190815260200160002081905550806010600084815260200190815260200160002081905550505050565b600073ffffffffffffffffffffffffffffffffffffffff168273ffffffffffffffffffffffffffffffffffffffff1603613ac3576040517f08c379a0000000000000000000000000000000000000000000000000000000008152600401613aba90615ca9565b60405180910390fd5b613acc816127f0565b15613b0c576040517f08c379a0000000000000000000000000000000000000000000000000000000008152600401613b0390615d15565b60405180910390fd5b613b18600083836132f0565b6001600360008473ffffffffffffffffffffffffffffffffffffffff1673ffffffffffffffffffffffffffffffffffffffff1681526020019081526020016000206000828254613b689190614e69565b92505081905550816002600083815260200190815260200160002060006101000a81548173ffffffffffffffffffffffffffffffffffffffff021916908373ffffffffffffffffffffffffffffffffffffffff160217905550808273ffffffffffffffffffffffffffffffffffffffff16600073ffffffffffffffffffffffffffffffffffffffff167fddf252ad1be2c89b69c2b068fc378daa952ba7f163c4a11628f55a4df523b3ef60405160405180910390a4613c2960008383613402565b5050565b6000808273ffffffffffffffffffffffffffffffffffffffff163b119050919050565b6040518060a001604052806000815260200160008152602001600073ffffffffffffffffffffffffffffffffffffffff1681526020016000151581526020016000151581525090565b6040518060400160405280600073ffffffffffffffffffffffffffffffffffffffff168152602001600081525090565b828054613cd59061485a565b90600052602060002090601f016020900481019282613cf75760008555613d3e565b82601f10613d1057805160ff1916838001178555613d3e565b82800160010185558215613d3e579182015b82811115613d3d578251825591602001919060010190613d22565b5b509050613d4b9190613d4f565b5090565b5b80821115613d68576000816000905550600101613d50565b5090565b6000604051905090565b600080fd5b600080fd5b60007fffffffff0000000000000000000000000000000000000000000000000000000082169050919050565b613db581613d80565b8114613dc057600080fd5b50565b600081359050613dd281613dac565b92915050565b600060208284031215613dee57613ded613d76565b5b6000613dfc84828501613dc3565b91505092915050565b60008115159050919050565b613e1a81613e05565b82525050565b6000602082019050613e356000830184613e11565b92915050565b600081519050919050565b600082825260208201905092915050565b60005b83811015613e75578082015181840152602081019050613e5a565b83811115613e84576000848401525b50505050565b6000601f19601f8301169050919050565b6000613ea682613e3b565b613eb08185613e46565b9350613ec0818560208601613e57565b613ec981613e8a565b840191505092915050565b60006020820190508181036000830152613eee8184613e9b565b905092915050565b6000819050919050565b613f0981613ef6565b8114613f1457600080fd5b50565b600081359050613f2681613f00565b92915050565b600060208284031215613f4257613f41613d76565b5b6000613f5084828501613f17565b91505092915050565b600073ffffffffffffffffffffffffffffffffffffffff82169050919050565b6000613f8482613f59565b9050919050565b613f9481613f79565b82525050565b6000602082019050613faf6000830184613f8b565b92915050565b613fbe81613f79565b8114613fc957600080fd5b50565b600081359050613fdb81613fb5565b92915050565b60008060408385031215613ff857613ff7613d76565b5b600061400685828601613fcc565b925050602061401785828601613f17565b9150509250929050565b61402a81613ef6565b82525050565b60006020820190506140456000830184614021565b92915050565b6000806040838503121561406257614061613d76565b5b600061407085828601613f17565b925050602061408185828601613f17565b9150509250929050565b6000806000606084860312156140a4576140a3613d76565b5b60006140b286828701613fcc565b93505060206140c386828701613fcc565b92505060406140d486828701613f17565b9150509250925092565b60006040820190506140f36000830185613f8b565b6141006020830184614021565b9392505050565b60006020828403121561411d5761411c613d76565b5b600061412b84828501613fcc565b91505092915050565b600081519050919050565b600082825260208201905092915050565b6000819050602082019050919050565b61416981613ef6565b82525050565b61417881613f79565b82525050565b61418781613e05565b82525050565b60a0820160008201516141a36000850182614160565b5060208201516141b66020850182614160565b5060408201516141c9604085018261416f565b5060608201516141dc606085018261417e565b5060808201516141ef608085018261417e565b50505050565b6000614201838361418d565b60a08301905092915050565b6000602082019050919050565b600061422582614134565b61422f818561413f565b935061423a83614150565b8060005b8381101561426b57815161425288826141f5565b975061425d8361420d565b92505060018101905061423e565b5085935050505092915050565b60006020820190508181036000830152614292818461421a565b905092915050565b600080fd5b600080fd5b7f4e487b7100000000000000000000000000000000000000000000000000000000600052604160045260246000fd5b6142dc82613e8a565b810181811067ffffffffffffffff821117156142fb576142fa6142a4565b5b80604052505050565b600061430e613d6c565b905061431a82826142d3565b919050565b600067ffffffffffffffff82111561433a576143396142a4565b5b61434382613e8a565b9050602081019050919050565b82818337600083830152505050565b600061437261436d8461431f565b614304565b90508281526020810184848401111561438e5761438d61429f565b5b614399848285614350565b509392505050565b600082601f8301126143b6576143b561429a565b5b81356143c684826020860161435f565b91505092915050565b6000602082840312156143e5576143e4613d76565b5b600082013567ffffffffffffffff81111561440357614402613d7b565b5b61440f848285016143a1565b91505092915050565b60408201600082015161442e600085018261416f565b5060208201516144416020850182614160565b50505050565b600060408201905061445c6000830184614418565b92915050565b60a0820160008201516144786000850182614160565b50602082015161448b6020850182614160565b50604082015161449e604085018261416f565b5060608201516144b1606085018261417e565b5060808201516144c4608085018261417e565b50505050565b600060a0820190506144df6000830184614462565b92915050565b60006bffffffffffffffffffffffff82169050919050565b614506816144e5565b811461451157600080fd5b50565b600081359050614523816144fd565b92915050565b6000806000806080858703121561454357614542613d76565b5b600085013567ffffffffffffffff81111561456157614560613d7b565b5b61456d878288016143a1565b945050602085013567ffffffffffffffff81111561458e5761458d613d7b565b5b61459a878288016143a1565b93505060406145ab87828801613f17565b92505060606145bc87828801614514565b91505092959194509250565b6145d181613e05565b81146145dc57600080fd5b50565b6000813590506145ee816145c8565b92915050565b6000806040838503121561460b5761460a613d76565b5b600061461985828601613fcc565b925050602061462a858286016145df565b9150509250929050565b600067ffffffffffffffff82111561464f5761464e6142a4565b5b61465882613e8a565b9050602081019050919050565b600061467861467384614634565b614304565b9050828152602081018484840111156146945761469361429f565b5b61469f848285614350565b509392505050565b600082601f8301126146bc576146bb61429a565b5b81356146cc848260208601614665565b91505092915050565b600080600080608085870312156146ef576146ee613d76565b5b60006146fd87828801613fcc565b945050602061470e87828801613fcc565b935050604061471f87828801613f17565b925050606085013567ffffffffffffffff8111156147405761473f613d7b565b5b61474c878288016146a7565b91505092959194509250565b60008060006060848603121561477157614770613d76565b5b600061477f86828701613fcc565b935050602061479086828701613f17565b92505060406147a186828701613f17565b9150509250925092565b600080604083850312156147c2576147c1613d76565b5b60006147d085828601613f17565b92505060206147e185828601614514565b9150509250929050565b6000806040838503121561480257614801613d76565b5b600061481085828601613fcc565b925050602061482185828601613fcc565b9150509250929050565b7f4e487b7100000000000000000000000000000000000000000000000000000000600052602260045260246000fd5b6000600282049050600182168061487257607f821691505b6020821081036148855761488461482b565b5b50919050565b7f4552433732313a20617070726f76656420717565727920666f72206e6f6e657860008201527f697374656e7420746f6b656e0000000000000000000000000000000000000000602082015250565b60006148e7602c83613e46565b91506148f28261488b565b604082019050919050565b60006020820190508181036000830152614916816148da565b9050919050565b7f4552433732313a20617070726f76616c20746f2063757272656e74206f776e6560008201527f7200000000000000000000000000000000000000000000000000000000000000602082015250565b6000614979602183613e46565b91506149848261491d565b604082019050919050565b600060208201905081810360008301526149a88161496c565b9050919050565b7f4552433732313a20617070726f76652063616c6c6572206973206e6f74206f7760008201527f6e6572206e6f7220617070726f76656420666f7220616c6c0000000000000000602082015250565b6000614a0b603883613e46565b9150614a16826149af565b604082019050919050565b60006020820190508181036000830152614a3a816149fe565b9050919050565b7f596f7520617265206e6f74206f776e6572206f662074686973206e6674000000600082015250565b6000614a77601d83613e46565b9150614a8282614a41565b602082019050919050565b60006020820190508181036000830152614aa681614a6a565b9050919050565b7f4974656d20697320616c7265616479206f6e2073616c65000000000000000000600082015250565b6000614ae3601783613e46565b9150614aee82614aad565b602082019050919050565b60006020820190508181036000830152614b1281614ad6565b9050919050565b7f5072696365206d75737420626520657175616c20746f206c697374696e67207060008201527f7269636500000000000000000000000000000000000000000000000000000000602082015250565b6000614b75602483613e46565b9150614b8082614b19565b604082019050919050565b60006020820190508181036000830152614ba481614b68565b9050919050565b7f4552433732313a207472616e736665722063616c6c6572206973206e6f74206f60008201527f776e6572206e6f7220617070726f766564000000000000000000000000000000602082015250565b6000614c07603183613e46565b9150614c1282614bab565b604082019050919050565b60006020820190508181036000830152614c3681614bfa565b9050919050565b7f596f7520616c7265616479206f776e2074686973204e46540000000000000000600082015250565b6000614c73601883613e46565b9150614c7e82614c3d565b602082019050919050565b60006020820190508181036000830152614ca281614c66565b9050919050565b7f506c65617365207375626d6974207468652061736b696e672070726963650000600082015250565b6000614cdf601e83613e46565b9150614cea82614ca9565b602082019050919050565b60006020820190508181036000830152614d0e81614cd2565b9050919050565b7f4e487b7100000000000000000000000000000000000000000000000000000000600052601160045260246000fd5b6000614d4f82613ef6565b9150614d5a83613ef6565b9250817fffffffffffffffffffffffffffffffffffffffffffffffffffffffffffffffff0483118215151615614d9357614d92614d15565b5b828202905092915050565b7f4e487b7100000000000000000000000000000000000000000000000000000000600052601260045260246000fd5b6000614dd882613ef6565b9150614de383613ef6565b925082614df357614df2614d9e565b5b828204905092915050565b6000614e0982613ef6565b9150614e1483613ef6565b925082821015614e2757614e26614d15565b5b828203905092915050565b6000606082019050614e476000830186613f8b565b614e546020830185614021565b614e616040830184614021565b949350505050565b6000614e7482613ef6565b9150614e7f83613ef6565b9250827fffffffffffffffffffffffffffffffffffffffffffffffffffffffffffffffff03821115614eb457614eb3614d15565b5b828201905092915050565b600060c082019050614ed46000830189614021565b614ee16020830188614021565b614eee6040830187614021565b614efb6060830186613f8b565b614f086080830185613f8b565b614f1560a0830184614021565b979650505050505050565b7f496e646578206f7574206f6620626f756e647300000000000000000000000000600082015250565b6000614f56601383613e46565b9150614f6182614f20565b602082019050919050565b60006020820190508181036000830152614f8581614f49565b9050919050565b7f4e487b7100000000000000000000000000000000000000000000000000000000600052603260045260246000fd5b6000614fc682613ef6565b91507fffffffffffffffffffffffffffffffffffffffffffffffffffffffffffffffff8203614ff857614ff7614d15565b5b600182019050919050565b7f4f776e61626c653a2063616c6c6572206973206e6f7420746865206f776e6572600082015250565b6000615039602083613e46565b915061504482615003565b602082019050919050565b600060208201905081810360008301526150688161502c565b9050919050565b7f4e6f206574686572206c65667420746f20776974686472617700000000000000600082015250565b60006150a5601983613e46565b91506150b08261506f565b602082019050919050565b600060208201905081810360008301526150d481615098565b9050919050565b600081905092915050565b50565b60006150f66000836150db565b9150615101826150e6565b600082019050919050565b6000615117826150e9565b9150819050919050565b7f5472616e73666572206661696c65642e00000000000000000000000000000000600082015250565b6000615157601083613e46565b915061516282615121565b602082019050919050565b600060208201905081810360008301526151868161514a565b9050919050565b600081905092915050565b60006151a382613e3b565b6151ad818561518d565b93506151bd818560208601613e57565b80840191505092915050565b60006151d58284615198565b915081905092915050565b7f4552433732313a206f776e657220717565727920666f72206e6f6e657869737460008201527f656e7420746f6b656e0000000000000000000000000000000000000000000000602082015250565b600061523c602983613e46565b9150615247826151e0565b604082019050919050565b6000602082019050818103600083015261526b8161522f565b9050919050565b7f4552433732313a2062616c616e636520717565727920666f7220746865207a6560008201527f726f206164647265737300000000000000000000000000000000000000000000602082015250565b60006152ce602a83613e46565b91506152d982615272565b604082019050919050565b600060208201905081810360008301526152fd816152c1565b9050919050565b7f5072696365206d757374206265206174206c6561737420312077656900000000600082015250565b600061533a601c83613e46565b915061534582615304565b602082019050919050565b600060208201905081810360008301526153698161532d565b9050919050565b7f546f6b656e2055524920616c7265616479206578697374730000000000000000600082015250565b60006153a6601883613e46565b91506153b182615370565b602082019050919050565b600060208201905081810360008301526153d581615399565b9050919050565b600060a0820190506153f16000830188614021565b6153fe6020830187613f8b565b81810360408301526154108186613e9b565b905081810360608301526154248185613e9b565b90506154336080830184614021565b9695505050505050565b7f45524332393831526f79616c746965733a20546f6f2068696768000000000000600082015250565b6000615473601a83613e46565b915061547e8261543d565b602082019050919050565b600060208201905081810360008301526154a281615466565b9050919050565b7f45524337323155524953746f726167653a2055524920717565727920666f722060008201527f6e6f6e6578697374656e7420746f6b656e000000000000000000000000000000602082015250565b6000615505603183613e46565b9150615510826154a9565b604082019050919050565b60006020820190508181036000830152615534816154f8565b9050919050565b60006155478285615198565b91506155538284615198565b91508190509392505050565b7f4974656d20697320616c72656164792072656d6f7665642066726f6d2073616c60008201527f6500000000000000000000000000000000000000000000000000000000000000602082015250565b60006155bb602183613e46565b91506155c68261555f565b604082019050919050565b600060208201905081810360008301526155ea816155ae565b9050919050565b7f4f776e61626c653a206e6577206f776e657220697320746865207a65726f206160008201527f6464726573730000000000000000000000000000000000000000000000000000602082015250565b600061564d602683613e46565b9150615658826155f1565b604082019050919050565b6000602082019050818103600083015261567c81615640565b9050919050565b7f4552433732313a206f70657261746f7220717565727920666f72206e6f6e657860008201527f697374656e7420746f6b656e0000000000000000000000000000000000000000602082015250565b60006156df602c83613e46565b91506156ea82615683565b604082019050919050565b6000602082019050818103600083015261570e816156d2565b9050919050565b7f4552433732313a207472616e736665722066726f6d20696e636f72726563742060008201527f6f776e6572000000000000000000000000000000000000000000000000000000602082015250565b6000615771602583613e46565b915061577c82615715565b604082019050919050565b600060208201905081810360008301526157a081615764565b9050919050565b7f4552433732313a207472616e7366657220746f20746865207a65726f2061646460008201527f7265737300000000000000000000000000000000000000000000000000000000602082015250565b6000615803602483613e46565b915061580e826157a7565b604082019050919050565b60006020820190508181036000830152615832816157f6565b9050919050565b7f436f756e7465723a2064656372656d656e74206f766572666c6f770000000000600082015250565b600061586f601b83613e46565b915061587a82615839565b602082019050919050565b6000602082019050818103600083015261589e81615862565b9050919050565b7f45524337323155524953746f726167653a2055524920736574206f66206e6f6e60008201527f6578697374656e7420746f6b656e000000000000000000000000000000000000602082015250565b6000615901602e83613e46565b915061590c826158a5565b604082019050919050565b60006020820190508181036000830152615930816158f4565b9050919050565b600060a08201905061594c6000830188614021565b6159596020830187614021565b6159666040830186613f8b565b6159736060830185613e11565b6159806080830184613e11565b9695505050505050565b7f4552433732313a20617070726f766520746f2063616c6c657200000000000000600082015250565b60006159c0601983613e46565b91506159cb8261598a565b602082019050919050565b600060208201905081810360008301526159ef816159b3565b9050919050565b7f4552433732313a207472616e7366657220746f206e6f6e20455243373231526560008201527f63656976657220696d706c656d656e7465720000000000000000000000000000602082015250565b6000615a52603283613e46565b9150615a5d826159f6565b604082019050919050565b60006020820190508181036000830152615a8181615a45565b9050919050565b7f4552433732314d657461646174613a2055524920717565727920666f72206e6f60008201527f6e6578697374656e7420746f6b656e0000000000000000000000000000000000602082015250565b6000615ae4602f83613e46565b9150615aef82615a88565b604082019050919050565b60006020820190508181036000830152615b1381615ad7565b9050919050565b600081519050919050565b600082825260208201905092915050565b6000615b4182615b1a565b615b4b8185615b25565b9350615b5b818560208601613e57565b615b6481613e8a565b840191505092915050565b6000608082019050615b846000830187613f8b565b615b916020830186613f8b565b615b9e6040830185614021565b8181036060830152615bb08184615b36565b905095945050505050565b600081519050615bca81613dac565b92915050565b600060208284031215615be657615be5613d76565b5b6000615bf484828501615bbb565b91505092915050565b6000615c0882613ef6565b9150615c1383613ef6565b925082615c2357615c22614d9e565b5b828206905092915050565b7f4e487b7100000000000000000000000000000000000000000000000000000000600052603160045260246000fd5b7f4552433732313a206d696e7420746f20746865207a65726f2061646472657373600082015250565b6000615c93602083613e46565b9150615c9e82615c5d565b602082019050919050565b60006020820190508181036000830152615cc281615c86565b9050919050565b7f4552433732313a20746f6b656e20616c7265616479206d696e74656400000000600082015250565b6000615cff601c83613e46565b9150615d0a82615cc9565b602082019050919050565b60006020820190508181036000830152615d2e81615cf2565b905091905056fea2646970667358221220cb0d031e08131b82ffee9c335206a2bf0cc1e45c1ce0585ee7a0f2f0e7a401c564736f6c634300080d0033",
  "immutableReferences": {},
  "source": "// SPDX-License-Identifier: MIT\npragma solidity >=0.4.22 <0.9.0;\n\nimport \"@openzeppelin/contracts/token/ERC721/extensions/ERC721URIStorage.sol\";\nimport \"@openzeppelin/contracts/utils/Counters.sol\";\nimport \"@openzeppelin/contracts/access/Ownable.sol\";\n\ncontract NftMarket is ERC721URIStorage, Ownable {\n    using Counters for Counters.Counter;\n\n    struct NftItem {\n        uint tokenId;\n        uint price;\n        address creator;\n        bool isListed;\n        bool isSold;\n    }\n\n    struct RoyaltyInfo {\n        address recipient;\n        uint256 amount;\n    }\n\n    mapping(uint256 => RoyaltyInfo) royaltyPerTokenId;\n\n    //Interface for royalties\n    bytes4 private constant _INTERFACE_ID_ERC2981 = 0x2a55205a;\n\n    string public baseTokenURI;\n\n    uint public listingPrice = 0.025 ether;\n\n    Counters.Counter private _listedItems;\n    Counters.Counter private _tokenIds;\n\n    mapping(string => bool) private _usedTokenURIs;\n    mapping(uint => NftItem) private _idToNftItem;\n\n    mapping(address => mapping(uint => uint)) private _ownedTokens;\n    mapping(uint => uint) private _idToOwnedIndex;\n\n    uint256[] private _allNfts;\n    mapping(uint => uint) private _idToNftIndex;\n\n    event NftItemCreated (\n        uint tokenId,\n        uint price,\n        address creator,\n        bool isListed,\n        bool isSold\n    );\n    event NftBought (\n        uint tokenId,\n        uint price,\n        uint royaltyAmount,\n        address previousOwner,\n        address owner,\n        uint boughtAt\n    );\n    event TokenIsMinted (\n        uint tokenId,\n        address creator,\n        string tokenURI,\n        string nftName,\n        uint mintedAt\n    );\n\n    event RoyaltyAmountSent (\n        address receiver,\n        uint tokenId,\n        uint royaltyAmount\n    );\n\n    //amount of mints that each address has executed.\n    mapping(address => uint256) public mintsPerAddress;\n\n    constructor() ERC721(\"PumpkinNFT\", \"PNFT\") {}\n\n    //ensure that modified function cannot be called by another contract\n    modifier callerIsUser() {\n        require(tx.origin == msg.sender, \"The caller is another contract\");\n        _;\n    }\n\n\n    function setListingPrice(uint newPrice) external onlyOwner {\n        require(newPrice > 0, \"Price must be at least 1 wei\");\n        listingPrice = newPrice;\n    }\n\n    function getNftItem(uint tokenId) public view returns (NftItem memory) {\n        return _idToNftItem[tokenId];\n    }\n\n    function listedItemsCount() public view returns (uint) {\n        return _listedItems.current();\n    }\n\n    function tokenURIExists(string memory tokenURI) public view returns (bool) {\n        return _usedTokenURIs[tokenURI] == true;\n    }\n\n    function totalSupply() public view returns (uint) {\n        return _allNfts.length;\n    }\n\n    function tokenByIndex(uint index) public view returns (uint) {\n        require(index < totalSupply(), \"Index out of bounds\");\n        return _allNfts[index];\n    }\n\n    function tokenOfOwnerByIndex(address owner, uint index) public view returns (uint) {\n        require(index < ERC721.balanceOf(owner), \"Index out of bounds\");\n        return _ownedTokens[owner][index];\n    }\n\n\n    function getAllNftsOnSale() public view returns (NftItem[] memory) {\n        uint allItemsCounts = totalSupply();\n        uint currentIndex = 0;\n        NftItem[] memory items = new NftItem[](_listedItems.current());\n\n        for (uint i = 0; i < allItemsCounts; i++) {\n            uint tokenId = tokenByIndex(i);\n            NftItem storage item = _idToNftItem[tokenId];\n\n            if (item.isListed == true) {\n                items[currentIndex] = item;\n                currentIndex += 1;\n            }\n        }\n\n        return items;\n    }\n\n\n    function getOwnedNfts() public view returns (NftItem[] memory) {\n        uint ownedItemsCount = ERC721.balanceOf(msg.sender);\n        NftItem[] memory items = new NftItem[](ownedItemsCount);\n\n        for (uint i = 0; i < ownedItemsCount; i++) {\n            uint tokenId = tokenOfOwnerByIndex(msg.sender, i);\n            NftItem storage item = _idToNftItem[tokenId];\n            items[i] = item;\n        }\n\n        return items;\n    }\n\n    function mintToken(\n        string memory tokenURI,\n        string memory nftName,\n        uint price,\n        uint96 royalty\n    ) public payable returns (uint) {\n        require(!tokenURIExists(tokenURI), \"Token URI already exists\");\n        require(msg.value == listingPrice, \"Price must be equal to listing price\");\n        mintsPerAddress[msg.sender] += _tokenIds.current();\n        _tokenIds.increment();\n        _listedItems.increment();\n\n        uint newTokenId = _tokenIds.current();\n        _idToNftItem[newTokenId].isSold = false;\n        if (royalty != 0) {\n\n            _safeMint(msg.sender, newTokenId);\n            _setTokenURI(newTokenId, tokenURI);\n            _createNftItem(newTokenId, price);\n            setRoyalties(msg.sender, royalty, newTokenId);\n            _usedTokenURIs[tokenURI] = true;\n\n        } else {\n            _safeMint(msg.sender, newTokenId);\n            _setTokenURI(newTokenId, tokenURI);\n            _createNftItem(newTokenId, price);\n            _usedTokenURIs[tokenURI] = true;\n        }\n        uint mintedAt = block.timestamp;\n        emit TokenIsMinted(newTokenId, msg.sender, tokenURI,nftName, mintedAt);\n        return newTokenId;\n    }\n\n    //interface for royalties\n    function supportsInterface(bytes4 interfaceId) public view override(ERC721) returns (bool){\n        return interfaceId == _INTERFACE_ID_ERC2981 || super.supportsInterface(interfaceId);\n    }\n\n    function setRoyalties(address recipient, uint256 value, uint256 tokenId) public {\n        require(value <= 100, 'ERC2981Royalties: Too high');\n        royaltyPerTokenId[tokenId] = RoyaltyInfo(recipient, value);\n    }\n\n    function royaltyInfo(uint256 tokenId, uint256 value) external view returns (address receiver, uint256 royaltyAmount)\n    {\n        RoyaltyInfo memory royalties = royaltyPerTokenId[tokenId];\n        receiver = royalties.recipient;\n        royaltyAmount = (value * royalties.amount) / 100;\n    }\n\n    function getRoyaltyPerTokenId(uint256 tokenId) public view returns (RoyaltyInfo memory){\n        return royaltyPerTokenId[tokenId];\n    }\n\n    function changeRoyaltyPerTokenId(uint256 tokenId, uint96 royalty) public {\n        royaltyPerTokenId[tokenId].amount = royalty;\n    }\n\n    //fallback receive function\n    receive() external payable {\n        revert();\n    }\n\n    function _sentRoyaltyAmount(address creator, uint256 amount) private {\n        payable(creator).transfer(amount);\n    }\n\n    function buyNft(\n        uint tokenId\n    ) public payable {\n        uint price = _idToNftItem[tokenId].price;\n        address owner = ERC721.ownerOf(tokenId);\n        require(msg.sender != owner, \"You already own this NFT\");\n        require(msg.value == price, \"Please submit the asking price\");\n\n        RoyaltyInfo memory royalties = royaltyPerTokenId[tokenId];\n        address creator = royalties.recipient;\n        uint256 royaltyAmount = (msg.value * royalties.amount) / 100;\n        _transfer(owner, msg.sender, tokenId);\n\n        if (_idToNftItem[tokenId].isSold) {\n            payable(owner).transfer(msg.value - royaltyAmount);\n            _sentRoyaltyAmount(creator, royaltyAmount);\n            emit RoyaltyAmountSent(creator, tokenId, royaltyAmount);\n        } else {\n            uint priceWithRoyalty = _idToNftItem[tokenId].price + royaltyAmount;\n            _idToNftItem[tokenId].price = priceWithRoyalty;\n            payable(owner).transfer(msg.value);\n        }\n\n        _listedItems.decrement();\n        _idToNftItem[tokenId].isListed = false;\n        _idToNftItem[tokenId].isSold = true;\n        uint boughtAt = block.timestamp;\n\n        emit NftBought(tokenId, msg.value, royaltyAmount, owner, msg.sender, boughtAt);\n    }\n\n    //Withdraw money in contract to Owner\n    function withdraw() external onlyOwner {\n        uint256 balance = address(this).balance;\n        require(balance > 0, \"No ether left to withdraw\");\n        (bool success,) = payable(owner()).call{value : balance}(\"\");\n        require(success, \"Transfer failed.\");\n    }\n\n    function placeNftOnSale(uint tokenId, uint newPrice) public payable {\n        require(ERC721.ownerOf(tokenId) == msg.sender, \"You are not owner of this nft\");\n        require(_idToNftItem[tokenId].isListed == false, \"Item is already on sale\");\n        require(msg.value == listingPrice, \"Price must be equal to listing price\");\n\n        _idToNftItem[tokenId].isListed = true;\n        _idToNftItem[tokenId].price = newPrice;\n        _listedItems.increment();\n    }\n\n\n    function removeNftFromSale(uint tokenId) public {\n        require(ERC721.ownerOf(tokenId) == msg.sender, \"You are not owner of this nft\");\n        require(_idToNftItem[tokenId].isListed == true, \"Item is already removed from sale\");\n        _idToNftItem[tokenId].isListed = false;\n        _listedItems.decrement();\n    }\n\n    function setNewPrice(uint tokenId, uint price) public {\n        require(ERC721.ownerOf(tokenId) == msg.sender, \"You are not owner of this nft\");\n        RoyaltyInfo memory royalties = royaltyPerTokenId[tokenId];\n        uint256 royaltyAmount = (price * royalties.amount) / 100;\n        if (_idToNftItem[tokenId].isSold) {\n            _idToNftItem[tokenId].price = price + royaltyAmount;\n        } else {\n            _idToNftItem[tokenId].price = price;\n        }\n\n    }\n\n    function _createNftItem(\n        uint tokenId,\n        uint price\n    ) private {\n        require(price > 0, \"Price must be at least 1 wei\");\n\n        _idToNftItem[tokenId] = NftItem(\n            tokenId,\n            price,\n            msg.sender,\n            true,\n            false\n        );\n        emit NftItemCreated(tokenId, price, msg.sender, true, false);\n    }\n\n    function _beforeTokenTransfer(\n        address from,\n        address to,\n        uint tokenId\n    ) internal virtual override {\n        super._beforeTokenTransfer(from, to, tokenId);\n\n        if (from == address(0)) {\n            _addTokenToAllTokensEnumeration(tokenId);\n        } else if (from != to) {\n            _removeTokenFromOwnerEnumeration(from, tokenId);\n        }\n\n        if (to == address(0)) {\n            _removeTokenFromAllTokensEnumeration(tokenId);\n        } else if (to != from) {\n            _addTokenToOwnerEnumeration(to, tokenId);\n        }\n    }\n\n    function _addTokenToAllTokensEnumeration(uint tokenId) private {\n        _idToNftIndex[tokenId] = _allNfts.length;\n        _allNfts.push(tokenId);\n    }\n\n    function _addTokenToOwnerEnumeration(address to, uint tokenId) private {\n        uint length = ERC721.balanceOf(to);\n        _ownedTokens[to][length] = tokenId;\n        _idToOwnedIndex[tokenId] = length;\n    }\n\n    function _removeTokenFromOwnerEnumeration(address from, uint tokenId) private {\n        uint lastTokenIndex = ERC721.balanceOf(from) - 1;\n        uint tokenIndex = _idToOwnedIndex[tokenId];\n\n        if (tokenIndex != lastTokenIndex) {\n            uint lastTokenId = _ownedTokens[from][lastTokenIndex];\n\n            _ownedTokens[from][tokenIndex] = lastTokenId;\n            _idToOwnedIndex[lastTokenId] = tokenIndex;\n        }\n\n        delete _idToOwnedIndex[tokenId];\n        delete _ownedTokens[from][lastTokenIndex];\n    }\n\n    function _removeTokenFromAllTokensEnumeration(uint tokenId) private {\n        uint lastTokenIndex = _allNfts.length - 1;\n        uint tokenIndex = _idToNftIndex[tokenId];\n        uint lastTokenId = _allNfts[lastTokenIndex];\n\n        _allNfts[tokenIndex] = lastTokenId;\n        _idToNftIndex[lastTokenId] = tokenIndex;\n\n        delete _idToNftIndex[tokenId];\n        _allNfts.pop();\n    }\n}\n",
  "sourcePath": "/home/igor/11_Ethereum/nft-marketplace-first/contracts/NftMarket.sol",
  "compiler": {
    "name": "solc",
    "version": "0.8.13+commit.abaa5c0e.Emscripten.clang"
  },
  "schemaVersion": "3.4.9",
  "updatedAt": "2023-01-30T19:45:14.233Z",
  "networkType": "ethereum",
  "devdoc": {
    "kind": "dev",
    "methods": {
      "approve(address,uint256)": {
        "details": "See {IERC721-approve}."
      },
      "balanceOf(address)": {
        "details": "See {IERC721-balanceOf}."
      },
      "getApproved(uint256)": {
        "details": "See {IERC721-getApproved}."
      },
      "isApprovedForAll(address,address)": {
        "details": "See {IERC721-isApprovedForAll}."
      },
      "name()": {
        "details": "See {IERC721Metadata-name}."
      },
      "owner()": {
        "details": "Returns the address of the current owner."
      },
      "ownerOf(uint256)": {
        "details": "See {IERC721-ownerOf}."
      },
      "renounceOwnership()": {
        "details": "Leaves the contract without owner. It will not be possible to call `onlyOwner` functions anymore. Can only be called by the current owner. NOTE: Renouncing ownership will leave the contract without an owner, thereby removing any functionality that is only available to the owner."
      },
      "safeTransferFrom(address,address,uint256)": {
        "details": "See {IERC721-safeTransferFrom}."
      },
      "safeTransferFrom(address,address,uint256,bytes)": {
        "details": "See {IERC721-safeTransferFrom}."
      },
      "setApprovalForAll(address,bool)": {
        "details": "See {IERC721-setApprovalForAll}."
      },
      "supportsInterface(bytes4)": {
        "details": "See {IERC165-supportsInterface}."
      },
      "symbol()": {
        "details": "See {IERC721Metadata-symbol}."
      },
      "tokenURI(uint256)": {
        "details": "See {IERC721Metadata-tokenURI}."
      },
      "transferFrom(address,address,uint256)": {
        "details": "See {IERC721-transferFrom}."
      },
      "transferOwnership(address)": {
        "details": "Transfers ownership of the contract to a new account (`newOwner`). Can only be called by the current owner."
      }
    },
    "version": 1
  },
  "userdoc": {
    "kind": "user",
    "methods": {},
    "version": 1
  }
}