{
  "contractName": "NftMarket",
  "abi": [
    {
      "inputs": [],
      "stateMutability": "nonpayable",
      "type": "constructor"
    },
    {
      "anonymous": false,
      "inputs": [
        {
          "indexed": true,
          "internalType": "address",
          "name": "owner",
          "type": "address"
        },
        {
          "indexed": true,
          "internalType": "address",
          "name": "approved",
          "type": "address"
        },
        {
          "indexed": true,
          "internalType": "uint256",
          "name": "tokenId",
          "type": "uint256"
        }
      ],
      "name": "Approval",
      "type": "event"
    },
    {
      "anonymous": false,
      "inputs": [
        {
          "indexed": true,
          "internalType": "address",
          "name": "owner",
          "type": "address"
        },
        {
          "indexed": true,
          "internalType": "address",
          "name": "operator",
          "type": "address"
        },
        {
          "indexed": false,
          "internalType": "bool",
          "name": "approved",
          "type": "bool"
        }
      ],
      "name": "ApprovalForAll",
      "type": "event"
    },
    {
      "anonymous": false,
      "inputs": [
        {
          "indexed": true,
          "internalType": "uint256",
          "name": "tokenId",
          "type": "uint256"
        },
        {
          "indexed": false,
          "internalType": "string",
          "name": "tokenURI",
          "type": "string"
        },
        {
          "indexed": false,
          "internalType": "string",
          "name": "nftName",
          "type": "string"
        },
        {
          "indexed": false,
          "internalType": "address",
          "name": "creator",
          "type": "address"
        },
        {
          "indexed": false,
          "internalType": "address",
          "name": "owner",
          "type": "address"
        },
        {
          "indexed": false,
          "internalType": "uint256",
          "name": "price",
          "type": "uint256"
        },
        {
          "indexed": false,
          "internalType": "uint96",
          "name": "royalty",
          "type": "uint96"
        },
        {
          "indexed": false,
          "internalType": "bool",
          "name": "isListed",
          "type": "bool"
        },
        {
          "indexed": false,
          "internalType": "bool",
          "name": "isSold",
          "type": "bool"
        },
        {
          "indexed": true,
          "internalType": "uint256",
          "name": "collectionId",
          "type": "uint256"
        },
        {
          "indexed": false,
          "internalType": "uint256",
          "name": "networkId",
          "type": "uint256"
        },
        {
          "indexed": false,
          "internalType": "uint256",
          "name": "createdAt",
          "type": "uint256"
        }
      ],
      "name": "NFT",
      "type": "event"
    },
    {
      "anonymous": false,
      "inputs": [
        {
          "indexed": true,
          "internalType": "uint256",
          "name": "tokenId",
          "type": "uint256"
        },
        {
          "indexed": false,
          "internalType": "uint256",
          "name": "price",
          "type": "uint256"
        },
        {
          "indexed": false,
          "internalType": "uint256",
          "name": "royaltyAmount",
          "type": "uint256"
        },
        {
          "indexed": false,
          "internalType": "address",
          "name": "previousOwner",
          "type": "address"
        },
        {
          "indexed": false,
          "internalType": "address",
          "name": "owner",
          "type": "address"
        },
        {
          "indexed": false,
          "internalType": "uint256",
          "name": "boughtAt",
          "type": "uint256"
        }
      ],
      "name": "NftBought",
      "type": "event"
    },
    {
      "anonymous": false,
      "inputs": [
        {
          "indexed": true,
          "internalType": "address",
          "name": "previousOwner",
          "type": "address"
        },
        {
          "indexed": true,
          "internalType": "address",
          "name": "newOwner",
          "type": "address"
        }
      ],
      "name": "OwnershipTransferred",
      "type": "event"
    },
    {
      "anonymous": false,
      "inputs": [
        {
          "indexed": false,
          "internalType": "address",
          "name": "creator",
          "type": "address"
        },
        {
          "indexed": true,
          "internalType": "uint256",
          "name": "tokenId",
          "type": "uint256"
        },
        {
          "indexed": false,
          "internalType": "uint256",
          "name": "royaltyAmount",
          "type": "uint256"
        }
      ],
      "name": "RoyaltyAmountSent",
      "type": "event"
    },
    {
      "anonymous": false,
      "inputs": [
        {
          "indexed": true,
          "internalType": "address",
          "name": "from",
          "type": "address"
        },
        {
          "indexed": true,
          "internalType": "address",
          "name": "to",
          "type": "address"
        },
        {
          "indexed": true,
          "internalType": "uint256",
          "name": "tokenId",
          "type": "uint256"
        }
      ],
      "name": "Transfer",
      "type": "event"
    },
    {
      "inputs": [
        {
          "internalType": "address",
          "name": "to",
          "type": "address"
        },
        {
          "internalType": "uint256",
          "name": "tokenId",
          "type": "uint256"
        }
      ],
      "name": "approve",
      "outputs": [],
      "stateMutability": "nonpayable",
      "type": "function"
    },
    {
      "inputs": [
        {
          "internalType": "address",
          "name": "owner",
          "type": "address"
        }
      ],
      "name": "balanceOf",
      "outputs": [
        {
          "internalType": "uint256",
          "name": "",
          "type": "uint256"
        }
      ],
      "stateMutability": "view",
      "type": "function",
      "constant": true
    },
    {
      "inputs": [],
      "name": "baseTokenURI",
      "outputs": [
        {
          "internalType": "string",
          "name": "",
          "type": "string"
        }
      ],
      "stateMutability": "view",
      "type": "function",
      "constant": true
    },
    {
      "inputs": [
        {
          "internalType": "uint256",
          "name": "tokenId",
          "type": "uint256"
        }
      ],
      "name": "getApproved",
      "outputs": [
        {
          "internalType": "address",
          "name": "",
          "type": "address"
        }
      ],
      "stateMutability": "view",
      "type": "function",
      "constant": true
    },
    {
      "inputs": [
        {
          "internalType": "address",
          "name": "owner",
          "type": "address"
        },
        {
          "internalType": "address",
          "name": "operator",
          "type": "address"
        }
      ],
      "name": "isApprovedForAll",
      "outputs": [
        {
          "internalType": "bool",
          "name": "",
          "type": "bool"
        }
      ],
      "stateMutability": "view",
      "type": "function",
      "constant": true
    },
    {
      "inputs": [],
      "name": "listingPrice",
      "outputs": [
        {
          "internalType": "uint256",
          "name": "",
          "type": "uint256"
        }
      ],
      "stateMutability": "view",
      "type": "function",
      "constant": true
    },
    {
      "inputs": [
        {
          "internalType": "address",
          "name": "",
          "type": "address"
        }
      ],
      "name": "mintsPerAddress",
      "outputs": [
        {
          "internalType": "uint256",
          "name": "",
          "type": "uint256"
        }
      ],
      "stateMutability": "view",
      "type": "function",
      "constant": true
    },
    {
      "inputs": [],
      "name": "name",
      "outputs": [
        {
          "internalType": "string",
          "name": "",
          "type": "string"
        }
      ],
      "stateMutability": "view",
      "type": "function",
      "constant": true
    },
    {
      "inputs": [],
      "name": "owner",
      "outputs": [
        {
          "internalType": "address",
          "name": "",
          "type": "address"
        }
      ],
      "stateMutability": "view",
      "type": "function",
      "constant": true
    },
    {
      "inputs": [
        {
          "internalType": "uint256",
          "name": "tokenId",
          "type": "uint256"
        }
      ],
      "name": "ownerOf",
      "outputs": [
        {
          "internalType": "address",
          "name": "",
          "type": "address"
        }
      ],
      "stateMutability": "view",
      "type": "function",
      "constant": true
    },
    {
      "inputs": [],
      "name": "renounceOwnership",
      "outputs": [],
      "stateMutability": "nonpayable",
      "type": "function"
    },
    {
      "inputs": [
        {
          "internalType": "address",
          "name": "from",
          "type": "address"
        },
        {
          "internalType": "address",
          "name": "to",
          "type": "address"
        },
        {
          "internalType": "uint256",
          "name": "tokenId",
          "type": "uint256"
        }
      ],
      "name": "safeTransferFrom",
      "outputs": [],
      "stateMutability": "nonpayable",
      "type": "function"
    },
    {
      "inputs": [
        {
          "internalType": "address",
          "name": "from",
          "type": "address"
        },
        {
          "internalType": "address",
          "name": "to",
          "type": "address"
        },
        {
          "internalType": "uint256",
          "name": "tokenId",
          "type": "uint256"
        },
        {
          "internalType": "bytes",
          "name": "_data",
          "type": "bytes"
        }
      ],
      "name": "safeTransferFrom",
      "outputs": [],
      "stateMutability": "nonpayable",
      "type": "function"
    },
    {
      "inputs": [
        {
          "internalType": "address",
          "name": "operator",
          "type": "address"
        },
        {
          "internalType": "bool",
          "name": "approved",
          "type": "bool"
        }
      ],
      "name": "setApprovalForAll",
      "outputs": [],
      "stateMutability": "nonpayable",
      "type": "function"
    },
    {
      "inputs": [],
      "name": "symbol",
      "outputs": [
        {
          "internalType": "string",
          "name": "",
          "type": "string"
        }
      ],
      "stateMutability": "view",
      "type": "function",
      "constant": true
    },
    {
      "inputs": [
        {
          "internalType": "uint256",
          "name": "tokenId",
          "type": "uint256"
        }
      ],
      "name": "tokenURI",
      "outputs": [
        {
          "internalType": "string",
          "name": "",
          "type": "string"
        }
      ],
      "stateMutability": "view",
      "type": "function",
      "constant": true
    },
    {
      "inputs": [
        {
          "internalType": "address",
          "name": "from",
          "type": "address"
        },
        {
          "internalType": "address",
          "name": "to",
          "type": "address"
        },
        {
          "internalType": "uint256",
          "name": "tokenId",
          "type": "uint256"
        }
      ],
      "name": "transferFrom",
      "outputs": [],
      "stateMutability": "nonpayable",
      "type": "function"
    },
    {
      "inputs": [
        {
          "internalType": "address",
          "name": "newOwner",
          "type": "address"
        }
      ],
      "name": "transferOwnership",
      "outputs": [],
      "stateMutability": "nonpayable",
      "type": "function"
    },
    {
      "stateMutability": "payable",
      "type": "receive",
      "payable": true
    },
    {
      "inputs": [
        {
          "internalType": "uint256",
          "name": "newPrice",
          "type": "uint256"
        }
      ],
      "name": "setListingPrice",
      "outputs": [],
      "stateMutability": "nonpayable",
      "type": "function"
    },
    {
      "inputs": [
        {
          "internalType": "uint256",
          "name": "tokenId",
          "type": "uint256"
        }
      ],
      "name": "getNftItem",
      "outputs": [
        {
          "components": [
            {
              "internalType": "uint256",
              "name": "tokenId",
              "type": "uint256"
            },
            {
              "internalType": "uint256",
              "name": "price",
              "type": "uint256"
            },
            {
              "internalType": "address",
              "name": "creator",
              "type": "address"
            },
            {
              "internalType": "bool",
              "name": "isListed",
              "type": "bool"
            },
            {
              "internalType": "bool",
              "name": "isSold",
              "type": "bool"
            }
          ],
          "internalType": "struct NftMarket.NftItem",
          "name": "",
          "type": "tuple"
        }
      ],
      "stateMutability": "view",
      "type": "function",
      "constant": true
    },
    {
      "inputs": [],
      "name": "listedItemsCount",
      "outputs": [
        {
          "internalType": "uint256",
          "name": "",
          "type": "uint256"
        }
      ],
      "stateMutability": "view",
      "type": "function",
      "constant": true
    },
    {
      "inputs": [
        {
          "internalType": "string",
          "name": "tokenURI",
          "type": "string"
        }
      ],
      "name": "tokenURIExists",
      "outputs": [
        {
          "internalType": "bool",
          "name": "",
          "type": "bool"
        }
      ],
      "stateMutability": "view",
      "type": "function",
      "constant": true
    },
    {
      "inputs": [],
      "name": "totalSupply",
      "outputs": [
        {
          "internalType": "uint256",
          "name": "",
          "type": "uint256"
        }
      ],
      "stateMutability": "view",
      "type": "function",
      "constant": true
    },
    {
      "inputs": [
        {
          "internalType": "uint256",
          "name": "index",
          "type": "uint256"
        }
      ],
      "name": "tokenByIndex",
      "outputs": [
        {
          "internalType": "uint256",
          "name": "",
          "type": "uint256"
        }
      ],
      "stateMutability": "view",
      "type": "function",
      "constant": true
    },
    {
      "inputs": [
        {
          "internalType": "address",
          "name": "owner",
          "type": "address"
        },
        {
          "internalType": "uint256",
          "name": "index",
          "type": "uint256"
        }
      ],
      "name": "tokenOfOwnerByIndex",
      "outputs": [
        {
          "internalType": "uint256",
          "name": "",
          "type": "uint256"
        }
      ],
      "stateMutability": "view",
      "type": "function",
      "constant": true
    },
    {
      "inputs": [],
      "name": "getAllNftsOnSale",
      "outputs": [
        {
          "components": [
            {
              "internalType": "uint256",
              "name": "tokenId",
              "type": "uint256"
            },
            {
              "internalType": "uint256",
              "name": "price",
              "type": "uint256"
            },
            {
              "internalType": "address",
              "name": "creator",
              "type": "address"
            },
            {
              "internalType": "bool",
              "name": "isListed",
              "type": "bool"
            },
            {
              "internalType": "bool",
              "name": "isSold",
              "type": "bool"
            }
          ],
          "internalType": "struct NftMarket.NftItem[]",
          "name": "",
          "type": "tuple[]"
        }
      ],
      "stateMutability": "view",
      "type": "function",
      "constant": true
    },
    {
      "inputs": [],
      "name": "getOwnedNfts",
      "outputs": [
        {
          "components": [
            {
              "internalType": "uint256",
              "name": "tokenId",
              "type": "uint256"
            },
            {
              "internalType": "uint256",
              "name": "price",
              "type": "uint256"
            },
            {
              "internalType": "address",
              "name": "creator",
              "type": "address"
            },
            {
              "internalType": "bool",
              "name": "isListed",
              "type": "bool"
            },
            {
              "internalType": "bool",
              "name": "isSold",
              "type": "bool"
            }
          ],
          "internalType": "struct NftMarket.NftItem[]",
          "name": "",
          "type": "tuple[]"
        }
      ],
      "stateMutability": "view",
      "type": "function",
      "constant": true
    },
    {
      "inputs": [
        {
          "internalType": "string",
          "name": "tokenURI",
          "type": "string"
        },
        {
          "internalType": "string",
          "name": "nftName",
          "type": "string"
        },
        {
          "internalType": "uint256",
          "name": "price",
          "type": "uint256"
        },
        {
          "internalType": "uint96",
          "name": "royalty",
          "type": "uint96"
        },
        {
          "internalType": "uint256",
          "name": "networkId",
          "type": "uint256"
        }
      ],
      "name": "mintToken",
      "outputs": [
        {
          "internalType": "uint256",
          "name": "",
          "type": "uint256"
        }
      ],
      "stateMutability": "payable",
      "type": "function",
      "payable": true
    },
    {
      "inputs": [
        {
          "internalType": "bytes4",
          "name": "interfaceId",
          "type": "bytes4"
        }
      ],
      "name": "supportsInterface",
      "outputs": [
        {
          "internalType": "bool",
          "name": "",
          "type": "bool"
        }
      ],
      "stateMutability": "view",
      "type": "function",
      "constant": true
    },
    {
      "inputs": [
        {
          "internalType": "address",
          "name": "recipient",
          "type": "address"
        },
        {
          "internalType": "uint256",
          "name": "value",
          "type": "uint256"
        },
        {
          "internalType": "uint256",
          "name": "tokenId",
          "type": "uint256"
        }
      ],
      "name": "setRoyalties",
      "outputs": [],
      "stateMutability": "nonpayable",
      "type": "function"
    },
    {
      "inputs": [
        {
          "internalType": "uint256",
          "name": "tokenId",
          "type": "uint256"
        },
        {
          "internalType": "uint256",
          "name": "value",
          "type": "uint256"
        }
      ],
      "name": "royaltyInfo",
      "outputs": [
        {
          "internalType": "address",
          "name": "receiver",
          "type": "address"
        },
        {
          "internalType": "uint256",
          "name": "royaltyAmount",
          "type": "uint256"
        }
      ],
      "stateMutability": "view",
      "type": "function",
      "constant": true
    },
    {
      "inputs": [
        {
          "internalType": "uint256",
          "name": "tokenId",
          "type": "uint256"
        }
      ],
      "name": "getRoyaltyPerTokenId",
      "outputs": [
        {
          "components": [
            {
              "internalType": "address",
              "name": "recipient",
              "type": "address"
            },
            {
              "internalType": "uint256",
              "name": "amount",
              "type": "uint256"
            }
          ],
          "internalType": "struct NftMarket.RoyaltyInfo",
          "name": "",
          "type": "tuple"
        }
      ],
      "stateMutability": "view",
      "type": "function",
      "constant": true
    },
    {
      "inputs": [
        {
          "internalType": "uint256",
          "name": "tokenId",
          "type": "uint256"
        },
        {
          "internalType": "uint96",
          "name": "royalty",
          "type": "uint96"
        }
      ],
      "name": "changeRoyaltyPerTokenId",
      "outputs": [],
      "stateMutability": "nonpayable",
      "type": "function"
    },
    {
      "inputs": [
        {
          "internalType": "uint256",
          "name": "tokenId",
          "type": "uint256"
        }
      ],
      "name": "buyNft",
      "outputs": [],
      "stateMutability": "payable",
      "type": "function",
      "payable": true
    },
    {
      "inputs": [],
      "name": "withdraw",
      "outputs": [],
      "stateMutability": "nonpayable",
      "type": "function"
    },
    {
      "inputs": [
        {
          "internalType": "uint256",
          "name": "tokenId",
          "type": "uint256"
        },
        {
          "internalType": "uint256",
          "name": "newPrice",
          "type": "uint256"
        }
      ],
      "name": "placeNftOnSale",
      "outputs": [],
      "stateMutability": "payable",
      "type": "function",
      "payable": true
    },
    {
      "inputs": [
        {
          "internalType": "uint256",
          "name": "tokenId",
          "type": "uint256"
        }
      ],
      "name": "removeNftFromSale",
      "outputs": [],
      "stateMutability": "nonpayable",
      "type": "function"
    },
    {
      "inputs": [
        {
          "internalType": "uint256",
          "name": "tokenId",
          "type": "uint256"
        },
        {
          "internalType": "uint256",
          "name": "price",
          "type": "uint256"
        }
      ],
      "name": "setNewPrice",
      "outputs": [],
      "stateMutability": "nonpayable",
      "type": "function"
    }
  ],
  "bytecode": "0x60806040526658d15e17628000600a553480156200001c57600080fd5b506040518060400160405280600a81526020017f50756d706b696e4e4654000000000000000000000000000000000000000000008152506040518060400160405280600481526020017f504e4654000000000000000000000000000000000000000000000000000000008152508160009080519060200190620000a1929190620001b1565b508060019080519060200190620000ba929190620001b1565b505050620000dd620000d1620000e360201b60201c565b620000eb60201b60201c565b620002c5565b600033905090565b6000600760009054906101000a900473ffffffffffffffffffffffffffffffffffffffff16905081600760006101000a81548173ffffffffffffffffffffffffffffffffffffffff021916908373ffffffffffffffffffffffffffffffffffffffff1602179055508173ffffffffffffffffffffffffffffffffffffffff168173ffffffffffffffffffffffffffffffffffffffff167f8be0079c531659141344cd1fd0a4f28419497f9722a3daafe3b4186f6b6457e060405160405180910390a35050565b828054620001bf9062000290565b90600052602060002090601f016020900481019282620001e357600085556200022f565b82601f10620001fe57805160ff19168380011785556200022f565b828001600101855582156200022f579182015b828111156200022e57825182559160200191906001019062000211565b5b5090506200023e919062000242565b5090565b5b808211156200025d57600081600090555060010162000243565b5090565b7f4e487b7100000000000000000000000000000000000000000000000000000000600052602260045260246000fd5b60006002820490506001821680620002a957607f821691505b602082108103620002bf57620002be62000261565b5b50919050565b615d1480620002d56000396000f3fe6080604052600436106102295760003560e01c806370a0823111610123578063c4b3a2c5116100ab578063e23a60fe1161006f578063e23a60fe1461084d578063e78980d414610876578063e985e9c51461089f578063f0d2fad8146108dc578063f2fde38b1461090557610233565b8063c4b3a2c514610766578063c78f19f91461078f578063c87b56dd146107ba578063ccb4918d146107f7578063d547cfb71461082257610233565b80638c06490b116100f25780638c06490b1461068e5780638da5cb5b146106be57806395d89b41146106e9578063a22cb46514610714578063b88d4fde1461073d57610233565b806370a08231146105e657806370cbcb4314610623578063715018a61461064e5780637c726b691461066557610233565b80632f745c59116101b157806343d32ae71161017557806343d32ae7146104b55780634f6ccce7146104f25780635b6d9d3b1461052f5780636352211e1461056c5780636f1a0af5146105a957610233565b80632f745c59146103d05780633023eba61461040d57806336b536be1461044a5780633ccfd60b1461047557806342842e0e1461048c57610233565b806318160ddd116101f857806318160ddd1461030657806321f422e51461033157806323b872dd1461034d578063243adbdd146103765780632a55205a1461039257610233565b806301ffc9a71461023857806306fdde0314610275578063081812fc146102a0578063095ea7b3146102dd57610233565b3661023357600080fd5b600080fd5b34801561024457600080fd5b5061025f600480360381019061025a9190613dad565b61092e565b60405161026c9190613df5565b60405180910390f35b34801561028157600080fd5b5061028a61098f565b6040516102979190613ea9565b60405180910390f35b3480156102ac57600080fd5b506102c760048036038101906102c29190613f01565b610a21565b6040516102d49190613f6f565b60405180910390f35b3480156102e957600080fd5b5061030460048036038101906102ff9190613fb6565b610aa6565b005b34801561031257600080fd5b5061031b610bbd565b6040516103289190614005565b60405180910390f35b61034b60048036038101906103469190614020565b610bca565b005b34801561035957600080fd5b50610374600480360381019061036f9190614060565b610d46565b005b610390600480360381019061038b9190613f01565b610da6565b005b34801561039e57600080fd5b506103b960048036038101906103b49190614020565b611138565b6040516103c79291906140b3565b60405180910390f35b3480156103dc57600080fd5b506103f760048036038101906103f29190613fb6565b6111ea565b6040516104049190614005565b60405180910390f35b34801561041957600080fd5b50610434600480360381019061042f91906140dc565b61128f565b6040516104419190614005565b60405180910390f35b34801561045657600080fd5b5061045f6112a7565b60405161046c919061424d565b60405180910390f35b34801561048157600080fd5b5061048a61145c565b005b34801561049857600080fd5b506104b360048036038101906104ae9190614060565b6115d7565b005b3480156104c157600080fd5b506104dc60048036038101906104d791906143a4565b6115f7565b6040516104e99190613df5565b60405180910390f35b3480156104fe57600080fd5b5061051960048036038101906105149190613f01565b611633565b6040516105269190614005565b60405180910390f35b34801561053b57600080fd5b5061055660048036038101906105519190613f01565b6116a4565b604051610563919061441c565b60405180910390f35b34801561057857600080fd5b50610593600480360381019061058e9190613f01565b611731565b6040516105a09190613f6f565b60405180910390f35b3480156105b557600080fd5b506105d060048036038101906105cb9190613f01565b6117e2565b6040516105dd919061449f565b60405180910390f35b3480156105f257600080fd5b5061060d600480360381019061060891906140dc565b6118af565b60405161061a9190614005565b60405180910390f35b34801561062f57600080fd5b50610638611966565b604051610645919061424d565b60405180910390f35b34801561065a57600080fd5b50610663611ae5565b005b34801561067157600080fd5b5061068c60048036038101906106879190613f01565b611b6d565b005b6106a860048036038101906106a391906144fe565b611c36565b6040516106b59190614005565b60405180910390f35b3480156106ca57600080fd5b506106d3611ebd565b6040516106e09190613f6f565b60405180910390f35b3480156106f557600080fd5b506106fe611ee7565b60405161070b9190613ea9565b60405180910390f35b34801561072057600080fd5b5061073b600480360381019061073691906145dd565b611f79565b005b34801561074957600080fd5b50610764600480360381019061075f91906146be565b611f8f565b005b34801561077257600080fd5b5061078d60048036038101906107889190614741565b611ff1565b005b34801561079b57600080fd5b506107a46120cc565b6040516107b19190614005565b60405180910390f35b3480156107c657600080fd5b506107e160048036038101906107dc9190613f01565b6120d2565b6040516107ee9190613ea9565b60405180910390f35b34801561080357600080fd5b5061080c612223565b6040516108199190614005565b60405180910390f35b34801561082e57600080fd5b50610837612234565b6040516108449190613ea9565b60405180910390f35b34801561085957600080fd5b50610874600480360381019061086f9190614020565b6122c2565b005b34801561088257600080fd5b5061089d60048036038101906108989190614794565b612450565b005b3480156108ab57600080fd5b506108c660048036038101906108c191906147d4565b61247d565b6040516108d39190613df5565b60405180910390f35b3480156108e857600080fd5b5061090360048036038101906108fe9190613f01565b612511565b005b34801561091157600080fd5b5061092c600480360381019061092791906140dc565b61262d565b005b6000632a55205a60e01b7bffffffffffffffffffffffffffffffffffffffffffffffffffffffff1916827bffffffffffffffffffffffffffffffffffffffffffffffffffffffff19161480610988575061098782612724565b5b9050919050565b60606000805461099e90614843565b80601f01602080910402602001604051908101604052809291908181526020018280546109ca90614843565b8015610a175780601f106109ec57610100808354040283529160200191610a17565b820191906000526020600020905b8154815290600101906020018083116109fa57829003601f168201915b5050505050905090565b6000610a2c82612806565b610a6b576040517f08c379a0000000000000000000000000000000000000000000000000000000008152600401610a62906148e6565b60405180910390fd5b6004600083815260200190815260200160002060009054906101000a900473ffffffffffffffffffffffffffffffffffffffff169050919050565b6000610ab182611731565b90508073ffffffffffffffffffffffffffffffffffffffff168373ffffffffffffffffffffffffffffffffffffffff1603610b21576040517f08c379a0000000000000000000000000000000000000000000000000000000008152600401610b1890614978565b60405180910390fd5b8073ffffffffffffffffffffffffffffffffffffffff16610b40612872565b73ffffffffffffffffffffffffffffffffffffffff161480610b6f5750610b6e81610b69612872565b61247d565b5b610bae576040517f08c379a0000000000000000000000000000000000000000000000000000000008152600401610ba590614a0a565b60405180910390fd5b610bb8838361287a565b505050565b6000601280549050905090565b3373ffffffffffffffffffffffffffffffffffffffff16610bea83611731565b73ffffffffffffffffffffffffffffffffffffffff1614610c40576040517f08c379a0000000000000000000000000000000000000000000000000000000008152600401610c3790614a76565b60405180910390fd5b60001515600f600084815260200190815260200160002060020160149054906101000a900460ff16151514610caa576040517f08c379a0000000000000000000000000000000000000000000000000000000008152600401610ca190614ae2565b60405180910390fd5b600a543414610cee576040517f08c379a0000000000000000000000000000000000000000000000000000000008152600401610ce590614b74565b60405180910390fd5b6001600f600084815260200190815260200160002060020160146101000a81548160ff02191690831515021790555080600f600084815260200190815260200160002060010181905550610d42600b612933565b5050565b610d57610d51612872565b82612949565b610d96576040517f08c379a0000000000000000000000000000000000000000000000000000000008152600401610d8d90614c06565b60405180910390fd5b610da1838383612a27565b505050565b6000600f60008381526020019081526020016000206001015490506000610dcc83611731565b90508073ffffffffffffffffffffffffffffffffffffffff163373ffffffffffffffffffffffffffffffffffffffff1603610e3c576040517f08c379a0000000000000000000000000000000000000000000000000000000008152600401610e3390614c72565b60405180910390fd5b813414610e7e576040517f08c379a0000000000000000000000000000000000000000000000000000000008152600401610e7590614cde565b60405180910390fd5b6000600860008581526020019081526020016000206040518060400160405290816000820160009054906101000a900473ffffffffffffffffffffffffffffffffffffffff1673ffffffffffffffffffffffffffffffffffffffff1673ffffffffffffffffffffffffffffffffffffffff168152602001600182015481525050905060008160000151905060006064836020015134610f1d9190614d2d565b610f279190614db6565b9050610f34843388612a27565b600f600087815260200190815260200160002060020160159054906101000a900460ff1615610ff8578373ffffffffffffffffffffffffffffffffffffffff166108fc8234610f839190614de7565b9081150290604051600060405180830381858888f19350505050158015610fae573d6000803e3d6000fd5b50610fb98282612c8d565b857fda09752ee9c059f617067751244dd0c7878c482a696ca05394dfa1c337e52a828383604051610feb9291906140b3565b60405180910390a2611082565b600081600f60008981526020019081526020016000206001015461101c9190614e1b565b905080600f6000898152602001908152602001600020600101819055508473ffffffffffffffffffffffffffffffffffffffff166108fc349081150290604051600060405180830381858888f1935050505015801561107f573d6000803e3d6000fd5b50505b61108c600b612cd8565b6000600f600088815260200190815260200160002060020160146101000a81548160ff0219169083151502179055506001600f600088815260200190815260200160002060020160156101000a81548160ff0219169083151502179055506000429050867f05649df894b86488ddb70529d1581119a112590a5a13945e9ebd978ea9d464733484883386604051611127959493929190614e71565b60405180910390a250505050505050565b6000806000600860008681526020019081526020016000206040518060400160405290816000820160009054906101000a900473ffffffffffffffffffffffffffffffffffffffff1673ffffffffffffffffffffffffffffffffffffffff1673ffffffffffffffffffffffffffffffffffffffff16815260200160018201548152505090508060000151925060648160200151856111d69190614d2d565b6111e09190614db6565b9150509250929050565b60006111f5836118af565b8210611236576040517f08c379a000000000000000000000000000000000000000000000000000000000815260040161122d90614f10565b60405180910390fd5b601060008473ffffffffffffffffffffffffffffffffffffffff1673ffffffffffffffffffffffffffffffffffffffff168152602001908152602001600020600083815260200190815260200160002054905092915050565b60146020528060005260406000206000915090505481565b606060006112b3610bbd565b90506000806112c2600b612d34565b67ffffffffffffffff8111156112db576112da614279565b5b60405190808252806020026020018201604052801561131457816020015b611301613c25565b8152602001906001900390816112f95790505b50905060005b8381101561145257600061132d82611633565b90506000600f60008381526020019081526020016000209050600115158160020160149054906101000a900460ff1615150361143d57806040518060a001604052908160008201548152602001600182015481526020016002820160009054906101000a900473ffffffffffffffffffffffffffffffffffffffff1673ffffffffffffffffffffffffffffffffffffffff1673ffffffffffffffffffffffffffffffffffffffff1681526020016002820160149054906101000a900460ff161515151581526020016002820160159054906101000a900460ff16151515158152505084868151811061142257611421614f30565b5b602002602001018190525060018561143a9190614e1b565b94505b5050808061144a90614f5f565b91505061131a565b5080935050505090565b611464612872565b73ffffffffffffffffffffffffffffffffffffffff16611482611ebd565b73ffffffffffffffffffffffffffffffffffffffff16146114d8576040517f08c379a00000000000000000000000000000000000000000000000000000000081526004016114cf90614ff3565b60405180910390fd5b600047905060008111611520576040517f08c379a00000000000000000000000000000000000000000000000000000000081526004016115179061505f565b60405180910390fd5b600061152a611ebd565b73ffffffffffffffffffffffffffffffffffffffff168260405161154d906150b0565b60006040518083038185875af1925050503d806000811461158a576040519150601f19603f3d011682016040523d82523d6000602084013e61158f565b606091505b50509050806115d3576040517f08c379a00000000000000000000000000000000000000000000000000000000081526004016115ca90615111565b60405180910390fd5b5050565b6115f283838360405180602001604052806000815250611f8f565b505050565b600060011515600e8360405161160d919061516d565b908152602001604051809103902060009054906101000a900460ff161515149050919050565b600061163d610bbd565b821061167e576040517f08c379a000000000000000000000000000000000000000000000000000000000815260040161167590614f10565b60405180910390fd5b6012828154811061169257611691614f30565b5b90600052602060002001549050919050565b6116ac613c6e565b600860008381526020019081526020016000206040518060400160405290816000820160009054906101000a900473ffffffffffffffffffffffffffffffffffffffff1673ffffffffffffffffffffffffffffffffffffffff1673ffffffffffffffffffffffffffffffffffffffff1681526020016001820154815250509050919050565b6000806002600084815260200190815260200160002060009054906101000a900473ffffffffffffffffffffffffffffffffffffffff169050600073ffffffffffffffffffffffffffffffffffffffff168173ffffffffffffffffffffffffffffffffffffffff16036117d9576040517f08c379a00000000000000000000000000000000000000000000000000000000081526004016117d0906151f6565b60405180910390fd5b80915050919050565b6117ea613c25565b600f60008381526020019081526020016000206040518060a001604052908160008201548152602001600182015481526020016002820160009054906101000a900473ffffffffffffffffffffffffffffffffffffffff1673ffffffffffffffffffffffffffffffffffffffff1673ffffffffffffffffffffffffffffffffffffffff1681526020016002820160149054906101000a900460ff161515151581526020016002820160159054906101000a900460ff1615151515815250509050919050565b60008073ffffffffffffffffffffffffffffffffffffffff168273ffffffffffffffffffffffffffffffffffffffff160361191f576040517f08c379a000000000000000000000000000000000000000000000000000000000815260040161191690615288565b60405180910390fd5b600360008373ffffffffffffffffffffffffffffffffffffffff1673ffffffffffffffffffffffffffffffffffffffff168152602001908152602001600020549050919050565b60606000611973336118af565b905060008167ffffffffffffffff81111561199157611990614279565b5b6040519080825280602002602001820160405280156119ca57816020015b6119b7613c25565b8152602001906001900390816119af5790505b50905060005b82811015611adc5760006119e433836111ea565b90506000600f60008381526020019081526020016000209050806040518060a001604052908160008201548152602001600182015481526020016002820160009054906101000a900473ffffffffffffffffffffffffffffffffffffffff1673ffffffffffffffffffffffffffffffffffffffff1673ffffffffffffffffffffffffffffffffffffffff1681526020016002820160149054906101000a900460ff161515151581526020016002820160159054906101000a900460ff161515151581525050848481518110611abc57611abb614f30565b5b602002602001018190525050508080611ad490614f5f565b9150506119d0565b50809250505090565b611aed612872565b73ffffffffffffffffffffffffffffffffffffffff16611b0b611ebd565b73ffffffffffffffffffffffffffffffffffffffff1614611b61576040517f08c379a0000000000000000000000000000000000000000000000000000000008152600401611b5890614ff3565b60405180910390fd5b611b6b6000612d42565b565b611b75612872565b73ffffffffffffffffffffffffffffffffffffffff16611b93611ebd565b73ffffffffffffffffffffffffffffffffffffffff1614611be9576040517f08c379a0000000000000000000000000000000000000000000000000000000008152600401611be090614ff3565b60405180910390fd5b60008111611c2c576040517f08c379a0000000000000000000000000000000000000000000000000000000008152600401611c23906152f4565b60405180910390fd5b80600a8190555050565b6000611c41866115f7565b15611c81576040517f08c379a0000000000000000000000000000000000000000000000000000000008152600401611c7890615360565b60405180910390fd5b600a543414611cc5576040517f08c379a0000000000000000000000000000000000000000000000000000000008152600401611cbc90614b74565b60405180910390fd5b611ccf600c612d34565b601460003373ffffffffffffffffffffffffffffffffffffffff1673ffffffffffffffffffffffffffffffffffffffff1681526020019081526020016000206000828254611d1d9190614e1b565b92505081905550611d2e600c612933565b611d38600b612933565b6000611d44600c612d34565b90506000600f600083815260200190815260200160002060020160156101000a81548160ff0219169083151502179055506000846bffffffffffffffffffffffff1614611dfe57611d953382612e08565b611d9f8188612e26565b611da98186612e9a565b611dc233856bffffffffffffffffffffffff1683611ff1565b6001600e88604051611dd4919061516d565b908152602001604051809103902060006101000a81548160ff021916908315150217905550611e54565b611e083382612e08565b611e128188612e26565b611e1c8186612e9a565b6001600e88604051611e2e919061516d565b908152602001604051809103902060006101000a81548160ff0219169083151502179055505b6000429050611e63600d612d34565b827fd3d21255cbe740cec1befc6130cd9a472727251d9e2a35eca969d621b86d5b2d8a8a33338c8c600160008e8c604051611ea79a9998979695949392919061538f565b60405180910390a3819250505095945050505050565b6000600760009054906101000a900473ffffffffffffffffffffffffffffffffffffffff16905090565b606060018054611ef690614843565b80601f0160208091040260200160405190810160405280929190818152602001828054611f2290614843565b8015611f6f5780601f10611f4457610100808354040283529160200191611f6f565b820191906000526020600020905b815481529060010190602001808311611f5257829003601f168201915b5050505050905090565b611f8b611f84612872565b8383612fd5565b5050565b611fa0611f9a612872565b83612949565b611fdf576040517f08c379a0000000000000000000000000000000000000000000000000000000008152600401611fd690614c06565b60405180910390fd5b611feb84848484613141565b50505050565b6064821115612035576040517f08c379a000000000000000000000000000000000000000000000000000000000815260040161202c90615485565b60405180910390fd5b60405180604001604052808473ffffffffffffffffffffffffffffffffffffffff168152602001838152506008600083815260200190815260200160002060008201518160000160006101000a81548173ffffffffffffffffffffffffffffffffffffffff021916908373ffffffffffffffffffffffffffffffffffffffff16021790555060208201518160010155905050505050565b600a5481565b60606120dd82612806565b61211c576040517f08c379a000000000000000000000000000000000000000000000000000000000815260040161211390615517565b60405180910390fd5b600060066000848152602001908152602001600020805461213c90614843565b80601f016020809104026020016040519081016040528092919081815260200182805461216890614843565b80156121b55780601f1061218a576101008083540402835291602001916121b5565b820191906000526020600020905b81548152906001019060200180831161219857829003601f168201915b5050505050905060006121c661319d565b905060008151036121db57819250505061221e565b6000825111156122105780826040516020016121f8929190615537565b6040516020818303038152906040529250505061221e565b612219846131b4565b925050505b919050565b600061222f600b612d34565b905090565b6009805461224190614843565b80601f016020809104026020016040519081016040528092919081815260200182805461226d90614843565b80156122ba5780601f1061228f576101008083540402835291602001916122ba565b820191906000526020600020905b81548152906001019060200180831161229d57829003601f168201915b505050505081565b3373ffffffffffffffffffffffffffffffffffffffff166122e283611731565b73ffffffffffffffffffffffffffffffffffffffff1614612338576040517f08c379a000000000000000000000000000000000000000000000000000000000815260040161232f90614a76565b60405180910390fd5b6000600860008481526020019081526020016000206040518060400160405290816000820160009054906101000a900473ffffffffffffffffffffffffffffffffffffffff1673ffffffffffffffffffffffffffffffffffffffff1673ffffffffffffffffffffffffffffffffffffffff1681526020016001820154815250509050600060648260200151846123ce9190614d2d565b6123d89190614db6565b9050600f600085815260200190815260200160002060020160159054906101000a900460ff161561242e57808361240f9190614e1b565b600f60008681526020019081526020016000206001018190555061244a565b82600f6000868152602001908152602001600020600101819055505b50505050565b806bffffffffffffffffffffffff1660086000848152602001908152602001600020600101819055505050565b6000600560008473ffffffffffffffffffffffffffffffffffffffff1673ffffffffffffffffffffffffffffffffffffffff16815260200190815260200160002060008373ffffffffffffffffffffffffffffffffffffffff1673ffffffffffffffffffffffffffffffffffffffff16815260200190815260200160002060009054906101000a900460ff16905092915050565b3373ffffffffffffffffffffffffffffffffffffffff1661253182611731565b73ffffffffffffffffffffffffffffffffffffffff1614612587576040517f08c379a000000000000000000000000000000000000000000000000000000000815260040161257e90614a76565b60405180910390fd5b60011515600f600083815260200190815260200160002060020160149054906101000a900460ff161515146125f1576040517f08c379a00000000000000000000000000000000000000000000000000000000081526004016125e8906155cd565b60405180910390fd5b6000600f600083815260200190815260200160002060020160146101000a81548160ff02191690831515021790555061262a600b612cd8565b50565b612635612872565b73ffffffffffffffffffffffffffffffffffffffff16612653611ebd565b73ffffffffffffffffffffffffffffffffffffffff16146126a9576040517f08c379a00000000000000000000000000000000000000000000000000000000081526004016126a090614ff3565b60405180910390fd5b600073ffffffffffffffffffffffffffffffffffffffff168173ffffffffffffffffffffffffffffffffffffffff1603612718576040517f08c379a000000000000000000000000000000000000000000000000000000000815260040161270f9061565f565b60405180910390fd5b61272181612d42565b50565b60007f80ac58cd000000000000000000000000000000000000000000000000000000007bffffffffffffffffffffffffffffffffffffffffffffffffffffffff1916827bffffffffffffffffffffffffffffffffffffffffffffffffffffffff191614806127ef57507f5b5e139f000000000000000000000000000000000000000000000000000000007bffffffffffffffffffffffffffffffffffffffffffffffffffffffff1916827bffffffffffffffffffffffffffffffffffffffffffffffffffffffff1916145b806127ff57506127fe8261325b565b5b9050919050565b60008073ffffffffffffffffffffffffffffffffffffffff166002600084815260200190815260200160002060009054906101000a900473ffffffffffffffffffffffffffffffffffffffff1673ffffffffffffffffffffffffffffffffffffffff1614159050919050565b600033905090565b816004600083815260200190815260200160002060006101000a81548173ffffffffffffffffffffffffffffffffffffffff021916908373ffffffffffffffffffffffffffffffffffffffff160217905550808273ffffffffffffffffffffffffffffffffffffffff166128ed83611731565b73ffffffffffffffffffffffffffffffffffffffff167f8c5be1e5ebec7d5bd14f71427d1e84f3dd0314c0f7b2291e5b200ac8c7c3b92560405160405180910390a45050565b6001816000016000828254019250508190555050565b600061295482612806565b612993576040517f08c379a000000000000000000000000000000000000000000000000000000000815260040161298a906156f1565b60405180910390fd5b600061299e83611731565b90508073ffffffffffffffffffffffffffffffffffffffff168473ffffffffffffffffffffffffffffffffffffffff161480612a0d57508373ffffffffffffffffffffffffffffffffffffffff166129f584610a21565b73ffffffffffffffffffffffffffffffffffffffff16145b80612a1e5750612a1d818561247d565b5b91505092915050565b8273ffffffffffffffffffffffffffffffffffffffff16612a4782611731565b73ffffffffffffffffffffffffffffffffffffffff1614612a9d576040517f08c379a0000000000000000000000000000000000000000000000000000000008152600401612a9490615783565b60405180910390fd5b600073ffffffffffffffffffffffffffffffffffffffff168273ffffffffffffffffffffffffffffffffffffffff1603612b0c576040517f08c379a0000000000000000000000000000000000000000000000000000000008152600401612b0390615815565b60405180910390fd5b612b178383836132c5565b612b2260008261287a565b6001600360008573ffffffffffffffffffffffffffffffffffffffff1673ffffffffffffffffffffffffffffffffffffffff1681526020019081526020016000206000828254612b729190614de7565b925050819055506001600360008473ffffffffffffffffffffffffffffffffffffffff1673ffffffffffffffffffffffffffffffffffffffff1681526020019081526020016000206000828254612bc99190614e1b565b92505081905550816002600083815260200190815260200160002060006101000a81548173ffffffffffffffffffffffffffffffffffffffff021916908373ffffffffffffffffffffffffffffffffffffffff160217905550808273ffffffffffffffffffffffffffffffffffffffff168473ffffffffffffffffffffffffffffffffffffffff167fddf252ad1be2c89b69c2b068fc378daa952ba7f163c4a11628f55a4df523b3ef60405160405180910390a4612c888383836133d7565b505050565b8173ffffffffffffffffffffffffffffffffffffffff166108fc829081150290604051600060405180830381858888f19350505050158015612cd3573d6000803e3d6000fd5b505050565b60008160000154905060008111612d24576040517f08c379a0000000000000000000000000000000000000000000000000000000008152600401612d1b90615881565b60405180910390fd5b6001810382600001819055505050565b600081600001549050919050565b6000600760009054906101000a900473ffffffffffffffffffffffffffffffffffffffff16905081600760006101000a81548173ffffffffffffffffffffffffffffffffffffffff021916908373ffffffffffffffffffffffffffffffffffffffff1602179055508173ffffffffffffffffffffffffffffffffffffffff168173ffffffffffffffffffffffffffffffffffffffff167f8be0079c531659141344cd1fd0a4f28419497f9722a3daafe3b4186f6b6457e060405160405180910390a35050565b612e228282604051806020016040528060008152506133dc565b5050565b612e2f82612806565b612e6e576040517f08c379a0000000000000000000000000000000000000000000000000000000008152600401612e6590615913565b60405180910390fd5b80600660008481526020019081526020016000209080519060200190612e95929190613c9e565b505050565b60008111612edd576040517f08c379a0000000000000000000000000000000000000000000000000000000008152600401612ed4906152f4565b60405180910390fd5b6040518060a001604052808381526020018281526020013373ffffffffffffffffffffffffffffffffffffffff16815260200160011515815260200160001515815250600f6000848152602001908152602001600020600082015181600001556020820151816001015560408201518160020160006101000a81548173ffffffffffffffffffffffffffffffffffffffff021916908373ffffffffffffffffffffffffffffffffffffffff16021790555060608201518160020160146101000a81548160ff02191690831515021790555060808201518160020160156101000a81548160ff0219169083151502179055509050505050565b8173ffffffffffffffffffffffffffffffffffffffff168373ffffffffffffffffffffffffffffffffffffffff1603613043576040517f08c379a000000000000000000000000000000000000000000000000000000000815260040161303a9061597f565b60405180910390fd5b80600560008573ffffffffffffffffffffffffffffffffffffffff1673ffffffffffffffffffffffffffffffffffffffff16815260200190815260200160002060008473ffffffffffffffffffffffffffffffffffffffff1673ffffffffffffffffffffffffffffffffffffffff16815260200190815260200160002060006101000a81548160ff0219169083151502179055508173ffffffffffffffffffffffffffffffffffffffff168373ffffffffffffffffffffffffffffffffffffffff167f17307eab39ab6107e8899845ad3d59bd9653f200f220920489ca2b5937696c31836040516131349190613df5565b60405180910390a3505050565b61314c848484612a27565b61315884848484613437565b613197576040517f08c379a000000000000000000000000000000000000000000000000000000000815260040161318e90615a11565b60405180910390fd5b50505050565b606060405180602001604052806000815250905090565b60606131bf82612806565b6131fe576040517f08c379a00000000000000000000000000000000000000000000000000000000081526004016131f590615aa3565b60405180910390fd5b600061320861319d565b905060008151116132285760405180602001604052806000815250613253565b80613232846135be565b604051602001613243929190615537565b6040516020818303038152906040525b915050919050565b60007f01ffc9a7000000000000000000000000000000000000000000000000000000007bffffffffffffffffffffffffffffffffffffffffffffffffffffffff1916827bffffffffffffffffffffffffffffffffffffffffffffffffffffffff1916149050919050565b6132d083838361371e565b600073ffffffffffffffffffffffffffffffffffffffff168373ffffffffffffffffffffffffffffffffffffffff16036133125761330d81613723565b613351565b8173ffffffffffffffffffffffffffffffffffffffff168373ffffffffffffffffffffffffffffffffffffffff16146133505761334f838261376c565b5b5b600073ffffffffffffffffffffffffffffffffffffffff168273ffffffffffffffffffffffffffffffffffffffff16036133935761338e816138d9565b6133d2565b8273ffffffffffffffffffffffffffffffffffffffff168273ffffffffffffffffffffffffffffffffffffffff16146133d1576133d082826139aa565b5b5b505050565b505050565b6133e68383613a29565b6133f36000848484613437565b613432576040517f08c379a000000000000000000000000000000000000000000000000000000000815260040161342990615a11565b60405180910390fd5b505050565b60006134588473ffffffffffffffffffffffffffffffffffffffff16613c02565b156135b1578373ffffffffffffffffffffffffffffffffffffffff1663150b7a02613481612872565b8786866040518563ffffffff1660e01b81526004016134a39493929190615b18565b6020604051808303816000875af19250505080156134df57506040513d601f19601f820116820180604052508101906134dc9190615b79565b60015b613561573d806000811461350f576040519150601f19603f3d011682016040523d82523d6000602084013e613514565b606091505b506000815103613559576040517f08c379a000000000000000000000000000000000000000000000000000000000815260040161355090615a11565b60405180910390fd5b805181602001fd5b63150b7a0260e01b7bffffffffffffffffffffffffffffffffffffffffffffffffffffffff1916817bffffffffffffffffffffffffffffffffffffffffffffffffffffffff1916149150506135b6565b600190505b949350505050565b606060008203613605576040518060400160405280600181526020017f30000000000000000000000000000000000000000000000000000000000000008152509050613719565b600082905060005b6000821461363757808061362090614f5f565b915050600a826136309190614db6565b915061360d565b60008167ffffffffffffffff81111561365357613652614279565b5b6040519080825280601f01601f1916602001820160405280156136855781602001600182028036833780820191505090505b5090505b600085146137125760018261369e9190614de7565b9150600a856136ad9190615ba6565b60306136b99190614e1b565b60f81b8183815181106136cf576136ce614f30565b5b60200101907effffffffffffffffffffffffffffffffffffffffffffffffffffffffffffff1916908160001a905350600a8561370b9190614db6565b9450613689565b8093505050505b919050565b505050565b6012805490506013600083815260200190815260200160002081905550601281908060018154018082558091505060019003906000526020600020016000909190919091505550565b60006001613779846118af565b6137839190614de7565b9050600060116000848152602001908152602001600020549050818114613868576000601060008673ffffffffffffffffffffffffffffffffffffffff1673ffffffffffffffffffffffffffffffffffffffff168152602001908152602001600020600084815260200190815260200160002054905080601060008773ffffffffffffffffffffffffffffffffffffffff1673ffffffffffffffffffffffffffffffffffffffff168152602001908152602001600020600084815260200190815260200160002081905550816011600083815260200190815260200160002081905550505b6011600084815260200190815260200160002060009055601060008573ffffffffffffffffffffffffffffffffffffffff1673ffffffffffffffffffffffffffffffffffffffff16815260200190815260200160002060008381526020019081526020016000206000905550505050565b600060016012805490506138ed9190614de7565b905060006013600084815260200190815260200160002054905060006012838154811061391d5761391c614f30565b5b90600052602060002001549050806012838154811061393f5761393e614f30565b5b90600052602060002001819055508160136000838152602001908152602001600020819055506013600085815260200190815260200160002060009055601280548061398e5761398d615bd7565b5b6001900381819060005260206000200160009055905550505050565b60006139b5836118af565b905081601060008573ffffffffffffffffffffffffffffffffffffffff1673ffffffffffffffffffffffffffffffffffffffff168152602001908152602001600020600083815260200190815260200160002081905550806011600084815260200190815260200160002081905550505050565b600073ffffffffffffffffffffffffffffffffffffffff168273ffffffffffffffffffffffffffffffffffffffff1603613a98576040517f08c379a0000000000000000000000000000000000000000000000000000000008152600401613a8f90615c52565b60405180910390fd5b613aa181612806565b15613ae1576040517f08c379a0000000000000000000000000000000000000000000000000000000008152600401613ad890615cbe565b60405180910390fd5b613aed600083836132c5565b6001600360008473ffffffffffffffffffffffffffffffffffffffff1673ffffffffffffffffffffffffffffffffffffffff1681526020019081526020016000206000828254613b3d9190614e1b565b92505081905550816002600083815260200190815260200160002060006101000a81548173ffffffffffffffffffffffffffffffffffffffff021916908373ffffffffffffffffffffffffffffffffffffffff160217905550808273ffffffffffffffffffffffffffffffffffffffff16600073ffffffffffffffffffffffffffffffffffffffff167fddf252ad1be2c89b69c2b068fc378daa952ba7f163c4a11628f55a4df523b3ef60405160405180910390a4613bfe600083836133d7565b5050565b6000808273ffffffffffffffffffffffffffffffffffffffff163b119050919050565b6040518060a001604052806000815260200160008152602001600073ffffffffffffffffffffffffffffffffffffffff1681526020016000151581526020016000151581525090565b6040518060400160405280600073ffffffffffffffffffffffffffffffffffffffff168152602001600081525090565b828054613caa90614843565b90600052602060002090601f016020900481019282613ccc5760008555613d13565b82601f10613ce557805160ff1916838001178555613d13565b82800160010185558215613d13579182015b82811115613d12578251825591602001919060010190613cf7565b5b509050613d209190613d24565b5090565b5b80821115613d3d576000816000905550600101613d25565b5090565b6000604051905090565b600080fd5b600080fd5b60007fffffffff0000000000000000000000000000000000000000000000000000000082169050919050565b613d8a81613d55565b8114613d9557600080fd5b50565b600081359050613da781613d81565b92915050565b600060208284031215613dc357613dc2613d4b565b5b6000613dd184828501613d98565b91505092915050565b60008115159050919050565b613def81613dda565b82525050565b6000602082019050613e0a6000830184613de6565b92915050565b600081519050919050565b600082825260208201905092915050565b60005b83811015613e4a578082015181840152602081019050613e2f565b83811115613e59576000848401525b50505050565b6000601f19601f8301169050919050565b6000613e7b82613e10565b613e858185613e1b565b9350613e95818560208601613e2c565b613e9e81613e5f565b840191505092915050565b60006020820190508181036000830152613ec38184613e70565b905092915050565b6000819050919050565b613ede81613ecb565b8114613ee957600080fd5b50565b600081359050613efb81613ed5565b92915050565b600060208284031215613f1757613f16613d4b565b5b6000613f2584828501613eec565b91505092915050565b600073ffffffffffffffffffffffffffffffffffffffff82169050919050565b6000613f5982613f2e565b9050919050565b613f6981613f4e565b82525050565b6000602082019050613f846000830184613f60565b92915050565b613f9381613f4e565b8114613f9e57600080fd5b50565b600081359050613fb081613f8a565b92915050565b60008060408385031215613fcd57613fcc613d4b565b5b6000613fdb85828601613fa1565b9250506020613fec85828601613eec565b9150509250929050565b613fff81613ecb565b82525050565b600060208201905061401a6000830184613ff6565b92915050565b6000806040838503121561403757614036613d4b565b5b600061404585828601613eec565b925050602061405685828601613eec565b9150509250929050565b60008060006060848603121561407957614078613d4b565b5b600061408786828701613fa1565b935050602061409886828701613fa1565b92505060406140a986828701613eec565b9150509250925092565b60006040820190506140c86000830185613f60565b6140d56020830184613ff6565b9392505050565b6000602082840312156140f2576140f1613d4b565b5b600061410084828501613fa1565b91505092915050565b600081519050919050565b600082825260208201905092915050565b6000819050602082019050919050565b61413e81613ecb565b82525050565b61414d81613f4e565b82525050565b61415c81613dda565b82525050565b60a0820160008201516141786000850182614135565b50602082015161418b6020850182614135565b50604082015161419e6040850182614144565b5060608201516141b16060850182614153565b5060808201516141c46080850182614153565b50505050565b60006141d68383614162565b60a08301905092915050565b6000602082019050919050565b60006141fa82614109565b6142048185614114565b935061420f83614125565b8060005b8381101561424057815161422788826141ca565b9750614232836141e2565b925050600181019050614213565b5085935050505092915050565b6000602082019050818103600083015261426781846141ef565b905092915050565b600080fd5b600080fd5b7f4e487b7100000000000000000000000000000000000000000000000000000000600052604160045260246000fd5b6142b182613e5f565b810181811067ffffffffffffffff821117156142d0576142cf614279565b5b80604052505050565b60006142e3613d41565b90506142ef82826142a8565b919050565b600067ffffffffffffffff82111561430f5761430e614279565b5b61431882613e5f565b9050602081019050919050565b82818337600083830152505050565b6000614347614342846142f4565b6142d9565b90508281526020810184848401111561436357614362614274565b5b61436e848285614325565b509392505050565b600082601f83011261438b5761438a61426f565b5b813561439b848260208601614334565b91505092915050565b6000602082840312156143ba576143b9613d4b565b5b600082013567ffffffffffffffff8111156143d8576143d7613d50565b5b6143e484828501614376565b91505092915050565b6040820160008201516144036000850182614144565b5060208201516144166020850182614135565b50505050565b600060408201905061443160008301846143ed565b92915050565b60a08201600082015161444d6000850182614135565b5060208201516144606020850182614135565b5060408201516144736040850182614144565b5060608201516144866060850182614153565b5060808201516144996080850182614153565b50505050565b600060a0820190506144b46000830184614437565b92915050565b60006bffffffffffffffffffffffff82169050919050565b6144db816144ba565b81146144e657600080fd5b50565b6000813590506144f8816144d2565b92915050565b600080600080600060a0868803121561451a57614519613d4b565b5b600086013567ffffffffffffffff81111561453857614537613d50565b5b61454488828901614376565b955050602086013567ffffffffffffffff81111561456557614564613d50565b5b61457188828901614376565b945050604061458288828901613eec565b9350506060614593888289016144e9565b92505060806145a488828901613eec565b9150509295509295909350565b6145ba81613dda565b81146145c557600080fd5b50565b6000813590506145d7816145b1565b92915050565b600080604083850312156145f4576145f3613d4b565b5b600061460285828601613fa1565b9250506020614613858286016145c8565b9150509250929050565b600067ffffffffffffffff82111561463857614637614279565b5b61464182613e5f565b9050602081019050919050565b600061466161465c8461461d565b6142d9565b90508281526020810184848401111561467d5761467c614274565b5b614688848285614325565b509392505050565b600082601f8301126146a5576146a461426f565b5b81356146b584826020860161464e565b91505092915050565b600080600080608085870312156146d8576146d7613d4b565b5b60006146e687828801613fa1565b94505060206146f787828801613fa1565b935050604061470887828801613eec565b925050606085013567ffffffffffffffff81111561472957614728613d50565b5b61473587828801614690565b91505092959194509250565b60008060006060848603121561475a57614759613d4b565b5b600061476886828701613fa1565b935050602061477986828701613eec565b925050604061478a86828701613eec565b9150509250925092565b600080604083850312156147ab576147aa613d4b565b5b60006147b985828601613eec565b92505060206147ca858286016144e9565b9150509250929050565b600080604083850312156147eb576147ea613d4b565b5b60006147f985828601613fa1565b925050602061480a85828601613fa1565b9150509250929050565b7f4e487b7100000000000000000000000000000000000000000000000000000000600052602260045260246000fd5b6000600282049050600182168061485b57607f821691505b60208210810361486e5761486d614814565b5b50919050565b7f4552433732313a20617070726f76656420717565727920666f72206e6f6e657860008201527f697374656e7420746f6b656e0000000000000000000000000000000000000000602082015250565b60006148d0602c83613e1b565b91506148db82614874565b604082019050919050565b600060208201905081810360008301526148ff816148c3565b9050919050565b7f4552433732313a20617070726f76616c20746f2063757272656e74206f776e6560008201527f7200000000000000000000000000000000000000000000000000000000000000602082015250565b6000614962602183613e1b565b915061496d82614906565b604082019050919050565b6000602082019050818103600083015261499181614955565b9050919050565b7f4552433732313a20617070726f76652063616c6c6572206973206e6f74206f7760008201527f6e6572206e6f7220617070726f76656420666f7220616c6c0000000000000000602082015250565b60006149f4603883613e1b565b91506149ff82614998565b604082019050919050565b60006020820190508181036000830152614a23816149e7565b9050919050565b7f596f7520617265206e6f74206f776e6572206f662074686973206e6674000000600082015250565b6000614a60601d83613e1b565b9150614a6b82614a2a565b602082019050919050565b60006020820190508181036000830152614a8f81614a53565b9050919050565b7f4974656d20697320616c7265616479206f6e2073616c65000000000000000000600082015250565b6000614acc601783613e1b565b9150614ad782614a96565b602082019050919050565b60006020820190508181036000830152614afb81614abf565b9050919050565b7f5072696365206d75737420626520657175616c20746f206c697374696e67207060008201527f7269636500000000000000000000000000000000000000000000000000000000602082015250565b6000614b5e602483613e1b565b9150614b6982614b02565b604082019050919050565b60006020820190508181036000830152614b8d81614b51565b9050919050565b7f4552433732313a207472616e736665722063616c6c6572206973206e6f74206f60008201527f776e6572206e6f7220617070726f766564000000000000000000000000000000602082015250565b6000614bf0603183613e1b565b9150614bfb82614b94565b604082019050919050565b60006020820190508181036000830152614c1f81614be3565b9050919050565b7f596f7520616c7265616479206f776e2074686973204e46540000000000000000600082015250565b6000614c5c601883613e1b565b9150614c6782614c26565b602082019050919050565b60006020820190508181036000830152614c8b81614c4f565b9050919050565b7f506c65617365207375626d6974207468652061736b696e672070726963650000600082015250565b6000614cc8601e83613e1b565b9150614cd382614c92565b602082019050919050565b60006020820190508181036000830152614cf781614cbb565b9050919050565b7f4e487b7100000000000000000000000000000000000000000000000000000000600052601160045260246000fd5b6000614d3882613ecb565b9150614d4383613ecb565b9250817fffffffffffffffffffffffffffffffffffffffffffffffffffffffffffffffff0483118215151615614d7c57614d7b614cfe565b5b828202905092915050565b7f4e487b7100000000000000000000000000000000000000000000000000000000600052601260045260246000fd5b6000614dc182613ecb565b9150614dcc83613ecb565b925082614ddc57614ddb614d87565b5b828204905092915050565b6000614df282613ecb565b9150614dfd83613ecb565b925082821015614e1057614e0f614cfe565b5b828203905092915050565b6000614e2682613ecb565b9150614e3183613ecb565b9250827fffffffffffffffffffffffffffffffffffffffffffffffffffffffffffffffff03821115614e6657614e65614cfe565b5b828201905092915050565b600060a082019050614e866000830188613ff6565b614e936020830187613ff6565b614ea06040830186613f60565b614ead6060830185613f60565b614eba6080830184613ff6565b9695505050505050565b7f496e646578206f7574206f6620626f756e647300000000000000000000000000600082015250565b6000614efa601383613e1b565b9150614f0582614ec4565b602082019050919050565b60006020820190508181036000830152614f2981614eed565b9050919050565b7f4e487b7100000000000000000000000000000000000000000000000000000000600052603260045260246000fd5b6000614f6a82613ecb565b91507fffffffffffffffffffffffffffffffffffffffffffffffffffffffffffffffff8203614f9c57614f9b614cfe565b5b600182019050919050565b7f4f776e61626c653a2063616c6c6572206973206e6f7420746865206f776e6572600082015250565b6000614fdd602083613e1b565b9150614fe882614fa7565b602082019050919050565b6000602082019050818103600083015261500c81614fd0565b9050919050565b7f4e6f206574686572206c65667420746f20776974686472617700000000000000600082015250565b6000615049601983613e1b565b915061505482615013565b602082019050919050565b600060208201905081810360008301526150788161503c565b9050919050565b600081905092915050565b50565b600061509a60008361507f565b91506150a58261508a565b600082019050919050565b60006150bb8261508d565b9150819050919050565b7f5472616e73666572206661696c65642e00000000000000000000000000000000600082015250565b60006150fb601083613e1b565b9150615106826150c5565b602082019050919050565b6000602082019050818103600083015261512a816150ee565b9050919050565b600081905092915050565b600061514782613e10565b6151518185615131565b9350615161818560208601613e2c565b80840191505092915050565b6000615179828461513c565b915081905092915050565b7f4552433732313a206f776e657220717565727920666f72206e6f6e657869737460008201527f656e7420746f6b656e0000000000000000000000000000000000000000000000602082015250565b60006151e0602983613e1b565b91506151eb82615184565b604082019050919050565b6000602082019050818103600083015261520f816151d3565b9050919050565b7f4552433732313a2062616c616e636520717565727920666f7220746865207a6560008201527f726f206164647265737300000000000000000000000000000000000000000000602082015250565b6000615272602a83613e1b565b915061527d82615216565b604082019050919050565b600060208201905081810360008301526152a181615265565b9050919050565b7f5072696365206d757374206265206174206c6561737420312077656900000000600082015250565b60006152de601c83613e1b565b91506152e9826152a8565b602082019050919050565b6000602082019050818103600083015261530d816152d1565b9050919050565b7f546f6b656e2055524920616c7265616479206578697374730000000000000000600082015250565b600061534a601883613e1b565b915061535582615314565b602082019050919050565b600060208201905081810360008301526153798161533d565b9050919050565b615389816144ba565b82525050565b60006101408201905081810360008301526153aa818d613e70565b905081810360208301526153be818c613e70565b90506153cd604083018b613f60565b6153da606083018a613f60565b6153e76080830189613ff6565b6153f460a0830188615380565b61540160c0830187613de6565b61540e60e0830186613de6565b61541c610100830185613ff6565b61542a610120830184613ff6565b9b9a5050505050505050505050565b7f45524332393831526f79616c746965733a20546f6f2068696768000000000000600082015250565b600061546f601a83613e1b565b915061547a82615439565b602082019050919050565b6000602082019050818103600083015261549e81615462565b9050919050565b7f45524337323155524953746f726167653a2055524920717565727920666f722060008201527f6e6f6e6578697374656e7420746f6b656e000000000000000000000000000000602082015250565b6000615501603183613e1b565b915061550c826154a5565b604082019050919050565b60006020820190508181036000830152615530816154f4565b9050919050565b6000615543828561513c565b915061554f828461513c565b91508190509392505050565b7f4974656d20697320616c72656164792072656d6f7665642066726f6d2073616c60008201527f6500000000000000000000000000000000000000000000000000000000000000602082015250565b60006155b7602183613e1b565b91506155c28261555b565b604082019050919050565b600060208201905081810360008301526155e6816155aa565b9050919050565b7f4f776e61626c653a206e6577206f776e657220697320746865207a65726f206160008201527f6464726573730000000000000000000000000000000000000000000000000000602082015250565b6000615649602683613e1b565b9150615654826155ed565b604082019050919050565b600060208201905081810360008301526156788161563c565b9050919050565b7f4552433732313a206f70657261746f7220717565727920666f72206e6f6e657860008201527f697374656e7420746f6b656e0000000000000000000000000000000000000000602082015250565b60006156db602c83613e1b565b91506156e68261567f565b604082019050919050565b6000602082019050818103600083015261570a816156ce565b9050919050565b7f4552433732313a207472616e736665722066726f6d20696e636f72726563742060008201527f6f776e6572000000000000000000000000000000000000000000000000000000602082015250565b600061576d602583613e1b565b915061577882615711565b604082019050919050565b6000602082019050818103600083015261579c81615760565b9050919050565b7f4552433732313a207472616e7366657220746f20746865207a65726f2061646460008201527f7265737300000000000000000000000000000000000000000000000000000000602082015250565b60006157ff602483613e1b565b915061580a826157a3565b604082019050919050565b6000602082019050818103600083015261582e816157f2565b9050919050565b7f436f756e7465723a2064656372656d656e74206f766572666c6f770000000000600082015250565b600061586b601b83613e1b565b915061587682615835565b602082019050919050565b6000602082019050818103600083015261589a8161585e565b9050919050565b7f45524337323155524953746f726167653a2055524920736574206f66206e6f6e60008201527f6578697374656e7420746f6b656e000000000000000000000000000000000000602082015250565b60006158fd602e83613e1b565b9150615908826158a1565b604082019050919050565b6000602082019050818103600083015261592c816158f0565b9050919050565b7f4552433732313a20617070726f766520746f2063616c6c657200000000000000600082015250565b6000615969601983613e1b565b915061597482615933565b602082019050919050565b600060208201905081810360008301526159988161595c565b9050919050565b7f4552433732313a207472616e7366657220746f206e6f6e20455243373231526560008201527f63656976657220696d706c656d656e7465720000000000000000000000000000602082015250565b60006159fb603283613e1b565b9150615a068261599f565b604082019050919050565b60006020820190508181036000830152615a2a816159ee565b9050919050565b7f4552433732314d657461646174613a2055524920717565727920666f72206e6f60008201527f6e6578697374656e7420746f6b656e0000000000000000000000000000000000602082015250565b6000615a8d602f83613e1b565b9150615a9882615a31565b604082019050919050565b60006020820190508181036000830152615abc81615a80565b9050919050565b600081519050919050565b600082825260208201905092915050565b6000615aea82615ac3565b615af48185615ace565b9350615b04818560208601613e2c565b615b0d81613e5f565b840191505092915050565b6000608082019050615b2d6000830187613f60565b615b3a6020830186613f60565b615b476040830185613ff6565b8181036060830152615b598184615adf565b905095945050505050565b600081519050615b7381613d81565b92915050565b600060208284031215615b8f57615b8e613d4b565b5b6000615b9d84828501615b64565b91505092915050565b6000615bb182613ecb565b9150615bbc83613ecb565b925082615bcc57615bcb614d87565b5b828206905092915050565b7f4e487b7100000000000000000000000000000000000000000000000000000000600052603160045260246000fd5b7f4552433732313a206d696e7420746f20746865207a65726f2061646472657373600082015250565b6000615c3c602083613e1b565b9150615c4782615c06565b602082019050919050565b60006020820190508181036000830152615c6b81615c2f565b9050919050565b7f4552433732313a20746f6b656e20616c7265616479206d696e74656400000000600082015250565b6000615ca8601c83613e1b565b9150615cb382615c72565b602082019050919050565b60006020820190508181036000830152615cd781615c9b565b905091905056fea264697066735822122060e237822d3d37540a1c7ada9aee84b42cb58a69719509341d632a8dcf730b0664736f6c634300080d0033",
  "immutableReferences": {},
  "source": "// SPDX-License-Identifier: MIT\npragma solidity >=0.4.22 <0.9.0;\n\nimport \"@openzeppelin/contracts/token/ERC721/extensions/ERC721URIStorage.sol\";\nimport \"@openzeppelin/contracts/utils/Counters.sol\";\nimport \"@openzeppelin/contracts/access/Ownable.sol\";\n\ncontract NftMarket is ERC721URIStorage, Ownable {\n    using Counters for Counters.Counter;\n\n    struct NftItem {\n        uint tokenId;\n        uint price;\n        address creator;\n        bool isListed;\n        bool isSold;\n    }\n\n    struct RoyaltyInfo {\n        address recipient;\n        uint256 amount;\n    }\n\n    mapping(uint256 => RoyaltyInfo) royaltyPerTokenId;\n\n    //Interface for royalties\n    bytes4 private constant _INTERFACE_ID_ERC2981 = 0x2a55205a;\n\n    string public baseTokenURI;\n\n    uint public listingPrice = 0.025 ether;\n\n    Counters.Counter private _listedItems;\n    Counters.Counter private _tokenIds;\n\n    Counters.Counter private _collectionId;\n\n    mapping(string => bool) private _usedTokenURIs;\n    mapping(uint => NftItem) private _idToNftItem;\n\n    mapping(address => mapping(uint => uint)) private _ownedTokens;\n    mapping(uint => uint) private _idToOwnedIndex;\n\n    uint256[] private _allNfts;\n    mapping(uint => uint) private _idToNftIndex;\n\n    event NFT (\n        uint  indexed tokenId,\n        string tokenURI,\n        string nftName,\n        address creator,\n        address owner,\n        uint price,\n        uint96 royalty,\n        bool isListed,\n        bool isSold,\n        uint indexed collectionId,\n        uint networkId,\n        uint createdAt\n    );\n    event NftBought (\n        uint indexed tokenId,\n        uint price,\n        uint royaltyAmount,\n        address previousOwner,\n        address owner,\n        uint boughtAt\n    );\n    event RoyaltyAmountSent(\n        address creator,\n        uint indexed tokenId,\n        uint royaltyAmount\n    );\n\n    //amount of mints that each address has executed.\n    mapping(address => uint256) public mintsPerAddress;\n\n    constructor() ERC721(\"PumpkinNFT\", \"PNFT\") {}\n\n    //ensure that modified function cannot be called by another contract\n    modifier callerIsUser() {\n        require(tx.origin == msg.sender, \"The caller is another contract\");\n        _;\n    }\n\n    function setListingPrice(uint newPrice) external onlyOwner {\n        require(newPrice > 0, \"Price must be at least 1 wei\");\n        listingPrice = newPrice;\n    }\n\n    function getNftItem(uint tokenId) public view returns (NftItem memory) {\n        return _idToNftItem[tokenId];\n    }\n\n    function listedItemsCount() public view returns (uint) {\n        return _listedItems.current();\n    }\n\n    function tokenURIExists(string memory tokenURI) public view returns (bool) {\n        return _usedTokenURIs[tokenURI] == true;\n    }\n\n    function totalSupply() public view returns (uint) {\n        return _allNfts.length;\n    }\n\n    function tokenByIndex(uint index) public view returns (uint) {\n        require(index < totalSupply(), \"Index out of bounds\");\n        return _allNfts[index];\n    }\n\n    function tokenOfOwnerByIndex(address owner, uint index) public view returns (uint) {\n        require(index < ERC721.balanceOf(owner), \"Index out of bounds\");\n        return _ownedTokens[owner][index];\n    }\n\n    function getAllNftsOnSale() public view returns (NftItem[] memory) {\n        uint allItemsCounts = totalSupply();\n        uint currentIndex = 0;\n        NftItem[] memory items = new NftItem[](_listedItems.current());\n\n        for (uint i = 0; i < allItemsCounts; i++) {\n            uint tokenId = tokenByIndex(i);\n            NftItem storage item = _idToNftItem[tokenId];\n\n            if (item.isListed == true) {\n                items[currentIndex] = item;\n                currentIndex += 1;\n            }\n        }\n        return items;\n    }\n\n    function getOwnedNfts() public view returns (NftItem[] memory) {\n        uint ownedItemsCount = ERC721.balanceOf(msg.sender);\n        NftItem[] memory items = new NftItem[](ownedItemsCount);\n\n        for (uint i = 0; i < ownedItemsCount; i++) {\n            uint tokenId = tokenOfOwnerByIndex(msg.sender, i);\n            NftItem storage item = _idToNftItem[tokenId];\n            items[i] = item;\n        }\n        return items;\n    }\n\n    function mintToken(\n        string memory tokenURI,\n        string memory nftName,\n        uint price,\n        uint96 royalty,\n        uint networkId\n    ) public payable returns (uint) {\n        require(!tokenURIExists(tokenURI), \"Token URI already exists\");\n        require(msg.value == listingPrice, \"Price must be equal to listing price\");\n        mintsPerAddress[msg.sender] += _tokenIds.current();\n        _tokenIds.increment();\n        _listedItems.increment();\n\n        uint newTokenId = _tokenIds.current();\n        _idToNftItem[newTokenId].isSold = false;\n        if (royalty != 0) {\n            _safeMint(msg.sender, newTokenId);\n            _setTokenURI(newTokenId, tokenURI);\n            _createNftItem(newTokenId, price);\n            setRoyalties(msg.sender, royalty, newTokenId);\n            _usedTokenURIs[tokenURI] = true;\n\n        } else {\n            _safeMint(msg.sender, newTokenId);\n            _setTokenURI(newTokenId, tokenURI);\n            _createNftItem(newTokenId, price);\n            _usedTokenURIs[tokenURI] = true;\n        }\n        uint mintedAt = block.timestamp;\n        emit NFT(\n            newTokenId,\n            tokenURI,\n            nftName,\n            msg.sender,\n            msg.sender,\n            price,\n            royalty,\n            true,\n            false,\n            _collectionId.current(),\n            networkId,\n            mintedAt\n        );\n\n        return newTokenId;\n    }\n\n    //interface for royalties\n    function supportsInterface(bytes4 interfaceId) public view override(ERC721) returns (bool){\n        return interfaceId == _INTERFACE_ID_ERC2981 || super.supportsInterface(interfaceId);\n    }\n\n    function setRoyalties(address recipient, uint256 value, uint256 tokenId) public {\n        require(value <= 100, 'ERC2981Royalties: Too high');\n        royaltyPerTokenId[tokenId] = RoyaltyInfo(recipient, value);\n    }\n\n    function royaltyInfo(uint256 tokenId, uint256 value) external view returns (address receiver, uint256 royaltyAmount)\n    {\n        RoyaltyInfo memory royalties = royaltyPerTokenId[tokenId];\n        receiver = royalties.recipient;\n        royaltyAmount = (value * royalties.amount) / 100;\n    }\n\n    function getRoyaltyPerTokenId(uint256 tokenId) public view returns (RoyaltyInfo memory){\n        return royaltyPerTokenId[tokenId];\n    }\n\n    function changeRoyaltyPerTokenId(uint256 tokenId, uint96 royalty) public {\n        royaltyPerTokenId[tokenId].amount = royalty;\n    }\n\n    //fallback receive function\n    receive() external payable {\n        revert();\n    }\n\n    function _sentRoyaltyAmount(address creator, uint256 amount) private {\n        payable(creator).transfer(amount);\n    }\n\n    function buyNft(\n        uint tokenId\n    ) public payable {\n        uint price = _idToNftItem[tokenId].price;\n        address owner = ERC721.ownerOf(tokenId);\n        require(msg.sender != owner, \"You already own this NFT\");\n        require(msg.value == price, \"Please submit the asking price\");\n\n        RoyaltyInfo memory royalties = royaltyPerTokenId[tokenId];\n        address creator = royalties.recipient;\n        uint256 royaltyAmount = (msg.value * royalties.amount) / 100;\n        _transfer(owner, msg.sender, tokenId);\n\n        if (_idToNftItem[tokenId].isSold) {\n            payable(owner).transfer(msg.value - royaltyAmount);\n            _sentRoyaltyAmount(creator, royaltyAmount);\n            emit RoyaltyAmountSent(creator, tokenId, royaltyAmount);\n        } else {\n            uint priceWithRoyalty = _idToNftItem[tokenId].price + royaltyAmount;\n            _idToNftItem[tokenId].price = priceWithRoyalty;\n            payable(owner).transfer(msg.value);\n        }\n\n        _listedItems.decrement();\n        _idToNftItem[tokenId].isListed = false;\n        _idToNftItem[tokenId].isSold = true;\n        uint boughtAt = block.timestamp;\n\n        emit NftBought(tokenId, msg.value, royaltyAmount, owner, msg.sender, boughtAt);\n    }\n\n    //Withdraw money in contract to Owner\n    function withdraw() external onlyOwner {\n        uint256 balance = address(this).balance;\n        require(balance > 0, \"No ether left to withdraw\");\n        (bool success,) = payable(owner()).call{value : balance}(\"\");\n        require(success, \"Transfer failed.\");\n    }\n\n    function placeNftOnSale(uint tokenId, uint newPrice) public payable {\n        require(ERC721.ownerOf(tokenId) == msg.sender, \"You are not owner of this nft\");\n        require(_idToNftItem[tokenId].isListed == false, \"Item is already on sale\");\n        require(msg.value == listingPrice, \"Price must be equal to listing price\");\n\n        _idToNftItem[tokenId].isListed = true;\n        _idToNftItem[tokenId].price = newPrice;\n        _listedItems.increment();\n    }\n\n    function removeNftFromSale(uint tokenId) public {\n        require(ERC721.ownerOf(tokenId) == msg.sender, \"You are not owner of this nft\");\n        require(_idToNftItem[tokenId].isListed == true, \"Item is already removed from sale\");\n        _idToNftItem[tokenId].isListed = false;\n        _listedItems.decrement();\n    }\n\n    function setNewPrice(uint tokenId, uint price) public {\n        require(ERC721.ownerOf(tokenId) == msg.sender, \"You are not owner of this nft\");\n        RoyaltyInfo memory royalties = royaltyPerTokenId[tokenId];\n        uint256 royaltyAmount = (price * royalties.amount) / 100;\n        if (_idToNftItem[tokenId].isSold) {\n            _idToNftItem[tokenId].price = price + royaltyAmount;\n        } else {\n            _idToNftItem[tokenId].price = price;\n        }\n\n    }\n\n    function _createNftItem(\n        uint tokenId,\n        uint price\n    ) private {\n        require(price > 0, \"Price must be at least 1 wei\");\n\n        _idToNftItem[tokenId] = NftItem(\n            tokenId,\n            price,\n            msg.sender,\n            true,\n            false\n        );\n    }\n\n    function _beforeTokenTransfer(\n        address from,\n        address to,\n        uint tokenId\n    ) internal virtual override {\n        super._beforeTokenTransfer(from, to, tokenId);\n\n        if (from == address(0)) {\n            _addTokenToAllTokensEnumeration(tokenId);\n        } else if (from != to) {\n            _removeTokenFromOwnerEnumeration(from, tokenId);\n        }\n\n        if (to == address(0)) {\n            _removeTokenFromAllTokensEnumeration(tokenId);\n        } else if (to != from) {\n            _addTokenToOwnerEnumeration(to, tokenId);\n        }\n    }\n\n    function _addTokenToAllTokensEnumeration(uint tokenId) private {\n        _idToNftIndex[tokenId] = _allNfts.length;\n        _allNfts.push(tokenId);\n    }\n\n    function _addTokenToOwnerEnumeration(address to, uint tokenId) private {\n        uint length = ERC721.balanceOf(to);\n        _ownedTokens[to][length] = tokenId;\n        _idToOwnedIndex[tokenId] = length;\n    }\n\n    function _removeTokenFromOwnerEnumeration(address from, uint tokenId) private {\n        uint lastTokenIndex = ERC721.balanceOf(from) - 1;\n        uint tokenIndex = _idToOwnedIndex[tokenId];\n\n        if (tokenIndex != lastTokenIndex) {\n            uint lastTokenId = _ownedTokens[from][lastTokenIndex];\n\n            _ownedTokens[from][tokenIndex] = lastTokenId;\n            _idToOwnedIndex[lastTokenId] = tokenIndex;\n        }\n\n        delete _idToOwnedIndex[tokenId];\n        delete _ownedTokens[from][lastTokenIndex];\n    }\n\n    function _removeTokenFromAllTokensEnumeration(uint tokenId) private {\n        uint lastTokenIndex = _allNfts.length - 1;\n        uint tokenIndex = _idToNftIndex[tokenId];\n        uint lastTokenId = _allNfts[lastTokenIndex];\n\n        _allNfts[tokenIndex] = lastTokenId;\n        _idToNftIndex[lastTokenId] = tokenIndex;\n\n        delete _idToNftIndex[tokenId];\n        _allNfts.pop();\n    }\n}\n",
  "sourcePath": "/home/igor/11_Ethereum/nft-marketplace-first/contracts/NftMarket.sol",
  "compiler": {
    "name": "solc",
    "version": "0.8.13+commit.abaa5c0e.Emscripten.clang"
  },
  "schemaVersion": "3.4.9",
  "updatedAt": "2023-02-05T17:55:28.345Z",
  "networkType": "ethereum",
  "devdoc": {
    "kind": "dev",
    "methods": {
      "approve(address,uint256)": {
        "details": "See {IERC721-approve}."
      },
      "balanceOf(address)": {
        "details": "See {IERC721-balanceOf}."
      },
      "getApproved(uint256)": {
        "details": "See {IERC721-getApproved}."
      },
      "isApprovedForAll(address,address)": {
        "details": "See {IERC721-isApprovedForAll}."
      },
      "name()": {
        "details": "See {IERC721Metadata-name}."
      },
      "owner()": {
        "details": "Returns the address of the current owner."
      },
      "ownerOf(uint256)": {
        "details": "See {IERC721-ownerOf}."
      },
      "renounceOwnership()": {
        "details": "Leaves the contract without owner. It will not be possible to call `onlyOwner` functions anymore. Can only be called by the current owner. NOTE: Renouncing ownership will leave the contract without an owner, thereby removing any functionality that is only available to the owner."
      },
      "safeTransferFrom(address,address,uint256)": {
        "details": "See {IERC721-safeTransferFrom}."
      },
      "safeTransferFrom(address,address,uint256,bytes)": {
        "details": "See {IERC721-safeTransferFrom}."
      },
      "setApprovalForAll(address,bool)": {
        "details": "See {IERC721-setApprovalForAll}."
      },
      "supportsInterface(bytes4)": {
        "details": "See {IERC165-supportsInterface}."
      },
      "symbol()": {
        "details": "See {IERC721Metadata-symbol}."
      },
      "tokenURI(uint256)": {
        "details": "See {IERC721Metadata-tokenURI}."
      },
      "transferFrom(address,address,uint256)": {
        "details": "See {IERC721-transferFrom}."
      },
      "transferOwnership(address)": {
        "details": "Transfers ownership of the contract to a new account (`newOwner`). Can only be called by the current owner."
      }
    },
    "version": 1
  },
  "userdoc": {
    "kind": "user",
    "methods": {},
    "version": 1
  }
}