{
  "contractName": "NftMarket",
  "abi": [
    {
      "inputs": [
        {
          "internalType": "string",
          "name": "TokenName",
          "type": "string"
        },
        {
          "internalType": "string",
          "name": "TokenSymbol",
          "type": "string"
        }
      ],
      "stateMutability": "nonpayable",
      "type": "constructor"
    },
    {
      "anonymous": false,
      "inputs": [
        {
          "indexed": true,
          "internalType": "address",
          "name": "owner",
          "type": "address"
        },
        {
          "indexed": true,
          "internalType": "address",
          "name": "approved",
          "type": "address"
        },
        {
          "indexed": true,
          "internalType": "uint256",
          "name": "tokenId",
          "type": "uint256"
        }
      ],
      "name": "Approval",
      "type": "event"
    },
    {
      "anonymous": false,
      "inputs": [
        {
          "indexed": true,
          "internalType": "address",
          "name": "owner",
          "type": "address"
        },
        {
          "indexed": true,
          "internalType": "address",
          "name": "operator",
          "type": "address"
        },
        {
          "indexed": false,
          "internalType": "bool",
          "name": "approved",
          "type": "bool"
        }
      ],
      "name": "ApprovalForAll",
      "type": "event"
    },
    {
      "anonymous": false,
      "inputs": [
        {
          "indexed": false,
          "internalType": "uint256",
          "name": "tokenId",
          "type": "uint256"
        },
        {
          "indexed": false,
          "internalType": "string",
          "name": "tokenURI",
          "type": "string"
        },
        {
          "indexed": false,
          "internalType": "string",
          "name": "nftName",
          "type": "string"
        },
        {
          "indexed": false,
          "internalType": "address",
          "name": "creator",
          "type": "address"
        },
        {
          "indexed": false,
          "internalType": "address",
          "name": "owner",
          "type": "address"
        },
        {
          "indexed": false,
          "internalType": "uint256",
          "name": "price",
          "type": "uint256"
        },
        {
          "indexed": false,
          "internalType": "uint96",
          "name": "royalty",
          "type": "uint96"
        },
        {
          "indexed": false,
          "internalType": "bool",
          "name": "isListed",
          "type": "bool"
        },
        {
          "indexed": false,
          "internalType": "bool",
          "name": "isSold",
          "type": "bool"
        },
        {
          "indexed": false,
          "internalType": "uint256",
          "name": "networkId",
          "type": "uint256"
        }
      ],
      "name": "NFT",
      "type": "event"
    },
    {
      "anonymous": false,
      "inputs": [
        {
          "indexed": false,
          "internalType": "uint256",
          "name": "tokenId",
          "type": "uint256"
        },
        {
          "indexed": false,
          "internalType": "uint256",
          "name": "price",
          "type": "uint256"
        },
        {
          "indexed": false,
          "internalType": "uint256",
          "name": "royaltyAmount",
          "type": "uint256"
        },
        {
          "indexed": false,
          "internalType": "address",
          "name": "previousOwner",
          "type": "address"
        },
        {
          "indexed": false,
          "internalType": "address",
          "name": "owner",
          "type": "address"
        }
      ],
      "name": "NftBought",
      "type": "event"
    },
    {
      "anonymous": false,
      "inputs": [
        {
          "indexed": true,
          "internalType": "address",
          "name": "previousOwner",
          "type": "address"
        },
        {
          "indexed": true,
          "internalType": "address",
          "name": "newOwner",
          "type": "address"
        }
      ],
      "name": "OwnershipTransferred",
      "type": "event"
    },
    {
      "anonymous": false,
      "inputs": [
        {
          "indexed": true,
          "internalType": "address",
          "name": "from",
          "type": "address"
        },
        {
          "indexed": true,
          "internalType": "address",
          "name": "to",
          "type": "address"
        },
        {
          "indexed": true,
          "internalType": "uint256",
          "name": "tokenId",
          "type": "uint256"
        }
      ],
      "name": "Transfer",
      "type": "event"
    },
    {
      "inputs": [
        {
          "internalType": "address",
          "name": "to",
          "type": "address"
        },
        {
          "internalType": "uint256",
          "name": "tokenId",
          "type": "uint256"
        }
      ],
      "name": "approve",
      "outputs": [],
      "stateMutability": "nonpayable",
      "type": "function"
    },
    {
      "inputs": [
        {
          "internalType": "address",
          "name": "owner",
          "type": "address"
        }
      ],
      "name": "balanceOf",
      "outputs": [
        {
          "internalType": "uint256",
          "name": "",
          "type": "uint256"
        }
      ],
      "stateMutability": "view",
      "type": "function"
    },
    {
      "inputs": [],
      "name": "baseTokenURI",
      "outputs": [
        {
          "internalType": "string",
          "name": "",
          "type": "string"
        }
      ],
      "stateMutability": "view",
      "type": "function"
    },
    {
      "inputs": [
        {
          "internalType": "uint256",
          "name": "tokenId",
          "type": "uint256"
        }
      ],
      "name": "getApproved",
      "outputs": [
        {
          "internalType": "address",
          "name": "",
          "type": "address"
        }
      ],
      "stateMutability": "view",
      "type": "function"
    },
    {
      "inputs": [
        {
          "internalType": "address",
          "name": "owner",
          "type": "address"
        },
        {
          "internalType": "address",
          "name": "operator",
          "type": "address"
        }
      ],
      "name": "isApprovedForAll",
      "outputs": [
        {
          "internalType": "bool",
          "name": "",
          "type": "bool"
        }
      ],
      "stateMutability": "view",
      "type": "function"
    },
    {
      "inputs": [],
      "name": "listingPrice",
      "outputs": [
        {
          "internalType": "uint256",
          "name": "",
          "type": "uint256"
        }
      ],
      "stateMutability": "view",
      "type": "function"
    },
    {
      "inputs": [],
      "name": "name",
      "outputs": [
        {
          "internalType": "string",
          "name": "",
          "type": "string"
        }
      ],
      "stateMutability": "view",
      "type": "function"
    },
    {
      "inputs": [],
      "name": "owner",
      "outputs": [
        {
          "internalType": "address",
          "name": "",
          "type": "address"
        }
      ],
      "stateMutability": "view",
      "type": "function"
    },
    {
      "inputs": [
        {
          "internalType": "uint256",
          "name": "tokenId",
          "type": "uint256"
        }
      ],
      "name": "ownerOf",
      "outputs": [
        {
          "internalType": "address",
          "name": "",
          "type": "address"
        }
      ],
      "stateMutability": "view",
      "type": "function"
    },
    {
      "inputs": [],
      "name": "renounceOwnership",
      "outputs": [],
      "stateMutability": "nonpayable",
      "type": "function"
    },
    {
      "inputs": [
        {
          "internalType": "address",
          "name": "from",
          "type": "address"
        },
        {
          "internalType": "address",
          "name": "to",
          "type": "address"
        },
        {
          "internalType": "uint256",
          "name": "tokenId",
          "type": "uint256"
        }
      ],
      "name": "safeTransferFrom",
      "outputs": [],
      "stateMutability": "nonpayable",
      "type": "function"
    },
    {
      "inputs": [
        {
          "internalType": "address",
          "name": "from",
          "type": "address"
        },
        {
          "internalType": "address",
          "name": "to",
          "type": "address"
        },
        {
          "internalType": "uint256",
          "name": "tokenId",
          "type": "uint256"
        },
        {
          "internalType": "bytes",
          "name": "_data",
          "type": "bytes"
        }
      ],
      "name": "safeTransferFrom",
      "outputs": [],
      "stateMutability": "nonpayable",
      "type": "function"
    },
    {
      "inputs": [
        {
          "internalType": "address",
          "name": "operator",
          "type": "address"
        },
        {
          "internalType": "bool",
          "name": "approved",
          "type": "bool"
        }
      ],
      "name": "setApprovalForAll",
      "outputs": [],
      "stateMutability": "nonpayable",
      "type": "function"
    },
    {
      "inputs": [
        {
          "internalType": "bytes4",
          "name": "interfaceId",
          "type": "bytes4"
        }
      ],
      "name": "supportsInterface",
      "outputs": [
        {
          "internalType": "bool",
          "name": "",
          "type": "bool"
        }
      ],
      "stateMutability": "view",
      "type": "function"
    },
    {
      "inputs": [],
      "name": "symbol",
      "outputs": [
        {
          "internalType": "string",
          "name": "",
          "type": "string"
        }
      ],
      "stateMutability": "view",
      "type": "function"
    },
    {
      "inputs": [
        {
          "internalType": "uint256",
          "name": "tokenId",
          "type": "uint256"
        }
      ],
      "name": "tokenURI",
      "outputs": [
        {
          "internalType": "string",
          "name": "",
          "type": "string"
        }
      ],
      "stateMutability": "view",
      "type": "function"
    },
    {
      "inputs": [
        {
          "internalType": "address",
          "name": "from",
          "type": "address"
        },
        {
          "internalType": "address",
          "name": "to",
          "type": "address"
        },
        {
          "internalType": "uint256",
          "name": "tokenId",
          "type": "uint256"
        }
      ],
      "name": "transferFrom",
      "outputs": [],
      "stateMutability": "nonpayable",
      "type": "function"
    },
    {
      "inputs": [
        {
          "internalType": "address",
          "name": "newOwner",
          "type": "address"
        }
      ],
      "name": "transferOwnership",
      "outputs": [],
      "stateMutability": "nonpayable",
      "type": "function"
    },
    {
      "inputs": [
        {
          "internalType": "uint256",
          "name": "newPrice",
          "type": "uint256"
        }
      ],
      "name": "setListingPrice",
      "outputs": [],
      "stateMutability": "nonpayable",
      "type": "function"
    },
    {
      "inputs": [
        {
          "internalType": "uint256",
          "name": "tokenId",
          "type": "uint256"
        }
      ],
      "name": "getNftItem",
      "outputs": [
        {
          "components": [
            {
              "internalType": "uint256",
              "name": "tokenId",
              "type": "uint256"
            },
            {
              "internalType": "uint256",
              "name": "price",
              "type": "uint256"
            },
            {
              "internalType": "address",
              "name": "creator",
              "type": "address"
            },
            {
              "internalType": "bool",
              "name": "isListed",
              "type": "bool"
            },
            {
              "internalType": "bool",
              "name": "isSold",
              "type": "bool"
            }
          ],
          "internalType": "struct NftMarket.NftItem",
          "name": "",
          "type": "tuple"
        }
      ],
      "stateMutability": "view",
      "type": "function"
    },
    {
      "inputs": [],
      "name": "listedItemsCount",
      "outputs": [
        {
          "internalType": "uint256",
          "name": "",
          "type": "uint256"
        }
      ],
      "stateMutability": "view",
      "type": "function"
    },
    {
      "inputs": [
        {
          "internalType": "string",
          "name": "tokenURI",
          "type": "string"
        }
      ],
      "name": "tokenURIExists",
      "outputs": [
        {
          "internalType": "bool",
          "name": "",
          "type": "bool"
        }
      ],
      "stateMutability": "view",
      "type": "function"
    },
    {
      "inputs": [],
      "name": "totalSupply",
      "outputs": [
        {
          "internalType": "uint256",
          "name": "",
          "type": "uint256"
        }
      ],
      "stateMutability": "view",
      "type": "function"
    },
    {
      "inputs": [
        {
          "internalType": "uint256",
          "name": "index",
          "type": "uint256"
        }
      ],
      "name": "tokenByIndex",
      "outputs": [
        {
          "internalType": "uint256",
          "name": "",
          "type": "uint256"
        }
      ],
      "stateMutability": "view",
      "type": "function"
    },
    {
      "inputs": [
        {
          "internalType": "address",
          "name": "owner",
          "type": "address"
        },
        {
          "internalType": "uint256",
          "name": "index",
          "type": "uint256"
        }
      ],
      "name": "tokenOfOwnerByIndex",
      "outputs": [
        {
          "internalType": "uint256",
          "name": "",
          "type": "uint256"
        }
      ],
      "stateMutability": "view",
      "type": "function"
    },
    {
      "inputs": [],
      "name": "getAllNftsOnSale",
      "outputs": [
        {
          "components": [
            {
              "internalType": "uint256",
              "name": "tokenId",
              "type": "uint256"
            },
            {
              "internalType": "uint256",
              "name": "price",
              "type": "uint256"
            },
            {
              "internalType": "address",
              "name": "creator",
              "type": "address"
            },
            {
              "internalType": "bool",
              "name": "isListed",
              "type": "bool"
            },
            {
              "internalType": "bool",
              "name": "isSold",
              "type": "bool"
            }
          ],
          "internalType": "struct NftMarket.NftItem[]",
          "name": "",
          "type": "tuple[]"
        }
      ],
      "stateMutability": "view",
      "type": "function"
    },
    {
      "inputs": [],
      "name": "getOwnedNfts",
      "outputs": [
        {
          "components": [
            {
              "internalType": "uint256",
              "name": "tokenId",
              "type": "uint256"
            },
            {
              "internalType": "uint256",
              "name": "price",
              "type": "uint256"
            },
            {
              "internalType": "address",
              "name": "creator",
              "type": "address"
            },
            {
              "internalType": "bool",
              "name": "isListed",
              "type": "bool"
            },
            {
              "internalType": "bool",
              "name": "isSold",
              "type": "bool"
            }
          ],
          "internalType": "struct NftMarket.NftItem[]",
          "name": "",
          "type": "tuple[]"
        }
      ],
      "stateMutability": "view",
      "type": "function"
    },
    {
      "inputs": [
        {
          "internalType": "string",
          "name": "tokenURI",
          "type": "string"
        },
        {
          "internalType": "string",
          "name": "nftName",
          "type": "string"
        },
        {
          "internalType": "uint256",
          "name": "price",
          "type": "uint256"
        },
        {
          "internalType": "uint96",
          "name": "royalty",
          "type": "uint96"
        },
        {
          "internalType": "uint256",
          "name": "networkId",
          "type": "uint256"
        }
      ],
      "name": "mintToken",
      "outputs": [
        {
          "internalType": "uint256",
          "name": "",
          "type": "uint256"
        }
      ],
      "stateMutability": "payable",
      "type": "function"
    },
    {
      "inputs": [
        {
          "internalType": "address",
          "name": "recipient",
          "type": "address"
        },
        {
          "internalType": "uint256",
          "name": "value",
          "type": "uint256"
        },
        {
          "internalType": "uint256",
          "name": "tokenId",
          "type": "uint256"
        }
      ],
      "name": "setRoyalties",
      "outputs": [],
      "stateMutability": "nonpayable",
      "type": "function"
    },
    {
      "inputs": [
        {
          "internalType": "uint256",
          "name": "tokenId",
          "type": "uint256"
        },
        {
          "internalType": "uint256",
          "name": "value",
          "type": "uint256"
        }
      ],
      "name": "royaltyInfo",
      "outputs": [
        {
          "internalType": "address",
          "name": "receiver",
          "type": "address"
        },
        {
          "internalType": "uint256",
          "name": "royaltyAmount",
          "type": "uint256"
        }
      ],
      "stateMutability": "view",
      "type": "function"
    },
    {
      "inputs": [
        {
          "internalType": "uint256",
          "name": "tokenId",
          "type": "uint256"
        }
      ],
      "name": "getRoyaltyPerTokenId",
      "outputs": [
        {
          "components": [
            {
              "internalType": "address",
              "name": "recipient",
              "type": "address"
            },
            {
              "internalType": "uint256",
              "name": "amount",
              "type": "uint256"
            }
          ],
          "internalType": "struct NftMarket.RoyaltyInfo",
          "name": "",
          "type": "tuple"
        }
      ],
      "stateMutability": "view",
      "type": "function"
    },
    {
      "inputs": [
        {
          "internalType": "uint256",
          "name": "tokenId",
          "type": "uint256"
        },
        {
          "internalType": "uint96",
          "name": "royalty",
          "type": "uint96"
        }
      ],
      "name": "changeRoyaltyPerTokenId",
      "outputs": [],
      "stateMutability": "nonpayable",
      "type": "function"
    },
    {
      "inputs": [
        {
          "internalType": "uint256",
          "name": "tokenId",
          "type": "uint256"
        }
      ],
      "name": "buyNft",
      "outputs": [],
      "stateMutability": "payable",
      "type": "function"
    },
    {
      "inputs": [],
      "name": "withdraw",
      "outputs": [],
      "stateMutability": "nonpayable",
      "type": "function"
    },
    {
      "inputs": [
        {
          "internalType": "uint256",
          "name": "tokenId",
          "type": "uint256"
        },
        {
          "internalType": "uint256",
          "name": "newPrice",
          "type": "uint256"
        }
      ],
      "name": "placeNftOnSale",
      "outputs": [],
      "stateMutability": "payable",
      "type": "function"
    },
    {
      "inputs": [
        {
          "internalType": "uint256",
          "name": "tokenId",
          "type": "uint256"
        }
      ],
      "name": "removeNftFromSale",
      "outputs": [],
      "stateMutability": "nonpayable",
      "type": "function"
    },
    {
      "inputs": [
        {
          "internalType": "uint256",
          "name": "tokenId",
          "type": "uint256"
        },
        {
          "internalType": "uint256",
          "name": "price",
          "type": "uint256"
        }
      ],
      "name": "setNewPrice",
      "outputs": [],
      "stateMutability": "nonpayable",
      "type": "function"
    }
  ],
  "bytecode": "0x60806040526658d15e17628000600a553480156200001c57600080fd5b50604051620036b8380380620036b88339810160408190526200003f9162000242565b81518290829062000058906000906020850190620000e9565b5080516200006e906001906020840190620000e9565b5050506200008b620000856200009360201b60201c565b62000097565b5050620002fc565b3390565b600780546001600160a01b038381166001600160a01b0319831681179093556040519116919082907f8be0079c531659141344cd1fd0a4f28419497f9722a3daafe3b4186f6b6457e090600090a35050565b828054620000f790620002a9565b90600052602060002090601f0160209004810192826200011b576000855562000166565b82601f106200013657805160ff191683800117855562000166565b8280016001018555821562000166579182015b828111156200016657825182559160200191906001019062000149565b506200017492915062000178565b5090565b5b8082111562000174576000815560010162000179565b600082601f830112620001a0578081fd5b81516001600160401b0380821115620001bd57620001bd620002e6565b604051601f8301601f19908116603f01168101908282118183101715620001e857620001e8620002e6565b8160405283815260209250868385880101111562000204578485fd5b8491505b8382101562000227578582018301518183018401529082019062000208565b838211156200023857848385830101525b9695505050505050565b6000806040838503121562000255578182fd5b82516001600160401b03808211156200026c578384fd5b6200027a868387016200018f565b9350602085015191508082111562000290578283fd5b506200029f858286016200018f565b9150509250929050565b600281046001821680620002be57607f821691505b60208210811415620002e057634e487b7160e01b600052602260045260246000fd5b50919050565b634e487b7160e01b600052604160045260246000fd5b6133ac806200030c6000396000f3fe60806040526004361061021a5760003560e01c806370a0823111610123578063c4b3a2c5116100ab578063e23a60fe1161006f578063e23a60fe146105f3578063e78980d414610613578063e985e9c514610633578063f0d2fad814610653578063f2fde38b146106735761021a565b8063c4b3a2c514610574578063c78f19f914610594578063c87b56dd146105a9578063ccb4918d146105c9578063d547cfb7146105de5761021a565b80638c06490b116100f25780638c06490b146104f75780638da5cb5b1461050a57806395d89b411461051f578063a22cb46514610534578063b88d4fde146105545761021a565b806370a082311461048d57806370cbcb43146104ad578063715018a6146104c25780637c726b69146104d75761021a565b80632f745c59116101a657806343d32ae71161017557806343d32ae7146103d35780634f6ccce7146103f35780635b6d9d3b146104135780636352211e146104405780636f1a0af5146104605761021a565b80632f745c591461035c57806336b536be1461037c5780633ccfd60b1461039e57806342842e0e146103b35761021a565b806318160ddd116101ed57806318160ddd146102c657806321f422e5146102e857806323b872dd146102fb578063243adbdd1461031b5780632a55205a1461032e5761021a565b806301ffc9a71461021f57806306fdde0314610255578063081812fc14610277578063095ea7b3146102a4575b600080fd5b34801561022b57600080fd5b5061023f61023a3660046126d4565b610693565b60405161024c9190612989565b60405180910390f35b34801561026157600080fd5b5061026a6106db565b60405161024c9190612994565b34801561028357600080fd5b506102976102923660046127c2565b61076d565b60405161024c91906128d1565b3480156102b057600080fd5b506102c46102bf366004612679565b6107b9565b005b3480156102d257600080fd5b506102db610851565b60405161024c919061316e565b6102c46102f63660046127da565b610857565b34801561030757600080fd5b506102c461031636600461258b565b610918565b6102c46103293660046127c2565b610950565b34801561033a57600080fd5b5061034e6103493660046127da565b610b62565b60405161024c929190612922565b34801561036857600080fd5b506102db610377366004612679565b610bb8565b34801561038857600080fd5b50610391610c0d565b60405161024c919061293b565b3480156103aa57600080fd5b506102c4610d75565b3480156103bf57600080fd5b506102c46103ce36600461258b565b610e55565b3480156103df57600080fd5b5061023f6103ee36600461270c565b610e70565b3480156103ff57600080fd5b506102db61040e3660046127c2565b610ea1565b34801561041f57600080fd5b5061043361042e3660046127c2565b610efc565b60405161024c919061314e565b34801561044c57600080fd5b5061029761045b3660046127c2565b610f37565b34801561046c57600080fd5b5061048061047b3660046127c2565b610f6c565b60405161024c9190613140565b34801561049957600080fd5b506102db6104a836600461253f565b610fdb565b3480156104b957600080fd5b5061039161101f565b3480156104ce57600080fd5b506102c461115c565b3480156104e357600080fd5b506102c46104f23660046127c2565b6111a7565b6102db61050536600461273f565b61120b565b34801561051657600080fd5b5061029761134a565b34801561052b57600080fd5b5061026a611359565b34801561054057600080fd5b506102c461054f36600461263f565b611368565b34801561056057600080fd5b506102c461056f3660046125c6565b61137a565b34801561058057600080fd5b506102c461058f3660046126a2565b6113b9565b3480156105a057600080fd5b506102db611422565b3480156105b557600080fd5b5061026a6105c43660046127c2565b611428565b3480156105d557600080fd5b506102db611549565b3480156105ea57600080fd5b5061026a61155a565b3480156105ff57600080fd5b506102c461060e3660046127da565b6115e8565b34801561061f57600080fd5b506102c461062e3660046127fb565b6116cc565b34801561063f57600080fd5b5061023f61064e366004612559565b6116ee565b34801561065f57600080fd5b506102c461066e3660046127c2565b61171c565b34801561067f57600080fd5b506102c461068e36600461253f565b6117b2565b60006001600160e01b031982166380ac58cd60e01b14806106c457506001600160e01b03198216635b5e139f60e01b145b806106d357506106d382611820565b90505b919050565b6060600080546106ea906132b4565b80601f0160208091040260200160405190810160405280929190818152602001828054610716906132b4565b80156107635780601f1061073857610100808354040283529160200191610763565b820191906000526020600020905b81548152906001019060200180831161074657829003601f168201915b5050505050905090565b600061077882611839565b61079d5760405162461bcd60e51b815260040161079490612e6b565b60405180910390fd5b506000908152600460205260409020546001600160a01b031690565b60006107c482610f37565b9050806001600160a01b0316836001600160a01b031614156107f85760405162461bcd60e51b815260040161079490612fa1565b806001600160a01b031661080a611856565b6001600160a01b0316148061082657506108268161064e611856565b6108425760405162461bcd60e51b815260040161079490612c48565b61084c838361185a565b505050565b60115490565b3361086183610f37565b6001600160a01b0316146108875760405162461bcd60e51b815260040161079490612c11565b6000828152600e6020526040902060020154600160a01b900460ff16156108c05760405162461bcd60e51b815260040161079490612dae565b600a5434146108e15760405162461bcd60e51b815260040161079490613019565b6000828152600e6020526040902060028101805460ff60a01b1916600160a01b179055600101819055610914600b6118c8565b5050565b610929610923611856565b826118d1565b6109455760405162461bcd60e51b81526004016107949061305d565b61084c83838361194e565b6000818152600e60205260408120600101549061096c83610f37565b9050336001600160a01b03821614156109975760405162461bcd60e51b815260040161079490612eec565b8134146109b65760405162461bcd60e51b8152600401610794906130d2565b6000838152600860209081526040808320815180830190925280546001600160a01b0316808352600190910154928201839052909290916064906109fa9034613252565b610a04919061323e565b9050610a1184338861194e565b6000868152600e6020526040902060020154600160a81b900460ff1615610a81576001600160a01b0384166108fc610a498334613271565b6040518115909202916000818181858888f19350505050158015610a71573d6000803e3d6000fd5b50610a7c8282611a81565b610aed565b6000868152600e6020526040812060010154610a9e908390613226565b6000888152600e6020526040808220600101839055519192506001600160a01b038716913480156108fc0292909190818181858888f19350505050158015610aea573d6000803e3d6000fd5b50505b610af7600b611ab7565b6000868152600e602052604090819020600201805461ffff60a01b1916600160a81b179055517feca8b5e5012b8b4f9015ad5dd10f0e903642ba1ea80b5df6a14c93d99b55e71d90610b5290889034908590899033906131f7565b60405180910390a1505050505050565b6000828152600860209081526040808320815180830190925280546001600160a01b03168083526001909101549282018390529291606490610ba49086613252565b610bae919061323e565b9150509250929050565b6000610bc383610fdb565b8210610be15760405162461bcd60e51b815260040161079490612af2565b506001600160a01b0382166000908152600f602090815260408083208484529091529020545b92915050565b60606000610c19610851565b9050600080610c28600b611ade565b67ffffffffffffffff811115610c4e57634e487b7160e01b600052604160045260246000fd5b604051908082528060200260200182016040528015610c8757816020015b610c7461239e565b815260200190600190039081610c6c5790505b50905060005b83811015610d6d576000610ca082610ea1565b6000818152600e60205260409020600281015491925090600160a01b900460ff16151560011415610d58576040805160a081018252825481526001830154602082015260028301546001600160a01b0381169282019290925260ff600160a01b8304811615156060830152600160a81b909204909116151560808201528451859087908110610d3f57634e487b7160e01b600052603260045260246000fd5b6020908102919091010152610d55600186613226565b94505b50508080610d65906132ef565b915050610c8d565b509250505090565b610d7d611856565b6001600160a01b0316610d8e61134a565b6001600160a01b031614610db45760405162461bcd60e51b815260040161079490612eb7565b4780610dd25760405162461bcd60e51b815260040161079490612ca5565b6000610ddc61134a565b6001600160a01b031682604051610df2906128ce565b60006040518083038185875af1925050503d8060008114610e2f576040519150601f19603f3d011682016040523d82523d6000602084013e610e34565b606091505b50509050806109145760405162461bcd60e51b815260040161079490612f2e565b61084c8383836040518060200160405280600081525061137a565b6000600d82604051610e829190612883565b9081526040519081900360200190205460ff1615156001149050919050565b6000610eab610851565b8210610ec95760405162461bcd60e51b815260040161079490612af2565b60118281548110610eea57634e487b7160e01b600052603260045260246000fd5b90600052602060002001549050919050565b610f046123cc565b50600090815260086020908152604091829020825180840190935280546001600160a01b03168352600101549082015290565b6000818152600260205260408120546001600160a01b0316806106d35760405162461bcd60e51b815260040161079490612d17565b610f7461239e565b506000908152600e6020908152604091829020825160a08101845281548152600182015492810192909252600201546001600160a01b0381169282019290925260ff600160a01b8304811615156060830152600160a81b9092049091161515608082015290565b60006001600160a01b0382166110035760405162461bcd60e51b815260040161079490612ccd565b506001600160a01b031660009081526003602052604090205490565b6060600061102c33610fdb565b905060008167ffffffffffffffff81111561105757634e487b7160e01b600052604160045260246000fd5b60405190808252806020026020018201604052801561109057816020015b61107d61239e565b8152602001906001900390816110755790505b50905060005b828110156111555760006110aa3383610bb8565b6000818152600e6020908152604091829020825160a0810184528154815260018201549281019290925260028101546001600160a01b0381169383019390935260ff600160a01b8404811615156060840152600160a81b909304909216151560808201528551929350909185908590811061113557634e487b7160e01b600052603260045260246000fd5b60200260200101819052505050808061114d906132ef565b915050611096565b5091505090565b611164611856565b6001600160a01b031661117561134a565b6001600160a01b03161461119b5760405162461bcd60e51b815260040161079490612eb7565b6111a56000611ae2565b565b6111af611856565b6001600160a01b03166111c061134a565b6001600160a01b0316146111e65760405162461bcd60e51b815260040161079490612eb7565b600081116112065760405162461bcd60e51b815260040161079490612f0c565b600a55565b600061121686610e70565b156112335760405162461bcd60e51b8152600401610794906130ae565b600a5434146112545760405162461bcd60e51b815260040161079490612fe2565b61125e600c6118c8565b611268600b6118c8565b6000611274600c611ade565b6000818152600e60205260409020600201805460ff60a81b19169055905061129c3382611b34565b6112a68188611b4e565b6112b08186611b92565b6112c433856001600160601b0316836113b9565b6001600d886040516112d69190612883565b908152604051908190036020018120805492151560ff19909316929092179091557f38a1312905b7ebaaf517ceeff9d63a5c1dda4f8617d2639d839cbb04722f7169906113389083908a908a90339081908c908c906001906000908e90613177565b60405180910390a19695505050505050565b6007546001600160a01b031690565b6060600180546106ea906132b4565b610914611373611856565b8383611c4d565b61138b611385611856565b836118d1565b6113a75760405162461bcd60e51b81526004016107949061305d565b6113b384848484611cf0565b50505050565b60648211156113da5760405162461bcd60e51b8152600401610794906129a7565b6040805180820182526001600160a01b03948516815260208082019485526000938452600890529120905181546001600160a01b031916931692909217825551600190910155565b600a5481565b606061143382611839565b61144f5760405162461bcd60e51b815260040161079490612e1a565b60008281526006602052604081208054611468906132b4565b80601f0160208091040260200160405190810160405280929190818152602001828054611494906132b4565b80156114e15780601f106114b6576101008083540402835291602001916114e1565b820191906000526020600020905b8154815290600101906020018083116114c457829003601f168201915b5050505050905060006114f2611d23565b9050805160001415611506575090506106d6565b81511561153857808260405160200161152092919061289f565b604051602081830303815290604052925050506106d6565b61154184611d35565b949350505050565b6000611555600b611ade565b905090565b60098054611567906132b4565b80601f0160208091040260200160405190810160405280929190818152602001828054611593906132b4565b80156115e05780601f106115b5576101008083540402835291602001916115e0565b820191906000526020600020905b8154815290600101906020018083116115c357829003601f168201915b505050505081565b6115f0611856565b6001600160a01b031661160161134a565b6001600160a01b0316146116275760405162461bcd60e51b815260040161079490612eb7565b6000828152600860209081526040808320815180830190925280546001600160a01b031682526001015491810182905291906064906116669085613252565b611670919061323e565b6000858152600e6020526040902060020154909150600160a81b900460ff16156116b55761169e8184613226565b6000858152600e60205260409020600101556113b3565b50506000918252600e602052604090912060010155565b6000918252600860205260409091206001600160601b03909116600190910155565b6001600160a01b03918216600090815260056020908152604080832093909416825291909152205460ff1690565b3361172682610f37565b6001600160a01b03161461174c5760405162461bcd60e51b81526004016107949061311c565b6000818152600e6020526040902060020154600160a01b900460ff1615156001146117895760405162461bcd60e51b8152600401610794906130fa565b6000818152600e60205260409020600201805460ff60a01b191690556117af600b611ab7565b50565b6117ba611856565b6001600160a01b03166117cb61134a565b6001600160a01b0316146117f15760405162461bcd60e51b815260040161079490612eb7565b6001600160a01b0381166118175760405162461bcd60e51b815260040161079490612a67565b6117af81611ae2565b6001600160e01b031981166301ffc9a760e01b14919050565b6000908152600260205260409020546001600160a01b0316151590565b3390565b600081815260046020526040902080546001600160a01b0319166001600160a01b038416908117909155819061188f82610f37565b6001600160a01b03167f8c5be1e5ebec7d5bd14f71427d1e84f3dd0314c0f7b2291e5b200ac8c7c3b92560405160405180910390a45050565b80546001019055565b60006118dc82611839565b6118f85760405162461bcd60e51b815260040161079490612bc5565b600061190383610f37565b9050806001600160a01b0316846001600160a01b0316148061193e5750836001600160a01b03166119338461076d565b6001600160a01b0316145b80611541575061154181856116ee565b826001600160a01b031661196182610f37565b6001600160a01b0316146119875760405162461bcd60e51b815260040161079490612aad565b6001600160a01b0382166119ad5760405162461bcd60e51b815260040161079490612b4a565b6119b8838383611db8565b6119c360008261185a565b6001600160a01b03831660009081526003602052604081208054600192906119ec908490613271565b90915550506001600160a01b0382166000908152600360205260408120805460019290611a1a908490613226565b909155505060008181526002602052604080822080546001600160a01b0319166001600160a01b0386811691821790925591518493918716917fddf252ad1be2c89b69c2b068fc378daa952ba7f163c4a11628f55a4df523b3ef91a461084c83838361084c565b6040516001600160a01b0383169082156108fc029083906000818181858888f1935050505015801561084c573d6000803e3d6000fd5b805480611ad65760405162461bcd60e51b8152600401610794906129de565b600019019055565b5490565b600780546001600160a01b038381166001600160a01b0319831681179093556040519116919082907f8be0079c531659141344cd1fd0a4f28419497f9722a3daafe3b4186f6b6457e090600090a35050565b610914828260405180602001604052806000815250611e41565b611b5782611839565b611b735760405162461bcd60e51b815260040161079490612d60565b6000828152600660209081526040909120825161084c928401906123e3565b60008111611bb25760405162461bcd60e51b815260040161079490612f0c565b6040805160a081018252838152602080820193845233828401908152600160608401818152600060808601818152988152600e9094529490922092518355935190820155915160029092018054915193511515600160a81b0260ff60a81b19941515600160a01b0260ff60a01b196001600160a01b03959095166001600160a01b031990941693909317939093169190911792909216179055565b816001600160a01b0316836001600160a01b03161415611c7f5760405162461bcd60e51b815260040161079490612b8e565b6001600160a01b0383811660008181526005602090815260408083209487168084529490915290819020805460ff1916851515179055517f17307eab39ab6107e8899845ad3d59bd9653f200f220920489ca2b5937696c3190611ce3908590612989565b60405180910390a3505050565b611cfb84848461194e565b611d0784848484611e74565b6113b35760405162461bcd60e51b815260040161079490612a15565b60408051602081019091526000815290565b6060611d4082611839565b611d5c5760405162461bcd60e51b815260040161079490612f52565b6000611d66611d23565b90506000815111611d865760405180602001604052806000815250611db1565b80611d9084611f8f565b604051602001611da192919061289f565b6040516020818303038152906040525b9392505050565b611dc383838361084c565b6001600160a01b038316611ddf57611dda816120aa565b611e02565b816001600160a01b0316836001600160a01b031614611e0257611e0283826120ee565b6001600160a01b038216611e1e57611e198161218b565b61084c565b826001600160a01b0316826001600160a01b03161461084c5761084c8282612264565b611e4b83836122a8565b611e586000848484611e74565b61084c5760405162461bcd60e51b815260040161079490612a15565b6000611e88846001600160a01b031661238f565b15611f8457836001600160a01b031663150b7a02611ea4611856565b8786866040518563ffffffff1660e01b8152600401611ec694939291906128e5565b602060405180830381600087803b158015611ee057600080fd5b505af1925050508015611f10575060408051601f3d908101601f19168201909252611f0d918101906126f0565b60015b611f6a573d808015611f3e576040519150601f19603f3d011682016040523d82523d6000602084013e611f43565b606091505b508051611f625760405162461bcd60e51b815260040161079490612a15565b805181602001fd5b6001600160e01b031916630a85bd0160e11b149050611541565b506001949350505050565b606081611fb457506040805180820190915260018152600360fc1b60208201526106d6565b8160005b8115611fde5780611fc8816132ef565b9150611fd79050600a8361323e565b9150611fb8565b60008167ffffffffffffffff81111561200757634e487b7160e01b600052604160045260246000fd5b6040519080825280601f01601f191660200182016040528015612031576020820181803683370190505b5090505b841561154157612046600183613271565b9150612053600a8661330a565b61205e906030613226565b60f81b81838151811061208157634e487b7160e01b600052603260045260246000fd5b60200101906001600160f81b031916908160001a9053506120a3600a8661323e565b9450612035565b601180546000838152601260205260408120829055600182018355919091527f31ecc21a745e3968a04e9570e4425bc18fa8019c68028196b546d1669c200c680155565b600060016120fb84610fdb565b6121059190613271565b600083815260106020526040902054909150808214612158576001600160a01b0384166000908152600f602090815260408083208584528252808320548484528184208190558352601090915290208190555b5060009182526010602090815260408084208490556001600160a01b039094168352600f81528383209183525290812055565b60115460009061219d90600190613271565b600083815260126020526040812054601180549394509092849081106121d357634e487b7160e01b600052603260045260246000fd5b90600052602060002001549050806011838154811061220257634e487b7160e01b600052603260045260246000fd5b600091825260208083209091019290925582815260129091526040808220849055858252812055601180548061224857634e487b7160e01b600052603160045260246000fd5b6001900381819060005260206000200160009055905550505050565b600061226f83610fdb565b6001600160a01b039093166000908152600f60209081526040808320868452825280832085905593825260109052919091209190915550565b6001600160a01b0382166122ce5760405162461bcd60e51b815260040161079490612de5565b6122d781611839565b156122f45760405162461bcd60e51b815260040161079490612b13565b61230060008383611db8565b6001600160a01b0382166000908152600360205260408120805460019290612329908490613226565b909155505060008181526002602052604080822080546001600160a01b0319166001600160a01b03861690811790915590518392907fddf252ad1be2c89b69c2b068fc378daa952ba7f163c4a11628f55a4df523b3ef908290a46109146000838361084c565b6001600160a01b03163b151590565b6040805160a08101825260008082526020820181905291810182905260608101829052608081019190915290565b604080518082019091526000808252602082015290565b8280546123ef906132b4565b90600052602060002090601f0160209004810192826124115760008555612457565b82601f1061242a57805160ff1916838001178555612457565b82800160010185558215612457579182015b8281111561245757825182559160200191906001019061243c565b50612463929150612467565b5090565b5b808211156124635760008155600101612468565b600067ffffffffffffffff808411156124975761249761334a565b604051601f8501601f19908116603f011681019082821181831017156124bf576124bf61334a565b816040528093508581528686860111156124d857600080fd5b858560208301376000602087830101525050509392505050565b80356001600160a01b03811681146106d657600080fd5b600082601f830112612519578081fd5b611db18383356020850161247c565b80356001600160601b03811681146106d657600080fd5b600060208284031215612550578081fd5b611db1826124f2565b6000806040838503121561256b578081fd5b612574836124f2565b9150612582602084016124f2565b90509250929050565b60008060006060848603121561259f578081fd5b6125a8846124f2565b92506125b6602085016124f2565b9150604084013590509250925092565b600080600080608085870312156125db578081fd5b6125e4856124f2565b93506125f2602086016124f2565b925060408501359150606085013567ffffffffffffffff811115612614578182fd5b8501601f81018713612624578182fd5b6126338782356020840161247c565b91505092959194509250565b60008060408385031215612651578182fd5b61265a836124f2565b91506020830135801515811461266e578182fd5b809150509250929050565b6000806040838503121561268b578182fd5b612694836124f2565b946020939093013593505050565b6000806000606084860312156126b6578283fd5b6126bf846124f2565b95602085013595506040909401359392505050565b6000602082840312156126e5578081fd5b8135611db181613360565b600060208284031215612701578081fd5b8151611db181613360565b60006020828403121561271d578081fd5b813567ffffffffffffffff811115612733578182fd5b61154184828501612509565b600080600080600060a08688031215612756578081fd5b853567ffffffffffffffff8082111561276d578283fd5b61277989838a01612509565b9650602088013591508082111561278e578283fd5b5061279b88828901612509565b945050604086013592506127b160608701612528565b949793965091946080013592915050565b6000602082840312156127d3578081fd5b5035919050565b600080604083850312156127ec578182fd5b50508035926020909101359150565b6000806040838503121561280d578182fd5b8235915061258260208401612528565b60008151808452612835816020860160208601613288565b601f01601f19169290920160200192915050565b80518252602080820151908301526040808201516001600160a01b0316908301526060808201511515908301526080908101511515910152565b60008251612895818460208701613288565b9190910192915050565b600083516128b1818460208801613288565b8351908301906128c5818360208801613288565b01949350505050565b90565b6001600160a01b0391909116815260200190565b6001600160a01b03858116825284166020820152604081018390526080606082018190526000906129189083018461281d565b9695505050505050565b6001600160a01b03929092168252602082015260400190565b6020808252825182820181905260009190848201906040850190845b8181101561297d5761296a838551612849565b9284019260a09290920191600101612957565b50909695505050505050565b901515815260200190565b600060208252611db1602083018461281d565b6020808252601a908201527f45524332393831526f79616c746965733a20546f6f2068696768000000000000604082015260600190565b6020808252601b908201527f436f756e7465723a2064656372656d656e74206f766572666c6f770000000000604082015260600190565b60208082526032908201527f4552433732313a207472616e7366657220746f206e6f6e20455243373231526560408201527131b2b4bb32b91034b6b83632b6b2b73a32b960711b606082015260800190565b60208082526026908201527f4f776e61626c653a206e6577206f776e657220697320746865207a65726f206160408201526564647265737360d01b606082015260800190565b60208082526025908201527f4552433732313a207472616e736665722066726f6d20696e636f72726563742060408201526437bbb732b960d91b606082015260800190565b602080825260079082015266125b9e081bdd5d60ca1b604082015260600190565b6020808252601c908201527f4552433732313a20746f6b656e20616c7265616479206d696e74656400000000604082015260600190565b60208082526024908201527f4552433732313a207472616e7366657220746f20746865207a65726f206164646040820152637265737360e01b606082015260800190565b60208082526019908201527f4552433732313a20617070726f766520746f2063616c6c657200000000000000604082015260600190565b6020808252602c908201527f4552433732313a206f70657261746f7220717565727920666f72206e6f6e657860408201526b34b9ba32b73a103a37b5b2b760a11b606082015260800190565b6020808252601d908201527f596f7520617265206e6f74206f776e6572206f662074686973206e6674000000604082015260600190565b60208082526038908201527f4552433732313a20617070726f76652063616c6c6572206973206e6f74206f7760408201527f6e6572206e6f7220617070726f76656420666f7220616c6c0000000000000000606082015260800190565b6020808252600e908201526d43616e277420776974686472617760901b604082015260600190565b6020808252602a908201527f4552433732313a2062616c616e636520717565727920666f7220746865207a65604082015269726f206164647265737360b01b606082015260800190565b60208082526029908201527f4552433732313a206f776e657220717565727920666f72206e6f6e657869737460408201526832b73a103a37b5b2b760b91b606082015260800190565b6020808252602e908201527f45524337323155524953746f726167653a2055524920736574206f66206e6f6e60408201526d32bc34b9ba32b73a103a37b5b2b760911b606082015260800190565b60208082526017908201527f4974656d20697320616c7265616479206f6e2073616c65000000000000000000604082015260600190565b6020808252818101527f4552433732313a206d696e7420746f20746865207a65726f2061646472657373604082015260600190565b60208082526031908201527f45524337323155524953746f726167653a2055524920717565727920666f72206040820152703737b732bc34b9ba32b73a103a37b5b2b760791b606082015260800190565b6020808252602c908201527f4552433732313a20617070726f76656420717565727920666f72206e6f6e657860408201526b34b9ba32b73a103a37b5b2b760a11b606082015260800190565b6020808252818101527f4f776e61626c653a2063616c6c6572206973206e6f7420746865206f776e6572604082015260600190565b602080825260069082015265596f7572277360d01b604082015260600190565b602080825260089082015267213c20312077656960c01b604082015260600190565b6020808252600a90820152692a3c103330b4b632b21760b11b604082015260600190565b6020808252602f908201527f4552433732314d657461646174613a2055524920717565727920666f72206e6f60408201526e3732bc34b9ba32b73a103a37b5b2b760891b606082015260800190565b60208082526021908201527f4552433732313a20617070726f76616c20746f2063757272656e74206f776e656040820152603960f91b606082015260800190565b6020808252601a908201527f5072696365206e6f74206571206c697374696e67207072696365000000000000604082015260600190565b60208082526024908201527f5072696365206d75737420626520657175616c20746f206c697374696e6720706040820152637269636560e01b606082015260800190565b60208082526031908201527f4552433732313a207472616e736665722063616c6c6572206973206e6f74206f6040820152701ddb995c881b9bdc88185c1c1c9bdd9959607a1b606082015260800190565b6020808252600a90820152695552492065786973747360b01b604082015260600190565b6020808252600e908201526d76616c756520213d20707269636560901b604082015260600190565b6020808252600890820152676e6f742073616c6560c01b604082015260600190565b6020808252600a90820152694e6f74206f776e65722160b01b604082015260600190565b60a08101610c078284612849565b81516001600160a01b031681526020918201519181019190915260400190565b90815260200190565b60006101408c83528060208401526131918184018d61281d565b905082810360408401526131a5818c61281d565b6001600160a01b039a8b1660608501529890991660808301525060a08101959095526001600160601b039390931660c085015290151560e0840152151561010083015261012090910152949350505050565b948552602085019390935260408401919091526001600160a01b03908116606084015216608082015260a00190565b600082198211156132395761323961331e565b500190565b60008261324d5761324d613334565b500490565b600081600019048311821515161561326c5761326c61331e565b500290565b6000828210156132835761328361331e565b500390565b60005b838110156132a357818101518382015260200161328b565b838111156113b35750506000910152565b6002810460018216806132c857607f821691505b602082108114156132e957634e487b7160e01b600052602260045260246000fd5b50919050565b60006000198214156133035761330361331e565b5060010190565b60008261331957613319613334565b500690565b634e487b7160e01b600052601160045260246000fd5b634e487b7160e01b600052601260045260246000fd5b634e487b7160e01b600052604160045260246000fd5b6001600160e01b0319811681146117af57600080fdfea26469706673582212207d46977451a0064a541484a777ce91946a1029a0a109128cd29e3a19a428c10964736f6c63430008010033",
  "immutableReferences": {},
  "source": "// SPDX-License-Identifier: MIT\npragma solidity >=0.4.22 <0.9.0;\n\nimport \"@openzeppelin/contracts/token/ERC721/extensions/ERC721URIStorage.sol\";\nimport \"@openzeppelin/contracts/utils/Counters.sol\";\nimport \"@openzeppelin/contracts/access/Ownable.sol\";\n\ncontract NftMarket is ERC721URIStorage, Ownable {\n    using Counters for Counters.Counter;\n\n    struct NftItem {\n        uint tokenId;\n        uint price;\n        address creator;\n        bool isListed;\n        bool isSold;\n    }\n\n    struct RoyaltyInfo {\n        address recipient;\n        uint256 amount;\n    }\n\n    mapping(uint256 => RoyaltyInfo) royaltyPerTokenId;\n\n    //Interface for royalties\n    bytes4 private constant _INTERFACE_ID_ERC2981 = 0x2a55205a;\n\n    string public baseTokenURI;\n\n    uint public listingPrice = 0.025 ether;\n\n    Counters.Counter private _listedItems;\n    Counters.Counter private _tokenIds;\n\n    mapping(string => bool) private _usedTokenURIs;\n    mapping(uint => NftItem) private _idToNftItem;\n\n    mapping(address => mapping(uint => uint)) private _ownedTokens;\n    mapping(uint => uint) private _idToOwnedIndex;\n\n    uint256[] private _allNfts;\n    mapping(uint => uint) private _idToNftIndex;\n\n    event NFT (\n        uint tokenId,\n        string tokenURI,\n        string nftName,\n        address creator,\n        address owner,\n        uint price,\n        uint96 royalty,\n        bool isListed,\n        bool isSold,\n        uint networkId\n    );\n    event NftBought (\n        uint tokenId,\n        uint price,\n        uint royaltyAmount,\n        address previousOwner,\n        address owner\n    );\n\n\n    constructor(string memory TokenName, string memory TokenSymbol) ERC721(TokenName, TokenSymbol) {}\n\n    function setListingPrice(uint newPrice) external onlyOwner {\n        require(newPrice > 0, \"!< 1 wei\");\n        listingPrice = newPrice;\n    }\n\n    function getNftItem(uint tokenId) public view returns (NftItem memory) {\n        return _idToNftItem[tokenId];\n    }\n\n    function listedItemsCount() public view returns (uint) {\n        return _listedItems.current();\n    }\n\n    function tokenURIExists(string memory tokenURI) public view returns (bool) {\n        return _usedTokenURIs[tokenURI] == true;\n    }\n\n    function totalSupply() public view returns (uint) {\n        return _allNfts.length;\n    }\n\n    function tokenByIndex(uint index) public view returns (uint) {\n        require(index < totalSupply(), \"Inx out\");\n        return _allNfts[index];\n    }\n\n    function tokenOfOwnerByIndex(address owner, uint index) public view returns (uint) {\n        require(index < ERC721.balanceOf(owner), \"Inx out\");\n        return _ownedTokens[owner][index];\n    }\n\n    function getAllNftsOnSale() public view returns (NftItem[] memory) {\n        uint allItemsCounts = totalSupply();\n        uint currentIndex = 0;\n        NftItem[] memory items = new NftItem[](_listedItems.current());\n\n        for (uint i = 0; i < allItemsCounts; i++) {\n            uint tokenId = tokenByIndex(i);\n            NftItem storage item = _idToNftItem[tokenId];\n\n            if (item.isListed == true) {\n                items[currentIndex] = item;\n                currentIndex += 1;\n            }\n        }\n        return items;\n    }\n\n    function getOwnedNfts() public view returns (NftItem[] memory) {\n        uint ownedItemsCount = ERC721.balanceOf(msg.sender);\n        NftItem[] memory items = new NftItem[](ownedItemsCount);\n\n        for (uint i = 0; i < ownedItemsCount; i++) {\n            uint tokenId = tokenOfOwnerByIndex(msg.sender, i);\n            NftItem storage item = _idToNftItem[tokenId];\n            items[i] = item;\n        }\n        return items;\n    }\n\n    function mintToken(\n        string memory tokenURI,\n        string memory nftName,\n        uint price,\n        uint96 royalty,\n        uint networkId\n    ) public payable returns (uint) {\n        require(!tokenURIExists(tokenURI), \"URI exists\");\n        require(msg.value == listingPrice, \"Price not eq listing price\");\n        _tokenIds.increment();\n        _listedItems.increment();\n\n        uint newTokenId = _tokenIds.current();\n        _idToNftItem[newTokenId].isSold = false;\n\n        _safeMint(msg.sender, newTokenId);\n        _setTokenURI(newTokenId, tokenURI);\n        _createNft(newTokenId, price);\n        setRoyalties(msg.sender, royalty, newTokenId);\n        _usedTokenURIs[tokenURI] = true;\n\n        emit NFT(\n            newTokenId,\n            tokenURI,\n            nftName,\n            msg.sender,\n            msg.sender,\n            price,\n            royalty,\n            true,\n            false,\n            networkId\n        );\n\n        return newTokenId;\n    }\n\n    function setRoyalties(address recipient, uint256 value, uint256 tokenId) public {\n        require(value <= 100, 'ERC2981Royalties: Too high');\n        royaltyPerTokenId[tokenId] = RoyaltyInfo(recipient, value);\n    }\n\n    function royaltyInfo(uint256 tokenId, uint256 value) external view returns (address receiver, uint256 royaltyAmount)\n    {\n        RoyaltyInfo memory royalties = royaltyPerTokenId[tokenId];\n        receiver = royalties.recipient;\n        royaltyAmount = (value * royalties.amount) / 100;\n    }\n\n\n    function getRoyaltyPerTokenId(uint256 tokenId) public view returns (RoyaltyInfo memory){\n        return royaltyPerTokenId[tokenId];\n    }\n\n    function changeRoyaltyPerTokenId(uint256 tokenId, uint96 royalty) public {\n        royaltyPerTokenId[tokenId].amount = royalty;\n    }\n\n    function _sentRoyaltyAmount(address creator, uint256 amount) private {\n        payable(creator).transfer(amount);\n    }\n\n    function buyNft(\n        uint tokenId\n    ) public payable {\n        uint price = _idToNftItem[tokenId].price;\n        address owner = ERC721.ownerOf(tokenId);\n        require(msg.sender != owner, \"Your's\");\n        require(msg.value == price, \"value != price\");\n\n        RoyaltyInfo memory royalties = royaltyPerTokenId[tokenId];\n        address creator = royalties.recipient;\n        uint256 royaltyAmount = (msg.value * royalties.amount) / 100;\n        _transfer(owner, msg.sender, tokenId);\n\n        if (_idToNftItem[tokenId].isSold) {\n            payable(owner).transfer(msg.value - royaltyAmount);\n            _sentRoyaltyAmount(creator, royaltyAmount);\n        } else {\n            uint priceWithRoyalty = _idToNftItem[tokenId].price + royaltyAmount;\n            _idToNftItem[tokenId].price = priceWithRoyalty;\n            payable(owner).transfer(msg.value);\n        }\n\n        _listedItems.decrement();\n        _idToNftItem[tokenId].isListed = false;\n        _idToNftItem[tokenId].isSold = true;\n\n        emit NftBought(tokenId, msg.value, royaltyAmount, owner, msg.sender);\n    }\n\n    function withdraw() external onlyOwner {\n        uint256 balance = address(this).balance;\n        require(balance > 0, \"Can't withdraw\");\n        (bool success,) = payable(owner()).call{value : balance}(\"\");\n        require(success, \"Tx failed.\");\n    }\n\n    function placeNftOnSale(uint tokenId, uint newPrice) public payable {\n        require(ERC721.ownerOf(tokenId) == msg.sender, \"You are not owner of this nft\");\n        require(_idToNftItem[tokenId].isListed == false, \"Item is already on sale\");\n        require(msg.value == listingPrice, \"Price must be equal to listing price\");\n\n        _idToNftItem[tokenId].isListed = true;\n        _idToNftItem[tokenId].price = newPrice;\n        _listedItems.increment();\n    }\n\n    function removeNftFromSale(uint tokenId) public {\n        require(ERC721.ownerOf(tokenId) == msg.sender, \"Not owner!\");\n        require(_idToNftItem[tokenId].isListed == true, \"not sale\");\n        _idToNftItem[tokenId].isListed = false;\n        _listedItems.decrement();\n    }\n\n    function setNewPrice(uint tokenId, uint price) public onlyOwner {\n        RoyaltyInfo memory royalties = royaltyPerTokenId[tokenId];\n        uint256 royaltyAmount = (price * royalties.amount) / 100;\n        if (_idToNftItem[tokenId].isSold) {\n            _idToNftItem[tokenId].price = price + royaltyAmount;\n        } else {\n            _idToNftItem[tokenId].price = price;\n        }\n\n    }\n\n    function _createNft(\n        uint tokenId,\n        uint price\n    ) private {\n        require(price > 0, \"!< 1 wei\");\n\n        _idToNftItem[tokenId] = NftItem(\n            tokenId,\n            price,\n            msg.sender,\n            true,\n            false\n        );\n    }\n\n    function _beforeTokenTransfer(\n        address from,\n        address to,\n        uint tokenId\n    ) internal virtual override {\n        super._beforeTokenTransfer(from, to, tokenId);\n\n        if (from == address(0)) {\n            _addTokenToAllTokensEnumeration(tokenId);\n        } else if (from != to) {\n            _removeTokenFromOwnerEnumeration(from, tokenId);\n        }\n\n        if (to == address(0)) {\n            _removeTokenFromAllTokensEnumeration(tokenId);\n        } else if (to != from) {\n            _addTokenToOwnerEnumeration(to, tokenId);\n        }\n    }\n\n    function _addTokenToAllTokensEnumeration(uint tokenId) private {\n        _idToNftIndex[tokenId] = _allNfts.length;\n        _allNfts.push(tokenId);\n    }\n\n    function _addTokenToOwnerEnumeration(address to, uint tokenId) private {\n        uint length = ERC721.balanceOf(to);\n        _ownedTokens[to][length] = tokenId;\n        _idToOwnedIndex[tokenId] = length;\n    }\n\n    function _removeTokenFromOwnerEnumeration(address from, uint tokenId) private {\n        uint lastTokenIndex = ERC721.balanceOf(from) - 1;\n        uint tokenIndex = _idToOwnedIndex[tokenId];\n\n        if (tokenIndex != lastTokenIndex) {\n            uint lastTokenId = _ownedTokens[from][lastTokenIndex];\n\n            _ownedTokens[from][tokenIndex] = lastTokenId;\n            _idToOwnedIndex[lastTokenId] = tokenIndex;\n        }\n\n        delete _idToOwnedIndex[tokenId];\n        delete _ownedTokens[from][lastTokenIndex];\n    }\n\n    function _removeTokenFromAllTokensEnumeration(uint tokenId) private {\n        uint lastTokenIndex = _allNfts.length - 1;\n        uint tokenIndex = _idToNftIndex[tokenId];\n        uint lastTokenId = _allNfts[lastTokenIndex];\n\n        _allNfts[tokenIndex] = lastTokenId;\n        _idToNftIndex[lastTokenId] = tokenIndex;\n\n        delete _idToNftIndex[tokenId];\n        _allNfts.pop();\n    }\n}\n",
  "sourcePath": "/home/igor/11_Ethereum/nft-marketplace-first/contracts/NftMarket.sol",
  "compiler": {
    "name": "solc",
    "version": "0.8.1+commit.df193b15.Emscripten.clang"
  },
  "schemaVersion": "3.4.9",
  "updatedAt": "2023-02-15T19:58:27.017Z",
  "devdoc": {
    "kind": "dev",
    "methods": {
      "approve(address,uint256)": {
        "details": "See {IERC721-approve}."
      },
      "balanceOf(address)": {
        "details": "See {IERC721-balanceOf}."
      },
      "getApproved(uint256)": {
        "details": "See {IERC721-getApproved}."
      },
      "isApprovedForAll(address,address)": {
        "details": "See {IERC721-isApprovedForAll}."
      },
      "name()": {
        "details": "See {IERC721Metadata-name}."
      },
      "owner()": {
        "details": "Returns the address of the current owner."
      },
      "ownerOf(uint256)": {
        "details": "See {IERC721-ownerOf}."
      },
      "renounceOwnership()": {
        "details": "Leaves the contract without owner. It will not be possible to call `onlyOwner` functions anymore. Can only be called by the current owner. NOTE: Renouncing ownership will leave the contract without an owner, thereby removing any functionality that is only available to the owner."
      },
      "safeTransferFrom(address,address,uint256)": {
        "details": "See {IERC721-safeTransferFrom}."
      },
      "safeTransferFrom(address,address,uint256,bytes)": {
        "details": "See {IERC721-safeTransferFrom}."
      },
      "setApprovalForAll(address,bool)": {
        "details": "See {IERC721-setApprovalForAll}."
      },
      "supportsInterface(bytes4)": {
        "details": "See {IERC165-supportsInterface}."
      },
      "symbol()": {
        "details": "See {IERC721Metadata-symbol}."
      },
      "tokenURI(uint256)": {
        "details": "See {IERC721Metadata-tokenURI}."
      },
      "transferFrom(address,address,uint256)": {
        "details": "See {IERC721-transferFrom}."
      },
      "transferOwnership(address)": {
        "details": "Transfers ownership of the contract to a new account (`newOwner`). Can only be called by the current owner."
      }
    },
    "version": 1
  },
  "userdoc": {
    "kind": "user",
    "methods": {},
    "version": 1
  }
}